{
  "_format": "hh-sol-artifact-1",
  "contractName": "ProjectRegistry",
  "sourceName": "contracts/ProjectRegistry.sol",
  "abi": [
    {
      "anonymous": false,
      "inputs": [
        {
          "indexed": true,
          "internalType": "uint64",
          "name": "id",
          "type": "uint64"
        },
        {
          "indexed": false,
          "internalType": "string",
          "name": "name",
          "type": "string"
        },
        {
          "indexed": true,
          "internalType": "address",
          "name": "owner",
          "type": "address"
        }
      ],
      "name": "ProjectRegistered",
      "type": "event"
    },
    {
      "inputs": [
        {
          "internalType": "uint64",
          "name": "id",
          "type": "uint64"
        }
      ],
      "name": "getProject",
      "outputs": [
        {
          "components": [
            {
              "internalType": "uint64",
              "name": "id",
              "type": "uint64"
            },
            {
              "internalType": "string",
              "name": "name",
              "type": "string"
            },
            {
              "internalType": "address",
              "name": "owner",
              "type": "address"
            },
            {
              "internalType": "string",
              "name": "description",
              "type": "string"
            },
            {
              "internalType": "uint256",
              "name": "createdAt",
              "type": "uint256"
            }
          ],
          "internalType": "struct ProjectRegistry.Project",
          "name": "",
          "type": "tuple"
        }
      ],
      "stateMutability": "view",
      "type": "function"
    },
    {
      "inputs": [],
      "name": "nextProjectId",
      "outputs": [
        {
          "internalType": "uint64",
          "name": "",
          "type": "uint64"
        }
      ],
      "stateMutability": "view",
      "type": "function"
    },
    {
      "inputs": [
        {
          "internalType": "uint64",
          "name": "id",
          "type": "uint64"
        }
      ],
      "name": "projectExists",
      "outputs": [
        {
          "internalType": "bool",
          "name": "",
          "type": "bool"
        }
      ],
      "stateMutability": "view",
      "type": "function"
    },
    {
      "inputs": [
        {
          "internalType": "uint64",
          "name": "",
          "type": "uint64"
        }
      ],
      "name": "projects",
      "outputs": [
        {
          "internalType": "uint64",
          "name": "id",
          "type": "uint64"
        },
        {
          "internalType": "string",
          "name": "name",
          "type": "string"
        },
        {
          "internalType": "address",
          "name": "owner",
          "type": "address"
        },
        {
          "internalType": "string",
          "name": "description",
          "type": "string"
        },
        {
          "internalType": "uint256",
          "name": "createdAt",
          "type": "uint256"
        }
      ],
      "stateMutability": "view",
      "type": "function"
    },
    {
      "inputs": [
        {
          "internalType": "string",
          "name": "name",
          "type": "string"
        },
        {
          "internalType": "string",
          "name": "description",
          "type": "string"
        }
      ],
      "name": "registerProject",
      "outputs": [
        {
          "internalType": "uint64",
          "name": "",
          "type": "uint64"
        }
      ],
      "stateMutability": "nonpayable",
      "type": "function"
    }
  ],
  "bytecode": "0x608060405260018060006101000a81548167ffffffffffffffff021916908367ffffffffffffffff16021790555034801561003957600080fd5b50610fd1806100496000396000f3fe608060405234801561001057600080fd5b50600436106100575760003560e01c80630963fe9b1461005c578063177b30101461008c5780634aa3a56d146100bc5780639d699a45146100f0578063e935b7b114610120575b600080fd5b61007660048036038101906100719190610795565b61013e565b60405161008391906107dd565b60405180910390f35b6100a660048036038101906100a1919061093e565b610192565b6040516100b391906109c5565b60405180910390f35b6100d660048036038101906100d19190610795565b610368565b6040516100e7959493929190610ab9565b60405180910390f35b61010a60048036038101906101059190610795565b6104e2565b6040516101179190610c0e565b60405180910390f35b6101286106d8565b60405161013591906109c5565b60405180910390f35b6000806000808467ffffffffffffffff1667ffffffffffffffff16815260200190815260200160002060000160009054906101000a900467ffffffffffffffff1667ffffffffffffffff1614159050919050565b600080600160009054906101000a900467ffffffffffffffff16905060006040518060a001604052808367ffffffffffffffff1681526020018681526020013373ffffffffffffffffffffffffffffffffffffffff168152602001858152602001428152509050806000808467ffffffffffffffff1667ffffffffffffffff16815260200190815260200160002060008201518160000160006101000a81548167ffffffffffffffff021916908367ffffffffffffffff16021790555060208201518160010190816102649190610e3c565b5060408201518160020160006101000a81548173ffffffffffffffffffffffffffffffffffffffff021916908373ffffffffffffffffffffffffffffffffffffffff16021790555060608201518160030190816102c19190610e3c565b50608082015181600401559050506001826102dc9190610f3d565b600160006101000a81548167ffffffffffffffff021916908367ffffffffffffffff1602179055503373ffffffffffffffffffffffffffffffffffffffff168267ffffffffffffffff167f491b85f95bbfa1ebdd2cbab823aaf1ded0c9c261b2fedff6c0e4a45e2df86334876040516103559190610f79565b60405180910390a3819250505092915050565b60006020528060005260406000206000915090508060000160009054906101000a900467ffffffffffffffff16908060010180546103a590610c5f565b80601f01602080910402602001604051908101604052809291908181526020018280546103d190610c5f565b801561041e5780601f106103f35761010080835404028352916020019161041e565b820191906000526020600020905b81548152906001019060200180831161040157829003601f168201915b5050505050908060020160009054906101000a900473ffffffffffffffffffffffffffffffffffffffff169080600301805461045990610c5f565b80601f016020809104026020016040519081016040528092919081815260200182805461048590610c5f565b80156104d25780601f106104a7576101008083540402835291602001916104d2565b820191906000526020600020905b8154815290600101906020018083116104b557829003601f168201915b5050505050908060040154905085565b6104ea6106f2565b6000808367ffffffffffffffff1667ffffffffffffffff1681526020019081526020016000206040518060a00160405290816000820160009054906101000a900467ffffffffffffffff1667ffffffffffffffff1667ffffffffffffffff16815260200160018201805461055d90610c5f565b80601f016020809104026020016040519081016040528092919081815260200182805461058990610c5f565b80156105d65780601f106105ab576101008083540402835291602001916105d6565b820191906000526020600020905b8154815290600101906020018083116105b957829003601f168201915b505050505081526020016002820160009054906101000a900473ffffffffffffffffffffffffffffffffffffffff1673ffffffffffffffffffffffffffffffffffffffff1673ffffffffffffffffffffffffffffffffffffffff16815260200160038201805461064590610c5f565b80601f016020809104026020016040519081016040528092919081815260200182805461067190610c5f565b80156106be5780601f10610693576101008083540402835291602001916106be565b820191906000526020600020905b8154815290600101906020018083116106a157829003601f168201915b505050505081526020016004820154815250509050919050565b600160009054906101000a900467ffffffffffffffff1681565b6040518060a00160405280600067ffffffffffffffff16815260200160608152602001600073ffffffffffffffffffffffffffffffffffffffff16815260200160608152602001600081525090565b6000604051905090565b600080fd5b600080fd5b600067ffffffffffffffff82169050919050565b61077281610755565b811461077d57600080fd5b50565b60008135905061078f81610769565b92915050565b6000602082840312156107ab576107aa61074b565b5b60006107b984828501610780565b91505092915050565b60008115159050919050565b6107d7816107c2565b82525050565b60006020820190506107f260008301846107ce565b92915050565b600080fd5b600080fd5b6000601f19601f8301169050919050565b7f4e487b7100000000000000000000000000000000000000000000000000000000600052604160045260246000fd5b61084b82610802565b810181811067ffffffffffffffff8211171561086a57610869610813565b5b80604052505050565b600061087d610741565b90506108898282610842565b919050565b600067ffffffffffffffff8211156108a9576108a8610813565b5b6108b282610802565b9050602081019050919050565b82818337600083830152505050565b60006108e16108dc8461088e565b610873565b9050828152602081018484840111156108fd576108fc6107fd565b5b6109088482856108bf565b509392505050565b600082601f830112610925576109246107f8565b5b81356109358482602086016108ce565b91505092915050565b600080604083850312156109555761095461074b565b5b600083013567ffffffffffffffff81111561097357610972610750565b5b61097f85828601610910565b925050602083013567ffffffffffffffff8111156109a05761099f610750565b5b6109ac85828601610910565b9150509250929050565b6109bf81610755565b82525050565b60006020820190506109da60008301846109b6565b92915050565b600081519050919050565b600082825260208201905092915050565b60005b83811015610a1a5780820151818401526020810190506109ff565b60008484015250505050565b6000610a31826109e0565b610a3b81856109eb565b9350610a4b8185602086016109fc565b610a5481610802565b840191505092915050565b600073ffffffffffffffffffffffffffffffffffffffff82169050919050565b6000610a8a82610a5f565b9050919050565b610a9a81610a7f565b82525050565b6000819050919050565b610ab381610aa0565b82525050565b600060a082019050610ace60008301886109b6565b8181036020830152610ae08187610a26565b9050610aef6040830186610a91565b8181036060830152610b018185610a26565b9050610b106080830184610aaa565b9695505050505050565b610b2381610755565b82525050565b600082825260208201905092915050565b6000610b45826109e0565b610b4f8185610b29565b9350610b5f8185602086016109fc565b610b6881610802565b840191505092915050565b610b7c81610a7f565b82525050565b610b8b81610aa0565b82525050565b600060a083016000830151610ba96000860182610b1a565b5060208301518482036020860152610bc18282610b3a565b9150506040830151610bd66040860182610b73565b5060608301518482036060860152610bee8282610b3a565b9150506080830151610c036080860182610b82565b508091505092915050565b60006020820190508181036000830152610c288184610b91565b905092915050565b7f4e487b7100000000000000000000000000000000000000000000000000000000600052602260045260246000fd5b60006002820490506001821680610c7757607f821691505b602082108103610c8a57610c89610c30565b5b50919050565b60008190508160005260206000209050919050565b60006020601f8301049050919050565b600082821b905092915050565b600060088302610cf27fffffffffffffffffffffffffffffffffffffffffffffffffffffffffffffffff82610cb5565b610cfc8683610cb5565b95508019841693508086168417925050509392505050565b6000819050919050565b6000610d39610d34610d2f84610aa0565b610d14565b610aa0565b9050919050565b6000819050919050565b610d5383610d1e565b610d67610d5f82610d40565b848454610cc2565b825550505050565b600090565b610d7c610d6f565b610d87818484610d4a565b505050565b5b81811015610dab57610da0600082610d74565b600181019050610d8d565b5050565b601f821115610df057610dc181610c90565b610dca84610ca5565b81016020851015610dd9578190505b610ded610de585610ca5565b830182610d8c565b50505b505050565b600082821c905092915050565b6000610e1360001984600802610df5565b1980831691505092915050565b6000610e2c8383610e02565b9150826002028217905092915050565b610e45826109e0565b67ffffffffffffffff811115610e5e57610e5d610813565b5b610e688254610c5f565b610e73828285610daf565b600060209050601f831160018114610ea65760008415610e94578287015190505b610e9e8582610e20565b865550610f06565b601f198416610eb486610c90565b60005b82811015610edc57848901518255600182019150602085019450602081019050610eb7565b86831015610ef95784890151610ef5601f891682610e02565b8355505b6001600288020188555050505b505050505050565b7f4e487b7100000000000000000000000000000000000000000000000000000000600052601160045260246000fd5b6000610f4882610755565b9150610f5383610755565b9250828201905067ffffffffffffffff811115610f7357610f72610f0e565b5b92915050565b60006020820190508181036000830152610f938184610a26565b90509291505056fea264697066735822122029426cbf62d63b24b1cca85080293c337caed2845ed0f6c2df7a8ce406fd6d6e64736f6c63430008130033",
  "linkReferences": {},
  "deployedLinkReferences": {}
}