{
  "_format": "hh-sol-artifact-1",
  "contractName": "PredictionMarket",
  "sourceName": "contracts/PredictionMarket.sol",
  "abi": [
    {
      "inputs": [
        {
          "internalType": "uint256[]",
          "name": "_livestreamIds",
          "type": "uint256[]"
        },
        {
          "internalType": "string",
          "name": "_question",
          "type": "string"
        },
        {
          "internalType": "string[]",
          "name": "_livestreamTitles",
          "type": "string[]"
        },
        {
          "internalType": "address",
          "name": "_oracle",
          "type": "address"
        }
      ],
      "stateMutability": "nonpayable",
      "type": "constructor"
    },
    {
      "anonymous": false,
      "inputs": [
        {
          "indexed": true,
          "internalType": "address",
          "name": "user",
          "type": "address"
        },
        {
          "indexed": false,
          "internalType": "enum PredictionMarket.Side",
          "name": "side",
          "type": "uint8"
        },
        {
          "indexed": false,
          "internalType": "uint256",
          "name": "amount",
          "type": "uint256"
        },
        {
          "indexed": false,
          "internalType": "uint256",
          "name": "timestamp",
          "type": "uint256"
        }
      ],
      "name": "BetPlaced",
      "type": "event"
    },
    {
      "anonymous": false,
      "inputs": [
        {
          "indexed": true,
          "internalType": "uint256",
          "name": "livestreamId",
          "type": "uint256"
        },
        {
          "indexed": false,
          "internalType": "string",
          "name": "title",
          "type": "string"
        }
      ],
      "name": "LivestreamAdded",
      "type": "event"
    },
    {
      "anonymous": false,
      "inputs": [
        {
          "indexed": true,
          "internalType": "uint256",
          "name": "livestreamId",
          "type": "uint256"
        }
      ],
      "name": "LivestreamRemoved",
      "type": "event"
    },
    {
      "anonymous": false,
      "inputs": [
        {
          "indexed": false,
          "internalType": "uint256",
          "name": "timestamp",
          "type": "uint256"
        }
      ],
      "name": "MarketClosed",
      "type": "event"
    },
    {
      "anonymous": false,
      "inputs": [
        {
          "indexed": false,
          "internalType": "enum PredictionMarket.Side",
          "name": "outcome",
          "type": "uint8"
        },
        {
          "indexed": false,
          "internalType": "uint256",
          "name": "timestamp",
          "type": "uint256"
        }
      ],
      "name": "MarketResolved",
      "type": "event"
    },
    {
      "anonymous": false,
      "inputs": [
        {
          "indexed": true,
          "internalType": "address",
          "name": "user",
          "type": "address"
        },
        {
          "indexed": false,
          "internalType": "uint256",
          "name": "amount",
          "type": "uint256"
        },
        {
          "indexed": false,
          "internalType": "uint256",
          "name": "timestamp",
          "type": "uint256"
        }
      ],
      "name": "PayoutClaimed",
      "type": "event"
    },
    {
      "inputs": [
        {
          "internalType": "uint256",
          "name": "_livestreamId",
          "type": "uint256"
        },
        {
          "internalType": "string",
          "name": "_title",
          "type": "string"
        }
      ],
      "name": "addLivestream",
      "outputs": [],
      "stateMutability": "nonpayable",
      "type": "function"
    },
    {
      "inputs": [
        {
          "internalType": "address",
          "name": "",
          "type": "address"
        },
        {
          "internalType": "uint8",
          "name": "",
          "type": "uint8"
        }
      ],
      "name": "bets",
      "outputs": [
        {
          "internalType": "uint256",
          "name": "",
          "type": "uint256"
        }
      ],
      "stateMutability": "view",
      "type": "function"
    },
    {
      "inputs": [
        {
          "internalType": "uint256",
          "name": "",
          "type": "uint256"
        }
      ],
      "name": "bettors",
      "outputs": [
        {
          "internalType": "address",
          "name": "",
          "type": "address"
        }
      ],
      "stateMutability": "view",
      "type": "function"
    },
    {
      "inputs": [
        {
          "internalType": "address",
          "name": "newOracle",
          "type": "address"
        }
      ],
      "name": "changeOracle",
      "outputs": [],
      "stateMutability": "nonpayable",
      "type": "function"
    },
    {
      "inputs": [],
      "name": "claimPayout",
      "outputs": [],
      "stateMutability": "nonpayable",
      "type": "function"
    },
    {
      "inputs": [],
      "name": "closeMarket",
      "outputs": [],
      "stateMutability": "nonpayable",
      "type": "function"
    },
    {
      "inputs": [],
      "name": "closedAt",
      "outputs": [
        {
          "internalType": "uint256",
          "name": "",
          "type": "uint256"
        }
      ],
      "stateMutability": "view",
      "type": "function"
    },
    {
      "inputs": [],
      "name": "createdAt",
      "outputs": [
        {
          "internalType": "uint256",
          "name": "",
          "type": "uint256"
        }
      ],
      "stateMutability": "view",
      "type": "function"
    },
    {
      "inputs": [],
      "name": "emergencyClose",
      "outputs": [],
      "stateMutability": "nonpayable",
      "type": "function"
    },
    {
      "inputs": [],
      "name": "factory",
      "outputs": [
        {
          "internalType": "address",
          "name": "",
          "type": "address"
        }
      ],
      "stateMutability": "view",
      "type": "function"
    },
    {
      "inputs": [],
      "name": "getAllLivestreamData",
      "outputs": [
        {
          "internalType": "uint256[]",
          "name": "ids",
          "type": "uint256[]"
        },
        {
          "internalType": "string[]",
          "name": "titles",
          "type": "string[]"
        },
        {
          "internalType": "bool[]",
          "name": "activeStates",
          "type": "bool[]"
        },
        {
          "internalType": "uint256[]",
          "name": "addedTimes",
          "type": "uint256[]"
        }
      ],
      "stateMutability": "view",
      "type": "function"
    },
    {
      "inputs": [],
      "name": "getAllLivestreamIds",
      "outputs": [
        {
          "internalType": "uint256[]",
          "name": "",
          "type": "uint256[]"
        }
      ],
      "stateMutability": "view",
      "type": "function"
    },
    {
      "inputs": [
        {
          "internalType": "uint256",
          "name": "offset",
          "type": "uint256"
        },
        {
          "internalType": "uint256",
          "name": "limit",
          "type": "uint256"
        }
      ],
      "name": "getBettorsList",
      "outputs": [
        {
          "internalType": "address[]",
          "name": "",
          "type": "address[]"
        }
      ],
      "stateMutability": "view",
      "type": "function"
    },
    {
      "inputs": [],
      "name": "getLivestreamCount",
      "outputs": [
        {
          "internalType": "uint256",
          "name": "",
          "type": "uint256"
        }
      ],
      "stateMutability": "view",
      "type": "function"
    },
    {
      "inputs": [
        {
          "internalType": "uint256",
          "name": "_livestreamId",
          "type": "uint256"
        }
      ],
      "name": "getLivestreamData",
      "outputs": [
        {
          "internalType": "uint256",
          "name": "id",
          "type": "uint256"
        },
        {
          "internalType": "string",
          "name": "title",
          "type": "string"
        },
        {
          "internalType": "bool",
          "name": "active",
          "type": "bool"
        },
        {
          "internalType": "uint256",
          "name": "addedAt",
          "type": "uint256"
        }
      ],
      "stateMutability": "view",
      "type": "function"
    },
    {
      "inputs": [],
      "name": "getMarketInfo",
      "outputs": [
        {
          "internalType": "uint256[]",
          "name": "_livestreamIds",
          "type": "uint256[]"
        },
        {
          "internalType": "string",
          "name": "_question",
          "type": "string"
        },
        {
          "internalType": "string[]",
          "name": "_livestreamTitles",
          "type": "string[]"
        },
        {
          "internalType": "enum PredictionMarket.State",
          "name": "_state",
          "type": "uint8"
        },
        {
          "internalType": "enum PredictionMarket.Side",
          "name": "_outcome",
          "type": "uint8"
        },
        {
          "internalType": "uint256",
          "name": "_yesBets",
          "type": "uint256"
        },
        {
          "internalType": "uint256",
          "name": "_noBets",
          "type": "uint256"
        },
        {
          "internalType": "uint256",
          "name": "_totalPool",
          "type": "uint256"
        },
        {
          "internalType": "uint256",
          "name": "_totalBettors",
          "type": "uint256"
        },
        {
          "internalType": "uint256",
          "name": "_createdAt",
          "type": "uint256"
        },
        {
          "internalType": "uint256",
          "name": "_closedAt",
          "type": "uint256"
        },
        {
          "internalType": "uint256",
          "name": "_resolvedAt",
          "type": "uint256"
        }
      ],
      "stateMutability": "view",
      "type": "function"
    },
    {
      "inputs": [],
      "name": "getOdds",
      "outputs": [
        {
          "internalType": "uint256",
          "name": "yesOdds",
          "type": "uint256"
        },
        {
          "internalType": "uint256",
          "name": "noOdds",
          "type": "uint256"
        }
      ],
      "stateMutability": "view",
      "type": "function"
    },
    {
      "inputs": [
        {
          "internalType": "address",
          "name": "user",
          "type": "address"
        },
        {
          "internalType": "enum PredictionMarket.Side",
          "name": "side",
          "type": "uint8"
        }
      ],
      "name": "getPotentialPayout",
      "outputs": [
        {
          "internalType": "uint256",
          "name": "",
          "type": "uint256"
        }
      ],
      "stateMutability": "view",
      "type": "function"
    },
    {
      "inputs": [
        {
          "internalType": "address",
          "name": "user",
          "type": "address"
        }
      ],
      "name": "getUserBets",
      "outputs": [
        {
          "internalType": "uint256",
          "name": "yesBets",
          "type": "uint256"
        },
        {
          "internalType": "uint256",
          "name": "noBets",
          "type": "uint256"
        }
      ],
      "stateMutability": "view",
      "type": "function"
    },
    {
      "inputs": [
        {
          "internalType": "address",
          "name": "",
          "type": "address"
        }
      ],
      "name": "hasBet",
      "outputs": [
        {
          "internalType": "bool",
          "name": "",
          "type": "bool"
        }
      ],
      "stateMutability": "view",
      "type": "function"
    },
    {
      "inputs": [
        {
          "internalType": "uint256",
          "name": "_livestreamId",
          "type": "uint256"
        }
      ],
      "name": "isLivestreamInMarket",
      "outputs": [
        {
          "internalType": "bool",
          "name": "",
          "type": "bool"
        }
      ],
      "stateMutability": "view",
      "type": "function"
    },
    {
      "inputs": [
        {
          "internalType": "uint256",
          "name": "",
          "type": "uint256"
        }
      ],
      "name": "livestreamIds",
      "outputs": [
        {
          "internalType": "uint256",
          "name": "",
          "type": "uint256"
        }
      ],
      "stateMutability": "view",
      "type": "function"
    },
    {
      "inputs": [
        {
          "internalType": "uint256",
          "name": "",
          "type": "uint256"
        }
      ],
      "name": "livestreams",
      "outputs": [
        {
          "internalType": "uint256",
          "name": "id",
          "type": "uint256"
        },
        {
          "internalType": "string",
          "name": "title",
          "type": "string"
        },
        {
          "internalType": "bool",
          "name": "active",
          "type": "bool"
        },
        {
          "internalType": "uint256",
          "name": "addedAt",
          "type": "uint256"
        }
      ],
      "stateMutability": "view",
      "type": "function"
    },
    {
      "inputs": [],
      "name": "oracle",
      "outputs": [
        {
          "internalType": "address",
          "name": "",
          "type": "address"
        }
      ],
      "stateMutability": "view",
      "type": "function"
    },
    {
      "inputs": [],
      "name": "outcome",
      "outputs": [
        {
          "internalType": "enum PredictionMarket.Side",
          "name": "",
          "type": "uint8"
        }
      ],
      "stateMutability": "view",
      "type": "function"
    },
    {
      "inputs": [
        {
          "internalType": "enum PredictionMarket.Side",
          "name": "side",
          "type": "uint8"
        }
      ],
      "name": "placeBet",
      "outputs": [],
      "stateMutability": "payable",
      "type": "function"
    },
    {
      "inputs": [],
      "name": "question",
      "outputs": [
        {
          "internalType": "string",
          "name": "",
          "type": "string"
        }
      ],
      "stateMutability": "view",
      "type": "function"
    },
    {
      "inputs": [
        {
          "internalType": "uint256",
          "name": "_livestreamId",
          "type": "uint256"
        }
      ],
      "name": "removeLivestream",
      "outputs": [],
      "stateMutability": "nonpayable",
      "type": "function"
    },
    {
      "inputs": [
        {
          "internalType": "enum PredictionMarket.Side",
          "name": "_outcome",
          "type": "uint8"
        }
      ],
      "name": "resolveMarket",
      "outputs": [],
      "stateMutability": "nonpayable",
      "type": "function"
    },
    {
      "inputs": [],
      "name": "resolvedAt",
      "outputs": [
        {
          "internalType": "uint256",
          "name": "",
          "type": "uint256"
        }
      ],
      "stateMutability": "view",
      "type": "function"
    },
    {
      "inputs": [],
      "name": "state",
      "outputs": [
        {
          "internalType": "enum PredictionMarket.State",
          "name": "",
          "type": "uint8"
        }
      ],
      "stateMutability": "view",
      "type": "function"
    },
    {
      "inputs": [
        {
          "internalType": "uint8",
          "name": "",
          "type": "uint8"
        }
      ],
      "name": "totalBets",
      "outputs": [
        {
          "internalType": "uint256",
          "name": "",
          "type": "uint256"
        }
      ],
      "stateMutability": "view",
      "type": "function"
    },
    {
      "inputs": [],
      "name": "totalBettors",
      "outputs": [
        {
          "internalType": "uint256",
          "name": "",
          "type": "uint256"
        }
      ],
      "stateMutability": "view",
      "type": "function"
    },
    {
      "inputs": [],
      "name": "totalPool",
      "outputs": [
        {
          "internalType": "uint256",
          "name": "",
          "type": "uint256"
        }
      ],
      "stateMutability": "view",
      "type": "function"
    }
  ],
  "bytecode": "0x60806040523480156200001157600080fd5b5060405162002cc938038062002cc983398101604081905262000034916200043c565b81518451146200007f5760405162461bcd60e51b81526020600482015260116024820152704d69736d6174636865642061727261797360781b60448201526064015b60405180910390fd5b60026200008d8482620005cc565b50600380546001600160a01b0319166001600160a01b038316179055600480546001600160a81b0319163360ff60a01b19161790554260055560005b84518110156200027e576000858281518110620000ea57620000ea62000698565b6020026020010151905080600003620001465760405162461bcd60e51b815260206004820152601560248201527f496e76616c6964206c69766573747265616d2049440000000000000000000000604482015260640162000076565b60008181526020819052604090206002015460ff1615620001aa5760405162461bcd60e51b815260206004820152601960248201527f4c69766573747265616d20616c72656164792065786973747300000000000000604482015260640162000076565b6040518060800160405280828152602001858481518110620001d057620001d062000698565b602090810291909101810151825260018282018190524260409384015260008581528083529290922083518155908301519091820190620002129082620005cc565b50604082015160028201805460ff19169115159190911790556060909101516003909101556001805480820182556000919091527fb10e2d527612073b26eecdfd717e6a320cf44b4afac2b0732d9fcbe2b7fa0cf60155806200027581620006ae565b915050620000c9565b5050505050620006d6565b634e487b7160e01b600052604160045260246000fd5b604051601f8201601f191681016001600160401b0381118282101715620002ca57620002ca62000289565b604052919050565b60006001600160401b03821115620002ee57620002ee62000289565b5060051b60200190565b600082601f8301126200030a57600080fd5b81516001600160401b0381111562000326576200032662000289565b60206200033c601f8301601f191682016200029f565b82815285828487010111156200035157600080fd5b60005b838110156200037157858101830151828201840152820162000354565b506000928101909101919091529392505050565b600082601f8301126200039757600080fd5b81516020620003b0620003aa83620002d2565b6200029f565b82815260059290921b84018101918181019086841115620003d057600080fd5b8286015b84811015620004145780516001600160401b03811115620003f55760008081fd5b620004058986838b0101620002f8565b845250918301918301620003d4565b509695505050505050565b80516001600160a01b03811681146200043757600080fd5b919050565b600080600080608085870312156200045357600080fd5b84516001600160401b03808211156200046b57600080fd5b818701915087601f8301126200048057600080fd5b8151602062000493620003aa83620002d2565b82815260059290921b8401810191818101908b841115620004b357600080fd5b948201945b83861015620004d357855182529482019490820190620004b8565b918a0151919850909350505080821115620004ed57600080fd5b620004fb88838901620002f8565b945060408701519150808211156200051257600080fd5b50620005218782880162000385565b92505062000532606086016200041f565b905092959194509250565b600181811c908216806200055257607f821691505b6020821081036200057357634e487b7160e01b600052602260045260246000fd5b50919050565b601f821115620005c757600081815260208120601f850160051c81016020861015620005a25750805b601f850160051c820191505b81811015620005c357828155600101620005ae565b5050505b505050565b81516001600160401b03811115620005e857620005e862000289565b6200060081620005f984546200053d565b8462000579565b602080601f8311600181146200063857600084156200061f5750858301515b600019600386901b1c1916600185901b178555620005c3565b600085815260208120601f198616915b82811015620006695788860151825594840194600190910190840162000648565b5085821015620006885787850151600019600388901b60f8161c191681555b5050505050600190811b01905550565b634e487b7160e01b600052603260045260246000fd5b600060018201620006cf57634e487b7160e01b600052601160045260246000fd5b5060010190565b6125e380620006e66000396000f3fe6080604052600436106101f95760003560e01c80637dc0d1d01161010d578063c8c3316b116100a0578063ecfb49a31161006f578063ecfb49a314610653578063f21ffa6b14610669578063f5bbcd2a14610689578063f66260421461069f578063f6767adf146106bf57600080fd5b8063c8c3316b146105db578063cf09e0d014610608578063d2b2e9731461061e578063e88499a91461063e57600080fd5b8063b72c923e116100dc578063b72c923e14610558578063c19d93fb14610578578063c45a0155146105a6578063c511ed5e146105c657600080fd5b80637dc0d1d0146104e857806396d77875146105085780639ef27b001461052d578063a9cc9ae91461054357600080fd5b80633482b644116101905780634b4c4aa51161015f5780634b4c4aa5146104195780634bad5deb1461043b5780634c5be5741461046e5780634d729d111461048357806353288a16146104b057600080fd5b80633482b6441461038a5780633fad9ae0146103c257806343046844146103e457806347c421b5146103f957600080fd5b806323341a05116101cc57806323341a05146102bb57806327793f87146102e85780632d56657d146103165780633461b5b61461037557600080fd5b806301e5c96e146101fe578063136f10161461023757806319effeb41461027757806321a039b21461029b575b600080fd5b34801561020a57600080fd5b5061021e610219366004611e0c565b6106df565b60405161022e9493929190611e6b565b60405180910390f35b34801561024357600080fd5b50610267610252366004611eb3565b600b6020526000908152604090205460ff1681565b604051901515815260200161022e565b34801561028357600080fd5b5061028d60075481565b60405190815260200161022e565b3480156102a757600080fd5b5061028d6102b6366004611ee4565b610794565b3480156102c757600080fd5b506102d061087c565b60405161022e9c9b9a99989796959493929190611fe4565b3480156102f457600080fd5b5060045461030990600160a81b900460ff1681565b60405161022e9190612079565b34801561032257600080fd5b50610360610331366004611eb3565b6001600160a01b0316600090815260086020908152604080832083805290915280822054600183529120549091565b6040805192835260208301919091520161022e565b34801561038157600080fd5b5060015461028d565b34801561039657600080fd5b506103aa6103a5366004611e0c565b610b6c565b6040516001600160a01b03909116815260200161022e565b3480156103ce57600080fd5b506103d7610b96565b60405161022e9190612087565b6103f76103f236600461209a565b610c24565b005b34801561040557600080fd5b506103f7610414366004611eb3565b610e18565b34801561042557600080fd5b5061042e610eac565b60405161022e91906120b5565b34801561044757600080fd5b50610267610456366004611e0c565b60009081526020819052604090206002015460ff1690565b34801561047a57600080fd5b50610360610f04565b34801561048f57600080fd5b506104a361049e3660046120c8565b610fcf565b60405161022e91906120ea565b3480156104bc57600080fd5b5061028d6104cb366004612148565b600860209081526000928352604080842090915290825290205481565b3480156104f457600080fd5b506003546103aa906001600160a01b031681565b34801561051457600080fd5b5061051d611108565b60405161022e9493929190612172565b34801561053957600080fd5b5061028d60065481565b34801561054f57600080fd5b506103f76113e5565b34801561056457600080fd5b5061028d610573366004611e0c565b6114bb565b34801561058457600080fd5b5060045461059990600160a01b900460ff1681565b60405161022e91906121f0565b3480156105b257600080fd5b506004546103aa906001600160a01b031681565b3480156105d257600080fd5b506103f76114dc565b3480156105e757600080fd5b5061028d6105f63660046121fe565b60096020526000908152604090205481565b34801561061457600080fd5b5061028d60055481565b34801561062a57600080fd5b5061021e610639366004611e0c565b6115f6565b34801561064a57600080fd5b506103f76116f6565b34801561065f57600080fd5b5061028d600a5481565b34801561067557600080fd5b506103f761068436600461209a565b61196b565b34801561069557600080fd5b5061028d600d5481565b3480156106ab57600080fd5b506103f76106ba36600461222f565b611a53565b3480156106cb57600080fd5b506103f76106da366004611e0c565b611c44565b60006020819052908152604090208054600182018054919291610701906122ea565b80601f016020809104026020016040519081016040528092919081815260200182805461072d906122ea565b801561077a5780601f1061074f5761010080835404028352916020019161077a565b820191906000526020600020905b81548152906001019060200180831161075d57829003601f168201915b505050506002830154600390930154919260ff1691905084565b600080600454600160a01b900460ff1660028111156107b5576107b5611faa565b146107c257506000610876565b6001600160a01b0383166000908152600860205260408120818460018111156107ed576107ed611faa565b60ff1660ff16815260200190815260200160002054905080600003610816576000915050610876565b60006009600085600181111561082e5761082e611faa565b60ff1660ff1681526020019081526020016000205490508060000361085857600092505050610876565b80600a5483610867919061233a565b6108719190612351565b925050505b92915050565b606080606060008060008060008060008060008060018054905067ffffffffffffffff8111156108ae576108ae612219565b6040519080825280602002602001820160405280156108e157816020015b60608152602001906001900390816108cc5790505b50905060005b6001548110156109dc576000806001838154811061090757610907612373565b90600052602060002001548152602001908152602001600020600101805461092e906122ea565b80601f016020809104026020016040519081016040528092919081815260200182805461095a906122ea565b80156109a75780601f1061097c576101008083540402835291602001916109a7565b820191906000526020600020905b81548152906001019060200180831161098a57829003601f168201915b50505050508282815181106109be576109be612373565b602002602001018190525080806109d490612389565b9150506108e7565b50600454600960209081527fec8156718a8372b1db44bb411437d0870f3e3790d4a08526d024ce1b0b668f6b54600160008190527f92e85d02570a8092d09a6e3a57665bc3815a2699a4074001bf1ccabf660f5a3654600a54600d54600554600654600754865460408051828c0281018c01909152818152979a60029a8d9a60ff600160a01b840481169b600160a81b90940416999098909790969095909490939092918e9190830182828015610ab257602002820191906000526020600020905b815481526020019060010190808311610a9e575b50505050509b508a8054610ac5906122ea565b80601f0160208091040260200160405190810160405280929190818152602001828054610af1906122ea565b8015610b3e5780601f10610b1357610100808354040283529160200191610b3e565b820191906000526020600020905b815481529060010190602001808311610b2157829003601f168201915b50505050509a509c509c509c509c509c509c509c509c509c509c509c509c5050909192939495969798999a9b565b600c8181548110610b7c57600080fd5b6000918252602090912001546001600160a01b0316905081565b60028054610ba3906122ea565b80601f0160208091040260200160405190810160405280929190818152602001828054610bcf906122ea565b8015610c1c5780601f10610bf157610100808354040283529160200191610c1c565b820191906000526020600020905b815481529060010190602001808311610bff57829003601f168201915b505050505081565b600080600454600160a01b900460ff166002811115610c4557610c45611faa565b14610c6b5760405162461bcd60e51b8152600401610c62906123a2565b60405180910390fd5b60003411610cab5760405162461bcd60e51b815260206004820152600d60248201526c09aeae6e840e6cadcc8408aa89609b1b6044820152606401610c62565b336000908152600b602052604090205460ff16610d3257336000818152600b60205260408120805460ff19166001908117909155600c8054918201815582527fdf6966c971051c3d54ec59162606531493a51404a002842f56009d7e5cf4a8c70180546001600160a01b031916909217909155600d805491610d2c83612389565b91905055505b3360009081526008602052604081203491846001811115610d5557610d55611faa565b60ff1660ff1681526020019081526020016000206000828254610d7891906123c9565b9091555034905060096000846001811115610d9557610d95611faa565b60ff1660ff1681526020019081526020016000206000828254610db891906123c9565b9250508190555034600a6000828254610dd191906123c9565b909155505060405133907f8d3970b91d4f8dbb1a8368398f1ac8bdd7a7fb5682c8360b7396214f65d7e55f90610e0c908590349042906123dc565b60405180910390a25050565b6003546001600160a01b03163314610e425760405162461bcd60e51b8152600401610c62906123fb565b6001600160a01b038116610e8a5760405162461bcd60e51b815260206004820152600f60248201526e496e76616c6964206164647265737360881b6044820152606401610c62565b600380546001600160a01b0319166001600160a01b0392909216919091179055565b60606001805480602002602001604051908101604052809291908181526020018280548015610efa57602002820191906000526020600020905b815481526020019060010190808311610ee6575b5050505050905090565b600080600a54600003610f1a5750606491829150565b60096020527fec8156718a8372b1db44bb411437d0870f3e3790d4a08526d024ce1b0b668f6b54600160009081527f92e85d02570a8092d09a6e3a57665bc3815a2699a4074001bf1ccabf660f5a365490829003610f7f575060009360c89350915050565b80600003610f94575060c89360009350915050565b600a54610fa283606461233a565b610fac9190612351565b600a54909450610fbd82606461233a565b610fc79190612351565b925050509091565b600c54606090831061101a5760405162461bcd60e51b81526020600482015260146024820152734f6666736574206f7574206f6620626f756e647360601b6044820152606401610c62565b600061102683856123c9565b600c549091508111156110385750600c545b6000611044858361241f565b67ffffffffffffffff81111561105c5761105c612219565b604051908082528060200260200182016040528015611085578160200160208202803683370190505b509050845b828110156110ff57600c81815481106110a5576110a5612373565b6000918252602090912001546001600160a01b0316826110c5888461241f565b815181106110d5576110d5612373565b6001600160a01b0390921660209283029190910190910152806110f781612389565b91505061108a565b50949350505050565b6001546060908190819081908067ffffffffffffffff81111561112d5761112d612219565b604051908082528060200260200182016040528015611156578160200160208202803683370190505b5094508067ffffffffffffffff81111561117257611172612219565b6040519080825280602002602001820160405280156111a557816020015b60608152602001906001900390816111905790505b5093508067ffffffffffffffff8111156111c1576111c1612219565b6040519080825280602002602001820160405280156111ea578160200160208202803683370190505b5092508067ffffffffffffffff81111561120657611206612219565b60405190808252806020026020018201604052801561122f578160200160208202803683370190505b50915060005b818110156113dd5760006001828154811061125257611252612373565b90600052602060002001549050600080600083815260200190815260200160002060405180608001604052908160008201548152602001600182018054611298906122ea565b80601f01602080910402602001604051908101604052809291908181526020018280546112c4906122ea565b80156113115780601f106112e657610100808354040283529160200191611311565b820191906000526020600020905b8154815290600101906020018083116112f457829003601f168201915b5050509183525050600282015460ff1615156020820152600390910154604090910152805189519192509089908590811061134e5761134e612373565b602002602001018181525050806020015187848151811061137157611371612373565b6020026020010181905250806040015186848151811061139357611393612373565b60200260200101901515908115158152505080606001518584815181106113bc576113bc612373565b602002602001018181525050505080806113d590612389565b915050611235565b505090919293565b6003546001600160a01b0316331461140f5760405162461bcd60e51b8152600401610c62906123fb565b6000600454600160a01b900460ff16600281111561142f5761142f611faa565b1461146e5760405162461bcd60e51b815260206004820152600f60248201526e26b0b935b2ba103737ba1037b832b760891b6044820152606401610c62565b6004805460ff60a01b1916600160a01b17905542600681905560408051918252517f9dc30b8eda31a6a144e092e5de600955523a6a925cc15cc1d1b9b4872cfa61559181900360200190a1565b600181815481106114cb57600080fd5b600091825260209091200154905081565b6003546001600160a01b031633146115065760405162461bcd60e51b8152600401610c62906123fb565b600080600454600160a01b900460ff16600281111561152757611527611faa565b146115445760405162461bcd60e51b8152600401610c62906123a2565b60048054600160a01b60ff60a01b198216178255426006556040516355ef017760e11b81526001600160a01b039091169163abde02ee916115889160019101612432565b600060405180830381600087803b1580156115a257600080fd5b505af11580156115b6573d6000803e3d6000fd5b505050507f9dc30b8eda31a6a144e092e5de600955523a6a925cc15cc1d1b9b4872cfa6155426040516115eb91815260200190565b60405180910390a150565b60006060600080600080600087815260200190815260200160002060405180608001604052908160008201548152602001600182018054611636906122ea565b80601f0160208091040260200160405190810160405280929190818152602001828054611662906122ea565b80156116af5780601f10611684576101008083540402835291602001916116af565b820191906000526020600020905b81548152906001019060200180831161169257829003601f168201915b5050509183525050600282015460ff161515602080830191909152600390920154604091820152825191830151908301516060909301519199909850919650945092505050565b600280600454600160a01b900460ff16600281111561171757611717611faa565b146117345760405162461bcd60e51b8152600401610c62906123a2565b3360009081526008602052604081206004548290600160a81b900460ff16600181111561176357611763611faa565b60ff1660ff168152602001908152602001600020549050600081116117bb5760405162461bcd60e51b815260206004820152600e60248201526d139bc81dda5b9b9a5b99c818995d60921b6044820152606401610c62565b600060096000600460159054906101000a900460ff1660018111156117e2576117e2611faa565b60ff1660ff1681526020019081526020016000205490506000811161183b5760405162461bcd60e51b815260206004820152600f60248201526e4e6f2077696e6e696e67206265747360881b6044820152606401610c62565b600081600a548461184c919061233a565b6118569190612351565b33600090815260086020526040812060045492935090918290600160a81b900460ff16600181111561188a5761188a611faa565b60ff1681526020810191909152604090810160009081209290925551339083908381818185875af1925050503d80600081146118e2576040519150601f19603f3d011682016040523d82523d6000602084013e6118e7565b606091505b505090508061192a5760405162461bcd60e51b815260206004820152600f60248201526e151c985b9cd9995c8819985a5b1959608a1b6044820152606401610c62565b6040805183815242602082015233917f0408e6e0b73daf4c873106e95fd067260fbff8bf9d1b499cad563d4480d45bac910160405180910390a25050505050565b6003546001600160a01b031633146119955760405162461bcd60e51b8152600401610c62906123fb565b600180600454600160a01b900460ff1660028111156119b6576119b6611faa565b146119d35760405162461bcd60e51b8152600401610c62906123a2565b6004805483919060ff60a81b1916600160a81b8360018111156119f8576119f8611faa565b02179055506004805460ff60a01b1916600160a11b1790554260078190556040517fcbbe35de088a5a787855818a0fda296aeb95f616e7b99c7dcb0bf96b5697e22b91611a479185919061246d565b60405180910390a15050565b6003546001600160a01b03163314611a7d5760405162461bcd60e51b8152600401610c62906123fb565b600080600454600160a01b900460ff166002811115611a9e57611a9e611faa565b14611abb5760405162461bcd60e51b8152600401610c62906123a2565b82600003611b035760405162461bcd60e51b8152602060048201526015602482015274125b9d985b1a59081b1a5d995cdd1c99585b481251605a1b6044820152606401610c62565b60008381526020819052604090206002015460ff1615611b655760405162461bcd60e51b815260206004820152601960248201527f4c69766573747265616d20616c726561647920657869737473000000000000006044820152606401610c62565b6040805160808101825284815260208082018581526001838501819052426060850152600088815292839052939091208251815590519192909190820190611bad90826124d7565b5060408281015160028301805460ff19169115159190911790556060909201516003909101556001805480820182556000919091527fb10e2d527612073b26eecdfd717e6a320cf44b4afac2b0732d9fcbe2b7fa0cf6018490555183907fbad020c4dc5e670ec5b6ea36d7cc02f852551d9ccc04429028af440b4c7ce14890611c37908590612087565b60405180910390a2505050565b6003546001600160a01b03163314611c6e5760405162461bcd60e51b8152600401610c62906123fb565b600080600454600160a01b900460ff166002811115611c8f57611c8f611faa565b14611cac5760405162461bcd60e51b8152600401610c62906123a2565b60008281526020819052604090206002015460ff16611d0d5760405162461bcd60e51b815260206004820181905260248201527f4c69766573747265616d206e6f7420666f756e64206f7220696e6163746976656044820152606401610c62565b6000828152602081905260408120600201805460ff191690555b600154811015611ddc578260018281548110611d4557611d45612373565b906000526020600020015403611dca5760018054611d6490829061241f565b81548110611d7457611d74612373565b906000526020600020015460018281548110611d9257611d92612373565b6000918252602090912001556001805480611daf57611daf612597565b60019003818190600052602060002001600090559055611ddc565b80611dd481612389565b915050611d27565b5060405182907f799598b7447b0eb8c73a9499876bc1798cdf2a050595baeed5c560a8722b278e90600090a25050565b600060208284031215611e1e57600080fd5b5035919050565b6000815180845260005b81811015611e4b57602081850181015186830182015201611e2f565b506000602082860101526020601f19601f83011685010191505092915050565b848152608060208201526000611e846080830186611e25565b9315156040830152506060015292915050565b80356001600160a01b0381168114611eae57600080fd5b919050565b600060208284031215611ec557600080fd5b611ece82611e97565b9392505050565b803560028110611eae57600080fd5b60008060408385031215611ef757600080fd5b611f0083611e97565b9150611f0e60208401611ed5565b90509250929050565b600081518084526020808501945080840160005b83811015611f4757815187529582019590820190600101611f2b565b509495945050505050565b600082825180855260208086019550808260051b84010181860160005b84811015611f9d57601f19868403018952611f8b838351611e25565b98840198925090830190600101611f6f565b5090979650505050505050565b634e487b7160e01b600052602160045260246000fd5b60038110611fd057611fd0611faa565b9052565b60028110611fd057611fd0611faa565b61018081526000611ff961018083018f611f17565b828103602084015261200b818f611e25565b9050828103604084015261201f818e611f52565b91505061202f606083018c611fc0565b61203c608083018b611fd4565b60a082019890985260c081019690965260e08601949094526101008501929092526101208401526101408301526101609091015295945050505050565b602081016108768284611fd4565b602081526000611ece6020830184611e25565b6000602082840312156120ac57600080fd5b611ece82611ed5565b602081526000611ece6020830184611f17565b600080604083850312156120db57600080fd5b50508035926020909101359150565b6020808252825182820181905260009190848201906040850190845b8181101561212b5783516001600160a01b031683529284019291840191600101612106565b50909695505050505050565b803560ff81168114611eae57600080fd5b6000806040838503121561215b57600080fd5b61216483611e97565b9150611f0e60208401612137565b6080815260006121856080830187611f17565b6020838203818501526121988288611f52565b8481036040860152865180825282880193509082019060005b818110156121cf5784511515835293830193918301916001016121b1565b505084810360608601526121e38187611f17565b9998505050505050505050565b602081016108768284611fc0565b60006020828403121561221057600080fd5b611ece82612137565b634e487b7160e01b600052604160045260246000fd5b6000806040838503121561224257600080fd5b82359150602083013567ffffffffffffffff8082111561226157600080fd5b818501915085601f83011261227557600080fd5b81358181111561228757612287612219565b604051601f8201601f19908116603f011681019083821181831017156122af576122af612219565b816040528281528860208487010111156122c857600080fd5b8260208601602083013760006020848301015280955050505050509250929050565b600181811c908216806122fe57607f821691505b60208210810361231e57634e487b7160e01b600052602260045260246000fd5b50919050565b634e487b7160e01b600052601160045260246000fd5b808202811582820484141761087657610876612324565b60008261236e57634e487b7160e01b600052601260045260246000fd5b500490565b634e487b7160e01b600052603260045260246000fd5b60006001820161239b5761239b612324565b5060010190565b6020808252600d908201526c496e76616c696420737461746560981b604082015260600190565b8082018082111561087657610876612324565b606081016123ea8286611fd4565b602082019390935260400152919050565b6020808252600a90820152694e6f74206f7261636c6560b01b604082015260600190565b8181038181111561087657610876612324565b6020808252825482820181905260008481528281209092916040850190845b8181101561212b57835483526001938401939285019201612451565b6040810161247b8285611fd4565b8260208301529392505050565b601f8211156124d257600081815260208120601f850160051c810160208610156124af5750805b601f850160051c820191505b818110156124ce578281556001016124bb565b5050505b505050565b815167ffffffffffffffff8111156124f1576124f1612219565b612505816124ff84546122ea565b84612488565b602080601f83116001811461253a57600084156125225750858301515b600019600386901b1c1916600185901b1785556124ce565b600085815260208120601f198616915b828110156125695788860151825594840194600190910190840161254a565b50858210156125875787850151600019600388901b60f8161c191681555b5050505050600190811b01905550565b634e487b7160e01b600052603160045260246000fdfea264697066735822122095c536ccdf826b90347ee9b5c243e6f0e444686b24e9c1f615dcf01b3e86282464736f6c63430008130033",
  "linkReferences": {},
  "deployedLinkReferences": {}
}