{
  "_format": "hh-sol-artifact-1",
  "contractName": "PredictionMarket",
  "sourceName": "contracts/PredictionMarket.sol",
  "abi": [
    {
      "anonymous": false,
      "inputs": [
        {
          "indexed": true,
          "internalType": "uint64",
          "name": "id",
          "type": "uint64"
        },
        {
          "indexed": true,
          "internalType": "address",
          "name": "user",
          "type": "address"
        },
        {
          "indexed": false,
          "internalType": "enum PredictionMarket.Side",
          "name": "outcome",
          "type": "uint8"
        },
        {
          "indexed": false,
          "internalType": "uint256",
          "name": "amount",
          "type": "uint256"
        }
      ],
      "name": "BetPlaced",
      "type": "event"
    },
    {
      "anonymous": false,
      "inputs": [
        {
          "indexed": true,
          "internalType": "uint64",
          "name": "id",
          "type": "uint64"
        },
        {
          "indexed": false,
          "internalType": "string",
          "name": "question",
          "type": "string"
        },
        {
          "indexed": true,
          "internalType": "address",
          "name": "creator",
          "type": "address"
        }
      ],
      "name": "MarketCreated",
      "type": "event"
    },
    {
      "anonymous": false,
      "inputs": [
        {
          "indexed": true,
          "internalType": "uint64",
          "name": "id",
          "type": "uint64"
        },
        {
          "indexed": false,
          "internalType": "enum PredictionMarket.Side",
          "name": "outcome",
          "type": "uint8"
        }
      ],
      "name": "MarketResolved",
      "type": "event"
    },
    {
      "anonymous": false,
      "inputs": [
        {
          "indexed": true,
          "internalType": "uint64",
          "name": "id",
          "type": "uint64"
        },
        {
          "indexed": true,
          "internalType": "address",
          "name": "user",
          "type": "address"
        },
        {
          "indexed": false,
          "internalType": "uint256",
          "name": "amount",
          "type": "uint256"
        }
      ],
      "name": "PayoutClaimed",
      "type": "event"
    },
    {
      "inputs": [
        {
          "internalType": "uint64",
          "name": "id",
          "type": "uint64"
        }
      ],
      "name": "claimPayout",
      "outputs": [],
      "stateMutability": "nonpayable",
      "type": "function"
    },
    {
      "inputs": [
        {
          "internalType": "string",
          "name": "question",
          "type": "string"
        }
      ],
      "name": "createMarket",
      "outputs": [
        {
          "internalType": "uint64",
          "name": "id",
          "type": "uint64"
        }
      ],
      "stateMutability": "nonpayable",
      "type": "function"
    },
    {
      "inputs": [
        {
          "internalType": "uint64",
          "name": "id",
          "type": "uint64"
        }
      ],
      "name": "getMarket",
      "outputs": [
        {
          "internalType": "string",
          "name": "question",
          "type": "string"
        },
        {
          "internalType": "address",
          "name": "creator",
          "type": "address"
        },
        {
          "internalType": "bool",
          "name": "isOpen",
          "type": "bool"
        },
        {
          "internalType": "enum PredictionMarket.Side",
          "name": "outcome",
          "type": "uint8"
        },
        {
          "internalType": "uint256",
          "name": "totalYes",
          "type": "uint256"
        },
        {
          "internalType": "uint256",
          "name": "totalNo",
          "type": "uint256"
        }
      ],
      "stateMutability": "view",
      "type": "function"
    },
    {
      "inputs": [
        {
          "internalType": "uint64",
          "name": "id",
          "type": "uint64"
        },
        {
          "internalType": "address",
          "name": "user",
          "type": "address"
        },
        {
          "internalType": "string",
          "name": "outcome",
          "type": "string"
        }
      ],
      "name": "getUserBet",
      "outputs": [
        {
          "internalType": "uint256",
          "name": "",
          "type": "uint256"
        }
      ],
      "stateMutability": "view",
      "type": "function"
    },
    {
      "inputs": [
        {
          "internalType": "uint64",
          "name": "id",
          "type": "uint64"
        }
      ],
      "name": "marketExists",
      "outputs": [
        {
          "internalType": "bool",
          "name": "",
          "type": "bool"
        }
      ],
      "stateMutability": "view",
      "type": "function"
    },
    {
      "inputs": [
        {
          "internalType": "uint64",
          "name": "",
          "type": "uint64"
        }
      ],
      "name": "markets",
      "outputs": [
        {
          "internalType": "uint64",
          "name": "id",
          "type": "uint64"
        },
        {
          "internalType": "string",
          "name": "question",
          "type": "string"
        },
        {
          "internalType": "address",
          "name": "creator",
          "type": "address"
        },
        {
          "internalType": "bool",
          "name": "isOpen",
          "type": "bool"
        },
        {
          "internalType": "enum PredictionMarket.Side",
          "name": "outcome",
          "type": "uint8"
        }
      ],
      "stateMutability": "view",
      "type": "function"
    },
    {
      "inputs": [],
      "name": "nextMarketId",
      "outputs": [
        {
          "internalType": "uint64",
          "name": "",
          "type": "uint64"
        }
      ],
      "stateMutability": "view",
      "type": "function"
    },
    {
      "inputs": [
        {
          "internalType": "uint64",
          "name": "id",
          "type": "uint64"
        },
        {
          "internalType": "string",
          "name": "outcome",
          "type": "string"
        },
        {
          "internalType": "uint256",
          "name": "amount",
          "type": "uint256"
        }
      ],
      "name": "placeBet",
      "outputs": [],
      "stateMutability": "nonpayable",
      "type": "function"
    },
    {
      "inputs": [
        {
          "internalType": "uint64",
          "name": "id",
          "type": "uint64"
        },
        {
          "internalType": "string",
          "name": "outcome",
          "type": "string"
        }
      ],
      "name": "resolveMarket",
      "outputs": [],
      "stateMutability": "nonpayable",
      "type": "function"
    }
  ],
  "bytecode": "0x608060405260018060006101000a81548167ffffffffffffffff021916908367ffffffffffffffff16021790555034801561003957600080fd5b50611dcf806100496000396000f3fe608060405234801561001057600080fd5b50600436106100935760003560e01c80636e919cda116100665780636e919cda146101325780639090ba93146101675780639d7d633d14610183578063acca9755146101b3578063c48b3324146101cf57610093565b806330d6030f14610098578063406ef2ef146100c857806354888f55146100e65780636552cbc714610116575b600080fd5b6100b260048036038101906100ad919061113c565b610203565b6040516100bf91906111c4565b60405180910390f35b6100d06102a6565b6040516100dd91906111ee565b60405180910390f35b61010060048036038101906100fb9190611209565b6102c0565b60405161010d91906111ee565b60405180910390f35b610130600480360381019061012b9190611252565b610436565b005b61014c60048036038101906101479190611252565b61069e565b60405161015e9695949392919061139f565b60405180910390f35b610181600480360381019061017c9190611407565b61081c565b005b61019d60048036038101906101989190611252565b61099a565b6040516101aa9190611463565b60405180910390f35b6101cd60048036038101906101c891906114aa565b6109ee565b005b6101e960048036038101906101e49190611252565b610c45565b6040516101fa959493929190611519565b60405180910390f35b60008060008567ffffffffffffffff1667ffffffffffffffff16815260200190815260200160002060030160008473ffffffffffffffffffffffffffffffffffffffff1673ffffffffffffffffffffffffffffffffffffffff168152602001908152602001600020600061027684610d51565b600181111561028857610287611328565b5b60ff1660ff1681526020019081526020016000205490509392505050565b600160009054906101000a900467ffffffffffffffff1681565b60006001600081819054906101000a900467ffffffffffffffff16809291906102e8906115a2565b91906101000a81548167ffffffffffffffff021916908367ffffffffffffffff160217905550905060008060008367ffffffffffffffff1667ffffffffffffffff1681526020019081526020016000209050818160000160006101000a81548167ffffffffffffffff021916908367ffffffffffffffff1602179055508281600101908161037691906117de565b50338160020160006101000a81548173ffffffffffffffffffffffffffffffffffffffff021916908373ffffffffffffffffffffffffffffffffffffffff16021790555060018160020160146101000a81548160ff0219169083151502179055503373ffffffffffffffffffffffffffffffffffffffff168267ffffffffffffffff167f8d9cd2e453ea0c7db6351abb1762e8a826d8f6887c2bb343225c15f06d8f51ad8560405161042891906118b0565b60405180910390a350919050565b60008060008367ffffffffffffffff1667ffffffffffffffff16815260200190815260200160002090508060020160149054906101000a900460ff16156104b2576040517f08c379a00000000000000000000000000000000000000000000000000000000081526004016104a99061191e565b60405180910390fd5b60008160030160003373ffffffffffffffffffffffffffffffffffffffff1673ffffffffffffffffffffffffffffffffffffffff16815260200190815260200160002060008360020160159054906101000a900460ff16600181111561051b5761051a611328565b5b60ff1660ff16815260200190815260200160002054905060008260040160008460020160159054906101000a900460ff16600181111561055e5761055d611328565b5b60ff1660ff168152602001908152602001600020549050600082116105b8576040517f08c379a00000000000000000000000000000000000000000000000000000000081526004016105af9061198a565b60405180910390fd5b60008360040160006001808111156105d3576105d2611328565b5b60ff1660ff1681526020019081526020016000205484600401600080600181111561060157610600611328565b5b60ff1660ff1681526020019081526020016000205461062091906119aa565b9050600082828561063191906119de565b61063b9190611a4f565b90503373ffffffffffffffffffffffffffffffffffffffff168667ffffffffffffffff167f6d5db2de6eccf6170a6d9963443e643c2b98c4738f30610dc199bd6d2913113f8360405161068e91906111c4565b60405180910390a3505050505050565b60606000806000806000806000808967ffffffffffffffff1667ffffffffffffffff1681526020019081526020016000209050806001018160020160009054906101000a900473ffffffffffffffffffffffffffffffffffffffff168260020160149054906101000a900460ff168360020160159054906101000a900460ff1684600401600080600181111561073757610736611328565b5b60ff1660ff1681526020019081526020016000205485600401600060018081111561076557610764611328565b5b60ff1660ff1681526020019081526020016000205485805461078690611601565b80601f01602080910402602001604051908101604052809291908181526020018280546107b290611601565b80156107ff5780601f106107d4576101008083540402835291602001916107ff565b820191906000526020600020905b8154815290600101906020018083116107e257829003601f168201915b505050505095509650965096509650965096505091939550919395565b60008060008467ffffffffffffffff1667ffffffffffffffff168152602001908152602001600020905060008160000160009054906101000a900467ffffffffffffffff1667ffffffffffffffff16036108ab576040517f08c379a00000000000000000000000000000000000000000000000000000000081526004016108a290611acc565b60405180910390fd5b8060020160149054906101000a900460ff166108fc576040517f08c379a00000000000000000000000000000000000000000000000000000000081526004016108f390611b38565b60405180910390fd5b600061090783610d51565b905060008260020160146101000a81548160ff021916908315150217905550808260020160156101000a81548160ff0219169083600181111561094d5761094c611328565b5b02179055508367ffffffffffffffff167f9d3f90bfb83d7d20d5b32f59fb17ac061e4a070e1597eca4adfb857359817f4c8260405161098c9190611b58565b60405180910390a250505050565b6000806000808467ffffffffffffffff1667ffffffffffffffff16815260200190815260200160002060000160009054906101000a900467ffffffffffffffff1667ffffffffffffffff1614159050919050565b60008060008567ffffffffffffffff1667ffffffffffffffff168152602001908152602001600020905060008160000160009054906101000a900467ffffffffffffffff1667ffffffffffffffff1603610a7d576040517f08c379a0000000000000000000000000000000000000000000000000000000008152600401610a7490611acc565b60405180910390fd5b8060020160149054906101000a900460ff16610ace576040517f08c379a0000000000000000000000000000000000000000000000000000000008152600401610ac590611bbf565b60405180910390fd5b60008211610b11576040517f08c379a0000000000000000000000000000000000000000000000000000000008152600401610b0890611c2b565b60405180910390fd5b6000610b1c84610d51565b9050828260030160003373ffffffffffffffffffffffffffffffffffffffff1673ffffffffffffffffffffffffffffffffffffffff1681526020019081526020016000206000836001811115610b7557610b74611328565b5b60ff1660ff1681526020019081526020016000206000828254610b9891906119aa565b9250508190555082826004016000836001811115610bb957610bb8611328565b5b60ff1660ff1681526020019081526020016000206000828254610bdc91906119aa565b925050819055503373ffffffffffffffffffffffffffffffffffffffff168567ffffffffffffffff167fdf8a6f8692de6e1ec9ec01329254aa49c4d6f036e50b04bac1af46436f57964a8386604051610c36929190611c4b565b60405180910390a35050505050565b60006020528060005260406000206000915090508060000160009054906101000a900467ffffffffffffffff1690806001018054610c8290611601565b80601f0160208091040260200160405190810160405280929190818152602001828054610cae90611601565b8015610cfb5780601f10610cd057610100808354040283529160200191610cfb565b820191906000526020600020905b815481529060010190602001808311610cde57829003601f168201915b5050505050908060020160009054906101000a900473ffffffffffffffffffffffffffffffffffffffff16908060020160149054906101000a900460ff16908060020160159054906101000a900460ff16905085565b600080610d5d83610e08565b8051906020012090507f90dfb8fa37079daea9a1acb3e423e2351f0ba3fb27cf55bfa41ad2f8c58baea98103610d97576000915050610e03565b7f7d6119d3ee7f82ee53aac57d4d088f8bbaca5aac3191bb074252c6d760ae4eba8103610dc8576001915050610e03565b6040517f08c379a0000000000000000000000000000000000000000000000000000000008152600401610dfa90611cc0565b60405180910390fd5b919050565b6060600082905060005b8151811015610f3a57604160f81b828281518110610e3357610e32611ce0565b5b602001015160f81c60f81b7effffffffffffffffffffffffffffffffffffffffffffffffffffffffffffff191610158015610eb15750605a60f81b828281518110610e8157610e80611ce0565b5b602001015160f81c60f81b7effffffffffffffffffffffffffffffffffffffffffffffffffffffffffffff191611155b15610f29576020828281518110610ecb57610eca611ce0565b5b602001015160f81c60f81b60f81c610ee39190611d1c565b60f81b828281518110610ef957610ef8611ce0565b5b60200101907effffffffffffffffffffffffffffffffffffffffffffffffffffffffffffff1916908160001a9053505b80610f3390611d51565b9050610e12565b5080915050919050565b6000604051905090565b600080fd5b600080fd5b600067ffffffffffffffff82169050919050565b610f7581610f58565b8114610f8057600080fd5b50565b600081359050610f9281610f6c565b92915050565b600073ffffffffffffffffffffffffffffffffffffffff82169050919050565b6000610fc382610f98565b9050919050565b610fd381610fb8565b8114610fde57600080fd5b50565b600081359050610ff081610fca565b92915050565b600080fd5b600080fd5b6000601f19601f8301169050919050565b7f4e487b7100000000000000000000000000000000000000000000000000000000600052604160045260246000fd5b61104982611000565b810181811067ffffffffffffffff8211171561106857611067611011565b5b80604052505050565b600061107b610f44565b90506110878282611040565b919050565b600067ffffffffffffffff8211156110a7576110a6611011565b5b6110b082611000565b9050602081019050919050565b82818337600083830152505050565b60006110df6110da8461108c565b611071565b9050828152602081018484840111156110fb576110fa610ffb565b5b6111068482856110bd565b509392505050565b600082601f83011261112357611122610ff6565b5b81356111338482602086016110cc565b91505092915050565b60008060006060848603121561115557611154610f4e565b5b600061116386828701610f83565b935050602061117486828701610fe1565b925050604084013567ffffffffffffffff81111561119557611194610f53565b5b6111a18682870161110e565b9150509250925092565b6000819050919050565b6111be816111ab565b82525050565b60006020820190506111d960008301846111b5565b92915050565b6111e881610f58565b82525050565b600060208201905061120360008301846111df565b92915050565b60006020828403121561121f5761121e610f4e565b5b600082013567ffffffffffffffff81111561123d5761123c610f53565b5b6112498482850161110e565b91505092915050565b60006020828403121561126857611267610f4e565b5b600061127684828501610f83565b91505092915050565b600081519050919050565b600082825260208201905092915050565b60005b838110156112b957808201518184015260208101905061129e565b60008484015250505050565b60006112d08261127f565b6112da818561128a565b93506112ea81856020860161129b565b6112f381611000565b840191505092915050565b61130781610fb8565b82525050565b60008115159050919050565b6113228161130d565b82525050565b7f4e487b7100000000000000000000000000000000000000000000000000000000600052602160045260246000fd5b6002811061136857611367611328565b5b50565b600081905061137982611357565b919050565b60006113898261136b565b9050919050565b6113998161137e565b82525050565b600060c08201905081810360008301526113b981896112c5565b90506113c860208301886112fe565b6113d56040830187611319565b6113e26060830186611390565b6113ef60808301856111b5565b6113fc60a08301846111b5565b979650505050505050565b6000806040838503121561141e5761141d610f4e565b5b600061142c85828601610f83565b925050602083013567ffffffffffffffff81111561144d5761144c610f53565b5b6114598582860161110e565b9150509250929050565b60006020820190506114786000830184611319565b92915050565b611487816111ab565b811461149257600080fd5b50565b6000813590506114a48161147e565b92915050565b6000806000606084860312156114c3576114c2610f4e565b5b60006114d186828701610f83565b935050602084013567ffffffffffffffff8111156114f2576114f1610f53565b5b6114fe8682870161110e565b925050604061150f86828701611495565b9150509250925092565b600060a08201905061152e60008301886111df565b818103602083015261154081876112c5565b905061154f60408301866112fe565b61155c6060830185611319565b6115696080830184611390565b9695505050505050565b7f4e487b7100000000000000000000000000000000000000000000000000000000600052601160045260246000fd5b60006115ad82610f58565b915067ffffffffffffffff82036115c7576115c6611573565b5b600182019050919050565b7f4e487b7100000000000000000000000000000000000000000000000000000000600052602260045260246000fd5b6000600282049050600182168061161957607f821691505b60208210810361162c5761162b6115d2565b5b50919050565b60008190508160005260206000209050919050565b60006020601f8301049050919050565b600082821b905092915050565b6000600883026116947fffffffffffffffffffffffffffffffffffffffffffffffffffffffffffffffff82611657565b61169e8683611657565b95508019841693508086168417925050509392505050565b6000819050919050565b60006116db6116d66116d1846111ab565b6116b6565b6111ab565b9050919050565b6000819050919050565b6116f5836116c0565b611709611701826116e2565b848454611664565b825550505050565b600090565b61171e611711565b6117298184846116ec565b505050565b5b8181101561174d57611742600082611716565b60018101905061172f565b5050565b601f8211156117925761176381611632565b61176c84611647565b8101602085101561177b578190505b61178f61178785611647565b83018261172e565b50505b505050565b600082821c905092915050565b60006117b560001984600802611797565b1980831691505092915050565b60006117ce83836117a4565b9150826002028217905092915050565b6117e78261127f565b67ffffffffffffffff811115611800576117ff611011565b5b61180a8254611601565b611815828285611751565b600060209050601f8311600181146118485760008415611836578287015190505b61184085826117c2565b8655506118a8565b601f19841661185686611632565b60005b8281101561187e57848901518255600182019150602085019450602081019050611859565b8683101561189b5784890151611897601f8916826117a4565b8355505b6001600288020188555050505b505050505050565b600060208201905081810360008301526118ca81846112c5565b905092915050565b7f4d61726b6574206e6f74207265736f6c76656400000000000000000000000000600082015250565b600061190860138361128a565b9150611913826118d2565b602082019050919050565b60006020820190508181036000830152611937816118fb565b9050919050565b7f4e6f7468696e6720746f20636c61696d00000000000000000000000000000000600082015250565b600061197460108361128a565b915061197f8261193e565b602082019050919050565b600060208201905081810360008301526119a381611967565b9050919050565b60006119b5826111ab565b91506119c0836111ab565b92508282019050808211156119d8576119d7611573565b5b92915050565b60006119e9826111ab565b91506119f4836111ab565b9250828202611a02816111ab565b91508282048414831517611a1957611a18611573565b5b5092915050565b7f4e487b7100000000000000000000000000000000000000000000000000000000600052601260045260246000fd5b6000611a5a826111ab565b9150611a65836111ab565b925082611a7557611a74611a20565b5b828204905092915050565b7f4d61726b6574206e6f7420666f756e6400000000000000000000000000000000600082015250565b6000611ab660108361128a565b9150611ac182611a80565b602082019050919050565b60006020820190508181036000830152611ae581611aa9565b9050919050565b7f416c7265616479207265736f6c76656400000000000000000000000000000000600082015250565b6000611b2260108361128a565b9150611b2d82611aec565b602082019050919050565b60006020820190508181036000830152611b5181611b15565b9050919050565b6000602082019050611b6d6000830184611390565b92915050565b7f4d61726b657420636c6f73656400000000000000000000000000000000000000600082015250565b6000611ba9600d8361128a565b9150611bb482611b73565b602082019050919050565b60006020820190508181036000830152611bd881611b9c565b9050919050565b7f5a65726f20626574000000000000000000000000000000000000000000000000600082015250565b6000611c1560088361128a565b9150611c2082611bdf565b602082019050919050565b60006020820190508181036000830152611c4481611c08565b9050919050565b6000604082019050611c606000830185611390565b611c6d60208301846111b5565b9392505050565b7f496e76616c6964206f7574636f6d650000000000000000000000000000000000600082015250565b6000611caa600f8361128a565b9150611cb582611c74565b602082019050919050565b60006020820190508181036000830152611cd981611c9d565b9050919050565b7f4e487b7100000000000000000000000000000000000000000000000000000000600052603260045260246000fd5b600060ff82169050919050565b6000611d2782611d0f565b9150611d3283611d0f565b9250828201905060ff811115611d4b57611d4a611573565b5b92915050565b6000611d5c826111ab565b91507fffffffffffffffffffffffffffffffffffffffffffffffffffffffffffffffff8203611d8e57611d8d611573565b5b60018201905091905056fea26469706673582212207939f8be3072cdbc2641b4b94a71b90129c542ef81c1992fb5663cfa71c427eb64736f6c63430008130033",
  "linkReferences": {},
  "deployedLinkReferences": {}
}