{
  "_format": "hh-sol-artifact-1",
  "contractName": "PredictionMarket",
  "sourceName": "contracts/PredictionMarket.sol",
  "abi": [
    {
      "inputs": [
        {
          "internalType": "uint256",
          "name": "_livestreamId",
          "type": "uint256"
        },
        {
          "internalType": "string",
          "name": "_question",
          "type": "string"
        },
        {
          "internalType": "string",
          "name": "_livestreamTitle",
          "type": "string"
        },
        {
          "internalType": "address",
          "name": "_oracle",
          "type": "address"
        }
      ],
      "stateMutability": "nonpayable",
      "type": "constructor"
    },
    {
      "anonymous": false,
      "inputs": [
        {
          "indexed": true,
          "internalType": "address",
          "name": "user",
          "type": "address"
        },
        {
          "indexed": false,
          "internalType": "enum PredictionMarket.Side",
          "name": "side",
          "type": "uint8"
        },
        {
          "indexed": false,
          "internalType": "uint256",
          "name": "amount",
          "type": "uint256"
        },
        {
          "indexed": false,
          "internalType": "uint256",
          "name": "timestamp",
          "type": "uint256"
        }
      ],
      "name": "BetPlaced",
      "type": "event"
    },
    {
      "anonymous": false,
      "inputs": [
        {
          "indexed": false,
          "internalType": "uint256",
          "name": "timestamp",
          "type": "uint256"
        }
      ],
      "name": "MarketClosed",
      "type": "event"
    },
    {
      "anonymous": false,
      "inputs": [
        {
          "indexed": false,
          "internalType": "enum PredictionMarket.Side",
          "name": "outcome",
          "type": "uint8"
        },
        {
          "indexed": false,
          "internalType": "uint256",
          "name": "timestamp",
          "type": "uint256"
        }
      ],
      "name": "MarketResolved",
      "type": "event"
    },
    {
      "anonymous": false,
      "inputs": [
        {
          "indexed": true,
          "internalType": "address",
          "name": "user",
          "type": "address"
        },
        {
          "indexed": false,
          "internalType": "uint256",
          "name": "amount",
          "type": "uint256"
        },
        {
          "indexed": false,
          "internalType": "uint256",
          "name": "timestamp",
          "type": "uint256"
        }
      ],
      "name": "PayoutClaimed",
      "type": "event"
    },
    {
      "inputs": [
        {
          "internalType": "address",
          "name": "",
          "type": "address"
        },
        {
          "internalType": "uint8",
          "name": "",
          "type": "uint8"
        }
      ],
      "name": "bets",
      "outputs": [
        {
          "internalType": "uint256",
          "name": "",
          "type": "uint256"
        }
      ],
      "stateMutability": "view",
      "type": "function"
    },
    {
      "inputs": [
        {
          "internalType": "uint256",
          "name": "",
          "type": "uint256"
        }
      ],
      "name": "bettors",
      "outputs": [
        {
          "internalType": "address",
          "name": "",
          "type": "address"
        }
      ],
      "stateMutability": "view",
      "type": "function"
    },
    {
      "inputs": [
        {
          "internalType": "address",
          "name": "newOracle",
          "type": "address"
        }
      ],
      "name": "changeOracle",
      "outputs": [],
      "stateMutability": "nonpayable",
      "type": "function"
    },
    {
      "inputs": [],
      "name": "claimPayout",
      "outputs": [],
      "stateMutability": "nonpayable",
      "type": "function"
    },
    {
      "inputs": [],
      "name": "closeMarket",
      "outputs": [],
      "stateMutability": "nonpayable",
      "type": "function"
    },
    {
      "inputs": [],
      "name": "closedAt",
      "outputs": [
        {
          "internalType": "uint256",
          "name": "",
          "type": "uint256"
        }
      ],
      "stateMutability": "view",
      "type": "function"
    },
    {
      "inputs": [],
      "name": "createdAt",
      "outputs": [
        {
          "internalType": "uint256",
          "name": "",
          "type": "uint256"
        }
      ],
      "stateMutability": "view",
      "type": "function"
    },
    {
      "inputs": [],
      "name": "emergencyClose",
      "outputs": [],
      "stateMutability": "nonpayable",
      "type": "function"
    },
    {
      "inputs": [],
      "name": "factory",
      "outputs": [
        {
          "internalType": "address",
          "name": "",
          "type": "address"
        }
      ],
      "stateMutability": "view",
      "type": "function"
    },
    {
      "inputs": [
        {
          "internalType": "uint256",
          "name": "offset",
          "type": "uint256"
        },
        {
          "internalType": "uint256",
          "name": "limit",
          "type": "uint256"
        }
      ],
      "name": "getBettorsList",
      "outputs": [
        {
          "internalType": "address[]",
          "name": "",
          "type": "address[]"
        }
      ],
      "stateMutability": "view",
      "type": "function"
    },
    {
      "inputs": [],
      "name": "getMarketInfo",
      "outputs": [
        {
          "internalType": "uint256",
          "name": "_livestreamId",
          "type": "uint256"
        },
        {
          "internalType": "string",
          "name": "_question",
          "type": "string"
        },
        {
          "internalType": "string",
          "name": "_livestreamTitle",
          "type": "string"
        },
        {
          "internalType": "enum PredictionMarket.State",
          "name": "_state",
          "type": "uint8"
        },
        {
          "internalType": "enum PredictionMarket.Side",
          "name": "_outcome",
          "type": "uint8"
        },
        {
          "internalType": "uint256",
          "name": "_yesBets",
          "type": "uint256"
        },
        {
          "internalType": "uint256",
          "name": "_noBets",
          "type": "uint256"
        },
        {
          "internalType": "uint256",
          "name": "_totalPool",
          "type": "uint256"
        },
        {
          "internalType": "uint256",
          "name": "_totalBettors",
          "type": "uint256"
        },
        {
          "internalType": "uint256",
          "name": "_createdAt",
          "type": "uint256"
        },
        {
          "internalType": "uint256",
          "name": "_closedAt",
          "type": "uint256"
        },
        {
          "internalType": "uint256",
          "name": "_resolvedAt",
          "type": "uint256"
        }
      ],
      "stateMutability": "view",
      "type": "function"
    },
    {
      "inputs": [],
      "name": "getOdds",
      "outputs": [
        {
          "internalType": "uint256",
          "name": "yesOdds",
          "type": "uint256"
        },
        {
          "internalType": "uint256",
          "name": "noOdds",
          "type": "uint256"
        }
      ],
      "stateMutability": "view",
      "type": "function"
    },
    {
      "inputs": [
        {
          "internalType": "address",
          "name": "user",
          "type": "address"
        },
        {
          "internalType": "enum PredictionMarket.Side",
          "name": "side",
          "type": "uint8"
        }
      ],
      "name": "getPotentialPayout",
      "outputs": [
        {
          "internalType": "uint256",
          "name": "",
          "type": "uint256"
        }
      ],
      "stateMutability": "view",
      "type": "function"
    },
    {
      "inputs": [
        {
          "internalType": "address",
          "name": "user",
          "type": "address"
        }
      ],
      "name": "getUserBets",
      "outputs": [
        {
          "internalType": "uint256",
          "name": "yesBets",
          "type": "uint256"
        },
        {
          "internalType": "uint256",
          "name": "noBets",
          "type": "uint256"
        }
      ],
      "stateMutability": "view",
      "type": "function"
    },
    {
      "inputs": [
        {
          "internalType": "address",
          "name": "",
          "type": "address"
        }
      ],
      "name": "hasBet",
      "outputs": [
        {
          "internalType": "bool",
          "name": "",
          "type": "bool"
        }
      ],
      "stateMutability": "view",
      "type": "function"
    },
    {
      "inputs": [],
      "name": "livestreamId",
      "outputs": [
        {
          "internalType": "uint256",
          "name": "",
          "type": "uint256"
        }
      ],
      "stateMutability": "view",
      "type": "function"
    },
    {
      "inputs": [],
      "name": "livestreamTitle",
      "outputs": [
        {
          "internalType": "string",
          "name": "",
          "type": "string"
        }
      ],
      "stateMutability": "view",
      "type": "function"
    },
    {
      "inputs": [],
      "name": "oracle",
      "outputs": [
        {
          "internalType": "address",
          "name": "",
          "type": "address"
        }
      ],
      "stateMutability": "view",
      "type": "function"
    },
    {
      "inputs": [],
      "name": "outcome",
      "outputs": [
        {
          "internalType": "enum PredictionMarket.Side",
          "name": "",
          "type": "uint8"
        }
      ],
      "stateMutability": "view",
      "type": "function"
    },
    {
      "inputs": [
        {
          "internalType": "enum PredictionMarket.Side",
          "name": "side",
          "type": "uint8"
        }
      ],
      "name": "placeBet",
      "outputs": [],
      "stateMutability": "payable",
      "type": "function"
    },
    {
      "inputs": [],
      "name": "question",
      "outputs": [
        {
          "internalType": "string",
          "name": "",
          "type": "string"
        }
      ],
      "stateMutability": "view",
      "type": "function"
    },
    {
      "inputs": [
        {
          "internalType": "enum PredictionMarket.Side",
          "name": "_outcome",
          "type": "uint8"
        }
      ],
      "name": "resolveMarket",
      "outputs": [],
      "stateMutability": "nonpayable",
      "type": "function"
    },
    {
      "inputs": [],
      "name": "resolvedAt",
      "outputs": [
        {
          "internalType": "uint256",
          "name": "",
          "type": "uint256"
        }
      ],
      "stateMutability": "view",
      "type": "function"
    },
    {
      "inputs": [],
      "name": "state",
      "outputs": [
        {
          "internalType": "enum PredictionMarket.State",
          "name": "",
          "type": "uint8"
        }
      ],
      "stateMutability": "view",
      "type": "function"
    },
    {
      "inputs": [
        {
          "internalType": "uint8",
          "name": "",
          "type": "uint8"
        }
      ],
      "name": "totalBets",
      "outputs": [
        {
          "internalType": "uint256",
          "name": "",
          "type": "uint256"
        }
      ],
      "stateMutability": "view",
      "type": "function"
    },
    {
      "inputs": [],
      "name": "totalBettors",
      "outputs": [
        {
          "internalType": "uint256",
          "name": "",
          "type": "uint256"
        }
      ],
      "stateMutability": "view",
      "type": "function"
    },
    {
      "inputs": [],
      "name": "totalPool",
      "outputs": [
        {
          "internalType": "uint256",
          "name": "",
          "type": "uint256"
        }
      ],
      "stateMutability": "view",
      "type": "function"
    }
  ],
  "bytecode": "0x60806040523480156200001157600080fd5b506040516200308738038062003087833981810160405281019062000037919062000356565b8360008190555082600190816200004f919062000647565b50816002908162000061919062000647565b5080600360006101000a81548173ffffffffffffffffffffffffffffffffffffffff021916908373ffffffffffffffffffffffffffffffffffffffff16021790555033600460006101000a81548173ffffffffffffffffffffffffffffffffffffffff021916908373ffffffffffffffffffffffffffffffffffffffff1602179055506000600460146101000a81548160ff021916908360028111156200010d576200010c6200072e565b5b021790555042600581905550505050506200075d565b6000604051905090565b600080fd5b600080fd5b6000819050919050565b6200014c8162000137565b81146200015857600080fd5b50565b6000815190506200016c8162000141565b92915050565b600080fd5b600080fd5b6000601f19601f8301169050919050565b7f4e487b7100000000000000000000000000000000000000000000000000000000600052604160045260246000fd5b620001c7826200017c565b810181811067ffffffffffffffff82111715620001e957620001e86200018d565b5b80604052505050565b6000620001fe62000123565b90506200020c8282620001bc565b919050565b600067ffffffffffffffff8211156200022f576200022e6200018d565b5b6200023a826200017c565b9050602081019050919050565b60005b83811015620002675780820151818401526020810190506200024a565b60008484015250505050565b60006200028a620002848462000211565b620001f2565b905082815260208101848484011115620002a957620002a862000177565b5b620002b684828562000247565b509392505050565b600082601f830112620002d657620002d562000172565b5b8151620002e884826020860162000273565b91505092915050565b600073ffffffffffffffffffffffffffffffffffffffff82169050919050565b60006200031e82620002f1565b9050919050565b620003308162000311565b81146200033c57600080fd5b50565b600081519050620003508162000325565b92915050565b600080600080608085870312156200037357620003726200012d565b5b600062000383878288016200015b565b945050602085015167ffffffffffffffff811115620003a757620003a662000132565b5b620003b587828801620002be565b935050604085015167ffffffffffffffff811115620003d957620003d862000132565b5b620003e787828801620002be565b9250506060620003fa878288016200033f565b91505092959194509250565b600081519050919050565b7f4e487b7100000000000000000000000000000000000000000000000000000000600052602260045260246000fd5b600060028204905060018216806200045957607f821691505b6020821081036200046f576200046e62000411565b5b50919050565b60008190508160005260206000209050919050565b60006020601f8301049050919050565b600082821b905092915050565b600060088302620004d97fffffffffffffffffffffffffffffffffffffffffffffffffffffffffffffffff826200049a565b620004e586836200049a565b95508019841693508086168417925050509392505050565b6000819050919050565b600062000528620005226200051c8462000137565b620004fd565b62000137565b9050919050565b6000819050919050565b620005448362000507565b6200055c62000553826200052f565b848454620004a7565b825550505050565b600090565b6200057362000564565b6200058081848462000539565b505050565b5b81811015620005a8576200059c60008262000569565b60018101905062000586565b5050565b601f821115620005f757620005c18162000475565b620005cc846200048a565b81016020851015620005dc578190505b620005f4620005eb856200048a565b83018262000585565b50505b505050565b600082821c905092915050565b60006200061c60001984600802620005fc565b1980831691505092915050565b600062000637838362000609565b9150826002028217905092915050565b620006528262000406565b67ffffffffffffffff8111156200066e576200066d6200018d565b5b6200067a825462000440565b62000687828285620005ac565b600060209050601f831160018114620006bf5760008415620006aa578287015190505b620006b6858262000629565b86555062000726565b601f198416620006cf8662000475565b60005b82811015620006f957848901518255600182019150602085019450602081019050620006d2565b8683101562000719578489015162000715601f89168262000609565b8355505b6001600288020188555050505b505050505050565b7f4e487b7100000000000000000000000000000000000000000000000000000000600052602160045260246000fd5b61291a806200076d6000396000f3fe60806040526004361061019c5760003560e01c8063747b072c116100ec578063c8c3316b1161008a578063e88499a911610064578063e88499a9146105d0578063ecfb49a3146105e7578063f21ffa6b14610612578063f5bbcd2a1461063b5761019c565b8063c8c3316b1461053d578063cf09e0d01461057a578063db5d0566146105a55761019c565b8063a9cc9ae9116100c6578063a9cc9ae9146104b9578063c19d93fb146104d0578063c45a0155146104fb578063c511ed5e146105265761019c565b8063747b072c146104385780637dc0d1d0146104635780639ef27b001461048e5761019c565b80633482b6441161015957806347c421b51161013357806347c421b5146103695780634c5be574146103925780634d729d11146103be57806353288a16146103fb5761019c565b80633482b644146102e55780633fad9ae014610322578063430468441461034d5761019c565b8063136f1016146101a157806319effeb4146101de57806321a039b21461020957806323341a051461024657806327793f871461027c5780632d56657d146102a7575b600080fd5b3480156101ad57600080fd5b506101c860048036038101906101c39190611c29565b610666565b6040516101d59190611c71565b60405180910390f35b3480156101ea57600080fd5b506101f3610686565b6040516102009190611ca5565b60405180910390f35b34801561021557600080fd5b50610230600480360381019061022b9190611ce5565b61068c565b60405161023d9190611ca5565b60405180910390f35b34801561025257600080fd5b5061025b6107b7565b6040516102739c9b9a99989796959493929190611e74565b60405180910390f35b34801561028857600080fd5b50610291610995565b60405161029e9190611f3c565b60405180910390f35b3480156102b357600080fd5b506102ce60048036038101906102c99190611c29565b6109a8565b6040516102dc929190611f57565b60405180910390f35b3480156102f157600080fd5b5061030c60048036038101906103079190611fac565b610a86565b6040516103199190611fe8565b60405180910390f35b34801561032e57600080fd5b50610337610ac5565b6040516103449190612003565b60405180910390f35b61036760048036038101906103629190612025565b610b53565b005b34801561037557600080fd5b50610390600480360381019061038b9190611c29565b610e62565b005b34801561039e57600080fd5b506103a7610fa5565b6040516103b5929190611f57565b60405180910390f35b3480156103ca57600080fd5b506103e560048036038101906103e09190612052565b61108b565b6040516103f29190612150565b60405180910390f35b34801561040757600080fd5b50610422600480360381019061041d91906121ab565b611216565b60405161042f9190611ca5565b60405180910390f35b34801561044457600080fd5b5061044d61123b565b60405161045a9190612003565b60405180910390f35b34801561046f57600080fd5b506104786112c9565b6040516104859190611fe8565b60405180910390f35b34801561049a57600080fd5b506104a36112ef565b6040516104b09190611ca5565b60405180910390f35b3480156104c557600080fd5b506104ce6112f5565b005b3480156104dc57600080fd5b506104e5611466565b6040516104f291906121eb565b60405180910390f35b34801561050757600080fd5b50610510611479565b60405161051d9190611fe8565b60405180910390f35b34801561053257600080fd5b5061053b61149f565b005b34801561054957600080fd5b50610564600480360381019061055f9190612206565b6116a1565b6040516105719190611ca5565b60405180910390f35b34801561058657600080fd5b5061058f6116b9565b60405161059c9190611ca5565b60405180910390f35b3480156105b157600080fd5b506105ba6116bf565b6040516105c79190611ca5565b60405180910390f35b3480156105dc57600080fd5b506105e56116c5565b005b3480156105f357600080fd5b506105fc611a1a565b6040516106099190611ca5565b60405180910390f35b34801561061e57600080fd5b5061063960048036038101906106349190612025565b611a20565b005b34801561064757600080fd5b50610650611bc0565b60405161065d9190611ca5565b60405180910390f35b600b6020528060005260406000206000915054906101000a900460ff1681565b60075481565b60008060028111156106a1576106a0611db5565b5b600460149054906101000a900460ff1660028111156106c3576106c2611db5565b5b146106d157600090506107b1565b6000600860008573ffffffffffffffffffffffffffffffffffffffff1673ffffffffffffffffffffffffffffffffffffffff168152602001908152602001600020600084600181111561072757610726611db5565b5b60ff1660ff168152602001908152602001600020549050600081036107505760009150506107b1565b60006009600085600181111561076957610768611db5565b5b60ff1660ff16815260200190815260200160002054905060008103610793576000925050506107b1565b80600a54836107a29190612262565b6107ac91906122d3565b925050505b92915050565b60006060806000806000806000806000806000805460016002600460149054906101000a900460ff16600460159054906101000a900460ff166009600080600181111561080757610806611db5565b5b60ff1660ff168152602001908152602001600020546009600060018081111561083357610832611db5565b5b60ff1660ff16815260200190815260200160002054600a54600d546005546006546007548a805461086390612333565b80601f016020809104026020016040519081016040528092919081815260200182805461088f90612333565b80156108dc5780601f106108b1576101008083540402835291602001916108dc565b820191906000526020600020905b8154815290600101906020018083116108bf57829003601f168201915b50505050509a508980546108ef90612333565b80601f016020809104026020016040519081016040528092919081815260200182805461091b90612333565b80156109685780601f1061093d57610100808354040283529160200191610968565b820191906000526020600020905b81548152906001019060200180831161094b57829003601f168201915b505050505099509b509b509b509b509b509b509b509b509b509b509b509b50909192939495969798999a9b565b600460159054906101000a900460ff1681565b600080600860008473ffffffffffffffffffffffffffffffffffffffff1673ffffffffffffffffffffffffffffffffffffffff16815260200190815260200160002060008060018111156109ff576109fe611db5565b5b60ff1660ff16815260200190815260200160002054600860008573ffffffffffffffffffffffffffffffffffffffff1673ffffffffffffffffffffffffffffffffffffffff1681526020019081526020016000206000600180811115610a6857610a67611db5565b5b60ff1660ff1681526020019081526020016000205491509150915091565b600c8181548110610a9657600080fd5b906000526020600020016000915054906101000a900473ffffffffffffffffffffffffffffffffffffffff1681565b60018054610ad290612333565b80601f0160208091040260200160405190810160405280929190818152602001828054610afe90612333565b8015610b4b5780601f10610b2057610100808354040283529160200191610b4b565b820191906000526020600020905b815481529060010190602001808311610b2e57829003601f168201915b505050505081565b6000806002811115610b6857610b67611db5565b5b600460149054906101000a900460ff166002811115610b8a57610b89611db5565b5b14610bca576040517f08c379a0000000000000000000000000000000000000000000000000000000008152600401610bc1906123b0565b60405180910390fd5b60003411610c0d576040517f08c379a0000000000000000000000000000000000000000000000000000000008152600401610c049061241c565b60405180910390fd5b600b60003373ffffffffffffffffffffffffffffffffffffffff1673ffffffffffffffffffffffffffffffffffffffff16815260200190815260200160002060009054906101000a900460ff16610d32576001600b60003373ffffffffffffffffffffffffffffffffffffffff1673ffffffffffffffffffffffffffffffffffffffff16815260200190815260200160002060006101000a81548160ff021916908315150217905550600c339080600181540180825580915050600190039060005260206000200160009091909190916101000a81548173ffffffffffffffffffffffffffffffffffffffff021916908373ffffffffffffffffffffffffffffffffffffffff160217905550600d6000815480929190610d2c9061243c565b91905055505b34600860003373ffffffffffffffffffffffffffffffffffffffff1673ffffffffffffffffffffffffffffffffffffffff1681526020019081526020016000206000846001811115610d8757610d86611db5565b5b60ff1660ff1681526020019081526020016000206000828254610daa9190612484565b925050819055503460096000846001811115610dc957610dc8611db5565b5b60ff1660ff1681526020019081526020016000206000828254610dec9190612484565b9250508190555034600a6000828254610e059190612484565b925050819055503373ffffffffffffffffffffffffffffffffffffffff167f8d3970b91d4f8dbb1a8368398f1ac8bdd7a7fb5682c8360b7396214f65d7e55f833442604051610e56939291906124b8565b60405180910390a25050565b600360009054906101000a900473ffffffffffffffffffffffffffffffffffffffff1673ffffffffffffffffffffffffffffffffffffffff163373ffffffffffffffffffffffffffffffffffffffff1614610ef2576040517f08c379a0000000000000000000000000000000000000000000000000000000008152600401610ee99061253b565b60405180910390fd5b600073ffffffffffffffffffffffffffffffffffffffff168173ffffffffffffffffffffffffffffffffffffffff1603610f61576040517f08c379a0000000000000000000000000000000000000000000000000000000008152600401610f58906125a7565b60405180910390fd5b80600360006101000a81548173ffffffffffffffffffffffffffffffffffffffff021916908373ffffffffffffffffffffffffffffffffffffffff16021790555050565b6000806000600a5403610fbe5760648091509150611087565b600060096000806001811115610fd757610fd6611db5565b5b60ff1660ff16815260200190815260200160002054905060006009600060018081111561100757611006611db5565b5b60ff1660ff1681526020019081526020016000205490506000820361103557600060c8935093505050611087565b6000810361104c5760c86000935093505050611087565b600a5460648361105c9190612262565b61106691906122d3565b9350600a546064826110789190612262565b61108291906122d3565b925050505b9091565b6060600c8054905083106110d4576040517f08c379a00000000000000000000000000000000000000000000000000000000081526004016110cb90612613565b60405180910390fd5b600082846110e29190612484565b9050600c805490508111156110fa57600c8054905090505b600084826111089190612633565b67ffffffffffffffff81111561112157611120612667565b5b60405190808252806020026020018201604052801561114f5781602001602082028036833780820191505090505b50905060008590505b8281101561120a57600c818154811061117457611173612696565b5b9060005260206000200160009054906101000a900473ffffffffffffffffffffffffffffffffffffffff168287836111ac9190612633565b815181106111bd576111bc612696565b5b602002602001019073ffffffffffffffffffffffffffffffffffffffff16908173ffffffffffffffffffffffffffffffffffffffff168152505080806112029061243c565b915050611158565b50809250505092915050565b6008602052816000526040600020602052806000526040600020600091509150505481565b6002805461124890612333565b80601f016020809104026020016040519081016040528092919081815260200182805461127490612333565b80156112c15780601f10611296576101008083540402835291602001916112c1565b820191906000526020600020905b8154815290600101906020018083116112a457829003601f168201915b505050505081565b600360009054906101000a900473ffffffffffffffffffffffffffffffffffffffff1681565b60065481565b600360009054906101000a900473ffffffffffffffffffffffffffffffffffffffff1673ffffffffffffffffffffffffffffffffffffffff163373ffffffffffffffffffffffffffffffffffffffff1614611385576040517f08c379a000000000000000000000000000000000000000000000000000000000815260040161137c9061253b565b60405180910390fd5b6000600281111561139957611398611db5565b5b600460149054906101000a900460ff1660028111156113bb576113ba611db5565b5b146113fb576040517f08c379a00000000000000000000000000000000000000000000000000000000081526004016113f290612711565b60405180910390fd5b6001600460146101000a81548160ff0219169083600281111561142157611420611db5565b5b0217905550426006819055507f9dc30b8eda31a6a144e092e5de600955523a6a925cc15cc1d1b9b4872cfa61554260405161145c9190611ca5565b60405180910390a1565b600460149054906101000a900460ff1681565b600460009054906101000a900473ffffffffffffffffffffffffffffffffffffffff1681565b600360009054906101000a900473ffffffffffffffffffffffffffffffffffffffff1673ffffffffffffffffffffffffffffffffffffffff163373ffffffffffffffffffffffffffffffffffffffff161461152f576040517f08c379a00000000000000000000000000000000000000000000000000000000081526004016115269061253b565b60405180910390fd5b600080600281111561154457611543611db5565b5b600460149054906101000a900460ff16600281111561156657611565611db5565b5b146115a6576040517f08c379a000000000000000000000000000000000000000000000000000000000815260040161159d906123b0565b60405180910390fd5b6001600460146101000a81548160ff021916908360028111156115cc576115cb611db5565b5b021790555042600681905550600460009054906101000a900473ffffffffffffffffffffffffffffffffffffffff1673ffffffffffffffffffffffffffffffffffffffff1663719d81986000546040518263ffffffff1660e01b81526004016116359190611ca5565b600060405180830381600087803b15801561164f57600080fd5b505af1158015611663573d6000803e3d6000fd5b505050507f9dc30b8eda31a6a144e092e5de600955523a6a925cc15cc1d1b9b4872cfa6155426040516116969190611ca5565b60405180910390a150565b60096020528060005260406000206000915090505481565b60055481565b60005481565b60028060028111156116da576116d9611db5565b5b600460149054906101000a900460ff1660028111156116fc576116fb611db5565b5b1461173c576040517f08c379a0000000000000000000000000000000000000000000000000000000008152600401611733906123b0565b60405180910390fd5b6000600860003373ffffffffffffffffffffffffffffffffffffffff1673ffffffffffffffffffffffffffffffffffffffff1681526020019081526020016000206000600460159054906101000a900460ff1660018111156117a1576117a0611db5565b5b60ff1660ff168152602001908152602001600020549050600081116117fb576040517f08c379a00000000000000000000000000000000000000000000000000000000081526004016117f29061277d565b60405180910390fd5b600060096000600460159054906101000a900460ff16600181111561182357611822611db5565b5b60ff1660ff1681526020019081526020016000205490506000811161187d576040517f08c379a0000000000000000000000000000000000000000000000000000000008152600401611874906127e9565b60405180910390fd5b600081600a548461188e9190612262565b61189891906122d3565b90506000600860003373ffffffffffffffffffffffffffffffffffffffff1673ffffffffffffffffffffffffffffffffffffffff1681526020019081526020016000206000600460159054906101000a900460ff1660018111156118ff576118fe611db5565b5b60ff1660ff1681526020019081526020016000208190555060003373ffffffffffffffffffffffffffffffffffffffff168260405161193d9061283a565b60006040518083038185875af1925050503d806000811461197a576040519150601f19603f3d011682016040523d82523d6000602084013e61197f565b606091505b50509050806119c3576040517f08c379a00000000000000000000000000000000000000000000000000000000081526004016119ba9061289b565b60405180910390fd5b3373ffffffffffffffffffffffffffffffffffffffff167f0408e6e0b73daf4c873106e95fd067260fbff8bf9d1b499cad563d4480d45bac8342604051611a0b929190611f57565b60405180910390a25050505050565b600a5481565b600360009054906101000a900473ffffffffffffffffffffffffffffffffffffffff1673ffffffffffffffffffffffffffffffffffffffff163373ffffffffffffffffffffffffffffffffffffffff1614611ab0576040517f08c379a0000000000000000000000000000000000000000000000000000000008152600401611aa79061253b565b60405180910390fd5b6001806002811115611ac557611ac4611db5565b5b600460149054906101000a900460ff166002811115611ae757611ae6611db5565b5b14611b27576040517f08c379a0000000000000000000000000000000000000000000000000000000008152600401611b1e906123b0565b60405180910390fd5b81600460156101000a81548160ff02191690836001811115611b4c57611b4b611db5565b5b02179055506002600460146101000a81548160ff02191690836002811115611b7757611b76611db5565b5b0217905550426007819055507fcbbe35de088a5a787855818a0fda296aeb95f616e7b99c7dcb0bf96b5697e22b8242604051611bb49291906128bb565b60405180910390a15050565b600d5481565b600080fd5b600073ffffffffffffffffffffffffffffffffffffffff82169050919050565b6000611bf682611bcb565b9050919050565b611c0681611beb565b8114611c1157600080fd5b50565b600081359050611c2381611bfd565b92915050565b600060208284031215611c3f57611c3e611bc6565b5b6000611c4d84828501611c14565b91505092915050565b60008115159050919050565b611c6b81611c56565b82525050565b6000602082019050611c866000830184611c62565b92915050565b6000819050919050565b611c9f81611c8c565b82525050565b6000602082019050611cba6000830184611c96565b92915050565b60028110611ccd57600080fd5b50565b600081359050611cdf81611cc0565b92915050565b60008060408385031215611cfc57611cfb611bc6565b5b6000611d0a85828601611c14565b9250506020611d1b85828601611cd0565b9150509250929050565b600081519050919050565b600082825260208201905092915050565b60005b83811015611d5f578082015181840152602081019050611d44565b60008484015250505050565b6000601f19601f8301169050919050565b6000611d8782611d25565b611d918185611d30565b9350611da1818560208601611d41565b611daa81611d6b565b840191505092915050565b7f4e487b7100000000000000000000000000000000000000000000000000000000600052602160045260246000fd5b60038110611df557611df4611db5565b5b50565b6000819050611e0682611de4565b919050565b6000611e1682611df8565b9050919050565b611e2681611e0b565b82525050565b60028110611e3d57611e3c611db5565b5b50565b6000819050611e4e82611e2c565b919050565b6000611e5e82611e40565b9050919050565b611e6e81611e53565b82525050565b600061018082019050611e8a600083018f611c96565b8181036020830152611e9c818e611d7c565b90508181036040830152611eb0818d611d7c565b9050611ebf606083018c611e1d565b611ecc608083018b611e65565b611ed960a083018a611c96565b611ee660c0830189611c96565b611ef360e0830188611c96565b611f01610100830187611c96565b611f0f610120830186611c96565b611f1d610140830185611c96565b611f2b610160830184611c96565b9d9c50505050505050505050505050565b6000602082019050611f516000830184611e65565b92915050565b6000604082019050611f6c6000830185611c96565b611f796020830184611c96565b9392505050565b611f8981611c8c565b8114611f9457600080fd5b50565b600081359050611fa681611f80565b92915050565b600060208284031215611fc257611fc1611bc6565b5b6000611fd084828501611f97565b91505092915050565b611fe281611beb565b82525050565b6000602082019050611ffd6000830184611fd9565b92915050565b6000602082019050818103600083015261201d8184611d7c565b905092915050565b60006020828403121561203b5761203a611bc6565b5b600061204984828501611cd0565b91505092915050565b6000806040838503121561206957612068611bc6565b5b600061207785828601611f97565b925050602061208885828601611f97565b9150509250929050565b600081519050919050565b600082825260208201905092915050565b6000819050602082019050919050565b6120c781611beb565b82525050565b60006120d983836120be565b60208301905092915050565b6000602082019050919050565b60006120fd82612092565b612107818561209d565b9350612112836120ae565b8060005b8381101561214357815161212a88826120cd565b9750612135836120e5565b925050600181019050612116565b5085935050505092915050565b6000602082019050818103600083015261216a81846120f2565b905092915050565b600060ff82169050919050565b61218881612172565b811461219357600080fd5b50565b6000813590506121a58161217f565b92915050565b600080604083850312156121c2576121c1611bc6565b5b60006121d085828601611c14565b92505060206121e185828601612196565b9150509250929050565b60006020820190506122006000830184611e1d565b92915050565b60006020828403121561221c5761221b611bc6565b5b600061222a84828501612196565b91505092915050565b7f4e487b7100000000000000000000000000000000000000000000000000000000600052601160045260246000fd5b600061226d82611c8c565b915061227883611c8c565b925082820261228681611c8c565b9150828204841483151761229d5761229c612233565b5b5092915050565b7f4e487b7100000000000000000000000000000000000000000000000000000000600052601260045260246000fd5b60006122de82611c8c565b91506122e983611c8c565b9250826122f9576122f86122a4565b5b828204905092915050565b7f4e487b7100000000000000000000000000000000000000000000000000000000600052602260045260246000fd5b6000600282049050600182168061234b57607f821691505b60208210810361235e5761235d612304565b5b50919050565b7f496e76616c696420737461746500000000000000000000000000000000000000600082015250565b600061239a600d83611d30565b91506123a582612364565b602082019050919050565b600060208201905081810360008301526123c98161238d565b9050919050565b7f4d7573742073656e642045544800000000000000000000000000000000000000600082015250565b6000612406600d83611d30565b9150612411826123d0565b602082019050919050565b60006020820190508181036000830152612435816123f9565b9050919050565b600061244782611c8c565b91507fffffffffffffffffffffffffffffffffffffffffffffffffffffffffffffffff820361247957612478612233565b5b600182019050919050565b600061248f82611c8c565b915061249a83611c8c565b92508282019050808211156124b2576124b1612233565b5b92915050565b60006060820190506124cd6000830186611e65565b6124da6020830185611c96565b6124e76040830184611c96565b949350505050565b7f4e6f74206f7261636c6500000000000000000000000000000000000000000000600082015250565b6000612525600a83611d30565b9150612530826124ef565b602082019050919050565b6000602082019050818103600083015261255481612518565b9050919050565b7f496e76616c696420616464726573730000000000000000000000000000000000600082015250565b6000612591600f83611d30565b915061259c8261255b565b602082019050919050565b600060208201905081810360008301526125c081612584565b9050919050565b7f4f6666736574206f7574206f6620626f756e6473000000000000000000000000600082015250565b60006125fd601483611d30565b9150612608826125c7565b602082019050919050565b6000602082019050818103600083015261262c816125f0565b9050919050565b600061263e82611c8c565b915061264983611c8c565b925082820390508181111561266157612660612233565b5b92915050565b7f4e487b7100000000000000000000000000000000000000000000000000000000600052604160045260246000fd5b7f4e487b7100000000000000000000000000000000000000000000000000000000600052603260045260246000fd5b7f4d61726b6574206e6f74206f70656e0000000000000000000000000000000000600082015250565b60006126fb600f83611d30565b9150612706826126c5565b602082019050919050565b6000602082019050818103600083015261272a816126ee565b9050919050565b7f4e6f2077696e6e696e6720626574000000000000000000000000000000000000600082015250565b6000612767600e83611d30565b915061277282612731565b602082019050919050565b600060208201905081810360008301526127968161275a565b9050919050565b7f4e6f2077696e6e696e6720626574730000000000000000000000000000000000600082015250565b60006127d3600f83611d30565b91506127de8261279d565b602082019050919050565b60006020820190508181036000830152612802816127c6565b9050919050565b600081905092915050565b50565b6000612824600083612809565b915061282f82612814565b600082019050919050565b600061284582612817565b9150819050919050565b7f5472616e73666572206661696c65640000000000000000000000000000000000600082015250565b6000612885600f83611d30565b91506128908261284f565b602082019050919050565b600060208201905081810360008301526128b481612878565b9050919050565b60006040820190506128d06000830185611e65565b6128dd6020830184611c96565b939250505056fea26469706673582212200a06bd2d030bad085d5bcc2ba188ba8bd9df70bdbfdd57401d8e067ec046df1764736f6c63430008130033",
  "linkReferences": {},
  "deployedLinkReferences": {}
}