{
  "_format": "hh-sol-artifact-1",
  "contractName": "PredictionMarket",
  "sourceName": "contracts/PredictionMarket.sol",
  "abi": [
    {
      "inputs": [
        {
          "internalType": "uint256[]",
          "name": "_livestreamIds",
          "type": "uint256[]"
        },
        {
          "internalType": "string",
          "name": "_question",
          "type": "string"
        },
        {
          "internalType": "string[]",
          "name": "_livestreamTitles",
          "type": "string[]"
        },
        {
          "internalType": "address",
          "name": "_oracle",
          "type": "address"
        }
      ],
      "stateMutability": "nonpayable",
      "type": "constructor"
    },
    {
      "anonymous": false,
      "inputs": [
        {
          "indexed": true,
          "internalType": "address",
          "name": "user",
          "type": "address"
        },
        {
          "indexed": true,
          "internalType": "uint256",
          "name": "livestreamId",
          "type": "uint256"
        },
        {
          "indexed": false,
          "internalType": "uint256",
          "name": "amount",
          "type": "uint256"
        },
        {
          "indexed": false,
          "internalType": "uint256",
          "name": "timestamp",
          "type": "uint256"
        }
      ],
      "name": "BetPlaced",
      "type": "event"
    },
    {
      "anonymous": false,
      "inputs": [
        {
          "indexed": true,
          "internalType": "uint256",
          "name": "livestreamId",
          "type": "uint256"
        },
        {
          "indexed": false,
          "internalType": "string",
          "name": "title",
          "type": "string"
        }
      ],
      "name": "LivestreamAdded",
      "type": "event"
    },
    {
      "anonymous": false,
      "inputs": [
        {
          "indexed": true,
          "internalType": "uint256",
          "name": "livestreamId",
          "type": "uint256"
        }
      ],
      "name": "LivestreamRemoved",
      "type": "event"
    },
    {
      "anonymous": false,
      "inputs": [
        {
          "indexed": false,
          "internalType": "uint256",
          "name": "timestamp",
          "type": "uint256"
        }
      ],
      "name": "MarketClosed",
      "type": "event"
    },
    {
      "anonymous": false,
      "inputs": [
        {
          "indexed": true,
          "internalType": "uint256",
          "name": "winningLivestreamId",
          "type": "uint256"
        },
        {
          "indexed": false,
          "internalType": "uint256",
          "name": "timestamp",
          "type": "uint256"
        }
      ],
      "name": "MarketResolved",
      "type": "event"
    },
    {
      "anonymous": false,
      "inputs": [
        {
          "indexed": true,
          "internalType": "address",
          "name": "user",
          "type": "address"
        },
        {
          "indexed": false,
          "internalType": "uint256",
          "name": "amount",
          "type": "uint256"
        },
        {
          "indexed": false,
          "internalType": "uint256",
          "name": "timestamp",
          "type": "uint256"
        }
      ],
      "name": "PayoutClaimed",
      "type": "event"
    },
    {
      "inputs": [
        {
          "internalType": "uint256",
          "name": "_livestreamId",
          "type": "uint256"
        },
        {
          "internalType": "string",
          "name": "_title",
          "type": "string"
        }
      ],
      "name": "addLivestream",
      "outputs": [],
      "stateMutability": "nonpayable",
      "type": "function"
    },
    {
      "inputs": [
        {
          "internalType": "address",
          "name": "",
          "type": "address"
        },
        {
          "internalType": "uint256",
          "name": "",
          "type": "uint256"
        }
      ],
      "name": "bets",
      "outputs": [
        {
          "internalType": "uint256",
          "name": "",
          "type": "uint256"
        }
      ],
      "stateMutability": "view",
      "type": "function"
    },
    {
      "inputs": [
        {
          "internalType": "uint256",
          "name": "",
          "type": "uint256"
        }
      ],
      "name": "bettors",
      "outputs": [
        {
          "internalType": "address",
          "name": "",
          "type": "address"
        }
      ],
      "stateMutability": "view",
      "type": "function"
    },
    {
      "inputs": [],
      "name": "claimPayout",
      "outputs": [],
      "stateMutability": "nonpayable",
      "type": "function"
    },
    {
      "inputs": [],
      "name": "closeMarket",
      "outputs": [],
      "stateMutability": "nonpayable",
      "type": "function"
    },
    {
      "inputs": [],
      "name": "closedAt",
      "outputs": [
        {
          "internalType": "uint256",
          "name": "",
          "type": "uint256"
        }
      ],
      "stateMutability": "view",
      "type": "function"
    },
    {
      "inputs": [],
      "name": "createdAt",
      "outputs": [
        {
          "internalType": "uint256",
          "name": "",
          "type": "uint256"
        }
      ],
      "stateMutability": "view",
      "type": "function"
    },
    {
      "inputs": [],
      "name": "factory",
      "outputs": [
        {
          "internalType": "address",
          "name": "",
          "type": "address"
        }
      ],
      "stateMutability": "view",
      "type": "function"
    },
    {
      "inputs": [],
      "name": "getAllLivestreamBets",
      "outputs": [
        {
          "internalType": "uint256[]",
          "name": "_livestreamIds",
          "type": "uint256[]"
        },
        {
          "internalType": "string[]",
          "name": "_titles",
          "type": "string[]"
        },
        {
          "internalType": "uint256[]",
          "name": "_amounts",
          "type": "uint256[]"
        },
        {
          "internalType": "uint256[]",
          "name": "_percentages",
          "type": "uint256[]"
        }
      ],
      "stateMutability": "view",
      "type": "function"
    },
    {
      "inputs": [
        {
          "internalType": "uint256",
          "name": "_livestreamId",
          "type": "uint256"
        }
      ],
      "name": "getLivestreamBets",
      "outputs": [
        {
          "internalType": "uint256",
          "name": "totalBetsAmount",
          "type": "uint256"
        },
        {
          "internalType": "uint256",
          "name": "percentage",
          "type": "uint256"
        },
        {
          "internalType": "bool",
          "name": "isActive",
          "type": "bool"
        }
      ],
      "stateMutability": "view",
      "type": "function"
    },
    {
      "inputs": [
        {
          "internalType": "uint256",
          "name": "_livestreamId",
          "type": "uint256"
        }
      ],
      "name": "getLivestreamData",
      "outputs": [
        {
          "internalType": "uint256",
          "name": "id",
          "type": "uint256"
        },
        {
          "internalType": "string",
          "name": "title",
          "type": "string"
        },
        {
          "internalType": "bool",
          "name": "active",
          "type": "bool"
        },
        {
          "internalType": "uint256",
          "name": "addedAt",
          "type": "uint256"
        }
      ],
      "stateMutability": "view",
      "type": "function"
    },
    {
      "inputs": [],
      "name": "getMarketInfo",
      "outputs": [
        {
          "internalType": "uint256[]",
          "name": "_livestreamIds",
          "type": "uint256[]"
        },
        {
          "internalType": "string",
          "name": "_question",
          "type": "string"
        },
        {
          "internalType": "string[]",
          "name": "_livestreamTitles",
          "type": "string[]"
        },
        {
          "internalType": "enum PredictionMarket.State",
          "name": "_state",
          "type": "uint8"
        },
        {
          "internalType": "uint256",
          "name": "_winningLivestreamId",
          "type": "uint256"
        },
        {
          "internalType": "uint256",
          "name": "_totalPool",
          "type": "uint256"
        },
        {
          "internalType": "uint256",
          "name": "_totalBettors",
          "type": "uint256"
        },
        {
          "internalType": "uint256",
          "name": "_createdAt",
          "type": "uint256"
        },
        {
          "internalType": "uint256",
          "name": "_closedAt",
          "type": "uint256"
        },
        {
          "internalType": "uint256",
          "name": "_resolvedAt",
          "type": "uint256"
        }
      ],
      "stateMutability": "view",
      "type": "function"
    },
    {
      "inputs": [
        {
          "internalType": "address",
          "name": "_user",
          "type": "address"
        }
      ],
      "name": "getUserBets",
      "outputs": [
        {
          "internalType": "uint256[]",
          "name": "_livestreamIds",
          "type": "uint256[]"
        },
        {
          "internalType": "uint256[]",
          "name": "_amounts",
          "type": "uint256[]"
        }
      ],
      "stateMutability": "view",
      "type": "function"
    },
    {
      "inputs": [
        {
          "internalType": "address",
          "name": "",
          "type": "address"
        }
      ],
      "name": "hasBet",
      "outputs": [
        {
          "internalType": "bool",
          "name": "",
          "type": "bool"
        }
      ],
      "stateMutability": "view",
      "type": "function"
    },
    {
      "inputs": [
        {
          "internalType": "uint256",
          "name": "",
          "type": "uint256"
        }
      ],
      "name": "livestreamIds",
      "outputs": [
        {
          "internalType": "uint256",
          "name": "",
          "type": "uint256"
        }
      ],
      "stateMutability": "view",
      "type": "function"
    },
    {
      "inputs": [
        {
          "internalType": "uint256",
          "name": "",
          "type": "uint256"
        }
      ],
      "name": "livestreams",
      "outputs": [
        {
          "internalType": "uint256",
          "name": "id",
          "type": "uint256"
        },
        {
          "internalType": "string",
          "name": "title",
          "type": "string"
        },
        {
          "internalType": "bool",
          "name": "active",
          "type": "bool"
        },
        {
          "internalType": "uint256",
          "name": "addedAt",
          "type": "uint256"
        }
      ],
      "stateMutability": "view",
      "type": "function"
    },
    {
      "inputs": [],
      "name": "oracle",
      "outputs": [
        {
          "internalType": "address",
          "name": "",
          "type": "address"
        }
      ],
      "stateMutability": "view",
      "type": "function"
    },
    {
      "inputs": [
        {
          "internalType": "uint256",
          "name": "_livestreamId",
          "type": "uint256"
        }
      ],
      "name": "placeBet",
      "outputs": [],
      "stateMutability": "payable",
      "type": "function"
    },
    {
      "inputs": [],
      "name": "question",
      "outputs": [
        {
          "internalType": "string",
          "name": "",
          "type": "string"
        }
      ],
      "stateMutability": "view",
      "type": "function"
    },
    {
      "inputs": [
        {
          "internalType": "uint256",
          "name": "_livestreamId",
          "type": "uint256"
        }
      ],
      "name": "removeLivestream",
      "outputs": [],
      "stateMutability": "nonpayable",
      "type": "function"
    },
    {
      "inputs": [
        {
          "internalType": "uint256",
          "name": "_winningLivestreamId",
          "type": "uint256"
        }
      ],
      "name": "resolveMarket",
      "outputs": [],
      "stateMutability": "nonpayable",
      "type": "function"
    },
    {
      "inputs": [],
      "name": "resolvedAt",
      "outputs": [
        {
          "internalType": "uint256",
          "name": "",
          "type": "uint256"
        }
      ],
      "stateMutability": "view",
      "type": "function"
    },
    {
      "inputs": [],
      "name": "state",
      "outputs": [
        {
          "internalType": "enum PredictionMarket.State",
          "name": "",
          "type": "uint8"
        }
      ],
      "stateMutability": "view",
      "type": "function"
    },
    {
      "inputs": [
        {
          "internalType": "uint256",
          "name": "",
          "type": "uint256"
        }
      ],
      "name": "totalBets",
      "outputs": [
        {
          "internalType": "uint256",
          "name": "",
          "type": "uint256"
        }
      ],
      "stateMutability": "view",
      "type": "function"
    },
    {
      "inputs": [],
      "name": "totalBettors",
      "outputs": [
        {
          "internalType": "uint256",
          "name": "",
          "type": "uint256"
        }
      ],
      "stateMutability": "view",
      "type": "function"
    },
    {
      "inputs": [],
      "name": "totalPool",
      "outputs": [
        {
          "internalType": "uint256",
          "name": "",
          "type": "uint256"
        }
      ],
      "stateMutability": "view",
      "type": "function"
    },
    {
      "inputs": [],
      "name": "winningLivestreamId",
      "outputs": [
        {
          "internalType": "uint256",
          "name": "",
          "type": "uint256"
        }
      ],
      "stateMutability": "view",
      "type": "function"
    }
  ],
  "bytecode": "0x60806040523480156200001157600080fd5b50604051620027f5380380620027f583398101604081905262000034916200043c565b81518451146200007f5760405162461bcd60e51b81526020600482015260116024820152704d69736d6174636865642061727261797360781b60448201526064015b60405180910390fd5b60026200008d8482620005cc565b50600380546001600160a01b0319166001600160a01b038316179055600480546001600160a81b0319163360ff60a01b19161790554260065560005b84518110156200027e576000858281518110620000ea57620000ea62000698565b6020026020010151905080600003620001465760405162461bcd60e51b815260206004820152601560248201527f496e76616c6964206c69766573747265616d2049440000000000000000000000604482015260640162000076565b60008181526020819052604090206002015460ff1615620001aa5760405162461bcd60e51b815260206004820152601960248201527f4c69766573747265616d20616c72656164792065786973747300000000000000604482015260640162000076565b6040518060800160405280828152602001858481518110620001d057620001d062000698565b602090810291909101810151825260018282018190524260409384015260008581528083529290922083518155908301519091820190620002129082620005cc565b50604082015160028201805460ff19169115159190911790556060909101516003909101556001805480820182556000919091527fb10e2d527612073b26eecdfd717e6a320cf44b4afac2b0732d9fcbe2b7fa0cf60155806200027581620006ae565b915050620000c9565b5050505050620006d6565b634e487b7160e01b600052604160045260246000fd5b604051601f8201601f191681016001600160401b0381118282101715620002ca57620002ca62000289565b604052919050565b60006001600160401b03821115620002ee57620002ee62000289565b5060051b60200190565b600082601f8301126200030a57600080fd5b81516001600160401b0381111562000326576200032662000289565b60206200033c601f8301601f191682016200029f565b82815285828487010111156200035157600080fd5b60005b838110156200037157858101830151828201840152820162000354565b506000928101909101919091529392505050565b600082601f8301126200039757600080fd5b81516020620003b0620003aa83620002d2565b6200029f565b82815260059290921b84018101918181019086841115620003d057600080fd5b8286015b84811015620004145780516001600160401b03811115620003f55760008081fd5b620004058986838b0101620002f8565b845250918301918301620003d4565b509695505050505050565b80516001600160a01b03811681146200043757600080fd5b919050565b600080600080608085870312156200045357600080fd5b84516001600160401b03808211156200046b57600080fd5b818701915087601f8301126200048057600080fd5b8151602062000493620003aa83620002d2565b82815260059290921b8401810191818101908b841115620004b357600080fd5b948201945b83861015620004d357855182529482019490820190620004b8565b918a0151919850909350505080821115620004ed57600080fd5b620004fb88838901620002f8565b945060408701519150808211156200051257600080fd5b50620005218782880162000385565b92505062000532606086016200041f565b905092959194509250565b600181811c908216806200055257607f821691505b6020821081036200057357634e487b7160e01b600052602260045260246000fd5b50919050565b601f821115620005c757600081815260208120601f850160051c81016020861015620005a25750805b601f850160051c820191505b81811015620005c357828155600101620005ae565b5050505b505050565b81516001600160401b03811115620005e857620005e862000289565b6200060081620005f984546200053d565b8462000579565b602080601f8311600181146200063857600084156200061f5750858301515b600019600386901b1c1916600185901b178555620005c3565b600085815260208120601f198616915b82811015620006695788860151825594840194600190910190840162000648565b5085821015620006885787850151600019600388901b60f8161c191681555b5050505050600190811b01905550565b634e487b7160e01b600052603260045260246000fd5b600060018201620006cf57634e487b7160e01b600052601160045260246000fd5b5060010190565b61210f80620006e66000396000f3fe60806040526004361061019c5760003560e01c80638d6dabc0116100ec578063d2b2e9731161008a578063ecfb49a311610064578063ecfb49a314610507578063f5bbcd2a1461051d578063f662604214610533578063f6767adf1461055357600080fd5b8063d2b2e973146104bc578063dcf6e037146104dc578063e88499a9146104f257600080fd5b8063c19d93fb116100c6578063c19d93fb14610443578063c45a015514610471578063c511ed5e14610491578063cf09e0d0146104a657600080fd5b80638d6dabc0146103d05780639ef27b001461040d578063b72c923e1461042357600080fd5b80633482b644116101595780634a39ec90116101335780634a39ec90146103335780636399d03d1461036b5780637dc0d1d01461038b57806385387382146103ab57600080fd5b80633482b644146102ac578063374c6e1c146102e45780633fad9ae01461031157600080fd5b806301e5c96e146101a157806310fe7c48146101da578063136f1016146101ef57806319effeb41461022f57806323341a05146102535780632d56657d1461027e575b600080fd5b3480156101ad57600080fd5b506101c16101bc366004611a8a565b610573565b6040516101d19493929190611ae9565b60405180910390f35b6101ed6101e8366004611a8a565b610628565b005b3480156101fb57600080fd5b5061021f61020a366004611b31565b600c6020526000908152604090205460ff1681565b60405190151581526020016101d1565b34801561023b57600080fd5b5061024560085481565b6040519081526020016101d1565b34801561025f57600080fd5b5061026861083e565b6040516101d19a99989796959493929190611c1b565b34801561028a57600080fd5b5061029e610299366004611b31565b610ac2565b6040516101d1929190611c9c565b3480156102b857600080fd5b506102cc6102c7366004611a8a565b610c9a565b6040516001600160a01b0390911681526020016101d1565b3480156102f057600080fd5b506102456102ff366004611a8a565b600a6020526000908152604090205481565b34801561031d57600080fd5b50610326610cc4565b6040516101d19190611cca565b34801561033f57600080fd5b5061024561034e366004611cdd565b600960209081526000928352604080842090915290825290205481565b34801561037757600080fd5b506101ed610386366004611a8a565b610d52565b34801561039757600080fd5b506003546102cc906001600160a01b031681565b3480156103b757600080fd5b506103c0610e6e565b6040516101d19493929190611d07565b3480156103dc57600080fd5b506103f06103eb366004611a8a565b6111f1565b6040805193845260208401929092521515908201526060016101d1565b34801561041957600080fd5b5061024560075481565b34801561042f57600080fd5b5061024561043e366004611a8a565b6112a9565b34801561044f57600080fd5b5060045461046490600160a01b900460ff1681565b6040516101d19190611d5f565b34801561047d57600080fd5b506004546102cc906001600160a01b031681565b34801561049d57600080fd5b506101ed6112ca565b3480156104b257600080fd5b5061024560065481565b3480156104c857600080fd5b506101c16104d7366004611a8a565b6113e4565b3480156104e857600080fd5b5061024560055481565b3480156104fe57600080fd5b506101ed6114e4565b34801561051357600080fd5b50610245600b5481565b34801561052957600080fd5b50610245600e5481565b34801561053f57600080fd5b506101ed61054e366004611d89565b6116d1565b34801561055f57600080fd5b506101ed61056e366004611a8a565b6118c2565b6000602081905290815260409020805460018201805491929161059590611e44565b80601f01602080910402602001604051908101604052809291908181526020018280546105c190611e44565b801561060e5780601f106105e35761010080835404028352916020019161060e565b820191906000526020600020905b8154815290600101906020018083116105f157829003601f168201915b505050506002830154600390930154919260ff1691905084565b600080600454600160a01b900460ff16600281111561064957610649611be3565b1461066f5760405162461bcd60e51b815260040161066690611e7e565b60405180910390fd5b600034116106af5760405162461bcd60e51b815260206004820152600d60248201526c09aeae6e840e6cadcc8408aa89609b1b6044820152606401610666565b600082815260208190526040812054900361070c5760405162461bcd60e51b815260206004820152601860248201527f4c69766573747265616d206e6f7420696e206d61726b657400000000000000006044820152606401610666565b336000908152600c602052604090205460ff1661079357336000818152600c60205260408120805460ff19166001908117909155600d8054918201815582527fd7b6990105719101dabeb77144f2a3385c8033acd3af97e9423a695e81ad1eb50180546001600160a01b031916909217909155600e80549161078d83611ebb565b91905055505b336000908152600960209081526040808320858452909152812080543492906107bd908490611ed4565b90915550506000828152600a6020526040812080543492906107e0908490611ed4565b9250508190555034600b60008282546107f99190611ed4565b909155505060408051348152426020820152839133917f7363e6581df4db69463222156be4a09656528b9f1302890fa4c0b60819b69fc6910160405180910390a35050565b606080606060008060008060008060008060018054905067ffffffffffffffff81111561086d5761086d611d73565b6040519080825280602002602001820160405280156108a057816020015b606081526020019060019003908161088b5790505b50905060005b60015481101561099b57600080600183815481106108c6576108c6611ee7565b9060005260206000200154815260200190815260200160002060010180546108ed90611e44565b80601f016020809104026020016040519081016040528092919081815260200182805461091990611e44565b80156109665780601f1061093b57610100808354040283529160200191610966565b820191906000526020600020905b81548152906001019060200180831161094957829003601f168201915b505050505082828151811061097d5761097d611ee7565b6020026020010181905250808061099390611ebb565b9150506108a6565b506001600282600460149054906101000a900460ff16600554600b54600e5460065460075460085489805480602002602001604051908101604052809291908181526020018280548015610a0e57602002820191906000526020600020905b8154815260200190600101908083116109fa575b50505050509950888054610a2190611e44565b80601f0160208091040260200160405190810160405280929190818152602001828054610a4d90611e44565b8015610a9a5780601f10610a6f57610100808354040283529160200191610a9a565b820191906000526020600020905b815481529060010190602001808311610a7d57829003601f168201915b505050505098509a509a509a509a509a509a509a509a509a509a505090919293949596979899565b6060806000805b600154811015610b305760008060018381548110610ae957610ae9611ee7565b6000918252602080832090910154835282019290925260400190206002015460ff1615610b1e5781610b1a81611ebb565b9250505b80610b2881611ebb565b915050610ac9565b5060008167ffffffffffffffff811115610b4c57610b4c611d73565b604051908082528060200260200182016040528015610b75578160200160208202803683370190505b50905060008267ffffffffffffffff811115610b9357610b93611d73565b604051908082528060200260200182016040528015610bbc578160200160208202803683370190505b5090506000805b600154811015610c8d57600060018281548110610be257610be2611ee7565b60009182526020808320909101548083529082905260409091206002015490915060ff1615610c7a5780858481518110610c1e57610c1e611ee7565b6020908102919091018101919091526001600160a01b038a16600090815260098252604080822084835290925220548451859085908110610c6157610c61611ee7565b602090810291909101015282610c7681611ebb565b9350505b5080610c8581611ebb565b915050610bc3565b5091969095509350505050565b600d8181548110610caa57600080fd5b6000918252602090912001546001600160a01b0316905081565b60028054610cd190611e44565b80601f0160208091040260200160405190810160405280929190818152602001828054610cfd90611e44565b8015610d4a5780601f10610d1f57610100808354040283529160200191610d4a565b820191906000526020600020905b815481529060010190602001808311610d2d57829003601f168201915b505050505081565b6003546001600160a01b03163314610d7c5760405162461bcd60e51b815260040161066690611efd565b600180600454600160a01b900460ff166002811115610d9d57610d9d611be3565b14610dba5760405162461bcd60e51b815260040161066690611e7e565b6000828152602081905260408120549003610e175760405162461bcd60e51b815260206004820152601a60248201527f496e76616c69642077696e6e696e67206c69766573747265616d0000000000006044820152606401610666565b60058290556004805460ff60a01b1916600160a11b179055426008819055604080519182525183917f6dfc24f0f2fb42e49fb4fa3ffa8abb148cab908a1fb8335b3f128a08b2594af1919081900360200190a25050565b6060806060806000805b600154811015610edf5760008060018381548110610e9857610e98611ee7565b6000918252602080832090910154835282019290925260400190206002015460ff1615610ecd5781610ec981611ebb565b9250505b80610ed781611ebb565b915050610e78565b5060008167ffffffffffffffff811115610efb57610efb611d73565b604051908082528060200260200182016040528015610f24578160200160208202803683370190505b50905060008267ffffffffffffffff811115610f4257610f42611d73565b604051908082528060200260200182016040528015610f7557816020015b6060815260200190600190039081610f605790505b50905060008367ffffffffffffffff811115610f9357610f93611d73565b604051908082528060200260200182016040528015610fbc578160200160208202803683370190505b50905060008467ffffffffffffffff811115610fda57610fda611d73565b604051908082528060200260200182016040528015611003578160200160208202803683370190505b5090506000805b6001548110156111e05760006001828154811061102957611029611ee7565b60009182526020808320909101548083529082905260409091206002015490915060ff16156111cd578087848151811061106557611065611ee7565b602002602001018181525050600080828152602001908152602001600020600101805461109190611e44565b80601f01602080910402602001604051908101604052809291908181526020018280546110bd90611e44565b801561110a5780601f106110df5761010080835404028352916020019161110a565b820191906000526020600020905b8154815290600101906020018083116110ed57829003601f168201915b505050505086848151811061112157611121611ee7565b6020026020010181905250600a60008281526020019081526020016000205485848151811061115257611152611ee7565b6020026020010181815250506000600b541161116f5760006111a2565b600b5485848151811061118457611184611ee7565b602002602001015160646111989190611f21565b6111a29190611f38565b8484815181106111b4576111b4611ee7565b6020908102919091010152826111c981611ebb565b9350505b50806111d881611ebb565b91505061100a565b509399929850909650945092505050565b6000818152602081905260408120600201548190819060ff1661124e5760405162461bcd60e51b81526020600482015260156024820152744c69766573747265616d206e6f742061637469766560581b6044820152606401610666565b6000848152600a6020526040812054600b5490919061126e576000611286565b600b5461127c836064611f21565b6112869190611f38565b60009687526020879052604090962060020154919660ff90921694509092505050565b600181815481106112b957600080fd5b600091825260209091200154905081565b6003546001600160a01b031633146112f45760405162461bcd60e51b815260040161066690611efd565b600080600454600160a01b900460ff16600281111561131557611315611be3565b146113325760405162461bcd60e51b815260040161066690611e7e565b60048054600160a01b60ff60a01b198216178255426007556040516355ef017760e11b81526001600160a01b039091169163abde02ee916113769160019101611f5a565b600060405180830381600087803b15801561139057600080fd5b505af11580156113a4573d6000803e3d6000fd5b505050507f9dc30b8eda31a6a144e092e5de600955523a6a925cc15cc1d1b9b4872cfa6155426040516113d991815260200190565b60405180910390a150565b6000606060008060008060008781526020019081526020016000206040518060800160405290816000820154815260200160018201805461142490611e44565b80601f016020809104026020016040519081016040528092919081815260200182805461145090611e44565b801561149d5780601f106114725761010080835404028352916020019161149d565b820191906000526020600020905b81548152906001019060200180831161148057829003601f168201915b5050509183525050600282015460ff161515602080830191909152600390920154604091820152825191830151908301516060909301519199909850919650945092505050565b600280600454600160a01b900460ff16600281111561150557611505611be3565b146115225760405162461bcd60e51b815260040161066690611e7e565b33600090815260096020908152604080832060055484529091529020548061157d5760405162461bcd60e51b815260206004820152600e60248201526d139bc81dda5b9b9a5b99c818995d60921b6044820152606401610666565b6005546000908152600a6020526040902054806115ce5760405162461bcd60e51b815260206004820152600f60248201526e4e6f2077696e6e696e67206265747360881b6044820152606401610666565b600081600b54846115df9190611f21565b6115e99190611f38565b3360008181526009602090815260408083206005548452909152808220829055519293509183908381818185875af1925050503d8060008114611648576040519150601f19603f3d011682016040523d82523d6000602084013e61164d565b606091505b50509050806116905760405162461bcd60e51b815260206004820152600f60248201526e151c985b9cd9995c8819985a5b1959608a1b6044820152606401610666565b6040805183815242602082015233917f0408e6e0b73daf4c873106e95fd067260fbff8bf9d1b499cad563d4480d45bac910160405180910390a25050505050565b6003546001600160a01b031633146116fb5760405162461bcd60e51b815260040161066690611efd565b600080600454600160a01b900460ff16600281111561171c5761171c611be3565b146117395760405162461bcd60e51b815260040161066690611e7e565b826000036117815760405162461bcd60e51b8152602060048201526015602482015274125b9d985b1a59081b1a5d995cdd1c99585b481251605a1b6044820152606401610666565b60008381526020819052604090206002015460ff16156117e35760405162461bcd60e51b815260206004820152601960248201527f4c69766573747265616d20616c726561647920657869737473000000000000006044820152606401610666565b604080516080810182528481526020808201858152600183850181905242606085015260008881529283905293909120825181559051919290919082019061182b9082611ff0565b5060408281015160028301805460ff19169115159190911790556060909201516003909101556001805480820182556000919091527fb10e2d527612073b26eecdfd717e6a320cf44b4afac2b0732d9fcbe2b7fa0cf6018490555183907fbad020c4dc5e670ec5b6ea36d7cc02f852551d9ccc04429028af440b4c7ce148906118b5908590611cca565b60405180910390a2505050565b6003546001600160a01b031633146118ec5760405162461bcd60e51b815260040161066690611efd565b600080600454600160a01b900460ff16600281111561190d5761190d611be3565b1461192a5760405162461bcd60e51b815260040161066690611e7e565b60008281526020819052604090206002015460ff1661198b5760405162461bcd60e51b815260206004820181905260248201527f4c69766573747265616d206e6f7420666f756e64206f7220696e6163746976656044820152606401610666565b6000828152602081905260408120600201805460ff191690555b600154811015611a5a5782600182815481106119c3576119c3611ee7565b906000526020600020015403611a4857600180546119e29082906120b0565b815481106119f2576119f2611ee7565b906000526020600020015460018281548110611a1057611a10611ee7565b6000918252602090912001556001805480611a2d57611a2d6120c3565b60019003818190600052602060002001600090559055611a5a565b80611a5281611ebb565b9150506119a5565b5060405182907f799598b7447b0eb8c73a9499876bc1798cdf2a050595baeed5c560a8722b278e90600090a25050565b600060208284031215611a9c57600080fd5b5035919050565b6000815180845260005b81811015611ac957602081850181015186830182015201611aad565b506000602082860101526020601f19601f83011685010191505092915050565b848152608060208201526000611b026080830186611aa3565b9315156040830152506060015292915050565b80356001600160a01b0381168114611b2c57600080fd5b919050565b600060208284031215611b4357600080fd5b611b4c82611b15565b9392505050565b600081518084526020808501945080840160005b83811015611b8357815187529582019590820190600101611b67565b509495945050505050565b600081518084526020808501808196508360051b8101915082860160005b85811015611bd6578284038952611bc4848351611aa3565b98850198935090840190600101611bac565b5091979650505050505050565b634e487b7160e01b600052602160045260246000fd5b60038110611c1757634e487b7160e01b600052602160045260246000fd5b9052565b6000610140808352611c2f8184018e611b53565b90508281036020840152611c43818d611aa3565b90508281036040840152611c57818c611b8e565b915050611c67606083018a611bf9565b8760808301528660a08301528560c08301528460e083015283610100830152826101208301529b9a5050505050505050505050565b604081526000611caf6040830185611b53565b8281036020840152611cc18185611b53565b95945050505050565b602081526000611b4c6020830184611aa3565b60008060408385031215611cf057600080fd5b611cf983611b15565b946020939093013593505050565b608081526000611d1a6080830187611b53565b8281036020840152611d2c8187611b8e565b90508281036040840152611d408186611b53565b90508281036060840152611d548185611b53565b979650505050505050565b60208101611d6d8284611bf9565b92915050565b634e487b7160e01b600052604160045260246000fd5b60008060408385031215611d9c57600080fd5b82359150602083013567ffffffffffffffff80821115611dbb57600080fd5b818501915085601f830112611dcf57600080fd5b813581811115611de157611de1611d73565b604051601f8201601f19908116603f01168101908382118183101715611e0957611e09611d73565b81604052828152886020848701011115611e2257600080fd5b8260208601602083013760006020848301015280955050505050509250929050565b600181811c90821680611e5857607f821691505b602082108103611e7857634e487b7160e01b600052602260045260246000fd5b50919050565b6020808252600d908201526c496e76616c696420737461746560981b604082015260600190565b634e487b7160e01b600052601160045260246000fd5b600060018201611ecd57611ecd611ea5565b5060010190565b80820180821115611d6d57611d6d611ea5565b634e487b7160e01b600052603260045260246000fd5b6020808252600a90820152694e6f74206f7261636c6560b01b604082015260600190565b8082028115828204841417611d6d57611d6d611ea5565b600082611f5557634e487b7160e01b600052601260045260246000fd5b500490565b6020808252825482820181905260008481528281209092916040850190845b81811015611f9557835483526001938401939285019201611f79565b50909695505050505050565b601f821115611feb57600081815260208120601f850160051c81016020861015611fc85750805b601f850160051c820191505b81811015611fe757828155600101611fd4565b5050505b505050565b815167ffffffffffffffff81111561200a5761200a611d73565b61201e816120188454611e44565b84611fa1565b602080601f831160018114612053576000841561203b5750858301515b600019600386901b1c1916600185901b178555611fe7565b600085815260208120601f198616915b8281101561208257888601518255948401946001909101908401612063565b50858210156120a05787850151600019600388901b60f8161c191681555b5050505050600190811b01905550565b81810381811115611d6d57611d6d611ea5565b634e487b7160e01b600052603160045260246000fdfea26469706673582212207ea88636a8b9c3c08e23d75b27b0a84285a8d865d80346bacfe76a97b41e63f864736f6c63430008130033",
  "linkReferences": {},
  "deployedLinkReferences": {}
}