{
  "_format": "hh-sol-artifact-1",
  "contractName": "PredictionMarket",
  "sourceName": "contracts/PredictionMarket.sol",
  "abi": [
    {
      "inputs": [
        {
          "internalType": "uint256[]",
          "name": "_livestreamIds",
          "type": "uint256[]"
        },
        {
          "internalType": "string",
          "name": "_question",
          "type": "string"
        },
        {
          "internalType": "string[]",
          "name": "_livestreamTitles",
          "type": "string[]"
        },
        {
          "internalType": "address",
          "name": "_oracle",
          "type": "address"
        }
      ],
      "stateMutability": "nonpayable",
      "type": "constructor"
    },
    {
      "anonymous": false,
      "inputs": [
        {
          "indexed": true,
          "internalType": "address",
          "name": "user",
          "type": "address"
        },
        {
          "indexed": true,
          "internalType": "uint256",
          "name": "livestreamId",
          "type": "uint256"
        },
        {
          "indexed": false,
          "internalType": "uint256",
          "name": "amount",
          "type": "uint256"
        },
        {
          "indexed": false,
          "internalType": "uint256",
          "name": "timestamp",
          "type": "uint256"
        }
      ],
      "name": "BetPlaced",
      "type": "event"
    },
    {
      "anonymous": false,
      "inputs": [
        {
          "indexed": true,
          "internalType": "uint256",
          "name": "livestreamId",
          "type": "uint256"
        },
        {
          "indexed": false,
          "internalType": "string",
          "name": "title",
          "type": "string"
        }
      ],
      "name": "LivestreamAdded",
      "type": "event"
    },
    {
      "anonymous": false,
      "inputs": [
        {
          "indexed": true,
          "internalType": "uint256",
          "name": "livestreamId",
          "type": "uint256"
        }
      ],
      "name": "LivestreamRemoved",
      "type": "event"
    },
    {
      "anonymous": false,
      "inputs": [
        {
          "indexed": false,
          "internalType": "uint256",
          "name": "timestamp",
          "type": "uint256"
        }
      ],
      "name": "MarketClosed",
      "type": "event"
    },
    {
      "anonymous": false,
      "inputs": [
        {
          "indexed": true,
          "internalType": "uint256",
          "name": "winningLivestreamId",
          "type": "uint256"
        },
        {
          "indexed": false,
          "internalType": "uint256",
          "name": "timestamp",
          "type": "uint256"
        }
      ],
      "name": "MarketResolved",
      "type": "event"
    },
    {
      "anonymous": false,
      "inputs": [
        {
          "indexed": true,
          "internalType": "address",
          "name": "user",
          "type": "address"
        },
        {
          "indexed": false,
          "internalType": "uint256",
          "name": "amount",
          "type": "uint256"
        },
        {
          "indexed": false,
          "internalType": "uint256",
          "name": "timestamp",
          "type": "uint256"
        }
      ],
      "name": "PayoutClaimed",
      "type": "event"
    },
    {
      "inputs": [
        {
          "internalType": "uint256",
          "name": "_livestreamId",
          "type": "uint256"
        },
        {
          "internalType": "string",
          "name": "_title",
          "type": "string"
        }
      ],
      "name": "addLivestream",
      "outputs": [],
      "stateMutability": "nonpayable",
      "type": "function"
    },
    {
      "inputs": [
        {
          "internalType": "uint256",
          "name": "_livestreamId",
          "type": "uint256"
        },
        {
          "internalType": "string",
          "name": "_title",
          "type": "string"
        }
      ],
      "name": "addLivestreamWithTitle",
      "outputs": [],
      "stateMutability": "nonpayable",
      "type": "function"
    },
    {
      "inputs": [
        {
          "internalType": "address",
          "name": "",
          "type": "address"
        },
        {
          "internalType": "uint256",
          "name": "",
          "type": "uint256"
        }
      ],
      "name": "bets",
      "outputs": [
        {
          "internalType": "uint256",
          "name": "",
          "type": "uint256"
        }
      ],
      "stateMutability": "view",
      "type": "function"
    },
    {
      "inputs": [
        {
          "internalType": "uint256",
          "name": "",
          "type": "uint256"
        }
      ],
      "name": "bettors",
      "outputs": [
        {
          "internalType": "address",
          "name": "",
          "type": "address"
        }
      ],
      "stateMutability": "view",
      "type": "function"
    },
    {
      "inputs": [],
      "name": "claimPayout",
      "outputs": [],
      "stateMutability": "nonpayable",
      "type": "function"
    },
    {
      "inputs": [],
      "name": "closeMarket",
      "outputs": [],
      "stateMutability": "nonpayable",
      "type": "function"
    },
    {
      "inputs": [],
      "name": "closedAt",
      "outputs": [
        {
          "internalType": "uint256",
          "name": "",
          "type": "uint256"
        }
      ],
      "stateMutability": "view",
      "type": "function"
    },
    {
      "inputs": [],
      "name": "createdAt",
      "outputs": [
        {
          "internalType": "uint256",
          "name": "",
          "type": "uint256"
        }
      ],
      "stateMutability": "view",
      "type": "function"
    },
    {
      "inputs": [],
      "name": "factory",
      "outputs": [
        {
          "internalType": "address",
          "name": "",
          "type": "address"
        }
      ],
      "stateMutability": "view",
      "type": "function"
    },
    {
      "inputs": [],
      "name": "getAllLivestreamBets",
      "outputs": [
        {
          "internalType": "uint256[]",
          "name": "_livestreamIds",
          "type": "uint256[]"
        },
        {
          "internalType": "string[]",
          "name": "_titles",
          "type": "string[]"
        },
        {
          "internalType": "uint256[]",
          "name": "_amounts",
          "type": "uint256[]"
        },
        {
          "internalType": "uint256[]",
          "name": "_percentages",
          "type": "uint256[]"
        }
      ],
      "stateMutability": "view",
      "type": "function"
    },
    {
      "inputs": [
        {
          "internalType": "uint256",
          "name": "_livestreamId",
          "type": "uint256"
        }
      ],
      "name": "getLivestreamBets",
      "outputs": [
        {
          "internalType": "uint256",
          "name": "totalBetsAmount",
          "type": "uint256"
        },
        {
          "internalType": "uint256",
          "name": "percentage",
          "type": "uint256"
        },
        {
          "internalType": "bool",
          "name": "isActive",
          "type": "bool"
        }
      ],
      "stateMutability": "view",
      "type": "function"
    },
    {
      "inputs": [
        {
          "internalType": "uint256",
          "name": "_livestreamId",
          "type": "uint256"
        }
      ],
      "name": "getLivestreamData",
      "outputs": [
        {
          "internalType": "uint256",
          "name": "id",
          "type": "uint256"
        },
        {
          "internalType": "string",
          "name": "title",
          "type": "string"
        },
        {
          "internalType": "bool",
          "name": "active",
          "type": "bool"
        },
        {
          "internalType": "uint256",
          "name": "addedAt",
          "type": "uint256"
        }
      ],
      "stateMutability": "view",
      "type": "function"
    },
    {
      "inputs": [],
      "name": "getMarketInfo",
      "outputs": [
        {
          "internalType": "uint256[]",
          "name": "_livestreamIds",
          "type": "uint256[]"
        },
        {
          "internalType": "string",
          "name": "_question",
          "type": "string"
        },
        {
          "internalType": "string[]",
          "name": "_livestreamTitles",
          "type": "string[]"
        },
        {
          "internalType": "enum PredictionMarket.State",
          "name": "_state",
          "type": "uint8"
        },
        {
          "internalType": "uint256",
          "name": "_winningLivestreamId",
          "type": "uint256"
        },
        {
          "internalType": "uint256",
          "name": "_totalPool",
          "type": "uint256"
        },
        {
          "internalType": "uint256",
          "name": "_totalBettors",
          "type": "uint256"
        },
        {
          "internalType": "uint256",
          "name": "_createdAt",
          "type": "uint256"
        },
        {
          "internalType": "uint256",
          "name": "_closedAt",
          "type": "uint256"
        },
        {
          "internalType": "uint256",
          "name": "_resolvedAt",
          "type": "uint256"
        }
      ],
      "stateMutability": "view",
      "type": "function"
    },
    {
      "inputs": [
        {
          "internalType": "address",
          "name": "_user",
          "type": "address"
        }
      ],
      "name": "getUserBets",
      "outputs": [
        {
          "internalType": "uint256[]",
          "name": "_livestreamIds",
          "type": "uint256[]"
        },
        {
          "internalType": "uint256[]",
          "name": "_amounts",
          "type": "uint256[]"
        }
      ],
      "stateMutability": "view",
      "type": "function"
    },
    {
      "inputs": [
        {
          "internalType": "address",
          "name": "",
          "type": "address"
        }
      ],
      "name": "hasBet",
      "outputs": [
        {
          "internalType": "bool",
          "name": "",
          "type": "bool"
        }
      ],
      "stateMutability": "view",
      "type": "function"
    },
    {
      "inputs": [
        {
          "internalType": "uint256",
          "name": "",
          "type": "uint256"
        }
      ],
      "name": "livestreamIds",
      "outputs": [
        {
          "internalType": "uint256",
          "name": "",
          "type": "uint256"
        }
      ],
      "stateMutability": "view",
      "type": "function"
    },
    {
      "inputs": [
        {
          "internalType": "uint256",
          "name": "",
          "type": "uint256"
        }
      ],
      "name": "livestreams",
      "outputs": [
        {
          "internalType": "uint256",
          "name": "id",
          "type": "uint256"
        },
        {
          "internalType": "string",
          "name": "title",
          "type": "string"
        },
        {
          "internalType": "bool",
          "name": "active",
          "type": "bool"
        },
        {
          "internalType": "uint256",
          "name": "addedAt",
          "type": "uint256"
        }
      ],
      "stateMutability": "view",
      "type": "function"
    },
    {
      "inputs": [],
      "name": "oracle",
      "outputs": [
        {
          "internalType": "address",
          "name": "",
          "type": "address"
        }
      ],
      "stateMutability": "view",
      "type": "function"
    },
    {
      "inputs": [
        {
          "internalType": "uint256",
          "name": "_livestreamId",
          "type": "uint256"
        }
      ],
      "name": "placeBet",
      "outputs": [],
      "stateMutability": "payable",
      "type": "function"
    },
    {
      "inputs": [],
      "name": "question",
      "outputs": [
        {
          "internalType": "string",
          "name": "",
          "type": "string"
        }
      ],
      "stateMutability": "view",
      "type": "function"
    },
    {
      "inputs": [
        {
          "internalType": "uint256",
          "name": "_livestreamId",
          "type": "uint256"
        }
      ],
      "name": "removeLivestream",
      "outputs": [],
      "stateMutability": "nonpayable",
      "type": "function"
    },
    {
      "inputs": [
        {
          "internalType": "uint256",
          "name": "_winningLivestreamId",
          "type": "uint256"
        }
      ],
      "name": "resolveMarket",
      "outputs": [],
      "stateMutability": "nonpayable",
      "type": "function"
    },
    {
      "inputs": [],
      "name": "resolvedAt",
      "outputs": [
        {
          "internalType": "uint256",
          "name": "",
          "type": "uint256"
        }
      ],
      "stateMutability": "view",
      "type": "function"
    },
    {
      "inputs": [],
      "name": "state",
      "outputs": [
        {
          "internalType": "enum PredictionMarket.State",
          "name": "",
          "type": "uint8"
        }
      ],
      "stateMutability": "view",
      "type": "function"
    },
    {
      "inputs": [
        {
          "internalType": "uint256",
          "name": "",
          "type": "uint256"
        }
      ],
      "name": "totalBets",
      "outputs": [
        {
          "internalType": "uint256",
          "name": "",
          "type": "uint256"
        }
      ],
      "stateMutability": "view",
      "type": "function"
    },
    {
      "inputs": [],
      "name": "totalBettors",
      "outputs": [
        {
          "internalType": "uint256",
          "name": "",
          "type": "uint256"
        }
      ],
      "stateMutability": "view",
      "type": "function"
    },
    {
      "inputs": [],
      "name": "totalPool",
      "outputs": [
        {
          "internalType": "uint256",
          "name": "",
          "type": "uint256"
        }
      ],
      "stateMutability": "view",
      "type": "function"
    },
    {
      "inputs": [
        {
          "internalType": "uint256",
          "name": "_livestreamId",
          "type": "uint256"
        },
        {
          "internalType": "string",
          "name": "_newTitle",
          "type": "string"
        }
      ],
      "name": "updateLivestreamTitle",
      "outputs": [],
      "stateMutability": "nonpayable",
      "type": "function"
    },
    {
      "inputs": [],
      "name": "winningLivestreamId",
      "outputs": [
        {
          "internalType": "uint256",
          "name": "",
          "type": "uint256"
        }
      ],
      "stateMutability": "view",
      "type": "function"
    }
  ],
  "bytecode": "0x60806040523480156200001157600080fd5b5060405162002d9338038062002d9383398101604081905262000034916200043c565b81518451146200007f5760405162461bcd60e51b81526020600482015260116024820152704d69736d6174636865642061727261797360781b60448201526064015b60405180910390fd5b60026200008d8482620005cc565b50600380546001600160a01b0319166001600160a01b038316179055600480546001600160a81b0319163360ff60a01b19161790554260065560005b84518110156200027e576000858281518110620000ea57620000ea62000698565b6020026020010151905080600003620001465760405162461bcd60e51b815260206004820152601560248201527f496e76616c6964206c69766573747265616d2049440000000000000000000000604482015260640162000076565b60008181526020819052604090206002015460ff1615620001aa5760405162461bcd60e51b815260206004820152601960248201527f4c69766573747265616d20616c72656164792065786973747300000000000000604482015260640162000076565b6040518060800160405280828152602001858481518110620001d057620001d062000698565b602090810291909101810151825260018282018190524260409384015260008581528083529290922083518155908301519091820190620002129082620005cc565b50604082015160028201805460ff19169115159190911790556060909101516003909101556001805480820182556000919091527fb10e2d527612073b26eecdfd717e6a320cf44b4afac2b0732d9fcbe2b7fa0cf60155806200027581620006ae565b915050620000c9565b5050505050620006d6565b634e487b7160e01b600052604160045260246000fd5b604051601f8201601f191681016001600160401b0381118282101715620002ca57620002ca62000289565b604052919050565b60006001600160401b03821115620002ee57620002ee62000289565b5060051b60200190565b600082601f8301126200030a57600080fd5b81516001600160401b0381111562000326576200032662000289565b60206200033c601f8301601f191682016200029f565b82815285828487010111156200035157600080fd5b60005b838110156200037157858101830151828201840152820162000354565b506000928101909101919091529392505050565b600082601f8301126200039757600080fd5b81516020620003b0620003aa83620002d2565b6200029f565b82815260059290921b84018101918181019086841115620003d057600080fd5b8286015b84811015620004145780516001600160401b03811115620003f55760008081fd5b620004058986838b0101620002f8565b845250918301918301620003d4565b509695505050505050565b80516001600160a01b03811681146200043757600080fd5b919050565b600080600080608085870312156200045357600080fd5b84516001600160401b03808211156200046b57600080fd5b818701915087601f8301126200048057600080fd5b8151602062000493620003aa83620002d2565b82815260059290921b8401810191818101908b841115620004b357600080fd5b948201945b83861015620004d357855182529482019490820190620004b8565b918a0151919850909350505080821115620004ed57600080fd5b620004fb88838901620002f8565b945060408701519150808211156200051257600080fd5b50620005218782880162000385565b92505062000532606086016200041f565b905092959194509250565b600181811c908216806200055257607f821691505b6020821081036200057357634e487b7160e01b600052602260045260246000fd5b50919050565b601f821115620005c757600081815260208120601f850160051c81016020861015620005a25750805b601f850160051c820191505b81811015620005c357828155600101620005ae565b5050505b505050565b81516001600160401b03811115620005e857620005e862000289565b6200060081620005f984546200053d565b8462000579565b602080601f8311600181146200063857600084156200061f5750858301515b600019600386901b1c1916600185901b178555620005c3565b600085815260208120601f198616915b82811015620006695788860151825594840194600190910190840162000648565b5085821015620006885787850151600019600388901b60f8161c191681555b5050505050600190811b01905550565b634e487b7160e01b600052603260045260246000fd5b600060018201620006cf57634e487b7160e01b600052601160045260246000fd5b5060010190565b6126ad80620006e66000396000f3fe6080604052600436106101c25760003560e01c80638d6dabc0116100f7578063d2b2e97311610095578063f15d34bd11610064578063f15d34bd14610563578063f5bbcd2a14610583578063f662604214610599578063f6767adf146105b957600080fd5b8063d2b2e97314610502578063dcf6e03714610522578063e88499a914610538578063ecfb49a31461054d57600080fd5b8063c19d93fb116100d1578063c19d93fb14610489578063c45a0155146104b7578063c511ed5e146104d7578063cf09e0d0146104ec57600080fd5b80638d6dabc0146104165780639ef27b0014610453578063b72c923e1461046957600080fd5b80633482b644116101645780634a39ec901161013e5780634a39ec90146103795780636399d03d146103b15780637dc0d1d0146103d157806385387382146103f157600080fd5b80633482b644146102f2578063374c6e1c1461032a5780633fad9ae01461035757600080fd5b806319effeb4116101a057806319effeb4146102555780631be4f49d1461027957806323341a05146102995780632d56657d146102c457600080fd5b806301e5c96e146101c757806310fe7c4814610200578063136f101614610215575b600080fd5b3480156101d357600080fd5b506101e76101e2366004611fdf565b6105d9565b6040516101f7949392919061203e565b60405180910390f35b61021361020e366004611fdf565b61068e565b005b34801561022157600080fd5b50610245610230366004612086565b600c6020526000908152604090205460ff1681565b60405190151581526020016101f7565b34801561026157600080fd5b5061026b60085481565b6040519081526020016101f7565b34801561028557600080fd5b506102136102943660046120be565b610970565b3480156102a557600080fd5b506102ae610acc565b6040516101f79a99989796959493929190612244565b3480156102d057600080fd5b506102e46102df366004612086565b610d50565b6040516101f79291906122c5565b3480156102fe57600080fd5b5061031261030d366004611fdf565b610f28565b6040516001600160a01b0390911681526020016101f7565b34801561033657600080fd5b5061026b610345366004611fdf565b600a6020526000908152604090205481565b34801561036357600080fd5b5061036c610f52565b6040516101f791906122f3565b34801561038557600080fd5b5061026b610394366004612306565b600960209081526000928352604080842090915290825290205481565b3480156103bd57600080fd5b506102136103cc366004611fdf565b610fe0565b3480156103dd57600080fd5b50600354610312906001600160a01b031681565b3480156103fd57600080fd5b50610406611157565b6040516101f79493929190612330565b34801561042257600080fd5b50610436610431366004611fdf565b6114da565b6040805193845260208401929092521515908201526060016101f7565b34801561045f57600080fd5b5061026b60075481565b34801561047557600080fd5b5061026b610484366004611fdf565b611592565b34801561049557600080fd5b506004546104aa90600160a01b900460ff1681565b6040516101f79190612388565b3480156104c357600080fd5b50600454610312906001600160a01b031681565b3480156104e357600080fd5b506102136115b3565b3480156104f857600080fd5b5061026b60065481565b34801561050e57600080fd5b506101e761051d366004611fdf565b6116cd565b34801561052e57600080fd5b5061026b60055481565b34801561054457600080fd5b506102136117cd565b34801561055957600080fd5b5061026b600b5481565b34801561056f57600080fd5b5061021361057e3660046120be565b6119ba565b34801561058f57600080fd5b5061026b600e5481565b3480156105a557600080fd5b506102136105b43660046120be565b611ce5565b3480156105c557600080fd5b506102136105d4366004611fdf565b611e17565b600060208190529081526040902080546001820180549192916105fb9061239c565b80601f01602080910402602001604051908101604052809291908181526020018280546106279061239c565b80156106745780601f1061064957610100808354040283529160200191610674565b820191906000526020600020905b81548152906001019060200180831161065757829003601f168201915b505050506002830154600390930154919260ff1691905084565b600080600454600160a01b900460ff1660028111156106af576106af61220c565b146106d55760405162461bcd60e51b81526004016106cc906123d6565b60405180910390fd5b600034116107155760405162461bcd60e51b815260206004820152600d60248201526c09aeae6e840e6cadcc8408aa89609b1b60448201526064016106cc565b600082116107355760405162461bcd60e51b81526004016106cc906123fd565b600082815260208190526040812054900361083e576040516850726f6a656374202360b81b60208201526029810183905260009060490160408051601f198184030181526080830182528583526020838101828152600185850181905242606087015260008981529283905293909120845181559051919450918201906107bc9082612472565b5060408281015160028301805460ff19169115159190911790556060909201516003909101556001805480820182556000919091527fb10e2d527612073b26eecdfd717e6a320cf44b4afac2b0732d9fcbe2b7fa0cf601849055518390600080516020612658833981519152906108349084906122f3565b60405180910390a2505b336000908152600c602052604090205460ff166108c557336000818152600c60205260408120805460ff19166001908117909155600d8054918201815582527fd7b6990105719101dabeb77144f2a3385c8033acd3af97e9423a695e81ad1eb50180546001600160a01b031916909217909155600e8054916108bf83612548565b91905055505b336000908152600960209081526040808320858452909152812080543492906108ef908490612561565b90915550506000828152600a602052604081208054349290610912908490612561565b9250508190555034600b600082825461092b9190612561565b909155505060408051348152426020820152839133917f7363e6581df4db69463222156be4a09656528b9f1302890fa4c0b60819b69fc6910160405180910390a35050565b6003546001600160a01b0316331461099a5760405162461bcd60e51b81526004016106cc90612574565b600080600454600160a01b900460ff1660028111156109bb576109bb61220c565b146109d85760405162461bcd60e51b81526004016106cc906123d6565b6000838152602081905260408120549003610a2c5760405162461bcd60e51b8152602060048201526014602482015273131a5d995cdd1c99585b481b9bdd08199bdd5b9960621b60448201526064016106cc565b60008381526020819052604090206002015460ff16610a855760405162461bcd60e51b81526020600482015260156024820152744c69766573747265616d206e6f742061637469766560581b60448201526064016106cc565b6000838152602081905260409020600101610aa08382612472565b508260008051602061265883398151915283604051610abf91906122f3565b60405180910390a2505050565b606080606060008060008060008060008060018054905067ffffffffffffffff811115610afb57610afb6120a8565b604051908082528060200260200182016040528015610b2e57816020015b6060815260200190600190039081610b195790505b50905060005b600154811015610c295760008060018381548110610b5457610b54612598565b906000526020600020015481526020019081526020016000206001018054610b7b9061239c565b80601f0160208091040260200160405190810160405280929190818152602001828054610ba79061239c565b8015610bf45780601f10610bc957610100808354040283529160200191610bf4565b820191906000526020600020905b815481529060010190602001808311610bd757829003601f168201915b5050505050828281518110610c0b57610c0b612598565b60200260200101819052508080610c2190612548565b915050610b34565b506001600282600460149054906101000a900460ff16600554600b54600e5460065460075460085489805480602002602001604051908101604052809291908181526020018280548015610c9c57602002820191906000526020600020905b815481526020019060010190808311610c88575b50505050509950888054610caf9061239c565b80601f0160208091040260200160405190810160405280929190818152602001828054610cdb9061239c565b8015610d285780601f10610cfd57610100808354040283529160200191610d28565b820191906000526020600020905b815481529060010190602001808311610d0b57829003601f168201915b505050505098509a509a509a509a509a509a509a509a509a509a505090919293949596979899565b6060806000805b600154811015610dbe5760008060018381548110610d7757610d77612598565b6000918252602080832090910154835282019290925260400190206002015460ff1615610dac5781610da881612548565b9250505b80610db681612548565b915050610d57565b5060008167ffffffffffffffff811115610dda57610dda6120a8565b604051908082528060200260200182016040528015610e03578160200160208202803683370190505b50905060008267ffffffffffffffff811115610e2157610e216120a8565b604051908082528060200260200182016040528015610e4a578160200160208202803683370190505b5090506000805b600154811015610f1b57600060018281548110610e7057610e70612598565b60009182526020808320909101548083529082905260409091206002015490915060ff1615610f085780858481518110610eac57610eac612598565b6020908102919091018101919091526001600160a01b038a16600090815260098252604080822084835290925220548451859085908110610eef57610eef612598565b602090810291909101015282610f0481612548565b9350505b5080610f1381612548565b915050610e51565b5091969095509350505050565b600d8181548110610f3857600080fd5b6000918252602090912001546001600160a01b0316905081565b60028054610f5f9061239c565b80601f0160208091040260200160405190810160405280929190818152602001828054610f8b9061239c565b8015610fd85780601f10610fad57610100808354040283529160200191610fd8565b820191906000526020600020905b815481529060010190602001808311610fbb57829003601f168201915b505050505081565b6003546001600160a01b0316331461100a5760405162461bcd60e51b81526004016106cc90612574565b600180600454600160a01b900460ff16600281111561102b5761102b61220c565b146110485760405162461bcd60e51b81526004016106cc906123d6565b60008281526020819052604081205490036110a55760405162461bcd60e51b815260206004820152601a60248201527f496e76616c69642077696e6e696e67206c69766573747265616d00000000000060448201526064016106cc565b6000828152600a60205260409020546111005760405162461bcd60e51b815260206004820152601a60248201527f4e6f2062657473206f6e2074686973206c69766573747265616d00000000000060448201526064016106cc565b60058290556004805460ff60a01b1916600160a11b179055426008819055604080519182525183917f6dfc24f0f2fb42e49fb4fa3ffa8abb148cab908a1fb8335b3f128a08b2594af1919081900360200190a25050565b6060806060806000805b6001548110156111c8576000806001838154811061118157611181612598565b6000918252602080832090910154835282019290925260400190206002015460ff16156111b657816111b281612548565b9250505b806111c081612548565b915050611161565b5060008167ffffffffffffffff8111156111e4576111e46120a8565b60405190808252806020026020018201604052801561120d578160200160208202803683370190505b50905060008267ffffffffffffffff81111561122b5761122b6120a8565b60405190808252806020026020018201604052801561125e57816020015b60608152602001906001900390816112495790505b50905060008367ffffffffffffffff81111561127c5761127c6120a8565b6040519080825280602002602001820160405280156112a5578160200160208202803683370190505b50905060008467ffffffffffffffff8111156112c3576112c36120a8565b6040519080825280602002602001820160405280156112ec578160200160208202803683370190505b5090506000805b6001548110156114c95760006001828154811061131257611312612598565b60009182526020808320909101548083529082905260409091206002015490915060ff16156114b6578087848151811061134e5761134e612598565b602002602001018181525050600080828152602001908152602001600020600101805461137a9061239c565b80601f01602080910402602001604051908101604052809291908181526020018280546113a69061239c565b80156113f35780601f106113c8576101008083540402835291602001916113f3565b820191906000526020600020905b8154815290600101906020018083116113d657829003601f168201915b505050505086848151811061140a5761140a612598565b6020026020010181905250600a60008281526020019081526020016000205485848151811061143b5761143b612598565b6020026020010181815250506000600b541161145857600061148b565b600b5485848151811061146d5761146d612598565b6020026020010151606461148191906125ae565b61148b91906125c5565b84848151811061149d5761149d612598565b6020908102919091010152826114b281612548565b9350505b50806114c181612548565b9150506112f3565b509399929850909650945092505050565b6000818152602081905260408120600201548190819060ff166115375760405162461bcd60e51b81526020600482015260156024820152744c69766573747265616d206e6f742061637469766560581b60448201526064016106cc565b6000848152600a6020526040812054600b5490919061155757600061156f565b600b546115658360646125ae565b61156f91906125c5565b60009687526020879052604090962060020154919660ff90921694509092505050565b600181815481106115a257600080fd5b600091825260209091200154905081565b6003546001600160a01b031633146115dd5760405162461bcd60e51b81526004016106cc90612574565b600080600454600160a01b900460ff1660028111156115fe576115fe61220c565b1461161b5760405162461bcd60e51b81526004016106cc906123d6565b60048054600160a01b60ff60a01b198216178255426007556040516355ef017760e11b81526001600160a01b039091169163abde02ee9161165f91600191016125e7565b600060405180830381600087803b15801561167957600080fd5b505af115801561168d573d6000803e3d6000fd5b505050507f9dc30b8eda31a6a144e092e5de600955523a6a925cc15cc1d1b9b4872cfa6155426040516116c291815260200190565b60405180910390a150565b6000606060008060008060008781526020019081526020016000206040518060800160405290816000820154815260200160018201805461170d9061239c565b80601f01602080910402602001604051908101604052809291908181526020018280546117399061239c565b80156117865780601f1061175b57610100808354040283529160200191611786565b820191906000526020600020905b81548152906001019060200180831161176957829003601f168201915b5050509183525050600282015460ff161515602080830191909152600390920154604091820152825191830151908301516060909301519199909850919650945092505050565b600280600454600160a01b900460ff1660028111156117ee576117ee61220c565b1461180b5760405162461bcd60e51b81526004016106cc906123d6565b3360009081526009602090815260408083206005548452909152902054806118665760405162461bcd60e51b815260206004820152600e60248201526d139bc81dda5b9b9a5b99c818995d60921b60448201526064016106cc565b6005546000908152600a6020526040902054806118b75760405162461bcd60e51b815260206004820152600f60248201526e4e6f2077696e6e696e67206265747360881b60448201526064016106cc565b600081600b54846118c891906125ae565b6118d291906125c5565b3360008181526009602090815260408083206005548452909152808220829055519293509183908381818185875af1925050503d8060008114611931576040519150601f19603f3d011682016040523d82523d6000602084013e611936565b606091505b50509050806119795760405162461bcd60e51b815260206004820152600f60248201526e151c985b9cd9995c8819985a5b1959608a1b60448201526064016106cc565b6040805183815242602082015233917f0408e6e0b73daf4c873106e95fd067260fbff8bf9d1b499cad563d4480d45bac910160405180910390a25050505050565b600080600454600160a01b900460ff1660028111156119db576119db61220c565b146119f85760405162461bcd60e51b81526004016106cc906123d6565b60008311611a185760405162461bcd60e51b81526004016106cc906123fd565b6000825111611a615760405162461bcd60e51b81526020600482015260156024820152745469746c652063616e6e6f7420626520656d70747960581b60448201526064016106cc565b6000838152602081905260408120549003611b36576040805160808101825284815260208082018581526001838501819052426060850152600088815292839052939091208251815590519192909190820190611abe9082612472565b5060408281015160028301805460ff19169115159190911790556060909201516003909101556001805480820182556000919091527fb10e2d527612073b26eecdfd717e6a320cf44b4afac2b0732d9fcbe2b7fa0cf60184905551839060008051602061265883398151915290610abf9085906122f3565b60008381526020819052604090206002015460ff1615611ce05760008381526020819052604081206001018054611b6c9061239c565b80601f0160208091040260200160405190810160405280929190818152602001828054611b989061239c565b8015611be55780601f10611bba57610100808354040283529160200191611be5565b820191906000526020600020905b815481529060010190602001808311611bc857829003601f168201915b5050505050905060006040518060400160405280600981526020016850726f6a656374202360b81b81525090508051825110611cdd57600160005b8251811015611c9157828181518110611c3b57611c3b612598565b602001015160f81c60f81b6001600160f81b031916848281518110611c6257611c62612598565b01602001516001600160f81b03191614611c7f5760009150611c91565b80611c8981612548565b915050611c20565b508015611cdb576000868152602081905260409020600101611cb38682612472565b508560008051602061265883398151915286604051611cd291906122f3565b60405180910390a25b505b50505b505050565b6003546001600160a01b03163314611d0f5760405162461bcd60e51b81526004016106cc90612574565b600080600454600160a01b900460ff166002811115611d3057611d3061220c565b14611d4d5760405162461bcd60e51b81526004016106cc906123d6565b82600003611d6d5760405162461bcd60e51b81526004016106cc906123fd565b60008381526020819052604090206002015460ff1615611dcf5760405162461bcd60e51b815260206004820152601960248201527f4c69766573747265616d20616c7265616479206578697374730000000000000060448201526064016106cc565b6040805160808101825284815260208082018581526001838501819052426060850152600088815292839052939091208251815590519192909190820190611abe9082612472565b6003546001600160a01b03163314611e415760405162461bcd60e51b81526004016106cc90612574565b600080600454600160a01b900460ff166002811115611e6257611e6261220c565b14611e7f5760405162461bcd60e51b81526004016106cc906123d6565b60008281526020819052604090206002015460ff16611ee05760405162461bcd60e51b815260206004820181905260248201527f4c69766573747265616d206e6f7420666f756e64206f7220696e61637469766560448201526064016106cc565b6000828152602081905260408120600201805460ff191690555b600154811015611faf578260018281548110611f1857611f18612598565b906000526020600020015403611f9d5760018054611f3790829061262e565b81548110611f4757611f47612598565b906000526020600020015460018281548110611f6557611f65612598565b6000918252602090912001556001805480611f8257611f82612641565b60019003818190600052602060002001600090559055611faf565b80611fa781612548565b915050611efa565b5060405182907f799598b7447b0eb8c73a9499876bc1798cdf2a050595baeed5c560a8722b278e90600090a25050565b600060208284031215611ff157600080fd5b5035919050565b6000815180845260005b8181101561201e57602081850181015186830182015201612002565b506000602082860101526020601f19601f83011685010191505092915050565b8481526080602082015260006120576080830186611ff8565b9315156040830152506060015292915050565b80356001600160a01b038116811461208157600080fd5b919050565b60006020828403121561209857600080fd5b6120a18261206a565b9392505050565b634e487b7160e01b600052604160045260246000fd5b600080604083850312156120d157600080fd5b82359150602083013567ffffffffffffffff808211156120f057600080fd5b818501915085601f83011261210457600080fd5b813581811115612116576121166120a8565b604051601f8201601f19908116603f0116810190838211818310171561213e5761213e6120a8565b8160405282815288602084870101111561215757600080fd5b8260208601602083013760006020848301015280955050505050509250929050565b600081518084526020808501945080840160005b838110156121a95781518752958201959082019060010161218d565b509495945050505050565b600082825180855260208086019550808260051b84010181860160005b848110156121ff57601f198684030189526121ed838351611ff8565b988401989250908301906001016121d1565b5090979650505050505050565b634e487b7160e01b600052602160045260246000fd5b6003811061224057634e487b7160e01b600052602160045260246000fd5b9052565b60006101408083526122588184018e612179565b9050828103602084015261226c818d611ff8565b90508281036040840152612280818c6121b4565b915050612290606083018a612222565b8760808301528660a08301528560c08301528460e083015283610100830152826101208301529b9a5050505050505050505050565b6040815260006122d86040830185612179565b82810360208401526122ea8185612179565b95945050505050565b6020815260006120a16020830184611ff8565b6000806040838503121561231957600080fd5b6123228361206a565b946020939093013593505050565b6080815260006123436080830187612179565b828103602084015261235581876121b4565b905082810360408401526123698186612179565b9050828103606084015261237d8185612179565b979650505050505050565b602081016123968284612222565b92915050565b600181811c908216806123b057607f821691505b6020821081036123d057634e487b7160e01b600052602260045260246000fd5b50919050565b6020808252600d908201526c496e76616c696420737461746560981b604082015260600190565b602080825260159082015274125b9d985b1a59081b1a5d995cdd1c99585b481251605a1b604082015260600190565b601f821115611ce057600081815260208120601f850160051c810160208610156124535750805b601f850160051c820191505b81811015611cdb5782815560010161245f565b815167ffffffffffffffff81111561248c5761248c6120a8565b6124a08161249a845461239c565b8461242c565b602080601f8311600181146124d557600084156124bd5750858301515b600019600386901b1c1916600185901b178555611cdb565b600085815260208120601f198616915b82811015612504578886015182559484019460019091019084016124e5565b50858210156125225787850151600019600388901b60f8161c191681555b5050505050600190811b01905550565b634e487b7160e01b600052601160045260246000fd5b60006001820161255a5761255a612532565b5060010190565b8082018082111561239657612396612532565b6020808252600a90820152694e6f74206f7261636c6560b01b604082015260600190565b634e487b7160e01b600052603260045260246000fd5b808202811582820484141761239657612396612532565b6000826125e257634e487b7160e01b600052601260045260246000fd5b500490565b6020808252825482820181905260008481528281209092916040850190845b8181101561262257835483526001938401939285019201612606565b50909695505050505050565b8181038181111561239657612396612532565b634e487b7160e01b600052603160045260246000fdfebad020c4dc5e670ec5b6ea36d7cc02f852551d9ccc04429028af440b4c7ce148a2646970667358221220e269e677762beadcf478cc346ccd88df46c9dfc7a4d429ee4171ff369da8632664736f6c63430008130033",
  "linkReferences": {},
  "deployedLinkReferences": {}
}