{"contracts/MarketFactory.sol":{"MarketFactory":{"abi":[{"inputs":[],"stateMutability":"nonpayable","type":"constructor"},{"anonymous":false,"inputs":[{"indexed":true,"internalType":"address","name":"marketAddress","type":"address"},{"indexed":true,"internalType":"uint256","name":"livestreamId","type":"uint256"}],"name":"LivestreamAddedToMarket","type":"event"},{"anonymous":false,"inputs":[{"indexed":true,"internalType":"address","name":"marketAddress","type":"address"},{"indexed":true,"internalType":"uint256","name":"livestreamId","type":"uint256"}],"name":"LivestreamRemovedFromMarket","type":"event"},{"anonymous":false,"inputs":[{"indexed":true,"internalType":"address","name":"marketAddress","type":"address"},{"indexed":false,"internalType":"uint256[]","name":"livestreamIds","type":"uint256[]"}],"name":"MarketClosed","type":"event"},{"anonymous":false,"inputs":[{"indexed":true,"internalType":"address","name":"marketAddress","type":"address"},{"indexed":false,"internalType":"uint256[]","name":"livestreamIds","type":"uint256[]"},{"indexed":false,"internalType":"string","name":"question","type":"string"}],"name":"MarketCreated","type":"event"},{"inputs":[{"internalType":"address","name":"marketAddress","type":"address"},{"internalType":"uint256","name":"livestreamId","type":"uint256"},{"internalType":"string","name":"livestreamTitle","type":"string"}],"name":"addLivestreamToMarket","outputs":[],"stateMutability":"nonpayable","type":"function"},{"inputs":[{"internalType":"uint256","name":"","type":"uint256"}],"name":"allMarkets","outputs":[{"internalType":"address","name":"","type":"address"}],"stateMutability":"view","type":"function"},{"inputs":[{"internalType":"uint256[]","name":"livestreamIds","type":"uint256[]"},{"internalType":"string","name":"question","type":"string"},{"internalType":"string[]","name":"livestreamTitles","type":"string[]"}],"name":"createMarket","outputs":[{"internalType":"address","name":"","type":"address"}],"stateMutability":"nonpayable","type":"function"},{"inputs":[{"internalType":"uint256","name":"offset","type":"uint256"},{"internalType":"uint256","name":"limit","type":"uint256"}],"name":"getAllMarkets","outputs":[{"internalType":"address[]","name":"","type":"address[]"}],"stateMutability":"view","type":"function"},{"inputs":[{"internalType":"address","name":"marketAddress","type":"address"}],"name":"getLivestreamsForMarket","outputs":[{"internalType":"uint256[]","name":"","type":"uint256[]"}],"stateMutability":"view","type":"function"},{"inputs":[{"internalType":"uint256","name":"livestreamId","type":"uint256"}],"name":"getMarketCountForLivestream","outputs":[{"internalType":"uint256","name":"","type":"uint256"}],"stateMutability":"view","type":"function"},{"inputs":[{"internalType":"uint256","name":"livestreamId","type":"uint256"}],"name":"getMarketsForLivestream","outputs":[{"internalType":"address[]","name":"","type":"address[]"}],"stateMutability":"view","type":"function"},{"inputs":[],"name":"getTotalMarketCount","outputs":[{"internalType":"uint256","name":"","type":"uint256"}],"stateMutability":"view","type":"function"},{"inputs":[{"internalType":"address","name":"marketAddress","type":"address"},{"internalType":"uint256","name":"livestreamId","type":"uint256"}],"name":"isLivestreamInMarket","outputs":[{"internalType":"bool","name":"","type":"bool"}],"stateMutability":"view","type":"function"},{"inputs":[{"internalType":"address","name":"marketAddress","type":"address"}],"name":"isValidMarket","outputs":[{"internalType":"bool","name":"","type":"bool"}],"stateMutability":"view","type":"function"},{"inputs":[{"internalType":"uint256","name":"","type":"uint256"},{"internalType":"uint256","name":"","type":"uint256"}],"name":"livestreamMarkets","outputs":[{"internalType":"address","name":"","type":"address"}],"stateMutability":"view","type":"function"},{"inputs":[{"internalType":"address","name":"","type":"address"},{"internalType":"uint256","name":"","type":"uint256"}],"name":"marketToLivestreams","outputs":[{"internalType":"uint256","name":"","type":"uint256"}],"stateMutability":"view","type":"function"},{"inputs":[{"internalType":"uint256[]","name":"livestreamIds","type":"uint256[]"}],"name":"notifyMarketClosed","outputs":[],"stateMutability":"nonpayable","type":"function"},{"inputs":[],"name":"owner","outputs":[{"internalType":"address","name":"","type":"address"}],"stateMutability":"view","type":"function"},{"inputs":[{"internalType":"address","name":"marketAddress","type":"address"},{"internalType":"uint256","name":"livestreamId","type":"uint256"}],"name":"removeLivestreamFromMarket","outputs":[],"stateMutability":"nonpayable","type":"function"},{"inputs":[{"internalType":"address","name":"newOwner","type":"address"}],"name":"transferOwnership","outputs":[],"stateMutability":"nonpayable","type":"function"},{"inputs":[{"internalType":"address","name":"","type":"address"}],"name":"validMarkets","outputs":[{"internalType":"bool","name":"","type":"bool"}],"stateMutability":"view","type":"function"}],"evm":{"bytecode":{"linkReferences":{},"object":"608060405234801561001057600080fd5b50600080546001600160a01b03191633179055614434806100326000396000f3fe60806040523480156200001157600080fd5b5060043610620001215760003560e01c806385b3259f11620000af578063adaf1c43116200007a578063adaf1c4314620002aa578063ba03c98a14620002d0578063c0880fcb14620002e7578063d360139514620002fe578063f2fde38b146200031557600080fd5b806385b3259f146200025f5780638da5cb5b1462000276578063a0866e1f146200028a578063abde02ee146200029357600080fd5b806347f234f611620000f057806347f234f614620001cb57806352d84d1e14620001f157806358e6309f146200020857806381b9052d146200024857600080fd5b80630bdeb2a81462000126578063157e89d2146200015c578063259eedf1146200018c5780632eb321af14620001a5575b600080fd5b62000149620001373660046200105c565b60009081526001602052604090205490565b6040519081526020015b60405180910390f35b620001736200016d36600462001076565b6200032c565b6040516001600160a01b03909116815260200162000153565b620001a36200019d366004620010b6565b62000365565b005b620001bc620001b6366004620010e3565b6200067f565b60405162000153919062001145565b620001e2620001dc36600462001076565b62000729565b6040516200015391906200115a565b62000173620002023660046200105c565b6200087b565b6200023762000219366004620010e3565b6001600160a01b031660009081526002602052604090205460ff1690565b604051901515815260200162000153565b620001a3620002593660046200126a565b620008a6565b6200023762000270366004620010b6565b62000af1565b60005462000173906001600160a01b031681565b60045462000149565b620001a3620002a4366004620012c7565b62000bf2565b62000237620002bb366004620010e3565b60026020526000908152604090205460ff1681565b62000173620002e136600462001403565b62000c91565b62000149620002f8366004620010b6565b62000eaf565b620001e26200030f3660046200105c565b62000ee1565b620001a362000326366004620010e3565b62000f4e565b600160205281600052604060002081815481106200034957600080fd5b6000918252602090912001546001600160a01b03169150829050565b6000546001600160a01b031633146200039b5760405162461bcd60e51b81526004016200039290620014e5565b60405180910390fd5b6001600160a01b03821660009081526002602052604090205460ff16620003d65760405162461bcd60e51b8152600401620003929062001508565b60405163f6767adf60e01b81526004810182905282906001600160a01b0382169063f6767adf90602401600060405180830381600087803b1580156200041b57600080fd5b505af115801562000430573d6000803e3d6000fd5b5050506001600160a01b038416600090815260036020526040812091505b81548110156200051657838282815481106200046e576200046e62001530565b90600052602060002001540362000501578154829062000491906001906200155c565b81548110620004a457620004a462001530565b9060005260206000200154828281548110620004c457620004c462001530565b906000526020600020018190555081805480620004e557620004e562001572565b6001900381819060005260206000200160009055905562000516565b806200050d8162001588565b9150506200044e565b506000838152600160205260408120905b81548110156200064157856001600160a01b031682828154811062000550576200055062001530565b6000918252602090912001546001600160a01b0316036200062c57815482906200057d906001906200155c565b8154811062000590576200059062001530565b9060005260206000200160009054906101000a90046001600160a01b0316828281548110620005c357620005c362001530565b9060005260206000200160006101000a8154816001600160a01b0302191690836001600160a01b031602179055508180548062000604576200060462001572565b600082815260209020810160001990810180546001600160a01b031916905501905562000641565b80620006388162001588565b91505062000527565b5060405184906001600160a01b038716907fcbf7caf39a1fb00fc3f42633ffef8e45f2f89a52f6268ad6004067cdf995ceec90600090a35050505050565b6001600160a01b03811660009081526002602052604090205460609060ff16620006bd5760405162461bcd60e51b8152600401620003929062001508565b6001600160a01b038216600090815260036020908152604091829020805483518184028101840190945280845290918301828280156200071d57602002820191906000526020600020905b81548152602001906001019080831162000708575b50505050509050919050565b6004546060908310620007765760405162461bcd60e51b81526020600482015260146024820152734f6666736574206f7574206f6620626f756e647360601b604482015260640162000392565b6000620007848385620015a4565b6004549091508111156200079757506004545b6000620007a585836200155c565b67ffffffffffffffff811115620007c057620007c0620011a9565b604051908082528060200260200182016040528015620007ea578160200160208202803683370190505b509050845b828110156200087057600481815481106200080e576200080e62001530565b6000918252602090912001546001600160a01b0316826200083088846200155c565b8151811062000843576200084362001530565b6001600160a01b039092166020928302919091019091015280620008678162001588565b915050620007ef565b509150505b92915050565b600481815481106200088c57600080fd5b6000918252602090912001546001600160a01b0316905081565b6000546001600160a01b03163314620008d35760405162461bcd60e51b81526004016200039290620014e5565b6001600160a01b03831660009081526002602052604090205460ff166200090e5760405162461bcd60e51b8152600401620003929062001508565b6001600160a01b0383166000908152600360209081526040808320805482518185028101850190935280835291929091908301828280156200097057602002820191906000526020600020905b8154815260200190600101908083116200095b575b5050505050905060005b815181101562000a0657838282815181106200099a576200099a62001530565b602002602001015103620009f15760405162461bcd60e51b815260206004820152601c60248201527f4c69766573747265616d20616c726561647920696e206d61726b657400000000604482015260640162000392565b80620009fd8162001588565b9150506200097a565b50604051637b31302160e11b815284906001600160a01b0382169063f66260429062000a39908790879060040162001602565b600060405180830381600087803b15801562000a5457600080fd5b505af115801562000a69573d6000803e3d6000fd5b5050506001600160a01b0386166000818152600360209081526040808320805460018181018355918552838520018a905589845280835281842080549182018155845291832090910180546001600160a01b03191684179055518793507f6127fc1c17ab50644b01500e2695f4bf65a21ba6142c41adf59a6dda58b2f70a9190a35050505050565b6001600160a01b03821660009081526002602052604081205460ff1662000b2c5760405162461bcd60e51b8152600401620003929062001508565b6001600160a01b03831660009081526003602090815260408083208054825181850281018501909352808352919290919083018282801562000b8e57602002820191906000526020600020905b81548152602001906001019080831162000b79575b5050505050905060005b815181101562000be7578382828151811062000bb85762000bb862001530565b60200260200101510362000bd25760019250505062000875565b8062000bde8162001588565b91505062000b98565b506000949350505050565b3360009081526002602052604090205460ff1662000c485760405162461bcd60e51b8152602060048201526012602482015271139bdd0818481d985b1a59081b585c9ad95d60721b604482015260640162000392565b336001600160a01b03167f7b4e9fd00806836220e4a818c7309fe732def7f454ef846365fe7cbbc98523c1838360405162000c8592919062001625565b60405180910390a25050565b600080546001600160a01b0316331462000cbf5760405162461bcd60e51b81526004016200039290620014e5565b815184511462000d065760405162461bcd60e51b81526020600482015260116024820152704d69736d6174636865642061727261797360781b604482015260640162000392565b600080546040518691869186916001600160a01b03169062000d289062000fe7565b62000d3794939291906200165f565b604051809103906000f08015801562000d54573d6000803e3d6000fd5b506001600160a01b0381166000908152600260209081526040808320805460ff19166001179055600382529091208751929350839262000d979289019062000ff5565b506004805460018101825560009182527f8a35acfbc15ff81a39ae7d344fd709f28e8600b4aa8c65c6b64bfe7fe36bd19b0180546001600160a01b0319166001600160a01b0384161790555b865181101562000e60576001600088838151811062000e065762000e0662001530565b602090810291909101810151825281810192909252604001600090812080546001810182559082529190200180546001600160a01b0319166001600160a01b0384161790558062000e578162001588565b91505062000de3565b50806001600160a01b03167f3517a251317e3fa9c98b00782d0e6aa696cb161a2279039a18ad646e1e4853a9878760405162000e9e92919062001703565b60405180910390a295945050505050565b6003602052816000526040600020818154811062000ecc57600080fd5b90600052602060002001600091509150505481565b6000818152600160209081526040918290208054835181840281018401909452808452606093928301828280156200071d57602002820191906000526020600020905b81546001600160a01b0316815260019091019060200180831162000f245750505050509050919050565b6000546001600160a01b0316331462000f7b5760405162461bcd60e51b81526004016200039290620014e5565b6001600160a01b03811662000fc55760405162461bcd60e51b815260206004820152600f60248201526e496e76616c6964206164647265737360881b604482015260640162000392565b600080546001600160a01b0319166001600160a01b0392909216919091179055565b612cc9806200173683390190565b82805482825590600052602060002090810192821562001033579160200282015b828111156200103357825182559160200191906001019062001016565b506200104192915062001045565b5090565b5b8082111562001041576000815560010162001046565b6000602082840312156200106f57600080fd5b5035919050565b600080604083850312156200108a57600080fd5b50508035926020909101359150565b80356001600160a01b0381168114620010b157600080fd5b919050565b60008060408385031215620010ca57600080fd5b620010d58362001099565b946020939093013593505050565b600060208284031215620010f657600080fd5b620011018262001099565b9392505050565b600081518084526020808501945080840160005b838110156200113a578151875295820195908201906001016200111c565b509495945050505050565b60208152600062001101602083018462001108565b6020808252825182820181905260009190848201906040850190845b818110156200119d5783516001600160a01b03168352928401929184019160010162001176565b50909695505050505050565b634e487b7160e01b600052604160045260246000fd5b604051601f8201601f1916810167ffffffffffffffff81118282101715620011eb57620011eb620011a9565b604052919050565b600082601f8301126200120557600080fd5b813567ffffffffffffffff811115620012225762001222620011a9565b62001237601f8201601f1916602001620011bf565b8181528460208386010111156200124d57600080fd5b816020850160208301376000918101602001919091529392505050565b6000806000606084860312156200128057600080fd5b6200128b8462001099565b925060208401359150604084013567ffffffffffffffff811115620012af57600080fd5b620012bd86828701620011f3565b9150509250925092565b60008060208385031215620012db57600080fd5b823567ffffffffffffffff80821115620012f457600080fd5b818501915085601f8301126200130957600080fd5b8135818111156200131957600080fd5b8660208260051b85010111156200132f57600080fd5b60209290920196919550909350505050565b600067ffffffffffffffff8211156200135e576200135e620011a9565b5060051b60200190565b600082601f8301126200137a57600080fd5b81356020620013936200138d8362001341565b620011bf565b82815260059290921b84018101918181019086841115620013b357600080fd5b8286015b84811015620013f857803567ffffffffffffffff811115620013d95760008081fd5b620013e98986838b0101620011f3565b845250918301918301620013b7565b509695505050505050565b6000806000606084860312156200141957600080fd5b833567ffffffffffffffff808211156200143257600080fd5b818601915086601f8301126200144757600080fd5b813560206200145a6200138d8362001341565b82815260059290921b8401810191818101908a8411156200147a57600080fd5b948201945b838610156200149a578535825294820194908201906200147f565b97505087013592505080821115620014b157600080fd5b620014bf87838801620011f3565b93506040860135915080821115620014d657600080fd5b50620012bd8682870162001368565b6020808252600990820152682737ba1037bbb732b960b91b604082015260600190565b6020808252600e908201526d125b9d985b1a59081b585c9ad95d60921b604082015260600190565b634e487b7160e01b600052603260045260246000fd5b634e487b7160e01b600052601160045260246000fd5b8181038181111562000875576200087562001546565b634e487b7160e01b600052603160045260246000fd5b6000600182016200159d576200159d62001546565b5060010190565b8082018082111562000875576200087562001546565b6000815180845260005b81811015620015e257602081850181015186830182015201620015c4565b506000602082860101526020601f19601f83011685010191505092915050565b8281526040602082015260006200161d6040830184620015ba565b949350505050565b6020808252810182905260006001600160fb1b038311156200164657600080fd5b8260051b80856040850137919091016040019392505050565b60808152600062001674608083018762001108565b602083820381850152620016898288620015ba565b915083820360408501528186518084528284019150828160051b85010183890160005b83811015620016de57601f19878403018552620016cb838351620015ba565b94860194925090850190600101620016ac565b50506001600160a01b0397909716606096909601959095525093979650505050505050565b60408152600062001718604083018562001108565b82810360208401526200172c8185620015ba565b9594505050505056fe60806040523480156200001157600080fd5b5060405162002cc938038062002cc983398101604081905262000034916200043c565b81518451146200007f5760405162461bcd60e51b81526020600482015260116024820152704d69736d6174636865642061727261797360781b60448201526064015b60405180910390fd5b60026200008d8482620005cc565b50600380546001600160a01b0319166001600160a01b038316179055600480546001600160a81b0319163360ff60a01b19161790554260055560005b84518110156200027e576000858281518110620000ea57620000ea62000698565b6020026020010151905080600003620001465760405162461bcd60e51b815260206004820152601560248201527f496e76616c6964206c69766573747265616d2049440000000000000000000000604482015260640162000076565b60008181526020819052604090206002015460ff1615620001aa5760405162461bcd60e51b815260206004820152601960248201527f4c69766573747265616d20616c72656164792065786973747300000000000000604482015260640162000076565b6040518060800160405280828152602001858481518110620001d057620001d062000698565b602090810291909101810151825260018282018190524260409384015260008581528083529290922083518155908301519091820190620002129082620005cc565b50604082015160028201805460ff19169115159190911790556060909101516003909101556001805480820182556000919091527fb10e2d527612073b26eecdfd717e6a320cf44b4afac2b0732d9fcbe2b7fa0cf60155806200027581620006ae565b915050620000c9565b5050505050620006d6565b634e487b7160e01b600052604160045260246000fd5b604051601f8201601f191681016001600160401b0381118282101715620002ca57620002ca62000289565b604052919050565b60006001600160401b03821115620002ee57620002ee62000289565b5060051b60200190565b600082601f8301126200030a57600080fd5b81516001600160401b0381111562000326576200032662000289565b60206200033c601f8301601f191682016200029f565b82815285828487010111156200035157600080fd5b60005b838110156200037157858101830151828201840152820162000354565b506000928101909101919091529392505050565b600082601f8301126200039757600080fd5b81516020620003b0620003aa83620002d2565b6200029f565b82815260059290921b84018101918181019086841115620003d057600080fd5b8286015b84811015620004145780516001600160401b03811115620003f55760008081fd5b620004058986838b0101620002f8565b845250918301918301620003d4565b509695505050505050565b80516001600160a01b03811681146200043757600080fd5b919050565b600080600080608085870312156200045357600080fd5b84516001600160401b03808211156200046b57600080fd5b818701915087601f8301126200048057600080fd5b8151602062000493620003aa83620002d2565b82815260059290921b8401810191818101908b841115620004b357600080fd5b948201945b83861015620004d357855182529482019490820190620004b8565b918a0151919850909350505080821115620004ed57600080fd5b620004fb88838901620002f8565b945060408701519150808211156200051257600080fd5b50620005218782880162000385565b92505062000532606086016200041f565b905092959194509250565b600181811c908216806200055257607f821691505b6020821081036200057357634e487b7160e01b600052602260045260246000fd5b50919050565b601f821115620005c757600081815260208120601f850160051c81016020861015620005a25750805b601f850160051c820191505b81811015620005c357828155600101620005ae565b5050505b505050565b81516001600160401b03811115620005e857620005e862000289565b6200060081620005f984546200053d565b8462000579565b602080601f8311600181146200063857600084156200061f5750858301515b600019600386901b1c1916600185901b178555620005c3565b600085815260208120601f198616915b82811015620006695788860151825594840194600190910190840162000648565b5085821015620006885787850151600019600388901b60f8161c191681555b5050505050600190811b01905550565b634e487b7160e01b600052603260045260246000fd5b600060018201620006cf57634e487b7160e01b600052601160045260246000fd5b5060010190565b6125e380620006e66000396000f3fe6080604052600436106101f95760003560e01c80637dc0d1d01161010d578063c8c3316b116100a0578063ecfb49a31161006f578063ecfb49a314610653578063f21ffa6b14610669578063f5bbcd2a14610689578063f66260421461069f578063f6767adf146106bf57600080fd5b8063c8c3316b146105db578063cf09e0d014610608578063d2b2e9731461061e578063e88499a91461063e57600080fd5b8063b72c923e116100dc578063b72c923e14610558578063c19d93fb14610578578063c45a0155146105a6578063c511ed5e146105c657600080fd5b80637dc0d1d0146104e857806396d77875146105085780639ef27b001461052d578063a9cc9ae91461054357600080fd5b80633482b644116101905780634b4c4aa51161015f5780634b4c4aa5146104195780634bad5deb1461043b5780634c5be5741461046e5780634d729d111461048357806353288a16146104b057600080fd5b80633482b6441461038a5780633fad9ae0146103c257806343046844146103e457806347c421b5146103f957600080fd5b806323341a05116101cc57806323341a05146102bb57806327793f87146102e85780632d56657d146103165780633461b5b61461037557600080fd5b806301e5c96e146101fe578063136f10161461023757806319effeb41461027757806321a039b21461029b575b600080fd5b34801561020a57600080fd5b5061021e610219366004611e0c565b6106df565b60405161022e9493929190611e6b565b60405180910390f35b34801561024357600080fd5b50610267610252366004611eb3565b600b6020526000908152604090205460ff1681565b604051901515815260200161022e565b34801561028357600080fd5b5061028d60075481565b60405190815260200161022e565b3480156102a757600080fd5b5061028d6102b6366004611ee4565b610794565b3480156102c757600080fd5b506102d061087c565b60405161022e9c9b9a99989796959493929190611fe4565b3480156102f457600080fd5b5060045461030990600160a81b900460ff1681565b60405161022e9190612079565b34801561032257600080fd5b50610360610331366004611eb3565b6001600160a01b0316600090815260086020908152604080832083805290915280822054600183529120549091565b6040805192835260208301919091520161022e565b34801561038157600080fd5b5060015461028d565b34801561039657600080fd5b506103aa6103a5366004611e0c565b610b6c565b6040516001600160a01b03909116815260200161022e565b3480156103ce57600080fd5b506103d7610b96565b60405161022e9190612087565b6103f76103f236600461209a565b610c24565b005b34801561040557600080fd5b506103f7610414366004611eb3565b610e18565b34801561042557600080fd5b5061042e610eac565b60405161022e91906120b5565b34801561044757600080fd5b50610267610456366004611e0c565b60009081526020819052604090206002015460ff1690565b34801561047a57600080fd5b50610360610f04565b34801561048f57600080fd5b506104a361049e3660046120c8565b610fcf565b60405161022e91906120ea565b3480156104bc57600080fd5b5061028d6104cb366004612148565b600860209081526000928352604080842090915290825290205481565b3480156104f457600080fd5b506003546103aa906001600160a01b031681565b34801561051457600080fd5b5061051d611108565b60405161022e9493929190612172565b34801561053957600080fd5b5061028d60065481565b34801561054f57600080fd5b506103f76113e5565b34801561056457600080fd5b5061028d610573366004611e0c565b6114bb565b34801561058457600080fd5b5060045461059990600160a01b900460ff1681565b60405161022e91906121f0565b3480156105b257600080fd5b506004546103aa906001600160a01b031681565b3480156105d257600080fd5b506103f76114dc565b3480156105e757600080fd5b5061028d6105f63660046121fe565b60096020526000908152604090205481565b34801561061457600080fd5b5061028d60055481565b34801561062a57600080fd5b5061021e610639366004611e0c565b6115f6565b34801561064a57600080fd5b506103f76116f6565b34801561065f57600080fd5b5061028d600a5481565b34801561067557600080fd5b506103f761068436600461209a565b61196b565b34801561069557600080fd5b5061028d600d5481565b3480156106ab57600080fd5b506103f76106ba36600461222f565b611a53565b3480156106cb57600080fd5b506103f76106da366004611e0c565b611c44565b60006020819052908152604090208054600182018054919291610701906122ea565b80601f016020809104026020016040519081016040528092919081815260200182805461072d906122ea565b801561077a5780601f1061074f5761010080835404028352916020019161077a565b820191906000526020600020905b81548152906001019060200180831161075d57829003601f168201915b505050506002830154600390930154919260ff1691905084565b600080600454600160a01b900460ff1660028111156107b5576107b5611faa565b146107c257506000610876565b6001600160a01b0383166000908152600860205260408120818460018111156107ed576107ed611faa565b60ff1660ff16815260200190815260200160002054905080600003610816576000915050610876565b60006009600085600181111561082e5761082e611faa565b60ff1660ff1681526020019081526020016000205490508060000361085857600092505050610876565b80600a5483610867919061233a565b6108719190612351565b925050505b92915050565b606080606060008060008060008060008060008060018054905067ffffffffffffffff8111156108ae576108ae612219565b6040519080825280602002602001820160405280156108e157816020015b60608152602001906001900390816108cc5790505b50905060005b6001548110156109dc576000806001838154811061090757610907612373565b90600052602060002001548152602001908152602001600020600101805461092e906122ea565b80601f016020809104026020016040519081016040528092919081815260200182805461095a906122ea565b80156109a75780601f1061097c576101008083540402835291602001916109a7565b820191906000526020600020905b81548152906001019060200180831161098a57829003601f168201915b50505050508282815181106109be576109be612373565b602002602001018190525080806109d490612389565b9150506108e7565b50600454600960209081527fec8156718a8372b1db44bb411437d0870f3e3790d4a08526d024ce1b0b668f6b54600160008190527f92e85d02570a8092d09a6e3a57665bc3815a2699a4074001bf1ccabf660f5a3654600a54600d54600554600654600754865460408051828c0281018c01909152818152979a60029a8d9a60ff600160a01b840481169b600160a81b90940416999098909790969095909490939092918e9190830182828015610ab257602002820191906000526020600020905b815481526020019060010190808311610a9e575b50505050509b508a8054610ac5906122ea565b80601f0160208091040260200160405190810160405280929190818152602001828054610af1906122ea565b8015610b3e5780601f10610b1357610100808354040283529160200191610b3e565b820191906000526020600020905b815481529060010190602001808311610b2157829003601f168201915b50505050509a509c509c509c509c509c509c509c509c509c509c509c509c5050909192939495969798999a9b565b600c8181548110610b7c57600080fd5b6000918252602090912001546001600160a01b0316905081565b60028054610ba3906122ea565b80601f0160208091040260200160405190810160405280929190818152602001828054610bcf906122ea565b8015610c1c5780601f10610bf157610100808354040283529160200191610c1c565b820191906000526020600020905b815481529060010190602001808311610bff57829003601f168201915b505050505081565b600080600454600160a01b900460ff166002811115610c4557610c45611faa565b14610c6b5760405162461bcd60e51b8152600401610c62906123a2565b60405180910390fd5b60003411610cab5760405162461bcd60e51b815260206004820152600d60248201526c09aeae6e840e6cadcc8408aa89609b1b6044820152606401610c62565b336000908152600b602052604090205460ff16610d3257336000818152600b60205260408120805460ff19166001908117909155600c8054918201815582527fdf6966c971051c3d54ec59162606531493a51404a002842f56009d7e5cf4a8c70180546001600160a01b031916909217909155600d805491610d2c83612389565b91905055505b3360009081526008602052604081203491846001811115610d5557610d55611faa565b60ff1660ff1681526020019081526020016000206000828254610d7891906123c9565b9091555034905060096000846001811115610d9557610d95611faa565b60ff1660ff1681526020019081526020016000206000828254610db891906123c9565b9250508190555034600a6000828254610dd191906123c9565b909155505060405133907f8d3970b91d4f8dbb1a8368398f1ac8bdd7a7fb5682c8360b7396214f65d7e55f90610e0c908590349042906123dc565b60405180910390a25050565b6003546001600160a01b03163314610e425760405162461bcd60e51b8152600401610c62906123fb565b6001600160a01b038116610e8a5760405162461bcd60e51b815260206004820152600f60248201526e496e76616c6964206164647265737360881b6044820152606401610c62565b600380546001600160a01b0319166001600160a01b0392909216919091179055565b60606001805480602002602001604051908101604052809291908181526020018280548015610efa57602002820191906000526020600020905b815481526020019060010190808311610ee6575b5050505050905090565b600080600a54600003610f1a5750606491829150565b60096020527fec8156718a8372b1db44bb411437d0870f3e3790d4a08526d024ce1b0b668f6b54600160009081527f92e85d02570a8092d09a6e3a57665bc3815a2699a4074001bf1ccabf660f5a365490829003610f7f575060009360c89350915050565b80600003610f94575060c89360009350915050565b600a54610fa283606461233a565b610fac9190612351565b600a54909450610fbd82606461233a565b610fc79190612351565b925050509091565b600c54606090831061101a5760405162461bcd60e51b81526020600482015260146024820152734f6666736574206f7574206f6620626f756e647360601b6044820152606401610c62565b600061102683856123c9565b600c549091508111156110385750600c545b6000611044858361241f565b67ffffffffffffffff81111561105c5761105c612219565b604051908082528060200260200182016040528015611085578160200160208202803683370190505b509050845b828110156110ff57600c81815481106110a5576110a5612373565b6000918252602090912001546001600160a01b0316826110c5888461241f565b815181106110d5576110d5612373565b6001600160a01b0390921660209283029190910190910152806110f781612389565b91505061108a565b50949350505050565b6001546060908190819081908067ffffffffffffffff81111561112d5761112d612219565b604051908082528060200260200182016040528015611156578160200160208202803683370190505b5094508067ffffffffffffffff81111561117257611172612219565b6040519080825280602002602001820160405280156111a557816020015b60608152602001906001900390816111905790505b5093508067ffffffffffffffff8111156111c1576111c1612219565b6040519080825280602002602001820160405280156111ea578160200160208202803683370190505b5092508067ffffffffffffffff81111561120657611206612219565b60405190808252806020026020018201604052801561122f578160200160208202803683370190505b50915060005b818110156113dd5760006001828154811061125257611252612373565b90600052602060002001549050600080600083815260200190815260200160002060405180608001604052908160008201548152602001600182018054611298906122ea565b80601f01602080910402602001604051908101604052809291908181526020018280546112c4906122ea565b80156113115780601f106112e657610100808354040283529160200191611311565b820191906000526020600020905b8154815290600101906020018083116112f457829003601f168201915b5050509183525050600282015460ff1615156020820152600390910154604090910152805189519192509089908590811061134e5761134e612373565b602002602001018181525050806020015187848151811061137157611371612373565b6020026020010181905250806040015186848151811061139357611393612373565b60200260200101901515908115158152505080606001518584815181106113bc576113bc612373565b602002602001018181525050505080806113d590612389565b915050611235565b505090919293565b6003546001600160a01b0316331461140f5760405162461bcd60e51b8152600401610c62906123fb565b6000600454600160a01b900460ff16600281111561142f5761142f611faa565b1461146e5760405162461bcd60e51b815260206004820152600f60248201526e26b0b935b2ba103737ba1037b832b760891b6044820152606401610c62565b6004805460ff60a01b1916600160a01b17905542600681905560408051918252517f9dc30b8eda31a6a144e092e5de600955523a6a925cc15cc1d1b9b4872cfa61559181900360200190a1565b600181815481106114cb57600080fd5b600091825260209091200154905081565b6003546001600160a01b031633146115065760405162461bcd60e51b8152600401610c62906123fb565b600080600454600160a01b900460ff16600281111561152757611527611faa565b146115445760405162461bcd60e51b8152600401610c62906123a2565b60048054600160a01b60ff60a01b198216178255426006556040516355ef017760e11b81526001600160a01b039091169163abde02ee916115889160019101612432565b600060405180830381600087803b1580156115a257600080fd5b505af11580156115b6573d6000803e3d6000fd5b505050507f9dc30b8eda31a6a144e092e5de600955523a6a925cc15cc1d1b9b4872cfa6155426040516115eb91815260200190565b60405180910390a150565b60006060600080600080600087815260200190815260200160002060405180608001604052908160008201548152602001600182018054611636906122ea565b80601f0160208091040260200160405190810160405280929190818152602001828054611662906122ea565b80156116af5780601f10611684576101008083540402835291602001916116af565b820191906000526020600020905b81548152906001019060200180831161169257829003601f168201915b5050509183525050600282015460ff161515602080830191909152600390920154604091820152825191830151908301516060909301519199909850919650945092505050565b600280600454600160a01b900460ff16600281111561171757611717611faa565b146117345760405162461bcd60e51b8152600401610c62906123a2565b3360009081526008602052604081206004548290600160a81b900460ff16600181111561176357611763611faa565b60ff1660ff168152602001908152602001600020549050600081116117bb5760405162461bcd60e51b815260206004820152600e60248201526d139bc81dda5b9b9a5b99c818995d60921b6044820152606401610c62565b600060096000600460159054906101000a900460ff1660018111156117e2576117e2611faa565b60ff1660ff1681526020019081526020016000205490506000811161183b5760405162461bcd60e51b815260206004820152600f60248201526e4e6f2077696e6e696e67206265747360881b6044820152606401610c62565b600081600a548461184c919061233a565b6118569190612351565b33600090815260086020526040812060045492935090918290600160a81b900460ff16600181111561188a5761188a611faa565b60ff1681526020810191909152604090810160009081209290925551339083908381818185875af1925050503d80600081146118e2576040519150601f19603f3d011682016040523d82523d6000602084013e6118e7565b606091505b505090508061192a5760405162461bcd60e51b815260206004820152600f60248201526e151c985b9cd9995c8819985a5b1959608a1b6044820152606401610c62565b6040805183815242602082015233917f0408e6e0b73daf4c873106e95fd067260fbff8bf9d1b499cad563d4480d45bac910160405180910390a25050505050565b6003546001600160a01b031633146119955760405162461bcd60e51b8152600401610c62906123fb565b600180600454600160a01b900460ff1660028111156119b6576119b6611faa565b146119d35760405162461bcd60e51b8152600401610c62906123a2565b6004805483919060ff60a81b1916600160a81b8360018111156119f8576119f8611faa565b02179055506004805460ff60a01b1916600160a11b1790554260078190556040517fcbbe35de088a5a787855818a0fda296aeb95f616e7b99c7dcb0bf96b5697e22b91611a479185919061246d565b60405180910390a15050565b6003546001600160a01b03163314611a7d5760405162461bcd60e51b8152600401610c62906123fb565b600080600454600160a01b900460ff166002811115611a9e57611a9e611faa565b14611abb5760405162461bcd60e51b8152600401610c62906123a2565b82600003611b035760405162461bcd60e51b8152602060048201526015602482015274125b9d985b1a59081b1a5d995cdd1c99585b481251605a1b6044820152606401610c62565b60008381526020819052604090206002015460ff1615611b655760405162461bcd60e51b815260206004820152601960248201527f4c69766573747265616d20616c726561647920657869737473000000000000006044820152606401610c62565b6040805160808101825284815260208082018581526001838501819052426060850152600088815292839052939091208251815590519192909190820190611bad90826124d7565b5060408281015160028301805460ff19169115159190911790556060909201516003909101556001805480820182556000919091527fb10e2d527612073b26eecdfd717e6a320cf44b4afac2b0732d9fcbe2b7fa0cf6018490555183907fbad020c4dc5e670ec5b6ea36d7cc02f852551d9ccc04429028af440b4c7ce14890611c37908590612087565b60405180910390a2505050565b6003546001600160a01b03163314611c6e5760405162461bcd60e51b8152600401610c62906123fb565b600080600454600160a01b900460ff166002811115611c8f57611c8f611faa565b14611cac5760405162461bcd60e51b8152600401610c62906123a2565b60008281526020819052604090206002015460ff16611d0d5760405162461bcd60e51b815260206004820181905260248201527f4c69766573747265616d206e6f7420666f756e64206f7220696e6163746976656044820152606401610c62565b6000828152602081905260408120600201805460ff191690555b600154811015611ddc578260018281548110611d4557611d45612373565b906000526020600020015403611dca5760018054611d6490829061241f565b81548110611d7457611d74612373565b906000526020600020015460018281548110611d9257611d92612373565b6000918252602090912001556001805480611daf57611daf612597565b60019003818190600052602060002001600090559055611ddc565b80611dd481612389565b915050611d27565b5060405182907f799598b7447b0eb8c73a9499876bc1798cdf2a050595baeed5c560a8722b278e90600090a25050565b600060208284031215611e1e57600080fd5b5035919050565b6000815180845260005b81811015611e4b57602081850181015186830182015201611e2f565b506000602082860101526020601f19601f83011685010191505092915050565b848152608060208201526000611e846080830186611e25565b9315156040830152506060015292915050565b80356001600160a01b0381168114611eae57600080fd5b919050565b600060208284031215611ec557600080fd5b611ece82611e97565b9392505050565b803560028110611eae57600080fd5b60008060408385031215611ef757600080fd5b611f0083611e97565b9150611f0e60208401611ed5565b90509250929050565b600081518084526020808501945080840160005b83811015611f4757815187529582019590820190600101611f2b565b509495945050505050565b600082825180855260208086019550808260051b84010181860160005b84811015611f9d57601f19868403018952611f8b838351611e25565b98840198925090830190600101611f6f565b5090979650505050505050565b634e487b7160e01b600052602160045260246000fd5b60038110611fd057611fd0611faa565b9052565b60028110611fd057611fd0611faa565b61018081526000611ff961018083018f611f17565b828103602084015261200b818f611e25565b9050828103604084015261201f818e611f52565b91505061202f606083018c611fc0565b61203c608083018b611fd4565b60a082019890985260c081019690965260e08601949094526101008501929092526101208401526101408301526101609091015295945050505050565b602081016108768284611fd4565b602081526000611ece6020830184611e25565b6000602082840312156120ac57600080fd5b611ece82611ed5565b602081526000611ece6020830184611f17565b600080604083850312156120db57600080fd5b50508035926020909101359150565b6020808252825182820181905260009190848201906040850190845b8181101561212b5783516001600160a01b031683529284019291840191600101612106565b50909695505050505050565b803560ff81168114611eae57600080fd5b6000806040838503121561215b57600080fd5b61216483611e97565b9150611f0e60208401612137565b6080815260006121856080830187611f17565b6020838203818501526121988288611f52565b8481036040860152865180825282880193509082019060005b818110156121cf5784511515835293830193918301916001016121b1565b505084810360608601526121e38187611f17565b9998505050505050505050565b602081016108768284611fc0565b60006020828403121561221057600080fd5b611ece82612137565b634e487b7160e01b600052604160045260246000fd5b6000806040838503121561224257600080fd5b82359150602083013567ffffffffffffffff8082111561226157600080fd5b818501915085601f83011261227557600080fd5b81358181111561228757612287612219565b604051601f8201601f19908116603f011681019083821181831017156122af576122af612219565b816040528281528860208487010111156122c857600080fd5b8260208601602083013760006020848301015280955050505050509250929050565b600181811c908216806122fe57607f821691505b60208210810361231e57634e487b7160e01b600052602260045260246000fd5b50919050565b634e487b7160e01b600052601160045260246000fd5b808202811582820484141761087657610876612324565b60008261236e57634e487b7160e01b600052601260045260246000fd5b500490565b634e487b7160e01b600052603260045260246000fd5b60006001820161239b5761239b612324565b5060010190565b6020808252600d908201526c496e76616c696420737461746560981b604082015260600190565b8082018082111561087657610876612324565b606081016123ea8286611fd4565b602082019390935260400152919050565b6020808252600a90820152694e6f74206f7261636c6560b01b604082015260600190565b8181038181111561087657610876612324565b6020808252825482820181905260008481528281209092916040850190845b8181101561212b57835483526001938401939285019201612451565b6040810161247b8285611fd4565b8260208301529392505050565b601f8211156124d257600081815260208120601f850160051c810160208610156124af5750805b601f850160051c820191505b818110156124ce578281556001016124bb565b5050505b505050565b815167ffffffffffffffff8111156124f1576124f1612219565b612505816124ff84546122ea565b84612488565b602080601f83116001811461253a57600084156125225750858301515b600019600386901b1c1916600185901b1785556124ce565b600085815260208120601f198616915b828110156125695788860151825594840194600190910190840161254a565b50858210156125875787850151600019600388901b60f8161c191681555b5050505050600190811b01905550565b634e487b7160e01b600052603160045260246000fdfea264697066735822122095c536ccdf826b90347ee9b5c243e6f0e444686b24e9c1f615dcf01b3e86282464736f6c63430008130033a26469706673582212203acbd52fe00f038a166d63e55e63831adf1c55368ac073e088d23d5e5a1bdfb364736f6c63430008130033","opcodes":"PUSH1 0x80 PUSH1 0x40 MSTORE CALLVALUE DUP1 ISZERO PUSH2 0x10 JUMPI PUSH1 0x0 DUP1 REVERT JUMPDEST POP PUSH1 0x0 DUP1 SLOAD PUSH1 0x1 PUSH1 0x1 PUSH1 0xA0 SHL SUB NOT AND CALLER OR SWAP1 SSTORE PUSH2 0x4434 DUP1 PUSH2 0x32 PUSH1 0x0 CODECOPY PUSH1 0x0 RETURN INVALID PUSH1 0x80 PUSH1 0x40 MSTORE CALLVALUE DUP1 ISZERO PUSH3 0x11 JUMPI PUSH1 0x0 DUP1 REVERT JUMPDEST POP PUSH1 0x4 CALLDATASIZE LT PUSH3 0x121 JUMPI PUSH1 0x0 CALLDATALOAD PUSH1 0xE0 SHR DUP1 PUSH4 0x85B3259F GT PUSH3 0xAF JUMPI DUP1 PUSH4 0xADAF1C43 GT PUSH3 0x7A JUMPI DUP1 PUSH4 0xADAF1C43 EQ PUSH3 0x2AA JUMPI DUP1 PUSH4 0xBA03C98A EQ PUSH3 0x2D0 JUMPI DUP1 PUSH4 0xC0880FCB EQ PUSH3 0x2E7 JUMPI DUP1 PUSH4 0xD3601395 EQ PUSH3 0x2FE JUMPI DUP1 PUSH4 0xF2FDE38B EQ PUSH3 0x315 JUMPI PUSH1 0x0 DUP1 REVERT JUMPDEST DUP1 PUSH4 0x85B3259F EQ PUSH3 0x25F JUMPI DUP1 PUSH4 0x8DA5CB5B EQ PUSH3 0x276 JUMPI DUP1 PUSH4 0xA0866E1F EQ PUSH3 0x28A JUMPI DUP1 PUSH4 0xABDE02EE EQ PUSH3 0x293 JUMPI PUSH1 0x0 DUP1 REVERT JUMPDEST DUP1 PUSH4 0x47F234F6 GT PUSH3 0xF0 JUMPI DUP1 PUSH4 0x47F234F6 EQ PUSH3 0x1CB JUMPI DUP1 PUSH4 0x52D84D1E EQ PUSH3 0x1F1 JUMPI DUP1 PUSH4 0x58E6309F EQ PUSH3 0x208 JUMPI DUP1 PUSH4 0x81B9052D EQ PUSH3 0x248 JUMPI PUSH1 0x0 DUP1 REVERT JUMPDEST DUP1 PUSH4 0xBDEB2A8 EQ PUSH3 0x126 JUMPI DUP1 PUSH4 0x157E89D2 EQ PUSH3 0x15C JUMPI DUP1 PUSH4 0x259EEDF1 EQ PUSH3 0x18C JUMPI DUP1 PUSH4 0x2EB321AF EQ PUSH3 0x1A5 JUMPI JUMPDEST PUSH1 0x0 DUP1 REVERT JUMPDEST PUSH3 0x149 PUSH3 0x137 CALLDATASIZE PUSH1 0x4 PUSH3 0x105C JUMP JUMPDEST PUSH1 0x0 SWAP1 DUP2 MSTORE PUSH1 0x1 PUSH1 0x20 MSTORE PUSH1 0x40 SWAP1 KECCAK256 SLOAD SWAP1 JUMP JUMPDEST PUSH1 0x40 MLOAD SWAP1 DUP2 MSTORE PUSH1 0x20 ADD JUMPDEST PUSH1 0x40 MLOAD DUP1 SWAP2 SUB SWAP1 RETURN JUMPDEST PUSH3 0x173 PUSH3 0x16D CALLDATASIZE PUSH1 0x4 PUSH3 0x1076 JUMP JUMPDEST PUSH3 0x32C JUMP JUMPDEST PUSH1 0x40 MLOAD PUSH1 0x1 PUSH1 0x1 PUSH1 0xA0 SHL SUB SWAP1 SWAP2 AND DUP2 MSTORE PUSH1 0x20 ADD PUSH3 0x153 JUMP JUMPDEST PUSH3 0x1A3 PUSH3 0x19D CALLDATASIZE PUSH1 0x4 PUSH3 0x10B6 JUMP JUMPDEST PUSH3 0x365 JUMP JUMPDEST STOP JUMPDEST PUSH3 0x1BC PUSH3 0x1B6 CALLDATASIZE PUSH1 0x4 PUSH3 0x10E3 JUMP JUMPDEST PUSH3 0x67F JUMP JUMPDEST PUSH1 0x40 MLOAD PUSH3 0x153 SWAP2 SWAP1 PUSH3 0x1145 JUMP JUMPDEST PUSH3 0x1E2 PUSH3 0x1DC CALLDATASIZE PUSH1 0x4 PUSH3 0x1076 JUMP JUMPDEST PUSH3 0x729 JUMP JUMPDEST PUSH1 0x40 MLOAD PUSH3 0x153 SWAP2 SWAP1 PUSH3 0x115A JUMP JUMPDEST PUSH3 0x173 PUSH3 0x202 CALLDATASIZE PUSH1 0x4 PUSH3 0x105C JUMP JUMPDEST PUSH3 0x87B JUMP JUMPDEST PUSH3 0x237 PUSH3 0x219 CALLDATASIZE PUSH1 0x4 PUSH3 0x10E3 JUMP JUMPDEST PUSH1 0x1 PUSH1 0x1 PUSH1 0xA0 SHL SUB AND PUSH1 0x0 SWAP1 DUP2 MSTORE PUSH1 0x2 PUSH1 0x20 MSTORE PUSH1 0x40 SWAP1 KECCAK256 SLOAD PUSH1 0xFF AND SWAP1 JUMP JUMPDEST PUSH1 0x40 MLOAD SWAP1 ISZERO ISZERO DUP2 MSTORE PUSH1 0x20 ADD PUSH3 0x153 JUMP JUMPDEST PUSH3 0x1A3 PUSH3 0x259 CALLDATASIZE PUSH1 0x4 PUSH3 0x126A JUMP JUMPDEST PUSH3 0x8A6 JUMP JUMPDEST PUSH3 0x237 PUSH3 0x270 CALLDATASIZE PUSH1 0x4 PUSH3 0x10B6 JUMP JUMPDEST PUSH3 0xAF1 JUMP JUMPDEST PUSH1 0x0 SLOAD PUSH3 0x173 SWAP1 PUSH1 0x1 PUSH1 0x1 PUSH1 0xA0 SHL SUB AND DUP2 JUMP JUMPDEST PUSH1 0x4 SLOAD PUSH3 0x149 JUMP JUMPDEST PUSH3 0x1A3 PUSH3 0x2A4 CALLDATASIZE PUSH1 0x4 PUSH3 0x12C7 JUMP JUMPDEST PUSH3 0xBF2 JUMP JUMPDEST PUSH3 0x237 PUSH3 0x2BB CALLDATASIZE PUSH1 0x4 PUSH3 0x10E3 JUMP JUMPDEST PUSH1 0x2 PUSH1 0x20 MSTORE PUSH1 0x0 SWAP1 DUP2 MSTORE PUSH1 0x40 SWAP1 KECCAK256 SLOAD PUSH1 0xFF AND DUP2 JUMP JUMPDEST PUSH3 0x173 PUSH3 0x2E1 CALLDATASIZE PUSH1 0x4 PUSH3 0x1403 JUMP JUMPDEST PUSH3 0xC91 JUMP JUMPDEST PUSH3 0x149 PUSH3 0x2F8 CALLDATASIZE PUSH1 0x4 PUSH3 0x10B6 JUMP JUMPDEST PUSH3 0xEAF JUMP JUMPDEST PUSH3 0x1E2 PUSH3 0x30F CALLDATASIZE PUSH1 0x4 PUSH3 0x105C JUMP JUMPDEST PUSH3 0xEE1 JUMP JUMPDEST PUSH3 0x1A3 PUSH3 0x326 CALLDATASIZE PUSH1 0x4 PUSH3 0x10E3 JUMP JUMPDEST PUSH3 0xF4E JUMP JUMPDEST PUSH1 0x1 PUSH1 0x20 MSTORE DUP2 PUSH1 0x0 MSTORE PUSH1 0x40 PUSH1 0x0 KECCAK256 DUP2 DUP2 SLOAD DUP2 LT PUSH3 0x349 JUMPI PUSH1 0x0 DUP1 REVERT JUMPDEST PUSH1 0x0 SWAP2 DUP3 MSTORE PUSH1 0x20 SWAP1 SWAP2 KECCAK256 ADD SLOAD PUSH1 0x1 PUSH1 0x1 PUSH1 0xA0 SHL SUB AND SWAP2 POP DUP3 SWAP1 POP JUMP JUMPDEST PUSH1 0x0 SLOAD PUSH1 0x1 PUSH1 0x1 PUSH1 0xA0 SHL SUB AND CALLER EQ PUSH3 0x39B JUMPI PUSH1 0x40 MLOAD PUSH3 0x461BCD PUSH1 0xE5 SHL DUP2 MSTORE PUSH1 0x4 ADD PUSH3 0x392 SWAP1 PUSH3 0x14E5 JUMP JUMPDEST PUSH1 0x40 MLOAD DUP1 SWAP2 SUB SWAP1 REVERT JUMPDEST PUSH1 0x1 PUSH1 0x1 PUSH1 0xA0 SHL SUB DUP3 AND PUSH1 0x0 SWAP1 DUP2 MSTORE PUSH1 0x2 PUSH1 0x20 MSTORE PUSH1 0x40 SWAP1 KECCAK256 SLOAD PUSH1 0xFF AND PUSH3 0x3D6 JUMPI PUSH1 0x40 MLOAD PUSH3 0x461BCD PUSH1 0xE5 SHL DUP2 MSTORE PUSH1 0x4 ADD PUSH3 0x392 SWAP1 PUSH3 0x1508 JUMP JUMPDEST PUSH1 0x40 MLOAD PUSH4 0xF6767ADF PUSH1 0xE0 SHL DUP2 MSTORE PUSH1 0x4 DUP2 ADD DUP3 SWAP1 MSTORE DUP3 SWAP1 PUSH1 0x1 PUSH1 0x1 PUSH1 0xA0 SHL SUB DUP3 AND SWAP1 PUSH4 0xF6767ADF SWAP1 PUSH1 0x24 ADD PUSH1 0x0 PUSH1 0x40 MLOAD DUP1 DUP4 SUB DUP2 PUSH1 0x0 DUP8 DUP1 EXTCODESIZE ISZERO DUP1 ISZERO PUSH3 0x41B JUMPI PUSH1 0x0 DUP1 REVERT JUMPDEST POP GAS CALL ISZERO DUP1 ISZERO PUSH3 0x430 JUMPI RETURNDATASIZE PUSH1 0x0 DUP1 RETURNDATACOPY RETURNDATASIZE PUSH1 0x0 REVERT JUMPDEST POP POP POP PUSH1 0x1 PUSH1 0x1 PUSH1 0xA0 SHL SUB DUP5 AND PUSH1 0x0 SWAP1 DUP2 MSTORE PUSH1 0x3 PUSH1 0x20 MSTORE PUSH1 0x40 DUP2 KECCAK256 SWAP2 POP JUMPDEST DUP2 SLOAD DUP2 LT ISZERO PUSH3 0x516 JUMPI DUP4 DUP3 DUP3 DUP2 SLOAD DUP2 LT PUSH3 0x46E JUMPI PUSH3 0x46E PUSH3 0x1530 JUMP JUMPDEST SWAP1 PUSH1 0x0 MSTORE PUSH1 0x20 PUSH1 0x0 KECCAK256 ADD SLOAD SUB PUSH3 0x501 JUMPI DUP2 SLOAD DUP3 SWAP1 PUSH3 0x491 SWAP1 PUSH1 0x1 SWAP1 PUSH3 0x155C JUMP JUMPDEST DUP2 SLOAD DUP2 LT PUSH3 0x4A4 JUMPI PUSH3 0x4A4 PUSH3 0x1530 JUMP JUMPDEST SWAP1 PUSH1 0x0 MSTORE PUSH1 0x20 PUSH1 0x0 KECCAK256 ADD SLOAD DUP3 DUP3 DUP2 SLOAD DUP2 LT PUSH3 0x4C4 JUMPI PUSH3 0x4C4 PUSH3 0x1530 JUMP JUMPDEST SWAP1 PUSH1 0x0 MSTORE PUSH1 0x20 PUSH1 0x0 KECCAK256 ADD DUP2 SWAP1 SSTORE POP DUP2 DUP1 SLOAD DUP1 PUSH3 0x4E5 JUMPI PUSH3 0x4E5 PUSH3 0x1572 JUMP JUMPDEST PUSH1 0x1 SWAP1 SUB DUP2 DUP2 SWAP1 PUSH1 0x0 MSTORE PUSH1 0x20 PUSH1 0x0 KECCAK256 ADD PUSH1 0x0 SWAP1 SSTORE SWAP1 SSTORE PUSH3 0x516 JUMP JUMPDEST DUP1 PUSH3 0x50D DUP2 PUSH3 0x1588 JUMP JUMPDEST SWAP2 POP POP PUSH3 0x44E JUMP JUMPDEST POP PUSH1 0x0 DUP4 DUP2 MSTORE PUSH1 0x1 PUSH1 0x20 MSTORE PUSH1 0x40 DUP2 KECCAK256 SWAP1 JUMPDEST DUP2 SLOAD DUP2 LT ISZERO PUSH3 0x641 JUMPI DUP6 PUSH1 0x1 PUSH1 0x1 PUSH1 0xA0 SHL SUB AND DUP3 DUP3 DUP2 SLOAD DUP2 LT PUSH3 0x550 JUMPI PUSH3 0x550 PUSH3 0x1530 JUMP JUMPDEST PUSH1 0x0 SWAP2 DUP3 MSTORE PUSH1 0x20 SWAP1 SWAP2 KECCAK256 ADD SLOAD PUSH1 0x1 PUSH1 0x1 PUSH1 0xA0 SHL SUB AND SUB PUSH3 0x62C JUMPI DUP2 SLOAD DUP3 SWAP1 PUSH3 0x57D SWAP1 PUSH1 0x1 SWAP1 PUSH3 0x155C JUMP JUMPDEST DUP2 SLOAD DUP2 LT PUSH3 0x590 JUMPI PUSH3 0x590 PUSH3 0x1530 JUMP JUMPDEST SWAP1 PUSH1 0x0 MSTORE PUSH1 0x20 PUSH1 0x0 KECCAK256 ADD PUSH1 0x0 SWAP1 SLOAD SWAP1 PUSH2 0x100 EXP SWAP1 DIV PUSH1 0x1 PUSH1 0x1 PUSH1 0xA0 SHL SUB AND DUP3 DUP3 DUP2 SLOAD DUP2 LT PUSH3 0x5C3 JUMPI PUSH3 0x5C3 PUSH3 0x1530 JUMP JUMPDEST SWAP1 PUSH1 0x0 MSTORE PUSH1 0x20 PUSH1 0x0 KECCAK256 ADD PUSH1 0x0 PUSH2 0x100 EXP DUP2 SLOAD DUP2 PUSH1 0x1 PUSH1 0x1 PUSH1 0xA0 SHL SUB MUL NOT AND SWAP1 DUP4 PUSH1 0x1 PUSH1 0x1 PUSH1 0xA0 SHL SUB AND MUL OR SWAP1 SSTORE POP DUP2 DUP1 SLOAD DUP1 PUSH3 0x604 JUMPI PUSH3 0x604 PUSH3 0x1572 JUMP JUMPDEST PUSH1 0x0 DUP3 DUP2 MSTORE PUSH1 0x20 SWAP1 KECCAK256 DUP2 ADD PUSH1 0x0 NOT SWAP1 DUP2 ADD DUP1 SLOAD PUSH1 0x1 PUSH1 0x1 PUSH1 0xA0 SHL SUB NOT AND SWAP1 SSTORE ADD SWAP1 SSTORE PUSH3 0x641 JUMP JUMPDEST DUP1 PUSH3 0x638 DUP2 PUSH3 0x1588 JUMP JUMPDEST SWAP2 POP POP PUSH3 0x527 JUMP JUMPDEST POP PUSH1 0x40 MLOAD DUP5 SWAP1 PUSH1 0x1 PUSH1 0x1 PUSH1 0xA0 SHL SUB DUP8 AND SWAP1 PUSH32 0xCBF7CAF39A1FB00FC3F42633FFEF8E45F2F89A52F6268AD6004067CDF995CEEC SWAP1 PUSH1 0x0 SWAP1 LOG3 POP POP POP POP POP JUMP JUMPDEST PUSH1 0x1 PUSH1 0x1 PUSH1 0xA0 SHL SUB DUP2 AND PUSH1 0x0 SWAP1 DUP2 MSTORE PUSH1 0x2 PUSH1 0x20 MSTORE PUSH1 0x40 SWAP1 KECCAK256 SLOAD PUSH1 0x60 SWAP1 PUSH1 0xFF AND PUSH3 0x6BD JUMPI PUSH1 0x40 MLOAD PUSH3 0x461BCD PUSH1 0xE5 SHL DUP2 MSTORE PUSH1 0x4 ADD PUSH3 0x392 SWAP1 PUSH3 0x1508 JUMP JUMPDEST PUSH1 0x1 PUSH1 0x1 PUSH1 0xA0 SHL SUB DUP3 AND PUSH1 0x0 SWAP1 DUP2 MSTORE PUSH1 0x3 PUSH1 0x20 SWAP1 DUP2 MSTORE PUSH1 0x40 SWAP2 DUP3 SWAP1 KECCAK256 DUP1 SLOAD DUP4 MLOAD DUP2 DUP5 MUL DUP2 ADD DUP5 ADD SWAP1 SWAP5 MSTORE DUP1 DUP5 MSTORE SWAP1 SWAP2 DUP4 ADD DUP3 DUP3 DUP1 ISZERO PUSH3 0x71D JUMPI PUSH1 0x20 MUL DUP3 ADD SWAP2 SWAP1 PUSH1 0x0 MSTORE PUSH1 0x20 PUSH1 0x0 KECCAK256 SWAP1 JUMPDEST DUP2 SLOAD DUP2 MSTORE PUSH1 0x20 ADD SWAP1 PUSH1 0x1 ADD SWAP1 DUP1 DUP4 GT PUSH3 0x708 JUMPI JUMPDEST POP POP POP POP POP SWAP1 POP SWAP2 SWAP1 POP JUMP JUMPDEST PUSH1 0x4 SLOAD PUSH1 0x60 SWAP1 DUP4 LT PUSH3 0x776 JUMPI PUSH1 0x40 MLOAD PUSH3 0x461BCD PUSH1 0xE5 SHL DUP2 MSTORE PUSH1 0x20 PUSH1 0x4 DUP3 ADD MSTORE PUSH1 0x14 PUSH1 0x24 DUP3 ADD MSTORE PUSH20 0x4F6666736574206F7574206F6620626F756E6473 PUSH1 0x60 SHL PUSH1 0x44 DUP3 ADD MSTORE PUSH1 0x64 ADD PUSH3 0x392 JUMP JUMPDEST PUSH1 0x0 PUSH3 0x784 DUP4 DUP6 PUSH3 0x15A4 JUMP JUMPDEST PUSH1 0x4 SLOAD SWAP1 SWAP2 POP DUP2 GT ISZERO PUSH3 0x797 JUMPI POP PUSH1 0x4 SLOAD JUMPDEST PUSH1 0x0 PUSH3 0x7A5 DUP6 DUP4 PUSH3 0x155C JUMP JUMPDEST PUSH8 0xFFFFFFFFFFFFFFFF DUP2 GT ISZERO PUSH3 0x7C0 JUMPI PUSH3 0x7C0 PUSH3 0x11A9 JUMP JUMPDEST PUSH1 0x40 MLOAD SWAP1 DUP1 DUP3 MSTORE DUP1 PUSH1 0x20 MUL PUSH1 0x20 ADD DUP3 ADD PUSH1 0x40 MSTORE DUP1 ISZERO PUSH3 0x7EA JUMPI DUP2 PUSH1 0x20 ADD PUSH1 0x20 DUP3 MUL DUP1 CALLDATASIZE DUP4 CALLDATACOPY ADD SWAP1 POP JUMPDEST POP SWAP1 POP DUP5 JUMPDEST DUP3 DUP2 LT ISZERO PUSH3 0x870 JUMPI PUSH1 0x4 DUP2 DUP2 SLOAD DUP2 LT PUSH3 0x80E JUMPI PUSH3 0x80E PUSH3 0x1530 JUMP JUMPDEST PUSH1 0x0 SWAP2 DUP3 MSTORE PUSH1 0x20 SWAP1 SWAP2 KECCAK256 ADD SLOAD PUSH1 0x1 PUSH1 0x1 PUSH1 0xA0 SHL SUB AND DUP3 PUSH3 0x830 DUP9 DUP5 PUSH3 0x155C JUMP JUMPDEST DUP2 MLOAD DUP2 LT PUSH3 0x843 JUMPI PUSH3 0x843 PUSH3 0x1530 JUMP JUMPDEST PUSH1 0x1 PUSH1 0x1 PUSH1 0xA0 SHL SUB SWAP1 SWAP3 AND PUSH1 0x20 SWAP3 DUP4 MUL SWAP2 SWAP1 SWAP2 ADD SWAP1 SWAP2 ADD MSTORE DUP1 PUSH3 0x867 DUP2 PUSH3 0x1588 JUMP JUMPDEST SWAP2 POP POP PUSH3 0x7EF JUMP JUMPDEST POP SWAP2 POP POP JUMPDEST SWAP3 SWAP2 POP POP JUMP JUMPDEST PUSH1 0x4 DUP2 DUP2 SLOAD DUP2 LT PUSH3 0x88C JUMPI PUSH1 0x0 DUP1 REVERT JUMPDEST PUSH1 0x0 SWAP2 DUP3 MSTORE PUSH1 0x20 SWAP1 SWAP2 KECCAK256 ADD SLOAD PUSH1 0x1 PUSH1 0x1 PUSH1 0xA0 SHL SUB AND SWAP1 POP DUP2 JUMP JUMPDEST PUSH1 0x0 SLOAD PUSH1 0x1 PUSH1 0x1 PUSH1 0xA0 SHL SUB AND CALLER EQ PUSH3 0x8D3 JUMPI PUSH1 0x40 MLOAD PUSH3 0x461BCD PUSH1 0xE5 SHL DUP2 MSTORE PUSH1 0x4 ADD PUSH3 0x392 SWAP1 PUSH3 0x14E5 JUMP JUMPDEST PUSH1 0x1 PUSH1 0x1 PUSH1 0xA0 SHL SUB DUP4 AND PUSH1 0x0 SWAP1 DUP2 MSTORE PUSH1 0x2 PUSH1 0x20 MSTORE PUSH1 0x40 SWAP1 KECCAK256 SLOAD PUSH1 0xFF AND PUSH3 0x90E JUMPI PUSH1 0x40 MLOAD PUSH3 0x461BCD PUSH1 0xE5 SHL DUP2 MSTORE PUSH1 0x4 ADD PUSH3 0x392 SWAP1 PUSH3 0x1508 JUMP JUMPDEST PUSH1 0x1 PUSH1 0x1 PUSH1 0xA0 SHL SUB DUP4 AND PUSH1 0x0 SWAP1 DUP2 MSTORE PUSH1 0x3 PUSH1 0x20 SWAP1 DUP2 MSTORE PUSH1 0x40 DUP1 DUP4 KECCAK256 DUP1 SLOAD DUP3 MLOAD DUP2 DUP6 MUL DUP2 ADD DUP6 ADD SWAP1 SWAP4 MSTORE DUP1 DUP4 MSTORE SWAP2 SWAP3 SWAP1 SWAP2 SWAP1 DUP4 ADD DUP3 DUP3 DUP1 ISZERO PUSH3 0x970 JUMPI PUSH1 0x20 MUL DUP3 ADD SWAP2 SWAP1 PUSH1 0x0 MSTORE PUSH1 0x20 PUSH1 0x0 KECCAK256 SWAP1 JUMPDEST DUP2 SLOAD DUP2 MSTORE PUSH1 0x20 ADD SWAP1 PUSH1 0x1 ADD SWAP1 DUP1 DUP4 GT PUSH3 0x95B JUMPI JUMPDEST POP POP POP POP POP SWAP1 POP PUSH1 0x0 JUMPDEST DUP2 MLOAD DUP2 LT ISZERO PUSH3 0xA06 JUMPI DUP4 DUP3 DUP3 DUP2 MLOAD DUP2 LT PUSH3 0x99A JUMPI PUSH3 0x99A PUSH3 0x1530 JUMP JUMPDEST PUSH1 0x20 MUL PUSH1 0x20 ADD ADD MLOAD SUB PUSH3 0x9F1 JUMPI PUSH1 0x40 MLOAD PUSH3 0x461BCD PUSH1 0xE5 SHL DUP2 MSTORE PUSH1 0x20 PUSH1 0x4 DUP3 ADD MSTORE PUSH1 0x1C PUSH1 0x24 DUP3 ADD MSTORE PUSH32 0x4C69766573747265616D20616C726561647920696E206D61726B657400000000 PUSH1 0x44 DUP3 ADD MSTORE PUSH1 0x64 ADD PUSH3 0x392 JUMP JUMPDEST DUP1 PUSH3 0x9FD DUP2 PUSH3 0x1588 JUMP JUMPDEST SWAP2 POP POP PUSH3 0x97A JUMP JUMPDEST POP PUSH1 0x40 MLOAD PUSH4 0x7B313021 PUSH1 0xE1 SHL DUP2 MSTORE DUP5 SWAP1 PUSH1 0x1 PUSH1 0x1 PUSH1 0xA0 SHL SUB DUP3 AND SWAP1 PUSH4 0xF6626042 SWAP1 PUSH3 0xA39 SWAP1 DUP8 SWAP1 DUP8 SWAP1 PUSH1 0x4 ADD PUSH3 0x1602 JUMP JUMPDEST PUSH1 0x0 PUSH1 0x40 MLOAD DUP1 DUP4 SUB DUP2 PUSH1 0x0 DUP8 DUP1 EXTCODESIZE ISZERO DUP1 ISZERO PUSH3 0xA54 JUMPI PUSH1 0x0 DUP1 REVERT JUMPDEST POP GAS CALL ISZERO DUP1 ISZERO PUSH3 0xA69 JUMPI RETURNDATASIZE PUSH1 0x0 DUP1 RETURNDATACOPY RETURNDATASIZE PUSH1 0x0 REVERT JUMPDEST POP POP POP PUSH1 0x1 PUSH1 0x1 PUSH1 0xA0 SHL SUB DUP7 AND PUSH1 0x0 DUP2 DUP2 MSTORE PUSH1 0x3 PUSH1 0x20 SWAP1 DUP2 MSTORE PUSH1 0x40 DUP1 DUP4 KECCAK256 DUP1 SLOAD PUSH1 0x1 DUP2 DUP2 ADD DUP4 SSTORE SWAP2 DUP6 MSTORE DUP4 DUP6 KECCAK256 ADD DUP11 SWAP1 SSTORE DUP10 DUP5 MSTORE DUP1 DUP4 MSTORE DUP2 DUP5 KECCAK256 DUP1 SLOAD SWAP2 DUP3 ADD DUP2 SSTORE DUP5 MSTORE SWAP2 DUP4 KECCAK256 SWAP1 SWAP2 ADD DUP1 SLOAD PUSH1 0x1 PUSH1 0x1 PUSH1 0xA0 SHL SUB NOT AND DUP5 OR SWAP1 SSTORE MLOAD DUP8 SWAP4 POP PUSH32 0x6127FC1C17AB50644B01500E2695F4BF65A21BA6142C41ADF59A6DDA58B2F70A SWAP2 SWAP1 LOG3 POP POP POP POP POP JUMP JUMPDEST PUSH1 0x1 PUSH1 0x1 PUSH1 0xA0 SHL SUB DUP3 AND PUSH1 0x0 SWAP1 DUP2 MSTORE PUSH1 0x2 PUSH1 0x20 MSTORE PUSH1 0x40 DUP2 KECCAK256 SLOAD PUSH1 0xFF AND PUSH3 0xB2C JUMPI PUSH1 0x40 MLOAD PUSH3 0x461BCD PUSH1 0xE5 SHL DUP2 MSTORE PUSH1 0x4 ADD PUSH3 0x392 SWAP1 PUSH3 0x1508 JUMP JUMPDEST PUSH1 0x1 PUSH1 0x1 PUSH1 0xA0 SHL SUB DUP4 AND PUSH1 0x0 SWAP1 DUP2 MSTORE PUSH1 0x3 PUSH1 0x20 SWAP1 DUP2 MSTORE PUSH1 0x40 DUP1 DUP4 KECCAK256 DUP1 SLOAD DUP3 MLOAD DUP2 DUP6 MUL DUP2 ADD DUP6 ADD SWAP1 SWAP4 MSTORE DUP1 DUP4 MSTORE SWAP2 SWAP3 SWAP1 SWAP2 SWAP1 DUP4 ADD DUP3 DUP3 DUP1 ISZERO PUSH3 0xB8E JUMPI PUSH1 0x20 MUL DUP3 ADD SWAP2 SWAP1 PUSH1 0x0 MSTORE PUSH1 0x20 PUSH1 0x0 KECCAK256 SWAP1 JUMPDEST DUP2 SLOAD DUP2 MSTORE PUSH1 0x20 ADD SWAP1 PUSH1 0x1 ADD SWAP1 DUP1 DUP4 GT PUSH3 0xB79 JUMPI JUMPDEST POP POP POP POP POP SWAP1 POP PUSH1 0x0 JUMPDEST DUP2 MLOAD DUP2 LT ISZERO PUSH3 0xBE7 JUMPI DUP4 DUP3 DUP3 DUP2 MLOAD DUP2 LT PUSH3 0xBB8 JUMPI PUSH3 0xBB8 PUSH3 0x1530 JUMP JUMPDEST PUSH1 0x20 MUL PUSH1 0x20 ADD ADD MLOAD SUB PUSH3 0xBD2 JUMPI PUSH1 0x1 SWAP3 POP POP POP PUSH3 0x875 JUMP JUMPDEST DUP1 PUSH3 0xBDE DUP2 PUSH3 0x1588 JUMP JUMPDEST SWAP2 POP POP PUSH3 0xB98 JUMP JUMPDEST POP PUSH1 0x0 SWAP5 SWAP4 POP POP POP POP JUMP JUMPDEST CALLER PUSH1 0x0 SWAP1 DUP2 MSTORE PUSH1 0x2 PUSH1 0x20 MSTORE PUSH1 0x40 SWAP1 KECCAK256 SLOAD PUSH1 0xFF AND PUSH3 0xC48 JUMPI PUSH1 0x40 MLOAD PUSH3 0x461BCD PUSH1 0xE5 SHL DUP2 MSTORE PUSH1 0x20 PUSH1 0x4 DUP3 ADD MSTORE PUSH1 0x12 PUSH1 0x24 DUP3 ADD MSTORE PUSH18 0x139BDD0818481D985B1A59081B585C9AD95D PUSH1 0x72 SHL PUSH1 0x44 DUP3 ADD MSTORE PUSH1 0x64 ADD PUSH3 0x392 JUMP JUMPDEST CALLER PUSH1 0x1 PUSH1 0x1 PUSH1 0xA0 SHL SUB AND PUSH32 0x7B4E9FD00806836220E4A818C7309FE732DEF7F454EF846365FE7CBBC98523C1 DUP4 DUP4 PUSH1 0x40 MLOAD PUSH3 0xC85 SWAP3 SWAP2 SWAP1 PUSH3 0x1625 JUMP JUMPDEST PUSH1 0x40 MLOAD DUP1 SWAP2 SUB SWAP1 LOG2 POP POP JUMP JUMPDEST PUSH1 0x0 DUP1 SLOAD PUSH1 0x1 PUSH1 0x1 PUSH1 0xA0 SHL SUB AND CALLER EQ PUSH3 0xCBF JUMPI PUSH1 0x40 MLOAD PUSH3 0x461BCD PUSH1 0xE5 SHL DUP2 MSTORE PUSH1 0x4 ADD PUSH3 0x392 SWAP1 PUSH3 0x14E5 JUMP JUMPDEST DUP2 MLOAD DUP5 MLOAD EQ PUSH3 0xD06 JUMPI PUSH1 0x40 MLOAD PUSH3 0x461BCD PUSH1 0xE5 SHL DUP2 MSTORE PUSH1 0x20 PUSH1 0x4 DUP3 ADD MSTORE PUSH1 0x11 PUSH1 0x24 DUP3 ADD MSTORE PUSH17 0x4D69736D61746368656420617272617973 PUSH1 0x78 SHL PUSH1 0x44 DUP3 ADD MSTORE PUSH1 0x64 ADD PUSH3 0x392 JUMP JUMPDEST PUSH1 0x0 DUP1 SLOAD PUSH1 0x40 MLOAD DUP7 SWAP2 DUP7 SWAP2 DUP7 SWAP2 PUSH1 0x1 PUSH1 0x1 PUSH1 0xA0 SHL SUB AND SWAP1 PUSH3 0xD28 SWAP1 PUSH3 0xFE7 JUMP JUMPDEST PUSH3 0xD37 SWAP5 SWAP4 SWAP3 SWAP2 SWAP1 PUSH3 0x165F JUMP JUMPDEST PUSH1 0x40 MLOAD DUP1 SWAP2 SUB SWAP1 PUSH1 0x0 CREATE DUP1 ISZERO DUP1 ISZERO PUSH3 0xD54 JUMPI RETURNDATASIZE PUSH1 0x0 DUP1 RETURNDATACOPY RETURNDATASIZE PUSH1 0x0 REVERT JUMPDEST POP PUSH1 0x1 PUSH1 0x1 PUSH1 0xA0 SHL SUB DUP2 AND PUSH1 0x0 SWAP1 DUP2 MSTORE PUSH1 0x2 PUSH1 0x20 SWAP1 DUP2 MSTORE PUSH1 0x40 DUP1 DUP4 KECCAK256 DUP1 SLOAD PUSH1 0xFF NOT AND PUSH1 0x1 OR SWAP1 SSTORE PUSH1 0x3 DUP3 MSTORE SWAP1 SWAP2 KECCAK256 DUP8 MLOAD SWAP3 SWAP4 POP DUP4 SWAP3 PUSH3 0xD97 SWAP3 DUP10 ADD SWAP1 PUSH3 0xFF5 JUMP JUMPDEST POP PUSH1 0x4 DUP1 SLOAD PUSH1 0x1 DUP2 ADD DUP3 SSTORE PUSH1 0x0 SWAP2 DUP3 MSTORE PUSH32 0x8A35ACFBC15FF81A39AE7D344FD709F28E8600B4AA8C65C6B64BFE7FE36BD19B ADD DUP1 SLOAD PUSH1 0x1 PUSH1 0x1 PUSH1 0xA0 SHL SUB NOT AND PUSH1 0x1 PUSH1 0x1 PUSH1 0xA0 SHL SUB DUP5 AND OR SWAP1 SSTORE JUMPDEST DUP7 MLOAD DUP2 LT ISZERO PUSH3 0xE60 JUMPI PUSH1 0x1 PUSH1 0x0 DUP9 DUP4 DUP2 MLOAD DUP2 LT PUSH3 0xE06 JUMPI PUSH3 0xE06 PUSH3 0x1530 JUMP JUMPDEST PUSH1 0x20 SWAP1 DUP2 MUL SWAP2 SWAP1 SWAP2 ADD DUP2 ADD MLOAD DUP3 MSTORE DUP2 DUP2 ADD SWAP3 SWAP1 SWAP3 MSTORE PUSH1 0x40 ADD PUSH1 0x0 SWAP1 DUP2 KECCAK256 DUP1 SLOAD PUSH1 0x1 DUP2 ADD DUP3 SSTORE SWAP1 DUP3 MSTORE SWAP2 SWAP1 KECCAK256 ADD DUP1 SLOAD PUSH1 0x1 PUSH1 0x1 PUSH1 0xA0 SHL SUB NOT AND PUSH1 0x1 PUSH1 0x1 PUSH1 0xA0 SHL SUB DUP5 AND OR SWAP1 SSTORE DUP1 PUSH3 0xE57 DUP2 PUSH3 0x1588 JUMP JUMPDEST SWAP2 POP POP PUSH3 0xDE3 JUMP JUMPDEST POP DUP1 PUSH1 0x1 PUSH1 0x1 PUSH1 0xA0 SHL SUB AND PUSH32 0x3517A251317E3FA9C98B00782D0E6AA696CB161A2279039A18AD646E1E4853A9 DUP8 DUP8 PUSH1 0x40 MLOAD PUSH3 0xE9E SWAP3 SWAP2 SWAP1 PUSH3 0x1703 JUMP JUMPDEST PUSH1 0x40 MLOAD DUP1 SWAP2 SUB SWAP1 LOG2 SWAP6 SWAP5 POP POP POP POP POP JUMP JUMPDEST PUSH1 0x3 PUSH1 0x20 MSTORE DUP2 PUSH1 0x0 MSTORE PUSH1 0x40 PUSH1 0x0 KECCAK256 DUP2 DUP2 SLOAD DUP2 LT PUSH3 0xECC JUMPI PUSH1 0x0 DUP1 REVERT JUMPDEST SWAP1 PUSH1 0x0 MSTORE PUSH1 0x20 PUSH1 0x0 KECCAK256 ADD PUSH1 0x0 SWAP2 POP SWAP2 POP POP SLOAD DUP2 JUMP JUMPDEST PUSH1 0x0 DUP2 DUP2 MSTORE PUSH1 0x1 PUSH1 0x20 SWAP1 DUP2 MSTORE PUSH1 0x40 SWAP2 DUP3 SWAP1 KECCAK256 DUP1 SLOAD DUP4 MLOAD DUP2 DUP5 MUL DUP2 ADD DUP5 ADD SWAP1 SWAP5 MSTORE DUP1 DUP5 MSTORE PUSH1 0x60 SWAP4 SWAP3 DUP4 ADD DUP3 DUP3 DUP1 ISZERO PUSH3 0x71D JUMPI PUSH1 0x20 MUL DUP3 ADD SWAP2 SWAP1 PUSH1 0x0 MSTORE PUSH1 0x20 PUSH1 0x0 KECCAK256 SWAP1 JUMPDEST DUP2 SLOAD PUSH1 0x1 PUSH1 0x1 PUSH1 0xA0 SHL SUB AND DUP2 MSTORE PUSH1 0x1 SWAP1 SWAP2 ADD SWAP1 PUSH1 0x20 ADD DUP1 DUP4 GT PUSH3 0xF24 JUMPI POP POP POP POP POP SWAP1 POP SWAP2 SWAP1 POP JUMP JUMPDEST PUSH1 0x0 SLOAD PUSH1 0x1 PUSH1 0x1 PUSH1 0xA0 SHL SUB AND CALLER EQ PUSH3 0xF7B JUMPI PUSH1 0x40 MLOAD PUSH3 0x461BCD PUSH1 0xE5 SHL DUP2 MSTORE PUSH1 0x4 ADD PUSH3 0x392 SWAP1 PUSH3 0x14E5 JUMP JUMPDEST PUSH1 0x1 PUSH1 0x1 PUSH1 0xA0 SHL SUB DUP2 AND PUSH3 0xFC5 JUMPI PUSH1 0x40 MLOAD PUSH3 0x461BCD PUSH1 0xE5 SHL DUP2 MSTORE PUSH1 0x20 PUSH1 0x4 DUP3 ADD MSTORE PUSH1 0xF PUSH1 0x24 DUP3 ADD MSTORE PUSH15 0x496E76616C69642061646472657373 PUSH1 0x88 SHL PUSH1 0x44 DUP3 ADD MSTORE PUSH1 0x64 ADD PUSH3 0x392 JUMP JUMPDEST PUSH1 0x0 DUP1 SLOAD PUSH1 0x1 PUSH1 0x1 PUSH1 0xA0 SHL SUB NOT AND PUSH1 0x1 PUSH1 0x1 PUSH1 0xA0 SHL SUB SWAP3 SWAP1 SWAP3 AND SWAP2 SWAP1 SWAP2 OR SWAP1 SSTORE JUMP JUMPDEST PUSH2 0x2CC9 DUP1 PUSH3 0x1736 DUP4 CODECOPY ADD SWAP1 JUMP JUMPDEST DUP3 DUP1 SLOAD DUP3 DUP3 SSTORE SWAP1 PUSH1 0x0 MSTORE PUSH1 0x20 PUSH1 0x0 KECCAK256 SWAP1 DUP2 ADD SWAP3 DUP3 ISZERO PUSH3 0x1033 JUMPI SWAP2 PUSH1 0x20 MUL DUP3 ADD JUMPDEST DUP3 DUP2 GT ISZERO PUSH3 0x1033 JUMPI DUP3 MLOAD DUP3 SSTORE SWAP2 PUSH1 0x20 ADD SWAP2 SWAP1 PUSH1 0x1 ADD SWAP1 PUSH3 0x1016 JUMP JUMPDEST POP PUSH3 0x1041 SWAP3 SWAP2 POP PUSH3 0x1045 JUMP JUMPDEST POP SWAP1 JUMP JUMPDEST JUMPDEST DUP1 DUP3 GT ISZERO PUSH3 0x1041 JUMPI PUSH1 0x0 DUP2 SSTORE PUSH1 0x1 ADD PUSH3 0x1046 JUMP JUMPDEST PUSH1 0x0 PUSH1 0x20 DUP3 DUP5 SUB SLT ISZERO PUSH3 0x106F JUMPI PUSH1 0x0 DUP1 REVERT JUMPDEST POP CALLDATALOAD SWAP2 SWAP1 POP JUMP JUMPDEST PUSH1 0x0 DUP1 PUSH1 0x40 DUP4 DUP6 SUB SLT ISZERO PUSH3 0x108A JUMPI PUSH1 0x0 DUP1 REVERT JUMPDEST POP POP DUP1 CALLDATALOAD SWAP3 PUSH1 0x20 SWAP1 SWAP2 ADD CALLDATALOAD SWAP2 POP JUMP JUMPDEST DUP1 CALLDATALOAD PUSH1 0x1 PUSH1 0x1 PUSH1 0xA0 SHL SUB DUP2 AND DUP2 EQ PUSH3 0x10B1 JUMPI PUSH1 0x0 DUP1 REVERT JUMPDEST SWAP2 SWAP1 POP JUMP JUMPDEST PUSH1 0x0 DUP1 PUSH1 0x40 DUP4 DUP6 SUB SLT ISZERO PUSH3 0x10CA JUMPI PUSH1 0x0 DUP1 REVERT JUMPDEST PUSH3 0x10D5 DUP4 PUSH3 0x1099 JUMP JUMPDEST SWAP5 PUSH1 0x20 SWAP4 SWAP1 SWAP4 ADD CALLDATALOAD SWAP4 POP POP POP JUMP JUMPDEST PUSH1 0x0 PUSH1 0x20 DUP3 DUP5 SUB SLT ISZERO PUSH3 0x10F6 JUMPI PUSH1 0x0 DUP1 REVERT JUMPDEST PUSH3 0x1101 DUP3 PUSH3 0x1099 JUMP JUMPDEST SWAP4 SWAP3 POP POP POP JUMP JUMPDEST PUSH1 0x0 DUP2 MLOAD DUP1 DUP5 MSTORE PUSH1 0x20 DUP1 DUP6 ADD SWAP5 POP DUP1 DUP5 ADD PUSH1 0x0 JUMPDEST DUP4 DUP2 LT ISZERO PUSH3 0x113A JUMPI DUP2 MLOAD DUP8 MSTORE SWAP6 DUP3 ADD SWAP6 SWAP1 DUP3 ADD SWAP1 PUSH1 0x1 ADD PUSH3 0x111C JUMP JUMPDEST POP SWAP5 SWAP6 SWAP5 POP POP POP POP POP JUMP JUMPDEST PUSH1 0x20 DUP2 MSTORE PUSH1 0x0 PUSH3 0x1101 PUSH1 0x20 DUP4 ADD DUP5 PUSH3 0x1108 JUMP JUMPDEST PUSH1 0x20 DUP1 DUP3 MSTORE DUP3 MLOAD DUP3 DUP3 ADD DUP2 SWAP1 MSTORE PUSH1 0x0 SWAP2 SWAP1 DUP5 DUP3 ADD SWAP1 PUSH1 0x40 DUP6 ADD SWAP1 DUP5 JUMPDEST DUP2 DUP2 LT ISZERO PUSH3 0x119D JUMPI DUP4 MLOAD PUSH1 0x1 PUSH1 0x1 PUSH1 0xA0 SHL SUB AND DUP4 MSTORE SWAP3 DUP5 ADD SWAP3 SWAP2 DUP5 ADD SWAP2 PUSH1 0x1 ADD PUSH3 0x1176 JUMP JUMPDEST POP SWAP1 SWAP7 SWAP6 POP POP POP POP POP POP JUMP JUMPDEST PUSH4 0x4E487B71 PUSH1 0xE0 SHL PUSH1 0x0 MSTORE PUSH1 0x41 PUSH1 0x4 MSTORE PUSH1 0x24 PUSH1 0x0 REVERT JUMPDEST PUSH1 0x40 MLOAD PUSH1 0x1F DUP3 ADD PUSH1 0x1F NOT AND DUP2 ADD PUSH8 0xFFFFFFFFFFFFFFFF DUP2 GT DUP3 DUP3 LT OR ISZERO PUSH3 0x11EB JUMPI PUSH3 0x11EB PUSH3 0x11A9 JUMP JUMPDEST PUSH1 0x40 MSTORE SWAP2 SWAP1 POP JUMP JUMPDEST PUSH1 0x0 DUP3 PUSH1 0x1F DUP4 ADD SLT PUSH3 0x1205 JUMPI PUSH1 0x0 DUP1 REVERT JUMPDEST DUP2 CALLDATALOAD PUSH8 0xFFFFFFFFFFFFFFFF DUP2 GT ISZERO PUSH3 0x1222 JUMPI PUSH3 0x1222 PUSH3 0x11A9 JUMP JUMPDEST PUSH3 0x1237 PUSH1 0x1F DUP3 ADD PUSH1 0x1F NOT AND PUSH1 0x20 ADD PUSH3 0x11BF JUMP JUMPDEST DUP2 DUP2 MSTORE DUP5 PUSH1 0x20 DUP4 DUP7 ADD ADD GT ISZERO PUSH3 0x124D JUMPI PUSH1 0x0 DUP1 REVERT JUMPDEST DUP2 PUSH1 0x20 DUP6 ADD PUSH1 0x20 DUP4 ADD CALLDATACOPY PUSH1 0x0 SWAP2 DUP2 ADD PUSH1 0x20 ADD SWAP2 SWAP1 SWAP2 MSTORE SWAP4 SWAP3 POP POP POP JUMP JUMPDEST PUSH1 0x0 DUP1 PUSH1 0x0 PUSH1 0x60 DUP5 DUP7 SUB SLT ISZERO PUSH3 0x1280 JUMPI PUSH1 0x0 DUP1 REVERT JUMPDEST PUSH3 0x128B DUP5 PUSH3 0x1099 JUMP JUMPDEST SWAP3 POP PUSH1 0x20 DUP5 ADD CALLDATALOAD SWAP2 POP PUSH1 0x40 DUP5 ADD CALLDATALOAD PUSH8 0xFFFFFFFFFFFFFFFF DUP2 GT ISZERO PUSH3 0x12AF JUMPI PUSH1 0x0 DUP1 REVERT JUMPDEST PUSH3 0x12BD DUP7 DUP3 DUP8 ADD PUSH3 0x11F3 JUMP JUMPDEST SWAP2 POP POP SWAP3 POP SWAP3 POP SWAP3 JUMP JUMPDEST PUSH1 0x0 DUP1 PUSH1 0x20 DUP4 DUP6 SUB SLT ISZERO PUSH3 0x12DB JUMPI PUSH1 0x0 DUP1 REVERT JUMPDEST DUP3 CALLDATALOAD PUSH8 0xFFFFFFFFFFFFFFFF DUP1 DUP3 GT ISZERO PUSH3 0x12F4 JUMPI PUSH1 0x0 DUP1 REVERT JUMPDEST DUP2 DUP6 ADD SWAP2 POP DUP6 PUSH1 0x1F DUP4 ADD SLT PUSH3 0x1309 JUMPI PUSH1 0x0 DUP1 REVERT JUMPDEST DUP2 CALLDATALOAD DUP2 DUP2 GT ISZERO PUSH3 0x1319 JUMPI PUSH1 0x0 DUP1 REVERT JUMPDEST DUP7 PUSH1 0x20 DUP3 PUSH1 0x5 SHL DUP6 ADD ADD GT ISZERO PUSH3 0x132F JUMPI PUSH1 0x0 DUP1 REVERT JUMPDEST PUSH1 0x20 SWAP3 SWAP1 SWAP3 ADD SWAP7 SWAP2 SWAP6 POP SWAP1 SWAP4 POP POP POP POP JUMP JUMPDEST PUSH1 0x0 PUSH8 0xFFFFFFFFFFFFFFFF DUP3 GT ISZERO PUSH3 0x135E JUMPI PUSH3 0x135E PUSH3 0x11A9 JUMP JUMPDEST POP PUSH1 0x5 SHL PUSH1 0x20 ADD SWAP1 JUMP JUMPDEST PUSH1 0x0 DUP3 PUSH1 0x1F DUP4 ADD SLT PUSH3 0x137A JUMPI PUSH1 0x0 DUP1 REVERT JUMPDEST DUP2 CALLDATALOAD PUSH1 0x20 PUSH3 0x1393 PUSH3 0x138D DUP4 PUSH3 0x1341 JUMP JUMPDEST PUSH3 0x11BF JUMP JUMPDEST DUP3 DUP2 MSTORE PUSH1 0x5 SWAP3 SWAP1 SWAP3 SHL DUP5 ADD DUP2 ADD SWAP2 DUP2 DUP2 ADD SWAP1 DUP7 DUP5 GT ISZERO PUSH3 0x13B3 JUMPI PUSH1 0x0 DUP1 REVERT JUMPDEST DUP3 DUP7 ADD JUMPDEST DUP5 DUP2 LT ISZERO PUSH3 0x13F8 JUMPI DUP1 CALLDATALOAD PUSH8 0xFFFFFFFFFFFFFFFF DUP2 GT ISZERO PUSH3 0x13D9 JUMPI PUSH1 0x0 DUP1 DUP2 REVERT JUMPDEST PUSH3 0x13E9 DUP10 DUP7 DUP4 DUP12 ADD ADD PUSH3 0x11F3 JUMP JUMPDEST DUP5 MSTORE POP SWAP2 DUP4 ADD SWAP2 DUP4 ADD PUSH3 0x13B7 JUMP JUMPDEST POP SWAP7 SWAP6 POP POP POP POP POP POP JUMP JUMPDEST PUSH1 0x0 DUP1 PUSH1 0x0 PUSH1 0x60 DUP5 DUP7 SUB SLT ISZERO PUSH3 0x1419 JUMPI PUSH1 0x0 DUP1 REVERT JUMPDEST DUP4 CALLDATALOAD PUSH8 0xFFFFFFFFFFFFFFFF DUP1 DUP3 GT ISZERO PUSH3 0x1432 JUMPI PUSH1 0x0 DUP1 REVERT JUMPDEST DUP2 DUP7 ADD SWAP2 POP DUP7 PUSH1 0x1F DUP4 ADD SLT PUSH3 0x1447 JUMPI PUSH1 0x0 DUP1 REVERT JUMPDEST DUP2 CALLDATALOAD PUSH1 0x20 PUSH3 0x145A PUSH3 0x138D DUP4 PUSH3 0x1341 JUMP JUMPDEST DUP3 DUP2 MSTORE PUSH1 0x5 SWAP3 SWAP1 SWAP3 SHL DUP5 ADD DUP2 ADD SWAP2 DUP2 DUP2 ADD SWAP1 DUP11 DUP5 GT ISZERO PUSH3 0x147A JUMPI PUSH1 0x0 DUP1 REVERT JUMPDEST SWAP5 DUP3 ADD SWAP5 JUMPDEST DUP4 DUP7 LT ISZERO PUSH3 0x149A JUMPI DUP6 CALLDATALOAD DUP3 MSTORE SWAP5 DUP3 ADD SWAP5 SWAP1 DUP3 ADD SWAP1 PUSH3 0x147F JUMP JUMPDEST SWAP8 POP POP DUP8 ADD CALLDATALOAD SWAP3 POP POP DUP1 DUP3 GT ISZERO PUSH3 0x14B1 JUMPI PUSH1 0x0 DUP1 REVERT JUMPDEST PUSH3 0x14BF DUP8 DUP4 DUP9 ADD PUSH3 0x11F3 JUMP JUMPDEST SWAP4 POP PUSH1 0x40 DUP7 ADD CALLDATALOAD SWAP2 POP DUP1 DUP3 GT ISZERO PUSH3 0x14D6 JUMPI PUSH1 0x0 DUP1 REVERT JUMPDEST POP PUSH3 0x12BD DUP7 DUP3 DUP8 ADD PUSH3 0x1368 JUMP JUMPDEST PUSH1 0x20 DUP1 DUP3 MSTORE PUSH1 0x9 SWAP1 DUP3 ADD MSTORE PUSH9 0x2737BA1037BBB732B9 PUSH1 0xB9 SHL PUSH1 0x40 DUP3 ADD MSTORE PUSH1 0x60 ADD SWAP1 JUMP JUMPDEST PUSH1 0x20 DUP1 DUP3 MSTORE PUSH1 0xE SWAP1 DUP3 ADD MSTORE PUSH14 0x125B9D985B1A59081B585C9AD95D PUSH1 0x92 SHL PUSH1 0x40 DUP3 ADD MSTORE PUSH1 0x60 ADD SWAP1 JUMP JUMPDEST PUSH4 0x4E487B71 PUSH1 0xE0 SHL PUSH1 0x0 MSTORE PUSH1 0x32 PUSH1 0x4 MSTORE PUSH1 0x24 PUSH1 0x0 REVERT JUMPDEST PUSH4 0x4E487B71 PUSH1 0xE0 SHL PUSH1 0x0 MSTORE PUSH1 0x11 PUSH1 0x4 MSTORE PUSH1 0x24 PUSH1 0x0 REVERT JUMPDEST DUP2 DUP2 SUB DUP2 DUP2 GT ISZERO PUSH3 0x875 JUMPI PUSH3 0x875 PUSH3 0x1546 JUMP JUMPDEST PUSH4 0x4E487B71 PUSH1 0xE0 SHL PUSH1 0x0 MSTORE PUSH1 0x31 PUSH1 0x4 MSTORE PUSH1 0x24 PUSH1 0x0 REVERT JUMPDEST PUSH1 0x0 PUSH1 0x1 DUP3 ADD PUSH3 0x159D JUMPI PUSH3 0x159D PUSH3 0x1546 JUMP JUMPDEST POP PUSH1 0x1 ADD SWAP1 JUMP JUMPDEST DUP1 DUP3 ADD DUP1 DUP3 GT ISZERO PUSH3 0x875 JUMPI PUSH3 0x875 PUSH3 0x1546 JUMP JUMPDEST PUSH1 0x0 DUP2 MLOAD DUP1 DUP5 MSTORE PUSH1 0x0 JUMPDEST DUP2 DUP2 LT ISZERO PUSH3 0x15E2 JUMPI PUSH1 0x20 DUP2 DUP6 ADD DUP2 ADD MLOAD DUP7 DUP4 ADD DUP3 ADD MSTORE ADD PUSH3 0x15C4 JUMP JUMPDEST POP PUSH1 0x0 PUSH1 0x20 DUP3 DUP7 ADD ADD MSTORE PUSH1 0x20 PUSH1 0x1F NOT PUSH1 0x1F DUP4 ADD AND DUP6 ADD ADD SWAP2 POP POP SWAP3 SWAP2 POP POP JUMP JUMPDEST DUP3 DUP2 MSTORE PUSH1 0x40 PUSH1 0x20 DUP3 ADD MSTORE PUSH1 0x0 PUSH3 0x161D PUSH1 0x40 DUP4 ADD DUP5 PUSH3 0x15BA JUMP JUMPDEST SWAP5 SWAP4 POP POP POP POP JUMP JUMPDEST PUSH1 0x20 DUP1 DUP3 MSTORE DUP2 ADD DUP3 SWAP1 MSTORE PUSH1 0x0 PUSH1 0x1 PUSH1 0x1 PUSH1 0xFB SHL SUB DUP4 GT ISZERO PUSH3 0x1646 JUMPI PUSH1 0x0 DUP1 REVERT JUMPDEST DUP3 PUSH1 0x5 SHL DUP1 DUP6 PUSH1 0x40 DUP6 ADD CALLDATACOPY SWAP2 SWAP1 SWAP2 ADD PUSH1 0x40 ADD SWAP4 SWAP3 POP POP POP JUMP JUMPDEST PUSH1 0x80 DUP2 MSTORE PUSH1 0x0 PUSH3 0x1674 PUSH1 0x80 DUP4 ADD DUP8 PUSH3 0x1108 JUMP JUMPDEST PUSH1 0x20 DUP4 DUP3 SUB DUP2 DUP6 ADD MSTORE PUSH3 0x1689 DUP3 DUP9 PUSH3 0x15BA JUMP JUMPDEST SWAP2 POP DUP4 DUP3 SUB PUSH1 0x40 DUP6 ADD MSTORE DUP2 DUP7 MLOAD DUP1 DUP5 MSTORE DUP3 DUP5 ADD SWAP2 POP DUP3 DUP2 PUSH1 0x5 SHL DUP6 ADD ADD DUP4 DUP10 ADD PUSH1 0x0 JUMPDEST DUP4 DUP2 LT ISZERO PUSH3 0x16DE JUMPI PUSH1 0x1F NOT DUP8 DUP5 SUB ADD DUP6 MSTORE PUSH3 0x16CB DUP4 DUP4 MLOAD PUSH3 0x15BA JUMP JUMPDEST SWAP5 DUP7 ADD SWAP5 SWAP3 POP SWAP1 DUP6 ADD SWAP1 PUSH1 0x1 ADD PUSH3 0x16AC JUMP JUMPDEST POP POP PUSH1 0x1 PUSH1 0x1 PUSH1 0xA0 SHL SUB SWAP8 SWAP1 SWAP8 AND PUSH1 0x60 SWAP7 SWAP1 SWAP7 ADD SWAP6 SWAP1 SWAP6 MSTORE POP SWAP4 SWAP8 SWAP7 POP POP POP POP POP POP POP JUMP JUMPDEST PUSH1 0x40 DUP2 MSTORE PUSH1 0x0 PUSH3 0x1718 PUSH1 0x40 DUP4 ADD DUP6 PUSH3 0x1108 JUMP JUMPDEST DUP3 DUP2 SUB PUSH1 0x20 DUP5 ADD MSTORE PUSH3 0x172C DUP2 DUP6 PUSH3 0x15BA JUMP JUMPDEST SWAP6 SWAP5 POP POP POP POP POP JUMP INVALID PUSH1 0x80 PUSH1 0x40 MSTORE CALLVALUE DUP1 ISZERO PUSH3 0x11 JUMPI PUSH1 0x0 DUP1 REVERT JUMPDEST POP PUSH1 0x40 MLOAD PUSH3 0x2CC9 CODESIZE SUB DUP1 PUSH3 0x2CC9 DUP4 CODECOPY DUP2 ADD PUSH1 0x40 DUP2 SWAP1 MSTORE PUSH3 0x34 SWAP2 PUSH3 0x43C JUMP JUMPDEST DUP2 MLOAD DUP5 MLOAD EQ PUSH3 0x7F JUMPI PUSH1 0x40 MLOAD PUSH3 0x461BCD PUSH1 0xE5 SHL DUP2 MSTORE PUSH1 0x20 PUSH1 0x4 DUP3 ADD MSTORE PUSH1 0x11 PUSH1 0x24 DUP3 ADD MSTORE PUSH17 0x4D69736D61746368656420617272617973 PUSH1 0x78 SHL PUSH1 0x44 DUP3 ADD MSTORE PUSH1 0x64 ADD JUMPDEST PUSH1 0x40 MLOAD DUP1 SWAP2 SUB SWAP1 REVERT JUMPDEST PUSH1 0x2 PUSH3 0x8D DUP5 DUP3 PUSH3 0x5CC JUMP JUMPDEST POP PUSH1 0x3 DUP1 SLOAD PUSH1 0x1 PUSH1 0x1 PUSH1 0xA0 SHL SUB NOT AND PUSH1 0x1 PUSH1 0x1 PUSH1 0xA0 SHL SUB DUP4 AND OR SWAP1 SSTORE PUSH1 0x4 DUP1 SLOAD PUSH1 0x1 PUSH1 0x1 PUSH1 0xA8 SHL SUB NOT AND CALLER PUSH1 0xFF PUSH1 0xA0 SHL NOT AND OR SWAP1 SSTORE TIMESTAMP PUSH1 0x5 SSTORE PUSH1 0x0 JUMPDEST DUP5 MLOAD DUP2 LT ISZERO PUSH3 0x27E JUMPI PUSH1 0x0 DUP6 DUP3 DUP2 MLOAD DUP2 LT PUSH3 0xEA JUMPI PUSH3 0xEA PUSH3 0x698 JUMP JUMPDEST PUSH1 0x20 MUL PUSH1 0x20 ADD ADD MLOAD SWAP1 POP DUP1 PUSH1 0x0 SUB PUSH3 0x146 JUMPI PUSH1 0x40 MLOAD PUSH3 0x461BCD PUSH1 0xE5 SHL DUP2 MSTORE PUSH1 0x20 PUSH1 0x4 DUP3 ADD MSTORE PUSH1 0x15 PUSH1 0x24 DUP3 ADD MSTORE PUSH32 0x496E76616C6964206C69766573747265616D2049440000000000000000000000 PUSH1 0x44 DUP3 ADD MSTORE PUSH1 0x64 ADD PUSH3 0x76 JUMP JUMPDEST PUSH1 0x0 DUP2 DUP2 MSTORE PUSH1 0x20 DUP2 SWAP1 MSTORE PUSH1 0x40 SWAP1 KECCAK256 PUSH1 0x2 ADD SLOAD PUSH1 0xFF AND ISZERO PUSH3 0x1AA JUMPI PUSH1 0x40 MLOAD PUSH3 0x461BCD PUSH1 0xE5 SHL DUP2 MSTORE PUSH1 0x20 PUSH1 0x4 DUP3 ADD MSTORE PUSH1 0x19 PUSH1 0x24 DUP3 ADD MSTORE PUSH32 0x4C69766573747265616D20616C72656164792065786973747300000000000000 PUSH1 0x44 DUP3 ADD MSTORE PUSH1 0x64 ADD PUSH3 0x76 JUMP JUMPDEST PUSH1 0x40 MLOAD DUP1 PUSH1 0x80 ADD PUSH1 0x40 MSTORE DUP1 DUP3 DUP2 MSTORE PUSH1 0x20 ADD DUP6 DUP5 DUP2 MLOAD DUP2 LT PUSH3 0x1D0 JUMPI PUSH3 0x1D0 PUSH3 0x698 JUMP JUMPDEST PUSH1 0x20 SWAP1 DUP2 MUL SWAP2 SWAP1 SWAP2 ADD DUP2 ADD MLOAD DUP3 MSTORE PUSH1 0x1 DUP3 DUP3 ADD DUP2 SWAP1 MSTORE TIMESTAMP PUSH1 0x40 SWAP4 DUP5 ADD MSTORE PUSH1 0x0 DUP6 DUP2 MSTORE DUP1 DUP4 MSTORE SWAP3 SWAP1 SWAP3 KECCAK256 DUP4 MLOAD DUP2 SSTORE SWAP1 DUP4 ADD MLOAD SWAP1 SWAP2 DUP3 ADD SWAP1 PUSH3 0x212 SWAP1 DUP3 PUSH3 0x5CC JUMP JUMPDEST POP PUSH1 0x40 DUP3 ADD MLOAD PUSH1 0x2 DUP3 ADD DUP1 SLOAD PUSH1 0xFF NOT AND SWAP2 ISZERO ISZERO SWAP2 SWAP1 SWAP2 OR SWAP1 SSTORE PUSH1 0x60 SWAP1 SWAP2 ADD MLOAD PUSH1 0x3 SWAP1 SWAP2 ADD SSTORE PUSH1 0x1 DUP1 SLOAD DUP1 DUP3 ADD DUP3 SSTORE PUSH1 0x0 SWAP2 SWAP1 SWAP2 MSTORE PUSH32 0xB10E2D527612073B26EECDFD717E6A320CF44B4AFAC2B0732D9FCBE2B7FA0CF6 ADD SSTORE DUP1 PUSH3 0x275 DUP2 PUSH3 0x6AE JUMP JUMPDEST SWAP2 POP POP PUSH3 0xC9 JUMP JUMPDEST POP POP POP POP POP PUSH3 0x6D6 JUMP JUMPDEST PUSH4 0x4E487B71 PUSH1 0xE0 SHL PUSH1 0x0 MSTORE PUSH1 0x41 PUSH1 0x4 MSTORE PUSH1 0x24 PUSH1 0x0 REVERT JUMPDEST PUSH1 0x40 MLOAD PUSH1 0x1F DUP3 ADD PUSH1 0x1F NOT AND DUP2 ADD PUSH1 0x1 PUSH1 0x1 PUSH1 0x40 SHL SUB DUP2 GT DUP3 DUP3 LT OR ISZERO PUSH3 0x2CA JUMPI PUSH3 0x2CA PUSH3 0x289 JUMP JUMPDEST PUSH1 0x40 MSTORE SWAP2 SWAP1 POP JUMP JUMPDEST PUSH1 0x0 PUSH1 0x1 PUSH1 0x1 PUSH1 0x40 SHL SUB DUP3 GT ISZERO PUSH3 0x2EE JUMPI PUSH3 0x2EE PUSH3 0x289 JUMP JUMPDEST POP PUSH1 0x5 SHL PUSH1 0x20 ADD SWAP1 JUMP JUMPDEST PUSH1 0x0 DUP3 PUSH1 0x1F DUP4 ADD SLT PUSH3 0x30A JUMPI PUSH1 0x0 DUP1 REVERT JUMPDEST DUP2 MLOAD PUSH1 0x1 PUSH1 0x1 PUSH1 0x40 SHL SUB DUP2 GT ISZERO PUSH3 0x326 JUMPI PUSH3 0x326 PUSH3 0x289 JUMP JUMPDEST PUSH1 0x20 PUSH3 0x33C PUSH1 0x1F DUP4 ADD PUSH1 0x1F NOT AND DUP3 ADD PUSH3 0x29F JUMP JUMPDEST DUP3 DUP2 MSTORE DUP6 DUP3 DUP5 DUP8 ADD ADD GT ISZERO PUSH3 0x351 JUMPI PUSH1 0x0 DUP1 REVERT JUMPDEST PUSH1 0x0 JUMPDEST DUP4 DUP2 LT ISZERO PUSH3 0x371 JUMPI DUP6 DUP2 ADD DUP4 ADD MLOAD DUP3 DUP3 ADD DUP5 ADD MSTORE DUP3 ADD PUSH3 0x354 JUMP JUMPDEST POP PUSH1 0x0 SWAP3 DUP2 ADD SWAP1 SWAP2 ADD SWAP2 SWAP1 SWAP2 MSTORE SWAP4 SWAP3 POP POP POP JUMP JUMPDEST PUSH1 0x0 DUP3 PUSH1 0x1F DUP4 ADD SLT PUSH3 0x397 JUMPI PUSH1 0x0 DUP1 REVERT JUMPDEST DUP2 MLOAD PUSH1 0x20 PUSH3 0x3B0 PUSH3 0x3AA DUP4 PUSH3 0x2D2 JUMP JUMPDEST PUSH3 0x29F JUMP JUMPDEST DUP3 DUP2 MSTORE PUSH1 0x5 SWAP3 SWAP1 SWAP3 SHL DUP5 ADD DUP2 ADD SWAP2 DUP2 DUP2 ADD SWAP1 DUP7 DUP5 GT ISZERO PUSH3 0x3D0 JUMPI PUSH1 0x0 DUP1 REVERT JUMPDEST DUP3 DUP7 ADD JUMPDEST DUP5 DUP2 LT ISZERO PUSH3 0x414 JUMPI DUP1 MLOAD PUSH1 0x1 PUSH1 0x1 PUSH1 0x40 SHL SUB DUP2 GT ISZERO PUSH3 0x3F5 JUMPI PUSH1 0x0 DUP1 DUP2 REVERT JUMPDEST PUSH3 0x405 DUP10 DUP7 DUP4 DUP12 ADD ADD PUSH3 0x2F8 JUMP JUMPDEST DUP5 MSTORE POP SWAP2 DUP4 ADD SWAP2 DUP4 ADD PUSH3 0x3D4 JUMP JUMPDEST POP SWAP7 SWAP6 POP POP POP POP POP POP JUMP JUMPDEST DUP1 MLOAD PUSH1 0x1 PUSH1 0x1 PUSH1 0xA0 SHL SUB DUP2 AND DUP2 EQ PUSH3 0x437 JUMPI PUSH1 0x0 DUP1 REVERT JUMPDEST SWAP2 SWAP1 POP JUMP JUMPDEST PUSH1 0x0 DUP1 PUSH1 0x0 DUP1 PUSH1 0x80 DUP6 DUP8 SUB SLT ISZERO PUSH3 0x453 JUMPI PUSH1 0x0 DUP1 REVERT JUMPDEST DUP5 MLOAD PUSH1 0x1 PUSH1 0x1 PUSH1 0x40 SHL SUB DUP1 DUP3 GT ISZERO PUSH3 0x46B JUMPI PUSH1 0x0 DUP1 REVERT JUMPDEST DUP2 DUP8 ADD SWAP2 POP DUP8 PUSH1 0x1F DUP4 ADD SLT PUSH3 0x480 JUMPI PUSH1 0x0 DUP1 REVERT JUMPDEST DUP2 MLOAD PUSH1 0x20 PUSH3 0x493 PUSH3 0x3AA DUP4 PUSH3 0x2D2 JUMP JUMPDEST DUP3 DUP2 MSTORE PUSH1 0x5 SWAP3 SWAP1 SWAP3 SHL DUP5 ADD DUP2 ADD SWAP2 DUP2 DUP2 ADD SWAP1 DUP12 DUP5 GT ISZERO PUSH3 0x4B3 JUMPI PUSH1 0x0 DUP1 REVERT JUMPDEST SWAP5 DUP3 ADD SWAP5 JUMPDEST DUP4 DUP7 LT ISZERO PUSH3 0x4D3 JUMPI DUP6 MLOAD DUP3 MSTORE SWAP5 DUP3 ADD SWAP5 SWAP1 DUP3 ADD SWAP1 PUSH3 0x4B8 JUMP JUMPDEST SWAP2 DUP11 ADD MLOAD SWAP2 SWAP9 POP SWAP1 SWAP4 POP POP POP DUP1 DUP3 GT ISZERO PUSH3 0x4ED JUMPI PUSH1 0x0 DUP1 REVERT JUMPDEST PUSH3 0x4FB DUP9 DUP4 DUP10 ADD PUSH3 0x2F8 JUMP JUMPDEST SWAP5 POP PUSH1 0x40 DUP8 ADD MLOAD SWAP2 POP DUP1 DUP3 GT ISZERO PUSH3 0x512 JUMPI PUSH1 0x0 DUP1 REVERT JUMPDEST POP PUSH3 0x521 DUP8 DUP3 DUP9 ADD PUSH3 0x385 JUMP JUMPDEST SWAP3 POP POP PUSH3 0x532 PUSH1 0x60 DUP7 ADD PUSH3 0x41F JUMP JUMPDEST SWAP1 POP SWAP3 SWAP6 SWAP2 SWAP5 POP SWAP3 POP JUMP JUMPDEST PUSH1 0x1 DUP2 DUP2 SHR SWAP1 DUP3 AND DUP1 PUSH3 0x552 JUMPI PUSH1 0x7F DUP3 AND SWAP2 POP JUMPDEST PUSH1 0x20 DUP3 LT DUP2 SUB PUSH3 0x573 JUMPI PUSH4 0x4E487B71 PUSH1 0xE0 SHL PUSH1 0x0 MSTORE PUSH1 0x22 PUSH1 0x4 MSTORE PUSH1 0x24 PUSH1 0x0 REVERT JUMPDEST POP SWAP2 SWAP1 POP JUMP JUMPDEST PUSH1 0x1F DUP3 GT ISZERO PUSH3 0x5C7 JUMPI PUSH1 0x0 DUP2 DUP2 MSTORE PUSH1 0x20 DUP2 KECCAK256 PUSH1 0x1F DUP6 ADD PUSH1 0x5 SHR DUP2 ADD PUSH1 0x20 DUP7 LT ISZERO PUSH3 0x5A2 JUMPI POP DUP1 JUMPDEST PUSH1 0x1F DUP6 ADD PUSH1 0x5 SHR DUP3 ADD SWAP2 POP JUMPDEST DUP2 DUP2 LT ISZERO PUSH3 0x5C3 JUMPI DUP3 DUP2 SSTORE PUSH1 0x1 ADD PUSH3 0x5AE JUMP JUMPDEST POP POP POP JUMPDEST POP POP POP JUMP JUMPDEST DUP2 MLOAD PUSH1 0x1 PUSH1 0x1 PUSH1 0x40 SHL SUB DUP2 GT ISZERO PUSH3 0x5E8 JUMPI PUSH3 0x5E8 PUSH3 0x289 JUMP JUMPDEST PUSH3 0x600 DUP2 PUSH3 0x5F9 DUP5 SLOAD PUSH3 0x53D JUMP JUMPDEST DUP5 PUSH3 0x579 JUMP JUMPDEST PUSH1 0x20 DUP1 PUSH1 0x1F DUP4 GT PUSH1 0x1 DUP2 EQ PUSH3 0x638 JUMPI PUSH1 0x0 DUP5 ISZERO PUSH3 0x61F JUMPI POP DUP6 DUP4 ADD MLOAD JUMPDEST PUSH1 0x0 NOT PUSH1 0x3 DUP7 SWAP1 SHL SHR NOT AND PUSH1 0x1 DUP6 SWAP1 SHL OR DUP6 SSTORE PUSH3 0x5C3 JUMP JUMPDEST PUSH1 0x0 DUP6 DUP2 MSTORE PUSH1 0x20 DUP2 KECCAK256 PUSH1 0x1F NOT DUP7 AND SWAP2 JUMPDEST DUP3 DUP2 LT ISZERO PUSH3 0x669 JUMPI DUP9 DUP7 ADD MLOAD DUP3 SSTORE SWAP5 DUP5 ADD SWAP5 PUSH1 0x1 SWAP1 SWAP2 ADD SWAP1 DUP5 ADD PUSH3 0x648 JUMP JUMPDEST POP DUP6 DUP3 LT ISZERO PUSH3 0x688 JUMPI DUP8 DUP6 ADD MLOAD PUSH1 0x0 NOT PUSH1 0x3 DUP9 SWAP1 SHL PUSH1 0xF8 AND SHR NOT AND DUP2 SSTORE JUMPDEST POP POP POP POP POP PUSH1 0x1 SWAP1 DUP2 SHL ADD SWAP1 SSTORE POP JUMP JUMPDEST PUSH4 0x4E487B71 PUSH1 0xE0 SHL PUSH1 0x0 MSTORE PUSH1 0x32 PUSH1 0x4 MSTORE PUSH1 0x24 PUSH1 0x0 REVERT JUMPDEST PUSH1 0x0 PUSH1 0x1 DUP3 ADD PUSH3 0x6CF JUMPI PUSH4 0x4E487B71 PUSH1 0xE0 SHL PUSH1 0x0 MSTORE PUSH1 0x11 PUSH1 0x4 MSTORE PUSH1 0x24 PUSH1 0x0 REVERT JUMPDEST POP PUSH1 0x1 ADD SWAP1 JUMP JUMPDEST PUSH2 0x25E3 DUP1 PUSH3 0x6E6 PUSH1 0x0 CODECOPY PUSH1 0x0 RETURN INVALID PUSH1 0x80 PUSH1 0x40 MSTORE PUSH1 0x4 CALLDATASIZE LT PUSH2 0x1F9 JUMPI PUSH1 0x0 CALLDATALOAD PUSH1 0xE0 SHR DUP1 PUSH4 0x7DC0D1D0 GT PUSH2 0x10D JUMPI DUP1 PUSH4 0xC8C3316B GT PUSH2 0xA0 JUMPI DUP1 PUSH4 0xECFB49A3 GT PUSH2 0x6F JUMPI DUP1 PUSH4 0xECFB49A3 EQ PUSH2 0x653 JUMPI DUP1 PUSH4 0xF21FFA6B EQ PUSH2 0x669 JUMPI DUP1 PUSH4 0xF5BBCD2A EQ PUSH2 0x689 JUMPI DUP1 PUSH4 0xF6626042 EQ PUSH2 0x69F JUMPI DUP1 PUSH4 0xF6767ADF EQ PUSH2 0x6BF JUMPI PUSH1 0x0 DUP1 REVERT JUMPDEST DUP1 PUSH4 0xC8C3316B EQ PUSH2 0x5DB JUMPI DUP1 PUSH4 0xCF09E0D0 EQ PUSH2 0x608 JUMPI DUP1 PUSH4 0xD2B2E973 EQ PUSH2 0x61E JUMPI DUP1 PUSH4 0xE88499A9 EQ PUSH2 0x63E JUMPI PUSH1 0x0 DUP1 REVERT JUMPDEST DUP1 PUSH4 0xB72C923E GT PUSH2 0xDC JUMPI DUP1 PUSH4 0xB72C923E EQ PUSH2 0x558 JUMPI DUP1 PUSH4 0xC19D93FB EQ PUSH2 0x578 JUMPI DUP1 PUSH4 0xC45A0155 EQ PUSH2 0x5A6 JUMPI DUP1 PUSH4 0xC511ED5E EQ PUSH2 0x5C6 JUMPI PUSH1 0x0 DUP1 REVERT JUMPDEST DUP1 PUSH4 0x7DC0D1D0 EQ PUSH2 0x4E8 JUMPI DUP1 PUSH4 0x96D77875 EQ PUSH2 0x508 JUMPI DUP1 PUSH4 0x9EF27B00 EQ PUSH2 0x52D JUMPI DUP1 PUSH4 0xA9CC9AE9 EQ PUSH2 0x543 JUMPI PUSH1 0x0 DUP1 REVERT JUMPDEST DUP1 PUSH4 0x3482B644 GT PUSH2 0x190 JUMPI DUP1 PUSH4 0x4B4C4AA5 GT PUSH2 0x15F JUMPI DUP1 PUSH4 0x4B4C4AA5 EQ PUSH2 0x419 JUMPI DUP1 PUSH4 0x4BAD5DEB EQ PUSH2 0x43B JUMPI DUP1 PUSH4 0x4C5BE574 EQ PUSH2 0x46E JUMPI DUP1 PUSH4 0x4D729D11 EQ PUSH2 0x483 JUMPI DUP1 PUSH4 0x53288A16 EQ PUSH2 0x4B0 JUMPI PUSH1 0x0 DUP1 REVERT JUMPDEST DUP1 PUSH4 0x3482B644 EQ PUSH2 0x38A JUMPI DUP1 PUSH4 0x3FAD9AE0 EQ PUSH2 0x3C2 JUMPI DUP1 PUSH4 0x43046844 EQ PUSH2 0x3E4 JUMPI DUP1 PUSH4 0x47C421B5 EQ PUSH2 0x3F9 JUMPI PUSH1 0x0 DUP1 REVERT JUMPDEST DUP1 PUSH4 0x23341A05 GT PUSH2 0x1CC JUMPI DUP1 PUSH4 0x23341A05 EQ PUSH2 0x2BB JUMPI DUP1 PUSH4 0x27793F87 EQ PUSH2 0x2E8 JUMPI DUP1 PUSH4 0x2D56657D EQ PUSH2 0x316 JUMPI DUP1 PUSH4 0x3461B5B6 EQ PUSH2 0x375 JUMPI PUSH1 0x0 DUP1 REVERT JUMPDEST DUP1 PUSH4 0x1E5C96E EQ PUSH2 0x1FE JUMPI DUP1 PUSH4 0x136F1016 EQ PUSH2 0x237 JUMPI DUP1 PUSH4 0x19EFFEB4 EQ PUSH2 0x277 JUMPI DUP1 PUSH4 0x21A039B2 EQ PUSH2 0x29B JUMPI JUMPDEST PUSH1 0x0 DUP1 REVERT JUMPDEST CALLVALUE DUP1 ISZERO PUSH2 0x20A JUMPI PUSH1 0x0 DUP1 REVERT JUMPDEST POP PUSH2 0x21E PUSH2 0x219 CALLDATASIZE PUSH1 0x4 PUSH2 0x1E0C JUMP JUMPDEST PUSH2 0x6DF JUMP JUMPDEST PUSH1 0x40 MLOAD PUSH2 0x22E SWAP5 SWAP4 SWAP3 SWAP2 SWAP1 PUSH2 0x1E6B JUMP JUMPDEST PUSH1 0x40 MLOAD DUP1 SWAP2 SUB SWAP1 RETURN JUMPDEST CALLVALUE DUP1 ISZERO PUSH2 0x243 JUMPI PUSH1 0x0 DUP1 REVERT JUMPDEST POP PUSH2 0x267 PUSH2 0x252 CALLDATASIZE PUSH1 0x4 PUSH2 0x1EB3 JUMP JUMPDEST PUSH1 0xB PUSH1 0x20 MSTORE PUSH1 0x0 SWAP1 DUP2 MSTORE PUSH1 0x40 SWAP1 KECCAK256 SLOAD PUSH1 0xFF AND DUP2 JUMP JUMPDEST PUSH1 0x40 MLOAD SWAP1 ISZERO ISZERO DUP2 MSTORE PUSH1 0x20 ADD PUSH2 0x22E JUMP JUMPDEST CALLVALUE DUP1 ISZERO PUSH2 0x283 JUMPI PUSH1 0x0 DUP1 REVERT JUMPDEST POP PUSH2 0x28D PUSH1 0x7 SLOAD DUP2 JUMP JUMPDEST PUSH1 0x40 MLOAD SWAP1 DUP2 MSTORE PUSH1 0x20 ADD PUSH2 0x22E JUMP JUMPDEST CALLVALUE DUP1 ISZERO PUSH2 0x2A7 JUMPI PUSH1 0x0 DUP1 REVERT JUMPDEST POP PUSH2 0x28D PUSH2 0x2B6 CALLDATASIZE PUSH1 0x4 PUSH2 0x1EE4 JUMP JUMPDEST PUSH2 0x794 JUMP JUMPDEST CALLVALUE DUP1 ISZERO PUSH2 0x2C7 JUMPI PUSH1 0x0 DUP1 REVERT JUMPDEST POP PUSH2 0x2D0 PUSH2 0x87C JUMP JUMPDEST PUSH1 0x40 MLOAD PUSH2 0x22E SWAP13 SWAP12 SWAP11 SWAP10 SWAP9 SWAP8 SWAP7 SWAP6 SWAP5 SWAP4 SWAP3 SWAP2 SWAP1 PUSH2 0x1FE4 JUMP JUMPDEST CALLVALUE DUP1 ISZERO PUSH2 0x2F4 JUMPI PUSH1 0x0 DUP1 REVERT JUMPDEST POP PUSH1 0x4 SLOAD PUSH2 0x309 SWAP1 PUSH1 0x1 PUSH1 0xA8 SHL SWAP1 DIV PUSH1 0xFF AND DUP2 JUMP JUMPDEST PUSH1 0x40 MLOAD PUSH2 0x22E SWAP2 SWAP1 PUSH2 0x2079 JUMP JUMPDEST CALLVALUE DUP1 ISZERO PUSH2 0x322 JUMPI PUSH1 0x0 DUP1 REVERT JUMPDEST POP PUSH2 0x360 PUSH2 0x331 CALLDATASIZE PUSH1 0x4 PUSH2 0x1EB3 JUMP JUMPDEST PUSH1 0x1 PUSH1 0x1 PUSH1 0xA0 SHL SUB AND PUSH1 0x0 SWAP1 DUP2 MSTORE PUSH1 0x8 PUSH1 0x20 SWAP1 DUP2 MSTORE PUSH1 0x40 DUP1 DUP4 KECCAK256 DUP4 DUP1 MSTORE SWAP1 SWAP2 MSTORE DUP1 DUP3 KECCAK256 SLOAD PUSH1 0x1 DUP4 MSTORE SWAP2 KECCAK256 SLOAD SWAP1 SWAP2 JUMP JUMPDEST PUSH1 0x40 DUP1 MLOAD SWAP3 DUP4 MSTORE PUSH1 0x20 DUP4 ADD SWAP2 SWAP1 SWAP2 MSTORE ADD PUSH2 0x22E JUMP JUMPDEST CALLVALUE DUP1 ISZERO PUSH2 0x381 JUMPI PUSH1 0x0 DUP1 REVERT JUMPDEST POP PUSH1 0x1 SLOAD PUSH2 0x28D JUMP JUMPDEST CALLVALUE DUP1 ISZERO PUSH2 0x396 JUMPI PUSH1 0x0 DUP1 REVERT JUMPDEST POP PUSH2 0x3AA PUSH2 0x3A5 CALLDATASIZE PUSH1 0x4 PUSH2 0x1E0C JUMP JUMPDEST PUSH2 0xB6C JUMP JUMPDEST PUSH1 0x40 MLOAD PUSH1 0x1 PUSH1 0x1 PUSH1 0xA0 SHL SUB SWAP1 SWAP2 AND DUP2 MSTORE PUSH1 0x20 ADD PUSH2 0x22E JUMP JUMPDEST CALLVALUE DUP1 ISZERO PUSH2 0x3CE JUMPI PUSH1 0x0 DUP1 REVERT JUMPDEST POP PUSH2 0x3D7 PUSH2 0xB96 JUMP JUMPDEST PUSH1 0x40 MLOAD PUSH2 0x22E SWAP2 SWAP1 PUSH2 0x2087 JUMP JUMPDEST PUSH2 0x3F7 PUSH2 0x3F2 CALLDATASIZE PUSH1 0x4 PUSH2 0x209A JUMP JUMPDEST PUSH2 0xC24 JUMP JUMPDEST STOP JUMPDEST CALLVALUE DUP1 ISZERO PUSH2 0x405 JUMPI PUSH1 0x0 DUP1 REVERT JUMPDEST POP PUSH2 0x3F7 PUSH2 0x414 CALLDATASIZE PUSH1 0x4 PUSH2 0x1EB3 JUMP JUMPDEST PUSH2 0xE18 JUMP JUMPDEST CALLVALUE DUP1 ISZERO PUSH2 0x425 JUMPI PUSH1 0x0 DUP1 REVERT JUMPDEST POP PUSH2 0x42E PUSH2 0xEAC JUMP JUMPDEST PUSH1 0x40 MLOAD PUSH2 0x22E SWAP2 SWAP1 PUSH2 0x20B5 JUMP JUMPDEST CALLVALUE DUP1 ISZERO PUSH2 0x447 JUMPI PUSH1 0x0 DUP1 REVERT JUMPDEST POP PUSH2 0x267 PUSH2 0x456 CALLDATASIZE PUSH1 0x4 PUSH2 0x1E0C JUMP JUMPDEST PUSH1 0x0 SWAP1 DUP2 MSTORE PUSH1 0x20 DUP2 SWAP1 MSTORE PUSH1 0x40 SWAP1 KECCAK256 PUSH1 0x2 ADD SLOAD PUSH1 0xFF AND SWAP1 JUMP JUMPDEST CALLVALUE DUP1 ISZERO PUSH2 0x47A JUMPI PUSH1 0x0 DUP1 REVERT JUMPDEST POP PUSH2 0x360 PUSH2 0xF04 JUMP JUMPDEST CALLVALUE DUP1 ISZERO PUSH2 0x48F JUMPI PUSH1 0x0 DUP1 REVERT JUMPDEST POP PUSH2 0x4A3 PUSH2 0x49E CALLDATASIZE PUSH1 0x4 PUSH2 0x20C8 JUMP JUMPDEST PUSH2 0xFCF JUMP JUMPDEST PUSH1 0x40 MLOAD PUSH2 0x22E SWAP2 SWAP1 PUSH2 0x20EA JUMP JUMPDEST CALLVALUE DUP1 ISZERO PUSH2 0x4BC JUMPI PUSH1 0x0 DUP1 REVERT JUMPDEST POP PUSH2 0x28D PUSH2 0x4CB CALLDATASIZE PUSH1 0x4 PUSH2 0x2148 JUMP JUMPDEST PUSH1 0x8 PUSH1 0x20 SWAP1 DUP2 MSTORE PUSH1 0x0 SWAP3 DUP4 MSTORE PUSH1 0x40 DUP1 DUP5 KECCAK256 SWAP1 SWAP2 MSTORE SWAP1 DUP3 MSTORE SWAP1 KECCAK256 SLOAD DUP2 JUMP JUMPDEST CALLVALUE DUP1 ISZERO PUSH2 0x4F4 JUMPI PUSH1 0x0 DUP1 REVERT JUMPDEST POP PUSH1 0x3 SLOAD PUSH2 0x3AA SWAP1 PUSH1 0x1 PUSH1 0x1 PUSH1 0xA0 SHL SUB AND DUP2 JUMP JUMPDEST CALLVALUE DUP1 ISZERO PUSH2 0x514 JUMPI PUSH1 0x0 DUP1 REVERT JUMPDEST POP PUSH2 0x51D PUSH2 0x1108 JUMP JUMPDEST PUSH1 0x40 MLOAD PUSH2 0x22E SWAP5 SWAP4 SWAP3 SWAP2 SWAP1 PUSH2 0x2172 JUMP JUMPDEST CALLVALUE DUP1 ISZERO PUSH2 0x539 JUMPI PUSH1 0x0 DUP1 REVERT JUMPDEST POP PUSH2 0x28D PUSH1 0x6 SLOAD DUP2 JUMP JUMPDEST CALLVALUE DUP1 ISZERO PUSH2 0x54F JUMPI PUSH1 0x0 DUP1 REVERT JUMPDEST POP PUSH2 0x3F7 PUSH2 0x13E5 JUMP JUMPDEST CALLVALUE DUP1 ISZERO PUSH2 0x564 JUMPI PUSH1 0x0 DUP1 REVERT JUMPDEST POP PUSH2 0x28D PUSH2 0x573 CALLDATASIZE PUSH1 0x4 PUSH2 0x1E0C JUMP JUMPDEST PUSH2 0x14BB JUMP JUMPDEST CALLVALUE DUP1 ISZERO PUSH2 0x584 JUMPI PUSH1 0x0 DUP1 REVERT JUMPDEST POP PUSH1 0x4 SLOAD PUSH2 0x599 SWAP1 PUSH1 0x1 PUSH1 0xA0 SHL SWAP1 DIV PUSH1 0xFF AND DUP2 JUMP JUMPDEST PUSH1 0x40 MLOAD PUSH2 0x22E SWAP2 SWAP1 PUSH2 0x21F0 JUMP JUMPDEST CALLVALUE DUP1 ISZERO PUSH2 0x5B2 JUMPI PUSH1 0x0 DUP1 REVERT JUMPDEST POP PUSH1 0x4 SLOAD PUSH2 0x3AA SWAP1 PUSH1 0x1 PUSH1 0x1 PUSH1 0xA0 SHL SUB AND DUP2 JUMP JUMPDEST CALLVALUE DUP1 ISZERO PUSH2 0x5D2 JUMPI PUSH1 0x0 DUP1 REVERT JUMPDEST POP PUSH2 0x3F7 PUSH2 0x14DC JUMP JUMPDEST CALLVALUE DUP1 ISZERO PUSH2 0x5E7 JUMPI PUSH1 0x0 DUP1 REVERT JUMPDEST POP PUSH2 0x28D PUSH2 0x5F6 CALLDATASIZE PUSH1 0x4 PUSH2 0x21FE JUMP JUMPDEST PUSH1 0x9 PUSH1 0x20 MSTORE PUSH1 0x0 SWAP1 DUP2 MSTORE PUSH1 0x40 SWAP1 KECCAK256 SLOAD DUP2 JUMP JUMPDEST CALLVALUE DUP1 ISZERO PUSH2 0x614 JUMPI PUSH1 0x0 DUP1 REVERT JUMPDEST POP PUSH2 0x28D PUSH1 0x5 SLOAD DUP2 JUMP JUMPDEST CALLVALUE DUP1 ISZERO PUSH2 0x62A JUMPI PUSH1 0x0 DUP1 REVERT JUMPDEST POP PUSH2 0x21E PUSH2 0x639 CALLDATASIZE PUSH1 0x4 PUSH2 0x1E0C JUMP JUMPDEST PUSH2 0x15F6 JUMP JUMPDEST CALLVALUE DUP1 ISZERO PUSH2 0x64A JUMPI PUSH1 0x0 DUP1 REVERT JUMPDEST POP PUSH2 0x3F7 PUSH2 0x16F6 JUMP JUMPDEST CALLVALUE DUP1 ISZERO PUSH2 0x65F JUMPI PUSH1 0x0 DUP1 REVERT JUMPDEST POP PUSH2 0x28D PUSH1 0xA SLOAD DUP2 JUMP JUMPDEST CALLVALUE DUP1 ISZERO PUSH2 0x675 JUMPI PUSH1 0x0 DUP1 REVERT JUMPDEST POP PUSH2 0x3F7 PUSH2 0x684 CALLDATASIZE PUSH1 0x4 PUSH2 0x209A JUMP JUMPDEST PUSH2 0x196B JUMP JUMPDEST CALLVALUE DUP1 ISZERO PUSH2 0x695 JUMPI PUSH1 0x0 DUP1 REVERT JUMPDEST POP PUSH2 0x28D PUSH1 0xD SLOAD DUP2 JUMP JUMPDEST CALLVALUE DUP1 ISZERO PUSH2 0x6AB JUMPI PUSH1 0x0 DUP1 REVERT JUMPDEST POP PUSH2 0x3F7 PUSH2 0x6BA CALLDATASIZE PUSH1 0x4 PUSH2 0x222F JUMP JUMPDEST PUSH2 0x1A53 JUMP JUMPDEST CALLVALUE DUP1 ISZERO PUSH2 0x6CB JUMPI PUSH1 0x0 DUP1 REVERT JUMPDEST POP PUSH2 0x3F7 PUSH2 0x6DA CALLDATASIZE PUSH1 0x4 PUSH2 0x1E0C JUMP JUMPDEST PUSH2 0x1C44 JUMP JUMPDEST PUSH1 0x0 PUSH1 0x20 DUP2 SWAP1 MSTORE SWAP1 DUP2 MSTORE PUSH1 0x40 SWAP1 KECCAK256 DUP1 SLOAD PUSH1 0x1 DUP3 ADD DUP1 SLOAD SWAP2 SWAP3 SWAP2 PUSH2 0x701 SWAP1 PUSH2 0x22EA JUMP JUMPDEST DUP1 PUSH1 0x1F ADD PUSH1 0x20 DUP1 SWAP2 DIV MUL PUSH1 0x20 ADD PUSH1 0x40 MLOAD SWAP1 DUP2 ADD PUSH1 0x40 MSTORE DUP1 SWAP3 SWAP2 SWAP1 DUP2 DUP2 MSTORE PUSH1 0x20 ADD DUP3 DUP1 SLOAD PUSH2 0x72D SWAP1 PUSH2 0x22EA JUMP JUMPDEST DUP1 ISZERO PUSH2 0x77A JUMPI DUP1 PUSH1 0x1F LT PUSH2 0x74F JUMPI PUSH2 0x100 DUP1 DUP4 SLOAD DIV MUL DUP4 MSTORE SWAP2 PUSH1 0x20 ADD SWAP2 PUSH2 0x77A JUMP JUMPDEST DUP3 ADD SWAP2 SWAP1 PUSH1 0x0 MSTORE PUSH1 0x20 PUSH1 0x0 KECCAK256 SWAP1 JUMPDEST DUP2 SLOAD DUP2 MSTORE SWAP1 PUSH1 0x1 ADD SWAP1 PUSH1 0x20 ADD DUP1 DUP4 GT PUSH2 0x75D JUMPI DUP3 SWAP1 SUB PUSH1 0x1F AND DUP3 ADD SWAP2 JUMPDEST POP POP POP POP PUSH1 0x2 DUP4 ADD SLOAD PUSH1 0x3 SWAP1 SWAP4 ADD SLOAD SWAP2 SWAP3 PUSH1 0xFF AND SWAP2 SWAP1 POP DUP5 JUMP JUMPDEST PUSH1 0x0 DUP1 PUSH1 0x4 SLOAD PUSH1 0x1 PUSH1 0xA0 SHL SWAP1 DIV PUSH1 0xFF AND PUSH1 0x2 DUP2 GT ISZERO PUSH2 0x7B5 JUMPI PUSH2 0x7B5 PUSH2 0x1FAA JUMP JUMPDEST EQ PUSH2 0x7C2 JUMPI POP PUSH1 0x0 PUSH2 0x876 JUMP JUMPDEST PUSH1 0x1 PUSH1 0x1 PUSH1 0xA0 SHL SUB DUP4 AND PUSH1 0x0 SWAP1 DUP2 MSTORE PUSH1 0x8 PUSH1 0x20 MSTORE PUSH1 0x40 DUP2 KECCAK256 DUP2 DUP5 PUSH1 0x1 DUP2 GT ISZERO PUSH2 0x7ED JUMPI PUSH2 0x7ED PUSH2 0x1FAA JUMP JUMPDEST PUSH1 0xFF AND PUSH1 0xFF AND DUP2 MSTORE PUSH1 0x20 ADD SWAP1 DUP2 MSTORE PUSH1 0x20 ADD PUSH1 0x0 KECCAK256 SLOAD SWAP1 POP DUP1 PUSH1 0x0 SUB PUSH2 0x816 JUMPI PUSH1 0x0 SWAP2 POP POP PUSH2 0x876 JUMP JUMPDEST PUSH1 0x0 PUSH1 0x9 PUSH1 0x0 DUP6 PUSH1 0x1 DUP2 GT ISZERO PUSH2 0x82E JUMPI PUSH2 0x82E PUSH2 0x1FAA JUMP JUMPDEST PUSH1 0xFF AND PUSH1 0xFF AND DUP2 MSTORE PUSH1 0x20 ADD SWAP1 DUP2 MSTORE PUSH1 0x20 ADD PUSH1 0x0 KECCAK256 SLOAD SWAP1 POP DUP1 PUSH1 0x0 SUB PUSH2 0x858 JUMPI PUSH1 0x0 SWAP3 POP POP POP PUSH2 0x876 JUMP JUMPDEST DUP1 PUSH1 0xA SLOAD DUP4 PUSH2 0x867 SWAP2 SWAP1 PUSH2 0x233A JUMP JUMPDEST PUSH2 0x871 SWAP2 SWAP1 PUSH2 0x2351 JUMP JUMPDEST SWAP3 POP POP POP JUMPDEST SWAP3 SWAP2 POP POP JUMP JUMPDEST PUSH1 0x60 DUP1 PUSH1 0x60 PUSH1 0x0 DUP1 PUSH1 0x0 DUP1 PUSH1 0x0 DUP1 PUSH1 0x0 DUP1 PUSH1 0x0 DUP1 PUSH1 0x1 DUP1 SLOAD SWAP1 POP PUSH8 0xFFFFFFFFFFFFFFFF DUP2 GT ISZERO PUSH2 0x8AE JUMPI PUSH2 0x8AE PUSH2 0x2219 JUMP JUMPDEST PUSH1 0x40 MLOAD SWAP1 DUP1 DUP3 MSTORE DUP1 PUSH1 0x20 MUL PUSH1 0x20 ADD DUP3 ADD PUSH1 0x40 MSTORE DUP1 ISZERO PUSH2 0x8E1 JUMPI DUP2 PUSH1 0x20 ADD JUMPDEST PUSH1 0x60 DUP2 MSTORE PUSH1 0x20 ADD SWAP1 PUSH1 0x1 SWAP1 SUB SWAP1 DUP2 PUSH2 0x8CC JUMPI SWAP1 POP JUMPDEST POP SWAP1 POP PUSH1 0x0 JUMPDEST PUSH1 0x1 SLOAD DUP2 LT ISZERO PUSH2 0x9DC JUMPI PUSH1 0x0 DUP1 PUSH1 0x1 DUP4 DUP2 SLOAD DUP2 LT PUSH2 0x907 JUMPI PUSH2 0x907 PUSH2 0x2373 JUMP JUMPDEST SWAP1 PUSH1 0x0 MSTORE PUSH1 0x20 PUSH1 0x0 KECCAK256 ADD SLOAD DUP2 MSTORE PUSH1 0x20 ADD SWAP1 DUP2 MSTORE PUSH1 0x20 ADD PUSH1 0x0 KECCAK256 PUSH1 0x1 ADD DUP1 SLOAD PUSH2 0x92E SWAP1 PUSH2 0x22EA JUMP JUMPDEST DUP1 PUSH1 0x1F ADD PUSH1 0x20 DUP1 SWAP2 DIV MUL PUSH1 0x20 ADD PUSH1 0x40 MLOAD SWAP1 DUP2 ADD PUSH1 0x40 MSTORE DUP1 SWAP3 SWAP2 SWAP1 DUP2 DUP2 MSTORE PUSH1 0x20 ADD DUP3 DUP1 SLOAD PUSH2 0x95A SWAP1 PUSH2 0x22EA JUMP JUMPDEST DUP1 ISZERO PUSH2 0x9A7 JUMPI DUP1 PUSH1 0x1F LT PUSH2 0x97C JUMPI PUSH2 0x100 DUP1 DUP4 SLOAD DIV MUL DUP4 MSTORE SWAP2 PUSH1 0x20 ADD SWAP2 PUSH2 0x9A7 JUMP JUMPDEST DUP3 ADD SWAP2 SWAP1 PUSH1 0x0 MSTORE PUSH1 0x20 PUSH1 0x0 KECCAK256 SWAP1 JUMPDEST DUP2 SLOAD DUP2 MSTORE SWAP1 PUSH1 0x1 ADD SWAP1 PUSH1 0x20 ADD DUP1 DUP4 GT PUSH2 0x98A JUMPI DUP3 SWAP1 SUB PUSH1 0x1F AND DUP3 ADD SWAP2 JUMPDEST POP POP POP POP POP DUP3 DUP3 DUP2 MLOAD DUP2 LT PUSH2 0x9BE JUMPI PUSH2 0x9BE PUSH2 0x2373 JUMP JUMPDEST PUSH1 0x20 MUL PUSH1 0x20 ADD ADD DUP2 SWAP1 MSTORE POP DUP1 DUP1 PUSH2 0x9D4 SWAP1 PUSH2 0x2389 JUMP JUMPDEST SWAP2 POP POP PUSH2 0x8E7 JUMP JUMPDEST POP PUSH1 0x4 SLOAD PUSH1 0x9 PUSH1 0x20 SWAP1 DUP2 MSTORE PUSH32 0xEC8156718A8372B1DB44BB411437D0870F3E3790D4A08526D024CE1B0B668F6B SLOAD PUSH1 0x1 PUSH1 0x0 DUP2 SWAP1 MSTORE PUSH32 0x92E85D02570A8092D09A6E3A57665BC3815A2699A4074001BF1CCABF660F5A36 SLOAD PUSH1 0xA SLOAD PUSH1 0xD SLOAD PUSH1 0x5 SLOAD PUSH1 0x6 SLOAD PUSH1 0x7 SLOAD DUP7 SLOAD PUSH1 0x40 DUP1 MLOAD DUP3 DUP13 MUL DUP2 ADD DUP13 ADD SWAP1 SWAP2 MSTORE DUP2 DUP2 MSTORE SWAP8 SWAP11 PUSH1 0x2 SWAP11 DUP14 SWAP11 PUSH1 0xFF PUSH1 0x1 PUSH1 0xA0 SHL DUP5 DIV DUP2 AND SWAP12 PUSH1 0x1 PUSH1 0xA8 SHL SWAP1 SWAP5 DIV AND SWAP10 SWAP1 SWAP9 SWAP1 SWAP8 SWAP1 SWAP7 SWAP1 SWAP6 SWAP1 SWAP5 SWAP1 SWAP4 SWAP1 SWAP3 SWAP2 DUP15 SWAP2 SWAP1 DUP4 ADD DUP3 DUP3 DUP1 ISZERO PUSH2 0xAB2 JUMPI PUSH1 0x20 MUL DUP3 ADD SWAP2 SWAP1 PUSH1 0x0 MSTORE PUSH1 0x20 PUSH1 0x0 KECCAK256 SWAP1 JUMPDEST DUP2 SLOAD DUP2 MSTORE PUSH1 0x20 ADD SWAP1 PUSH1 0x1 ADD SWAP1 DUP1 DUP4 GT PUSH2 0xA9E JUMPI JUMPDEST POP POP POP POP POP SWAP12 POP DUP11 DUP1 SLOAD PUSH2 0xAC5 SWAP1 PUSH2 0x22EA JUMP JUMPDEST DUP1 PUSH1 0x1F ADD PUSH1 0x20 DUP1 SWAP2 DIV MUL PUSH1 0x20 ADD PUSH1 0x40 MLOAD SWAP1 DUP2 ADD PUSH1 0x40 MSTORE DUP1 SWAP3 SWAP2 SWAP1 DUP2 DUP2 MSTORE PUSH1 0x20 ADD DUP3 DUP1 SLOAD PUSH2 0xAF1 SWAP1 PUSH2 0x22EA JUMP JUMPDEST DUP1 ISZERO PUSH2 0xB3E JUMPI DUP1 PUSH1 0x1F LT PUSH2 0xB13 JUMPI PUSH2 0x100 DUP1 DUP4 SLOAD DIV MUL DUP4 MSTORE SWAP2 PUSH1 0x20 ADD SWAP2 PUSH2 0xB3E JUMP JUMPDEST DUP3 ADD SWAP2 SWAP1 PUSH1 0x0 MSTORE PUSH1 0x20 PUSH1 0x0 KECCAK256 SWAP1 JUMPDEST DUP2 SLOAD DUP2 MSTORE SWAP1 PUSH1 0x1 ADD SWAP1 PUSH1 0x20 ADD DUP1 DUP4 GT PUSH2 0xB21 JUMPI DUP3 SWAP1 SUB PUSH1 0x1F AND DUP3 ADD SWAP2 JUMPDEST POP POP POP POP POP SWAP11 POP SWAP13 POP SWAP13 POP SWAP13 POP SWAP13 POP SWAP13 POP SWAP13 POP SWAP13 POP SWAP13 POP SWAP13 POP SWAP13 POP SWAP13 POP SWAP13 POP POP SWAP1 SWAP2 SWAP3 SWAP4 SWAP5 SWAP6 SWAP7 SWAP8 SWAP9 SWAP10 SWAP11 SWAP12 JUMP JUMPDEST PUSH1 0xC DUP2 DUP2 SLOAD DUP2 LT PUSH2 0xB7C JUMPI PUSH1 0x0 DUP1 REVERT JUMPDEST PUSH1 0x0 SWAP2 DUP3 MSTORE PUSH1 0x20 SWAP1 SWAP2 KECCAK256 ADD SLOAD PUSH1 0x1 PUSH1 0x1 PUSH1 0xA0 SHL SUB AND SWAP1 POP DUP2 JUMP JUMPDEST PUSH1 0x2 DUP1 SLOAD PUSH2 0xBA3 SWAP1 PUSH2 0x22EA JUMP JUMPDEST DUP1 PUSH1 0x1F ADD PUSH1 0x20 DUP1 SWAP2 DIV MUL PUSH1 0x20 ADD PUSH1 0x40 MLOAD SWAP1 DUP2 ADD PUSH1 0x40 MSTORE DUP1 SWAP3 SWAP2 SWAP1 DUP2 DUP2 MSTORE PUSH1 0x20 ADD DUP3 DUP1 SLOAD PUSH2 0xBCF SWAP1 PUSH2 0x22EA JUMP JUMPDEST DUP1 ISZERO PUSH2 0xC1C JUMPI DUP1 PUSH1 0x1F LT PUSH2 0xBF1 JUMPI PUSH2 0x100 DUP1 DUP4 SLOAD DIV MUL DUP4 MSTORE SWAP2 PUSH1 0x20 ADD SWAP2 PUSH2 0xC1C JUMP JUMPDEST DUP3 ADD SWAP2 SWAP1 PUSH1 0x0 MSTORE PUSH1 0x20 PUSH1 0x0 KECCAK256 SWAP1 JUMPDEST DUP2 SLOAD DUP2 MSTORE SWAP1 PUSH1 0x1 ADD SWAP1 PUSH1 0x20 ADD DUP1 DUP4 GT PUSH2 0xBFF JUMPI DUP3 SWAP1 SUB PUSH1 0x1F AND DUP3 ADD SWAP2 JUMPDEST POP POP POP POP POP DUP2 JUMP JUMPDEST PUSH1 0x0 DUP1 PUSH1 0x4 SLOAD PUSH1 0x1 PUSH1 0xA0 SHL SWAP1 DIV PUSH1 0xFF AND PUSH1 0x2 DUP2 GT ISZERO PUSH2 0xC45 JUMPI PUSH2 0xC45 PUSH2 0x1FAA JUMP JUMPDEST EQ PUSH2 0xC6B JUMPI PUSH1 0x40 MLOAD PUSH3 0x461BCD PUSH1 0xE5 SHL DUP2 MSTORE PUSH1 0x4 ADD PUSH2 0xC62 SWAP1 PUSH2 0x23A2 JUMP JUMPDEST PUSH1 0x40 MLOAD DUP1 SWAP2 SUB SWAP1 REVERT JUMPDEST PUSH1 0x0 CALLVALUE GT PUSH2 0xCAB JUMPI PUSH1 0x40 MLOAD PUSH3 0x461BCD PUSH1 0xE5 SHL DUP2 MSTORE PUSH1 0x20 PUSH1 0x4 DUP3 ADD MSTORE PUSH1 0xD PUSH1 0x24 DUP3 ADD MSTORE PUSH13 0x9AEAE6E840E6CADCC8408AA89 PUSH1 0x9B SHL PUSH1 0x44 DUP3 ADD MSTORE PUSH1 0x64 ADD PUSH2 0xC62 JUMP JUMPDEST CALLER PUSH1 0x0 SWAP1 DUP2 MSTORE PUSH1 0xB PUSH1 0x20 MSTORE PUSH1 0x40 SWAP1 KECCAK256 SLOAD PUSH1 0xFF AND PUSH2 0xD32 JUMPI CALLER PUSH1 0x0 DUP2 DUP2 MSTORE PUSH1 0xB PUSH1 0x20 MSTORE PUSH1 0x40 DUP2 KECCAK256 DUP1 SLOAD PUSH1 0xFF NOT AND PUSH1 0x1 SWAP1 DUP2 OR SWAP1 SWAP2 SSTORE PUSH1 0xC DUP1 SLOAD SWAP2 DUP3 ADD DUP2 SSTORE DUP3 MSTORE PUSH32 0xDF6966C971051C3D54EC59162606531493A51404A002842F56009D7E5CF4A8C7 ADD DUP1 SLOAD PUSH1 0x1 PUSH1 0x1 PUSH1 0xA0 SHL SUB NOT AND SWAP1 SWAP3 OR SWAP1 SWAP2 SSTORE PUSH1 0xD DUP1 SLOAD SWAP2 PUSH2 0xD2C DUP4 PUSH2 0x2389 JUMP JUMPDEST SWAP2 SWAP1 POP SSTORE POP JUMPDEST CALLER PUSH1 0x0 SWAP1 DUP2 MSTORE PUSH1 0x8 PUSH1 0x20 MSTORE PUSH1 0x40 DUP2 KECCAK256 CALLVALUE SWAP2 DUP5 PUSH1 0x1 DUP2 GT ISZERO PUSH2 0xD55 JUMPI PUSH2 0xD55 PUSH2 0x1FAA JUMP JUMPDEST PUSH1 0xFF AND PUSH1 0xFF AND DUP2 MSTORE PUSH1 0x20 ADD SWAP1 DUP2 MSTORE PUSH1 0x20 ADD PUSH1 0x0 KECCAK256 PUSH1 0x0 DUP3 DUP3 SLOAD PUSH2 0xD78 SWAP2 SWAP1 PUSH2 0x23C9 JUMP JUMPDEST SWAP1 SWAP2 SSTORE POP CALLVALUE SWAP1 POP PUSH1 0x9 PUSH1 0x0 DUP5 PUSH1 0x1 DUP2 GT ISZERO PUSH2 0xD95 JUMPI PUSH2 0xD95 PUSH2 0x1FAA JUMP JUMPDEST PUSH1 0xFF AND PUSH1 0xFF AND DUP2 MSTORE PUSH1 0x20 ADD SWAP1 DUP2 MSTORE PUSH1 0x20 ADD PUSH1 0x0 KECCAK256 PUSH1 0x0 DUP3 DUP3 SLOAD PUSH2 0xDB8 SWAP2 SWAP1 PUSH2 0x23C9 JUMP JUMPDEST SWAP3 POP POP DUP2 SWAP1 SSTORE POP CALLVALUE PUSH1 0xA PUSH1 0x0 DUP3 DUP3 SLOAD PUSH2 0xDD1 SWAP2 SWAP1 PUSH2 0x23C9 JUMP JUMPDEST SWAP1 SWAP2 SSTORE POP POP PUSH1 0x40 MLOAD CALLER SWAP1 PUSH32 0x8D3970B91D4F8DBB1A8368398F1AC8BDD7A7FB5682C8360B7396214F65D7E55F SWAP1 PUSH2 0xE0C SWAP1 DUP6 SWAP1 CALLVALUE SWAP1 TIMESTAMP SWAP1 PUSH2 0x23DC JUMP JUMPDEST PUSH1 0x40 MLOAD DUP1 SWAP2 SUB SWAP1 LOG2 POP POP JUMP JUMPDEST PUSH1 0x3 SLOAD PUSH1 0x1 PUSH1 0x1 PUSH1 0xA0 SHL SUB AND CALLER EQ PUSH2 0xE42 JUMPI PUSH1 0x40 MLOAD PUSH3 0x461BCD PUSH1 0xE5 SHL DUP2 MSTORE PUSH1 0x4 ADD PUSH2 0xC62 SWAP1 PUSH2 0x23FB JUMP JUMPDEST PUSH1 0x1 PUSH1 0x1 PUSH1 0xA0 SHL SUB DUP2 AND PUSH2 0xE8A JUMPI PUSH1 0x40 MLOAD PUSH3 0x461BCD PUSH1 0xE5 SHL DUP2 MSTORE PUSH1 0x20 PUSH1 0x4 DUP3 ADD MSTORE PUSH1 0xF PUSH1 0x24 DUP3 ADD MSTORE PUSH15 0x496E76616C69642061646472657373 PUSH1 0x88 SHL PUSH1 0x44 DUP3 ADD MSTORE PUSH1 0x64 ADD PUSH2 0xC62 JUMP JUMPDEST PUSH1 0x3 DUP1 SLOAD PUSH1 0x1 PUSH1 0x1 PUSH1 0xA0 SHL SUB NOT AND PUSH1 0x1 PUSH1 0x1 PUSH1 0xA0 SHL SUB SWAP3 SWAP1 SWAP3 AND SWAP2 SWAP1 SWAP2 OR SWAP1 SSTORE JUMP JUMPDEST PUSH1 0x60 PUSH1 0x1 DUP1 SLOAD DUP1 PUSH1 0x20 MUL PUSH1 0x20 ADD PUSH1 0x40 MLOAD SWAP1 DUP2 ADD PUSH1 0x40 MSTORE DUP1 SWAP3 SWAP2 SWAP1 DUP2 DUP2 MSTORE PUSH1 0x20 ADD DUP3 DUP1 SLOAD DUP1 ISZERO PUSH2 0xEFA JUMPI PUSH1 0x20 MUL DUP3 ADD SWAP2 SWAP1 PUSH1 0x0 MSTORE PUSH1 0x20 PUSH1 0x0 KECCAK256 SWAP1 JUMPDEST DUP2 SLOAD DUP2 MSTORE PUSH1 0x20 ADD SWAP1 PUSH1 0x1 ADD SWAP1 DUP1 DUP4 GT PUSH2 0xEE6 JUMPI JUMPDEST POP POP POP POP POP SWAP1 POP SWAP1 JUMP JUMPDEST PUSH1 0x0 DUP1 PUSH1 0xA SLOAD PUSH1 0x0 SUB PUSH2 0xF1A JUMPI POP PUSH1 0x64 SWAP2 DUP3 SWAP2 POP JUMP JUMPDEST PUSH1 0x9 PUSH1 0x20 MSTORE PUSH32 0xEC8156718A8372B1DB44BB411437D0870F3E3790D4A08526D024CE1B0B668F6B SLOAD PUSH1 0x1 PUSH1 0x0 SWAP1 DUP2 MSTORE PUSH32 0x92E85D02570A8092D09A6E3A57665BC3815A2699A4074001BF1CCABF660F5A36 SLOAD SWAP1 DUP3 SWAP1 SUB PUSH2 0xF7F JUMPI POP PUSH1 0x0 SWAP4 PUSH1 0xC8 SWAP4 POP SWAP2 POP POP JUMP JUMPDEST DUP1 PUSH1 0x0 SUB PUSH2 0xF94 JUMPI POP PUSH1 0xC8 SWAP4 PUSH1 0x0 SWAP4 POP SWAP2 POP POP JUMP JUMPDEST PUSH1 0xA SLOAD PUSH2 0xFA2 DUP4 PUSH1 0x64 PUSH2 0x233A JUMP JUMPDEST PUSH2 0xFAC SWAP2 SWAP1 PUSH2 0x2351 JUMP JUMPDEST PUSH1 0xA SLOAD SWAP1 SWAP5 POP PUSH2 0xFBD DUP3 PUSH1 0x64 PUSH2 0x233A JUMP JUMPDEST PUSH2 0xFC7 SWAP2 SWAP1 PUSH2 0x2351 JUMP JUMPDEST SWAP3 POP POP POP SWAP1 SWAP2 JUMP JUMPDEST PUSH1 0xC SLOAD PUSH1 0x60 SWAP1 DUP4 LT PUSH2 0x101A JUMPI PUSH1 0x40 MLOAD PUSH3 0x461BCD PUSH1 0xE5 SHL DUP2 MSTORE PUSH1 0x20 PUSH1 0x4 DUP3 ADD MSTORE PUSH1 0x14 PUSH1 0x24 DUP3 ADD MSTORE PUSH20 0x4F6666736574206F7574206F6620626F756E6473 PUSH1 0x60 SHL PUSH1 0x44 DUP3 ADD MSTORE PUSH1 0x64 ADD PUSH2 0xC62 JUMP JUMPDEST PUSH1 0x0 PUSH2 0x1026 DUP4 DUP6 PUSH2 0x23C9 JUMP JUMPDEST PUSH1 0xC SLOAD SWAP1 SWAP2 POP DUP2 GT ISZERO PUSH2 0x1038 JUMPI POP PUSH1 0xC SLOAD JUMPDEST PUSH1 0x0 PUSH2 0x1044 DUP6 DUP4 PUSH2 0x241F JUMP JUMPDEST PUSH8 0xFFFFFFFFFFFFFFFF DUP2 GT ISZERO PUSH2 0x105C JUMPI PUSH2 0x105C PUSH2 0x2219 JUMP JUMPDEST PUSH1 0x40 MLOAD SWAP1 DUP1 DUP3 MSTORE DUP1 PUSH1 0x20 MUL PUSH1 0x20 ADD DUP3 ADD PUSH1 0x40 MSTORE DUP1 ISZERO PUSH2 0x1085 JUMPI DUP2 PUSH1 0x20 ADD PUSH1 0x20 DUP3 MUL DUP1 CALLDATASIZE DUP4 CALLDATACOPY ADD SWAP1 POP JUMPDEST POP SWAP1 POP DUP5 JUMPDEST DUP3 DUP2 LT ISZERO PUSH2 0x10FF JUMPI PUSH1 0xC DUP2 DUP2 SLOAD DUP2 LT PUSH2 0x10A5 JUMPI PUSH2 0x10A5 PUSH2 0x2373 JUMP JUMPDEST PUSH1 0x0 SWAP2 DUP3 MSTORE PUSH1 0x20 SWAP1 SWAP2 KECCAK256 ADD SLOAD PUSH1 0x1 PUSH1 0x1 PUSH1 0xA0 SHL SUB AND DUP3 PUSH2 0x10C5 DUP9 DUP5 PUSH2 0x241F JUMP JUMPDEST DUP2 MLOAD DUP2 LT PUSH2 0x10D5 JUMPI PUSH2 0x10D5 PUSH2 0x2373 JUMP JUMPDEST PUSH1 0x1 PUSH1 0x1 PUSH1 0xA0 SHL SUB SWAP1 SWAP3 AND PUSH1 0x20 SWAP3 DUP4 MUL SWAP2 SWAP1 SWAP2 ADD SWAP1 SWAP2 ADD MSTORE DUP1 PUSH2 0x10F7 DUP2 PUSH2 0x2389 JUMP JUMPDEST SWAP2 POP POP PUSH2 0x108A JUMP JUMPDEST POP SWAP5 SWAP4 POP POP POP POP JUMP JUMPDEST PUSH1 0x1 SLOAD PUSH1 0x60 SWAP1 DUP2 SWAP1 DUP2 SWAP1 DUP2 SWAP1 DUP1 PUSH8 0xFFFFFFFFFFFFFFFF DUP2 GT ISZERO PUSH2 0x112D JUMPI PUSH2 0x112D PUSH2 0x2219 JUMP JUMPDEST PUSH1 0x40 MLOAD SWAP1 DUP1 DUP3 MSTORE DUP1 PUSH1 0x20 MUL PUSH1 0x20 ADD DUP3 ADD PUSH1 0x40 MSTORE DUP1 ISZERO PUSH2 0x1156 JUMPI DUP2 PUSH1 0x20 ADD PUSH1 0x20 DUP3 MUL DUP1 CALLDATASIZE DUP4 CALLDATACOPY ADD SWAP1 POP JUMPDEST POP SWAP5 POP DUP1 PUSH8 0xFFFFFFFFFFFFFFFF DUP2 GT ISZERO PUSH2 0x1172 JUMPI PUSH2 0x1172 PUSH2 0x2219 JUMP JUMPDEST PUSH1 0x40 MLOAD SWAP1 DUP1 DUP3 MSTORE DUP1 PUSH1 0x20 MUL PUSH1 0x20 ADD DUP3 ADD PUSH1 0x40 MSTORE DUP1 ISZERO PUSH2 0x11A5 JUMPI DUP2 PUSH1 0x20 ADD JUMPDEST PUSH1 0x60 DUP2 MSTORE PUSH1 0x20 ADD SWAP1 PUSH1 0x1 SWAP1 SUB SWAP1 DUP2 PUSH2 0x1190 JUMPI SWAP1 POP JUMPDEST POP SWAP4 POP DUP1 PUSH8 0xFFFFFFFFFFFFFFFF DUP2 GT ISZERO PUSH2 0x11C1 JUMPI PUSH2 0x11C1 PUSH2 0x2219 JUMP JUMPDEST PUSH1 0x40 MLOAD SWAP1 DUP1 DUP3 MSTORE DUP1 PUSH1 0x20 MUL PUSH1 0x20 ADD DUP3 ADD PUSH1 0x40 MSTORE DUP1 ISZERO PUSH2 0x11EA JUMPI DUP2 PUSH1 0x20 ADD PUSH1 0x20 DUP3 MUL DUP1 CALLDATASIZE DUP4 CALLDATACOPY ADD SWAP1 POP JUMPDEST POP SWAP3 POP DUP1 PUSH8 0xFFFFFFFFFFFFFFFF DUP2 GT ISZERO PUSH2 0x1206 JUMPI PUSH2 0x1206 PUSH2 0x2219 JUMP JUMPDEST PUSH1 0x40 MLOAD SWAP1 DUP1 DUP3 MSTORE DUP1 PUSH1 0x20 MUL PUSH1 0x20 ADD DUP3 ADD PUSH1 0x40 MSTORE DUP1 ISZERO PUSH2 0x122F JUMPI DUP2 PUSH1 0x20 ADD PUSH1 0x20 DUP3 MUL DUP1 CALLDATASIZE DUP4 CALLDATACOPY ADD SWAP1 POP JUMPDEST POP SWAP2 POP PUSH1 0x0 JUMPDEST DUP2 DUP2 LT ISZERO PUSH2 0x13DD JUMPI PUSH1 0x0 PUSH1 0x1 DUP3 DUP2 SLOAD DUP2 LT PUSH2 0x1252 JUMPI PUSH2 0x1252 PUSH2 0x2373 JUMP JUMPDEST SWAP1 PUSH1 0x0 MSTORE PUSH1 0x20 PUSH1 0x0 KECCAK256 ADD SLOAD SWAP1 POP PUSH1 0x0 DUP1 PUSH1 0x0 DUP4 DUP2 MSTORE PUSH1 0x20 ADD SWAP1 DUP2 MSTORE PUSH1 0x20 ADD PUSH1 0x0 KECCAK256 PUSH1 0x40 MLOAD DUP1 PUSH1 0x80 ADD PUSH1 0x40 MSTORE SWAP1 DUP2 PUSH1 0x0 DUP3 ADD SLOAD DUP2 MSTORE PUSH1 0x20 ADD PUSH1 0x1 DUP3 ADD DUP1 SLOAD PUSH2 0x1298 SWAP1 PUSH2 0x22EA JUMP JUMPDEST DUP1 PUSH1 0x1F ADD PUSH1 0x20 DUP1 SWAP2 DIV MUL PUSH1 0x20 ADD PUSH1 0x40 MLOAD SWAP1 DUP2 ADD PUSH1 0x40 MSTORE DUP1 SWAP3 SWAP2 SWAP1 DUP2 DUP2 MSTORE PUSH1 0x20 ADD DUP3 DUP1 SLOAD PUSH2 0x12C4 SWAP1 PUSH2 0x22EA JUMP JUMPDEST DUP1 ISZERO PUSH2 0x1311 JUMPI DUP1 PUSH1 0x1F LT PUSH2 0x12E6 JUMPI PUSH2 0x100 DUP1 DUP4 SLOAD DIV MUL DUP4 MSTORE SWAP2 PUSH1 0x20 ADD SWAP2 PUSH2 0x1311 JUMP JUMPDEST DUP3 ADD SWAP2 SWAP1 PUSH1 0x0 MSTORE PUSH1 0x20 PUSH1 0x0 KECCAK256 SWAP1 JUMPDEST DUP2 SLOAD DUP2 MSTORE SWAP1 PUSH1 0x1 ADD SWAP1 PUSH1 0x20 ADD DUP1 DUP4 GT PUSH2 0x12F4 JUMPI DUP3 SWAP1 SUB PUSH1 0x1F AND DUP3 ADD SWAP2 JUMPDEST POP POP POP SWAP2 DUP4 MSTORE POP POP PUSH1 0x2 DUP3 ADD SLOAD PUSH1 0xFF AND ISZERO ISZERO PUSH1 0x20 DUP3 ADD MSTORE PUSH1 0x3 SWAP1 SWAP2 ADD SLOAD PUSH1 0x40 SWAP1 SWAP2 ADD MSTORE DUP1 MLOAD DUP10 MLOAD SWAP2 SWAP3 POP SWAP1 DUP10 SWAP1 DUP6 SWAP1 DUP2 LT PUSH2 0x134E JUMPI PUSH2 0x134E PUSH2 0x2373 JUMP JUMPDEST PUSH1 0x20 MUL PUSH1 0x20 ADD ADD DUP2 DUP2 MSTORE POP POP DUP1 PUSH1 0x20 ADD MLOAD DUP8 DUP5 DUP2 MLOAD DUP2 LT PUSH2 0x1371 JUMPI PUSH2 0x1371 PUSH2 0x2373 JUMP JUMPDEST PUSH1 0x20 MUL PUSH1 0x20 ADD ADD DUP2 SWAP1 MSTORE POP DUP1 PUSH1 0x40 ADD MLOAD DUP7 DUP5 DUP2 MLOAD DUP2 LT PUSH2 0x1393 JUMPI PUSH2 0x1393 PUSH2 0x2373 JUMP JUMPDEST PUSH1 0x20 MUL PUSH1 0x20 ADD ADD SWAP1 ISZERO ISZERO SWAP1 DUP2 ISZERO ISZERO DUP2 MSTORE POP POP DUP1 PUSH1 0x60 ADD MLOAD DUP6 DUP5 DUP2 MLOAD DUP2 LT PUSH2 0x13BC JUMPI PUSH2 0x13BC PUSH2 0x2373 JUMP JUMPDEST PUSH1 0x20 MUL PUSH1 0x20 ADD ADD DUP2 DUP2 MSTORE POP POP POP POP DUP1 DUP1 PUSH2 0x13D5 SWAP1 PUSH2 0x2389 JUMP JUMPDEST SWAP2 POP POP PUSH2 0x1235 JUMP JUMPDEST POP POP SWAP1 SWAP2 SWAP3 SWAP4 JUMP JUMPDEST PUSH1 0x3 SLOAD PUSH1 0x1 PUSH1 0x1 PUSH1 0xA0 SHL SUB AND CALLER EQ PUSH2 0x140F JUMPI PUSH1 0x40 MLOAD PUSH3 0x461BCD PUSH1 0xE5 SHL DUP2 MSTORE PUSH1 0x4 ADD PUSH2 0xC62 SWAP1 PUSH2 0x23FB JUMP JUMPDEST PUSH1 0x0 PUSH1 0x4 SLOAD PUSH1 0x1 PUSH1 0xA0 SHL SWAP1 DIV PUSH1 0xFF AND PUSH1 0x2 DUP2 GT ISZERO PUSH2 0x142F JUMPI PUSH2 0x142F PUSH2 0x1FAA JUMP JUMPDEST EQ PUSH2 0x146E JUMPI PUSH1 0x40 MLOAD PUSH3 0x461BCD PUSH1 0xE5 SHL DUP2 MSTORE PUSH1 0x20 PUSH1 0x4 DUP3 ADD MSTORE PUSH1 0xF PUSH1 0x24 DUP3 ADD MSTORE PUSH15 0x26B0B935B2BA103737BA1037B832B7 PUSH1 0x89 SHL PUSH1 0x44 DUP3 ADD MSTORE PUSH1 0x64 ADD PUSH2 0xC62 JUMP JUMPDEST PUSH1 0x4 DUP1 SLOAD PUSH1 0xFF PUSH1 0xA0 SHL NOT AND PUSH1 0x1 PUSH1 0xA0 SHL OR SWAP1 SSTORE TIMESTAMP PUSH1 0x6 DUP2 SWAP1 SSTORE PUSH1 0x40 DUP1 MLOAD SWAP2 DUP3 MSTORE MLOAD PUSH32 0x9DC30B8EDA31A6A144E092E5DE600955523A6A925CC15CC1D1B9B4872CFA6155 SWAP2 DUP2 SWAP1 SUB PUSH1 0x20 ADD SWAP1 LOG1 JUMP JUMPDEST PUSH1 0x1 DUP2 DUP2 SLOAD DUP2 LT PUSH2 0x14CB JUMPI PUSH1 0x0 DUP1 REVERT JUMPDEST PUSH1 0x0 SWAP2 DUP3 MSTORE PUSH1 0x20 SWAP1 SWAP2 KECCAK256 ADD SLOAD SWAP1 POP DUP2 JUMP JUMPDEST PUSH1 0x3 SLOAD PUSH1 0x1 PUSH1 0x1 PUSH1 0xA0 SHL SUB AND CALLER EQ PUSH2 0x1506 JUMPI PUSH1 0x40 MLOAD PUSH3 0x461BCD PUSH1 0xE5 SHL DUP2 MSTORE PUSH1 0x4 ADD PUSH2 0xC62 SWAP1 PUSH2 0x23FB JUMP JUMPDEST PUSH1 0x0 DUP1 PUSH1 0x4 SLOAD PUSH1 0x1 PUSH1 0xA0 SHL SWAP1 DIV PUSH1 0xFF AND PUSH1 0x2 DUP2 GT ISZERO PUSH2 0x1527 JUMPI PUSH2 0x1527 PUSH2 0x1FAA JUMP JUMPDEST EQ PUSH2 0x1544 JUMPI PUSH1 0x40 MLOAD PUSH3 0x461BCD PUSH1 0xE5 SHL DUP2 MSTORE PUSH1 0x4 ADD PUSH2 0xC62 SWAP1 PUSH2 0x23A2 JUMP JUMPDEST PUSH1 0x4 DUP1 SLOAD PUSH1 0x1 PUSH1 0xA0 SHL PUSH1 0xFF PUSH1 0xA0 SHL NOT DUP3 AND OR DUP3 SSTORE TIMESTAMP PUSH1 0x6 SSTORE PUSH1 0x40 MLOAD PUSH4 0x55EF0177 PUSH1 0xE1 SHL DUP2 MSTORE PUSH1 0x1 PUSH1 0x1 PUSH1 0xA0 SHL SUB SWAP1 SWAP2 AND SWAP2 PUSH4 0xABDE02EE SWAP2 PUSH2 0x1588 SWAP2 PUSH1 0x1 SWAP2 ADD PUSH2 0x2432 JUMP JUMPDEST PUSH1 0x0 PUSH1 0x40 MLOAD DUP1 DUP4 SUB DUP2 PUSH1 0x0 DUP8 DUP1 EXTCODESIZE ISZERO DUP1 ISZERO PUSH2 0x15A2 JUMPI PUSH1 0x0 DUP1 REVERT JUMPDEST POP GAS CALL ISZERO DUP1 ISZERO PUSH2 0x15B6 JUMPI RETURNDATASIZE PUSH1 0x0 DUP1 RETURNDATACOPY RETURNDATASIZE PUSH1 0x0 REVERT JUMPDEST POP POP POP POP PUSH32 0x9DC30B8EDA31A6A144E092E5DE600955523A6A925CC15CC1D1B9B4872CFA6155 TIMESTAMP PUSH1 0x40 MLOAD PUSH2 0x15EB SWAP2 DUP2 MSTORE PUSH1 0x20 ADD SWAP1 JUMP JUMPDEST PUSH1 0x40 MLOAD DUP1 SWAP2 SUB SWAP1 LOG1 POP JUMP JUMPDEST PUSH1 0x0 PUSH1 0x60 PUSH1 0x0 DUP1 PUSH1 0x0 DUP1 PUSH1 0x0 DUP8 DUP2 MSTORE PUSH1 0x20 ADD SWAP1 DUP2 MSTORE PUSH1 0x20 ADD PUSH1 0x0 KECCAK256 PUSH1 0x40 MLOAD DUP1 PUSH1 0x80 ADD PUSH1 0x40 MSTORE SWAP1 DUP2 PUSH1 0x0 DUP3 ADD SLOAD DUP2 MSTORE PUSH1 0x20 ADD PUSH1 0x1 DUP3 ADD DUP1 SLOAD PUSH2 0x1636 SWAP1 PUSH2 0x22EA JUMP JUMPDEST DUP1 PUSH1 0x1F ADD PUSH1 0x20 DUP1 SWAP2 DIV MUL PUSH1 0x20 ADD PUSH1 0x40 MLOAD SWAP1 DUP2 ADD PUSH1 0x40 MSTORE DUP1 SWAP3 SWAP2 SWAP1 DUP2 DUP2 MSTORE PUSH1 0x20 ADD DUP3 DUP1 SLOAD PUSH2 0x1662 SWAP1 PUSH2 0x22EA JUMP JUMPDEST DUP1 ISZERO PUSH2 0x16AF JUMPI DUP1 PUSH1 0x1F LT PUSH2 0x1684 JUMPI PUSH2 0x100 DUP1 DUP4 SLOAD DIV MUL DUP4 MSTORE SWAP2 PUSH1 0x20 ADD SWAP2 PUSH2 0x16AF JUMP JUMPDEST DUP3 ADD SWAP2 SWAP1 PUSH1 0x0 MSTORE PUSH1 0x20 PUSH1 0x0 KECCAK256 SWAP1 JUMPDEST DUP2 SLOAD DUP2 MSTORE SWAP1 PUSH1 0x1 ADD SWAP1 PUSH1 0x20 ADD DUP1 DUP4 GT PUSH2 0x1692 JUMPI DUP3 SWAP1 SUB PUSH1 0x1F AND DUP3 ADD SWAP2 JUMPDEST POP POP POP SWAP2 DUP4 MSTORE POP POP PUSH1 0x2 DUP3 ADD SLOAD PUSH1 0xFF AND ISZERO ISZERO PUSH1 0x20 DUP1 DUP4 ADD SWAP2 SWAP1 SWAP2 MSTORE PUSH1 0x3 SWAP1 SWAP3 ADD SLOAD PUSH1 0x40 SWAP2 DUP3 ADD MSTORE DUP3 MLOAD SWAP2 DUP4 ADD MLOAD SWAP1 DUP4 ADD MLOAD PUSH1 0x60 SWAP1 SWAP4 ADD MLOAD SWAP2 SWAP10 SWAP1 SWAP9 POP SWAP2 SWAP7 POP SWAP5 POP SWAP3 POP POP POP JUMP JUMPDEST PUSH1 0x2 DUP1 PUSH1 0x4 SLOAD PUSH1 0x1 PUSH1 0xA0 SHL SWAP1 DIV PUSH1 0xFF AND PUSH1 0x2 DUP2 GT ISZERO PUSH2 0x1717 JUMPI PUSH2 0x1717 PUSH2 0x1FAA JUMP JUMPDEST EQ PUSH2 0x1734 JUMPI PUSH1 0x40 MLOAD PUSH3 0x461BCD PUSH1 0xE5 SHL DUP2 MSTORE PUSH1 0x4 ADD PUSH2 0xC62 SWAP1 PUSH2 0x23A2 JUMP JUMPDEST CALLER PUSH1 0x0 SWAP1 DUP2 MSTORE PUSH1 0x8 PUSH1 0x20 MSTORE PUSH1 0x40 DUP2 KECCAK256 PUSH1 0x4 SLOAD DUP3 SWAP1 PUSH1 0x1 PUSH1 0xA8 SHL SWAP1 DIV PUSH1 0xFF AND PUSH1 0x1 DUP2 GT ISZERO PUSH2 0x1763 JUMPI PUSH2 0x1763 PUSH2 0x1FAA JUMP JUMPDEST PUSH1 0xFF AND PUSH1 0xFF AND DUP2 MSTORE PUSH1 0x20 ADD SWAP1 DUP2 MSTORE PUSH1 0x20 ADD PUSH1 0x0 KECCAK256 SLOAD SWAP1 POP PUSH1 0x0 DUP2 GT PUSH2 0x17BB JUMPI PUSH1 0x40 MLOAD PUSH3 0x461BCD PUSH1 0xE5 SHL DUP2 MSTORE PUSH1 0x20 PUSH1 0x4 DUP3 ADD MSTORE PUSH1 0xE PUSH1 0x24 DUP3 ADD MSTORE PUSH14 0x139BC81DDA5B9B9A5B99C818995D PUSH1 0x92 SHL PUSH1 0x44 DUP3 ADD MSTORE PUSH1 0x64 ADD PUSH2 0xC62 JUMP JUMPDEST PUSH1 0x0 PUSH1 0x9 PUSH1 0x0 PUSH1 0x4 PUSH1 0x15 SWAP1 SLOAD SWAP1 PUSH2 0x100 EXP SWAP1 DIV PUSH1 0xFF AND PUSH1 0x1 DUP2 GT ISZERO PUSH2 0x17E2 JUMPI PUSH2 0x17E2 PUSH2 0x1FAA JUMP JUMPDEST PUSH1 0xFF AND PUSH1 0xFF AND DUP2 MSTORE PUSH1 0x20 ADD SWAP1 DUP2 MSTORE PUSH1 0x20 ADD PUSH1 0x0 KECCAK256 SLOAD SWAP1 POP PUSH1 0x0 DUP2 GT PUSH2 0x183B JUMPI PUSH1 0x40 MLOAD PUSH3 0x461BCD PUSH1 0xE5 SHL DUP2 MSTORE PUSH1 0x20 PUSH1 0x4 DUP3 ADD MSTORE PUSH1 0xF PUSH1 0x24 DUP3 ADD MSTORE PUSH15 0x4E6F2077696E6E696E672062657473 PUSH1 0x88 SHL PUSH1 0x44 DUP3 ADD MSTORE PUSH1 0x64 ADD PUSH2 0xC62 JUMP JUMPDEST PUSH1 0x0 DUP2 PUSH1 0xA SLOAD DUP5 PUSH2 0x184C SWAP2 SWAP1 PUSH2 0x233A JUMP JUMPDEST PUSH2 0x1856 SWAP2 SWAP1 PUSH2 0x2351 JUMP JUMPDEST CALLER PUSH1 0x0 SWAP1 DUP2 MSTORE PUSH1 0x8 PUSH1 0x20 MSTORE PUSH1 0x40 DUP2 KECCAK256 PUSH1 0x4 SLOAD SWAP3 SWAP4 POP SWAP1 SWAP2 DUP3 SWAP1 PUSH1 0x1 PUSH1 0xA8 SHL SWAP1 DIV PUSH1 0xFF AND PUSH1 0x1 DUP2 GT ISZERO PUSH2 0x188A JUMPI PUSH2 0x188A PUSH2 0x1FAA JUMP JUMPDEST PUSH1 0xFF AND DUP2 MSTORE PUSH1 0x20 DUP2 ADD SWAP2 SWAP1 SWAP2 MSTORE PUSH1 0x40 SWAP1 DUP2 ADD PUSH1 0x0 SWAP1 DUP2 KECCAK256 SWAP3 SWAP1 SWAP3 SSTORE MLOAD CALLER SWAP1 DUP4 SWAP1 DUP4 DUP2 DUP2 DUP2 DUP6 DUP8 GAS CALL SWAP3 POP POP POP RETURNDATASIZE DUP1 PUSH1 0x0 DUP2 EQ PUSH2 0x18E2 JUMPI PUSH1 0x40 MLOAD SWAP2 POP PUSH1 0x1F NOT PUSH1 0x3F RETURNDATASIZE ADD AND DUP3 ADD PUSH1 0x40 MSTORE RETURNDATASIZE DUP3 MSTORE RETURNDATASIZE PUSH1 0x0 PUSH1 0x20 DUP5 ADD RETURNDATACOPY PUSH2 0x18E7 JUMP JUMPDEST PUSH1 0x60 SWAP2 POP JUMPDEST POP POP SWAP1 POP DUP1 PUSH2 0x192A JUMPI PUSH1 0x40 MLOAD PUSH3 0x461BCD PUSH1 0xE5 SHL DUP2 MSTORE PUSH1 0x20 PUSH1 0x4 DUP3 ADD MSTORE PUSH1 0xF PUSH1 0x24 DUP3 ADD MSTORE PUSH15 0x151C985B9CD9995C8819985A5B1959 PUSH1 0x8A SHL PUSH1 0x44 DUP3 ADD MSTORE PUSH1 0x64 ADD PUSH2 0xC62 JUMP JUMPDEST PUSH1 0x40 DUP1 MLOAD DUP4 DUP2 MSTORE TIMESTAMP PUSH1 0x20 DUP3 ADD MSTORE CALLER SWAP2 PUSH32 0x408E6E0B73DAF4C873106E95FD067260FBFF8BF9D1B499CAD563D4480D45BAC SWAP2 ADD PUSH1 0x40 MLOAD DUP1 SWAP2 SUB SWAP1 LOG2 POP POP POP POP POP JUMP JUMPDEST PUSH1 0x3 SLOAD PUSH1 0x1 PUSH1 0x1 PUSH1 0xA0 SHL SUB AND CALLER EQ PUSH2 0x1995 JUMPI PUSH1 0x40 MLOAD PUSH3 0x461BCD PUSH1 0xE5 SHL DUP2 MSTORE PUSH1 0x4 ADD PUSH2 0xC62 SWAP1 PUSH2 0x23FB JUMP JUMPDEST PUSH1 0x1 DUP1 PUSH1 0x4 SLOAD PUSH1 0x1 PUSH1 0xA0 SHL SWAP1 DIV PUSH1 0xFF AND PUSH1 0x2 DUP2 GT ISZERO PUSH2 0x19B6 JUMPI PUSH2 0x19B6 PUSH2 0x1FAA JUMP JUMPDEST EQ PUSH2 0x19D3 JUMPI PUSH1 0x40 MLOAD PUSH3 0x461BCD PUSH1 0xE5 SHL DUP2 MSTORE PUSH1 0x4 ADD PUSH2 0xC62 SWAP1 PUSH2 0x23A2 JUMP JUMPDEST PUSH1 0x4 DUP1 SLOAD DUP4 SWAP2 SWAP1 PUSH1 0xFF PUSH1 0xA8 SHL NOT AND PUSH1 0x1 PUSH1 0xA8 SHL DUP4 PUSH1 0x1 DUP2 GT ISZERO PUSH2 0x19F8 JUMPI PUSH2 0x19F8 PUSH2 0x1FAA JUMP JUMPDEST MUL OR SWAP1 SSTORE POP PUSH1 0x4 DUP1 SLOAD PUSH1 0xFF PUSH1 0xA0 SHL NOT AND PUSH1 0x1 PUSH1 0xA1 SHL OR SWAP1 SSTORE TIMESTAMP PUSH1 0x7 DUP2 SWAP1 SSTORE PUSH1 0x40 MLOAD PUSH32 0xCBBE35DE088A5A787855818A0FDA296AEB95F616E7B99C7DCB0BF96B5697E22B SWAP2 PUSH2 0x1A47 SWAP2 DUP6 SWAP2 SWAP1 PUSH2 0x246D JUMP JUMPDEST PUSH1 0x40 MLOAD DUP1 SWAP2 SUB SWAP1 LOG1 POP POP JUMP JUMPDEST PUSH1 0x3 SLOAD PUSH1 0x1 PUSH1 0x1 PUSH1 0xA0 SHL SUB AND CALLER EQ PUSH2 0x1A7D JUMPI PUSH1 0x40 MLOAD PUSH3 0x461BCD PUSH1 0xE5 SHL DUP2 MSTORE PUSH1 0x4 ADD PUSH2 0xC62 SWAP1 PUSH2 0x23FB JUMP JUMPDEST PUSH1 0x0 DUP1 PUSH1 0x4 SLOAD PUSH1 0x1 PUSH1 0xA0 SHL SWAP1 DIV PUSH1 0xFF AND PUSH1 0x2 DUP2 GT ISZERO PUSH2 0x1A9E JUMPI PUSH2 0x1A9E PUSH2 0x1FAA JUMP JUMPDEST EQ PUSH2 0x1ABB JUMPI PUSH1 0x40 MLOAD PUSH3 0x461BCD PUSH1 0xE5 SHL DUP2 MSTORE PUSH1 0x4 ADD PUSH2 0xC62 SWAP1 PUSH2 0x23A2 JUMP JUMPDEST DUP3 PUSH1 0x0 SUB PUSH2 0x1B03 JUMPI PUSH1 0x40 MLOAD PUSH3 0x461BCD PUSH1 0xE5 SHL DUP2 MSTORE PUSH1 0x20 PUSH1 0x4 DUP3 ADD MSTORE PUSH1 0x15 PUSH1 0x24 DUP3 ADD MSTORE PUSH21 0x125B9D985B1A59081B1A5D995CDD1C99585B481251 PUSH1 0x5A SHL PUSH1 0x44 DUP3 ADD MSTORE PUSH1 0x64 ADD PUSH2 0xC62 JUMP JUMPDEST PUSH1 0x0 DUP4 DUP2 MSTORE PUSH1 0x20 DUP2 SWAP1 MSTORE PUSH1 0x40 SWAP1 KECCAK256 PUSH1 0x2 ADD SLOAD PUSH1 0xFF AND ISZERO PUSH2 0x1B65 JUMPI PUSH1 0x40 MLOAD PUSH3 0x461BCD PUSH1 0xE5 SHL DUP2 MSTORE PUSH1 0x20 PUSH1 0x4 DUP3 ADD MSTORE PUSH1 0x19 PUSH1 0x24 DUP3 ADD MSTORE PUSH32 0x4C69766573747265616D20616C72656164792065786973747300000000000000 PUSH1 0x44 DUP3 ADD MSTORE PUSH1 0x64 ADD PUSH2 0xC62 JUMP JUMPDEST PUSH1 0x40 DUP1 MLOAD PUSH1 0x80 DUP2 ADD DUP3 MSTORE DUP5 DUP2 MSTORE PUSH1 0x20 DUP1 DUP3 ADD DUP6 DUP2 MSTORE PUSH1 0x1 DUP4 DUP6 ADD DUP2 SWAP1 MSTORE TIMESTAMP PUSH1 0x60 DUP6 ADD MSTORE PUSH1 0x0 DUP9 DUP2 MSTORE SWAP3 DUP4 SWAP1 MSTORE SWAP4 SWAP1 SWAP2 KECCAK256 DUP3 MLOAD DUP2 SSTORE SWAP1 MLOAD SWAP2 SWAP3 SWAP1 SWAP2 SWAP1 DUP3 ADD SWAP1 PUSH2 0x1BAD SWAP1 DUP3 PUSH2 0x24D7 JUMP JUMPDEST POP PUSH1 0x40 DUP3 DUP2 ADD MLOAD PUSH1 0x2 DUP4 ADD DUP1 SLOAD PUSH1 0xFF NOT AND SWAP2 ISZERO ISZERO SWAP2 SWAP1 SWAP2 OR SWAP1 SSTORE PUSH1 0x60 SWAP1 SWAP3 ADD MLOAD PUSH1 0x3 SWAP1 SWAP2 ADD SSTORE PUSH1 0x1 DUP1 SLOAD DUP1 DUP3 ADD DUP3 SSTORE PUSH1 0x0 SWAP2 SWAP1 SWAP2 MSTORE PUSH32 0xB10E2D527612073B26EECDFD717E6A320CF44B4AFAC2B0732D9FCBE2B7FA0CF6 ADD DUP5 SWAP1 SSTORE MLOAD DUP4 SWAP1 PUSH32 0xBAD020C4DC5E670EC5B6EA36D7CC02F852551D9CCC04429028AF440B4C7CE148 SWAP1 PUSH2 0x1C37 SWAP1 DUP6 SWAP1 PUSH2 0x2087 JUMP JUMPDEST PUSH1 0x40 MLOAD DUP1 SWAP2 SUB SWAP1 LOG2 POP POP POP JUMP JUMPDEST PUSH1 0x3 SLOAD PUSH1 0x1 PUSH1 0x1 PUSH1 0xA0 SHL SUB AND CALLER EQ PUSH2 0x1C6E JUMPI PUSH1 0x40 MLOAD PUSH3 0x461BCD PUSH1 0xE5 SHL DUP2 MSTORE PUSH1 0x4 ADD PUSH2 0xC62 SWAP1 PUSH2 0x23FB JUMP JUMPDEST PUSH1 0x0 DUP1 PUSH1 0x4 SLOAD PUSH1 0x1 PUSH1 0xA0 SHL SWAP1 DIV PUSH1 0xFF AND PUSH1 0x2 DUP2 GT ISZERO PUSH2 0x1C8F JUMPI PUSH2 0x1C8F PUSH2 0x1FAA JUMP JUMPDEST EQ PUSH2 0x1CAC JUMPI PUSH1 0x40 MLOAD PUSH3 0x461BCD PUSH1 0xE5 SHL DUP2 MSTORE PUSH1 0x4 ADD PUSH2 0xC62 SWAP1 PUSH2 0x23A2 JUMP JUMPDEST PUSH1 0x0 DUP3 DUP2 MSTORE PUSH1 0x20 DUP2 SWAP1 MSTORE PUSH1 0x40 SWAP1 KECCAK256 PUSH1 0x2 ADD SLOAD PUSH1 0xFF AND PUSH2 0x1D0D JUMPI PUSH1 0x40 MLOAD PUSH3 0x461BCD PUSH1 0xE5 SHL DUP2 MSTORE PUSH1 0x20 PUSH1 0x4 DUP3 ADD DUP2 SWAP1 MSTORE PUSH1 0x24 DUP3 ADD MSTORE PUSH32 0x4C69766573747265616D206E6F7420666F756E64206F7220696E616374697665 PUSH1 0x44 DUP3 ADD MSTORE PUSH1 0x64 ADD PUSH2 0xC62 JUMP JUMPDEST PUSH1 0x0 DUP3 DUP2 MSTORE PUSH1 0x20 DUP2 SWAP1 MSTORE PUSH1 0x40 DUP2 KECCAK256 PUSH1 0x2 ADD DUP1 SLOAD PUSH1 0xFF NOT AND SWAP1 SSTORE JUMPDEST PUSH1 0x1 SLOAD DUP2 LT ISZERO PUSH2 0x1DDC JUMPI DUP3 PUSH1 0x1 DUP3 DUP2 SLOAD DUP2 LT PUSH2 0x1D45 JUMPI PUSH2 0x1D45 PUSH2 0x2373 JUMP JUMPDEST SWAP1 PUSH1 0x0 MSTORE PUSH1 0x20 PUSH1 0x0 KECCAK256 ADD SLOAD SUB PUSH2 0x1DCA JUMPI PUSH1 0x1 DUP1 SLOAD PUSH2 0x1D64 SWAP1 DUP3 SWAP1 PUSH2 0x241F JUMP JUMPDEST DUP2 SLOAD DUP2 LT PUSH2 0x1D74 JUMPI PUSH2 0x1D74 PUSH2 0x2373 JUMP JUMPDEST SWAP1 PUSH1 0x0 MSTORE PUSH1 0x20 PUSH1 0x0 KECCAK256 ADD SLOAD PUSH1 0x1 DUP3 DUP2 SLOAD DUP2 LT PUSH2 0x1D92 JUMPI PUSH2 0x1D92 PUSH2 0x2373 JUMP JUMPDEST PUSH1 0x0 SWAP2 DUP3 MSTORE PUSH1 0x20 SWAP1 SWAP2 KECCAK256 ADD SSTORE PUSH1 0x1 DUP1 SLOAD DUP1 PUSH2 0x1DAF JUMPI PUSH2 0x1DAF PUSH2 0x2597 JUMP JUMPDEST PUSH1 0x1 SWAP1 SUB DUP2 DUP2 SWAP1 PUSH1 0x0 MSTORE PUSH1 0x20 PUSH1 0x0 KECCAK256 ADD PUSH1 0x0 SWAP1 SSTORE SWAP1 SSTORE PUSH2 0x1DDC JUMP JUMPDEST DUP1 PUSH2 0x1DD4 DUP2 PUSH2 0x2389 JUMP JUMPDEST SWAP2 POP POP PUSH2 0x1D27 JUMP JUMPDEST POP PUSH1 0x40 MLOAD DUP3 SWAP1 PUSH32 0x799598B7447B0EB8C73A9499876BC1798CDF2A050595BAEED5C560A8722B278E SWAP1 PUSH1 0x0 SWAP1 LOG2 POP POP JUMP JUMPDEST PUSH1 0x0 PUSH1 0x20 DUP3 DUP5 SUB SLT ISZERO PUSH2 0x1E1E JUMPI PUSH1 0x0 DUP1 REVERT JUMPDEST POP CALLDATALOAD SWAP2 SWAP1 POP JUMP JUMPDEST PUSH1 0x0 DUP2 MLOAD DUP1 DUP5 MSTORE PUSH1 0x0 JUMPDEST DUP2 DUP2 LT ISZERO PUSH2 0x1E4B JUMPI PUSH1 0x20 DUP2 DUP6 ADD DUP2 ADD MLOAD DUP7 DUP4 ADD DUP3 ADD MSTORE ADD PUSH2 0x1E2F JUMP JUMPDEST POP PUSH1 0x0 PUSH1 0x20 DUP3 DUP7 ADD ADD MSTORE PUSH1 0x20 PUSH1 0x1F NOT PUSH1 0x1F DUP4 ADD AND DUP6 ADD ADD SWAP2 POP POP SWAP3 SWAP2 POP POP JUMP JUMPDEST DUP5 DUP2 MSTORE PUSH1 0x80 PUSH1 0x20 DUP3 ADD MSTORE PUSH1 0x0 PUSH2 0x1E84 PUSH1 0x80 DUP4 ADD DUP7 PUSH2 0x1E25 JUMP JUMPDEST SWAP4 ISZERO ISZERO PUSH1 0x40 DUP4 ADD MSTORE POP PUSH1 0x60 ADD MSTORE SWAP3 SWAP2 POP POP JUMP JUMPDEST DUP1 CALLDATALOAD PUSH1 0x1 PUSH1 0x1 PUSH1 0xA0 SHL SUB DUP2 AND DUP2 EQ PUSH2 0x1EAE JUMPI PUSH1 0x0 DUP1 REVERT JUMPDEST SWAP2 SWAP1 POP JUMP JUMPDEST PUSH1 0x0 PUSH1 0x20 DUP3 DUP5 SUB SLT ISZERO PUSH2 0x1EC5 JUMPI PUSH1 0x0 DUP1 REVERT JUMPDEST PUSH2 0x1ECE DUP3 PUSH2 0x1E97 JUMP JUMPDEST SWAP4 SWAP3 POP POP POP JUMP JUMPDEST DUP1 CALLDATALOAD PUSH1 0x2 DUP2 LT PUSH2 0x1EAE JUMPI PUSH1 0x0 DUP1 REVERT JUMPDEST PUSH1 0x0 DUP1 PUSH1 0x40 DUP4 DUP6 SUB SLT ISZERO PUSH2 0x1EF7 JUMPI PUSH1 0x0 DUP1 REVERT JUMPDEST PUSH2 0x1F00 DUP4 PUSH2 0x1E97 JUMP JUMPDEST SWAP2 POP PUSH2 0x1F0E PUSH1 0x20 DUP5 ADD PUSH2 0x1ED5 JUMP JUMPDEST SWAP1 POP SWAP3 POP SWAP3 SWAP1 POP JUMP JUMPDEST PUSH1 0x0 DUP2 MLOAD DUP1 DUP5 MSTORE PUSH1 0x20 DUP1 DUP6 ADD SWAP5 POP DUP1 DUP5 ADD PUSH1 0x0 JUMPDEST DUP4 DUP2 LT ISZERO PUSH2 0x1F47 JUMPI DUP2 MLOAD DUP8 MSTORE SWAP6 DUP3 ADD SWAP6 SWAP1 DUP3 ADD SWAP1 PUSH1 0x1 ADD PUSH2 0x1F2B JUMP JUMPDEST POP SWAP5 SWAP6 SWAP5 POP POP POP POP POP JUMP JUMPDEST PUSH1 0x0 DUP3 DUP3 MLOAD DUP1 DUP6 MSTORE PUSH1 0x20 DUP1 DUP7 ADD SWAP6 POP DUP1 DUP3 PUSH1 0x5 SHL DUP5 ADD ADD DUP2 DUP7 ADD PUSH1 0x0 JUMPDEST DUP5 DUP2 LT ISZERO PUSH2 0x1F9D JUMPI PUSH1 0x1F NOT DUP7 DUP5 SUB ADD DUP10 MSTORE PUSH2 0x1F8B DUP4 DUP4 MLOAD PUSH2 0x1E25 JUMP JUMPDEST SWAP9 DUP5 ADD SWAP9 SWAP3 POP SWAP1 DUP4 ADD SWAP1 PUSH1 0x1 ADD PUSH2 0x1F6F JUMP JUMPDEST POP SWAP1 SWAP8 SWAP7 POP POP POP POP POP POP POP JUMP JUMPDEST PUSH4 0x4E487B71 PUSH1 0xE0 SHL PUSH1 0x0 MSTORE PUSH1 0x21 PUSH1 0x4 MSTORE PUSH1 0x24 PUSH1 0x0 REVERT JUMPDEST PUSH1 0x3 DUP2 LT PUSH2 0x1FD0 JUMPI PUSH2 0x1FD0 PUSH2 0x1FAA JUMP JUMPDEST SWAP1 MSTORE JUMP JUMPDEST PUSH1 0x2 DUP2 LT PUSH2 0x1FD0 JUMPI PUSH2 0x1FD0 PUSH2 0x1FAA JUMP JUMPDEST PUSH2 0x180 DUP2 MSTORE PUSH1 0x0 PUSH2 0x1FF9 PUSH2 0x180 DUP4 ADD DUP16 PUSH2 0x1F17 JUMP JUMPDEST DUP3 DUP2 SUB PUSH1 0x20 DUP5 ADD MSTORE PUSH2 0x200B DUP2 DUP16 PUSH2 0x1E25 JUMP JUMPDEST SWAP1 POP DUP3 DUP2 SUB PUSH1 0x40 DUP5 ADD MSTORE PUSH2 0x201F DUP2 DUP15 PUSH2 0x1F52 JUMP JUMPDEST SWAP2 POP POP PUSH2 0x202F PUSH1 0x60 DUP4 ADD DUP13 PUSH2 0x1FC0 JUMP JUMPDEST PUSH2 0x203C PUSH1 0x80 DUP4 ADD DUP12 PUSH2 0x1FD4 JUMP JUMPDEST PUSH1 0xA0 DUP3 ADD SWAP9 SWAP1 SWAP9 MSTORE PUSH1 0xC0 DUP2 ADD SWAP7 SWAP1 SWAP7 MSTORE PUSH1 0xE0 DUP7 ADD SWAP5 SWAP1 SWAP5 MSTORE PUSH2 0x100 DUP6 ADD SWAP3 SWAP1 SWAP3 MSTORE PUSH2 0x120 DUP5 ADD MSTORE PUSH2 0x140 DUP4 ADD MSTORE PUSH2 0x160 SWAP1 SWAP2 ADD MSTORE SWAP6 SWAP5 POP POP POP POP POP JUMP JUMPDEST PUSH1 0x20 DUP2 ADD PUSH2 0x876 DUP3 DUP5 PUSH2 0x1FD4 JUMP JUMPDEST PUSH1 0x20 DUP2 MSTORE PUSH1 0x0 PUSH2 0x1ECE PUSH1 0x20 DUP4 ADD DUP5 PUSH2 0x1E25 JUMP JUMPDEST PUSH1 0x0 PUSH1 0x20 DUP3 DUP5 SUB SLT ISZERO PUSH2 0x20AC JUMPI PUSH1 0x0 DUP1 REVERT JUMPDEST PUSH2 0x1ECE DUP3 PUSH2 0x1ED5 JUMP JUMPDEST PUSH1 0x20 DUP2 MSTORE PUSH1 0x0 PUSH2 0x1ECE PUSH1 0x20 DUP4 ADD DUP5 PUSH2 0x1F17 JUMP JUMPDEST PUSH1 0x0 DUP1 PUSH1 0x40 DUP4 DUP6 SUB SLT ISZERO PUSH2 0x20DB JUMPI PUSH1 0x0 DUP1 REVERT JUMPDEST POP POP DUP1 CALLDATALOAD SWAP3 PUSH1 0x20 SWAP1 SWAP2 ADD CALLDATALOAD SWAP2 POP JUMP JUMPDEST PUSH1 0x20 DUP1 DUP3 MSTORE DUP3 MLOAD DUP3 DUP3 ADD DUP2 SWAP1 MSTORE PUSH1 0x0 SWAP2 SWAP1 DUP5 DUP3 ADD SWAP1 PUSH1 0x40 DUP6 ADD SWAP1 DUP5 JUMPDEST DUP2 DUP2 LT ISZERO PUSH2 0x212B JUMPI DUP4 MLOAD PUSH1 0x1 PUSH1 0x1 PUSH1 0xA0 SHL SUB AND DUP4 MSTORE SWAP3 DUP5 ADD SWAP3 SWAP2 DUP5 ADD SWAP2 PUSH1 0x1 ADD PUSH2 0x2106 JUMP JUMPDEST POP SWAP1 SWAP7 SWAP6 POP POP POP POP POP POP JUMP JUMPDEST DUP1 CALLDATALOAD PUSH1 0xFF DUP2 AND DUP2 EQ PUSH2 0x1EAE JUMPI PUSH1 0x0 DUP1 REVERT JUMPDEST PUSH1 0x0 DUP1 PUSH1 0x40 DUP4 DUP6 SUB SLT ISZERO PUSH2 0x215B JUMPI PUSH1 0x0 DUP1 REVERT JUMPDEST PUSH2 0x2164 DUP4 PUSH2 0x1E97 JUMP JUMPDEST SWAP2 POP PUSH2 0x1F0E PUSH1 0x20 DUP5 ADD PUSH2 0x2137 JUMP JUMPDEST PUSH1 0x80 DUP2 MSTORE PUSH1 0x0 PUSH2 0x2185 PUSH1 0x80 DUP4 ADD DUP8 PUSH2 0x1F17 JUMP JUMPDEST PUSH1 0x20 DUP4 DUP3 SUB DUP2 DUP6 ADD MSTORE PUSH2 0x2198 DUP3 DUP9 PUSH2 0x1F52 JUMP JUMPDEST DUP5 DUP2 SUB PUSH1 0x40 DUP7 ADD MSTORE DUP7 MLOAD DUP1 DUP3 MSTORE DUP3 DUP9 ADD SWAP4 POP SWAP1 DUP3 ADD SWAP1 PUSH1 0x0 JUMPDEST DUP2 DUP2 LT ISZERO PUSH2 0x21CF JUMPI DUP5 MLOAD ISZERO ISZERO DUP4 MSTORE SWAP4 DUP4 ADD SWAP4 SWAP2 DUP4 ADD SWAP2 PUSH1 0x1 ADD PUSH2 0x21B1 JUMP JUMPDEST POP POP DUP5 DUP2 SUB PUSH1 0x60 DUP7 ADD MSTORE PUSH2 0x21E3 DUP2 DUP8 PUSH2 0x1F17 JUMP JUMPDEST SWAP10 SWAP9 POP POP POP POP POP POP POP POP POP JUMP JUMPDEST PUSH1 0x20 DUP2 ADD PUSH2 0x876 DUP3 DUP5 PUSH2 0x1FC0 JUMP JUMPDEST PUSH1 0x0 PUSH1 0x20 DUP3 DUP5 SUB SLT ISZERO PUSH2 0x2210 JUMPI PUSH1 0x0 DUP1 REVERT JUMPDEST PUSH2 0x1ECE DUP3 PUSH2 0x2137 JUMP JUMPDEST PUSH4 0x4E487B71 PUSH1 0xE0 SHL PUSH1 0x0 MSTORE PUSH1 0x41 PUSH1 0x4 MSTORE PUSH1 0x24 PUSH1 0x0 REVERT JUMPDEST PUSH1 0x0 DUP1 PUSH1 0x40 DUP4 DUP6 SUB SLT ISZERO PUSH2 0x2242 JUMPI PUSH1 0x0 DUP1 REVERT JUMPDEST DUP3 CALLDATALOAD SWAP2 POP PUSH1 0x20 DUP4 ADD CALLDATALOAD PUSH8 0xFFFFFFFFFFFFFFFF DUP1 DUP3 GT ISZERO PUSH2 0x2261 JUMPI PUSH1 0x0 DUP1 REVERT JUMPDEST DUP2 DUP6 ADD SWAP2 POP DUP6 PUSH1 0x1F DUP4 ADD SLT PUSH2 0x2275 JUMPI PUSH1 0x0 DUP1 REVERT JUMPDEST DUP2 CALLDATALOAD DUP2 DUP2 GT ISZERO PUSH2 0x2287 JUMPI PUSH2 0x2287 PUSH2 0x2219 JUMP JUMPDEST PUSH1 0x40 MLOAD PUSH1 0x1F DUP3 ADD PUSH1 0x1F NOT SWAP1 DUP2 AND PUSH1 0x3F ADD AND DUP2 ADD SWAP1 DUP4 DUP3 GT DUP2 DUP4 LT OR ISZERO PUSH2 0x22AF JUMPI PUSH2 0x22AF PUSH2 0x2219 JUMP JUMPDEST DUP2 PUSH1 0x40 MSTORE DUP3 DUP2 MSTORE DUP9 PUSH1 0x20 DUP5 DUP8 ADD ADD GT ISZERO PUSH2 0x22C8 JUMPI PUSH1 0x0 DUP1 REVERT JUMPDEST DUP3 PUSH1 0x20 DUP7 ADD PUSH1 0x20 DUP4 ADD CALLDATACOPY PUSH1 0x0 PUSH1 0x20 DUP5 DUP4 ADD ADD MSTORE DUP1 SWAP6 POP POP POP POP POP POP SWAP3 POP SWAP3 SWAP1 POP JUMP JUMPDEST PUSH1 0x1 DUP2 DUP2 SHR SWAP1 DUP3 AND DUP1 PUSH2 0x22FE JUMPI PUSH1 0x7F DUP3 AND SWAP2 POP JUMPDEST PUSH1 0x20 DUP3 LT DUP2 SUB PUSH2 0x231E JUMPI PUSH4 0x4E487B71 PUSH1 0xE0 SHL PUSH1 0x0 MSTORE PUSH1 0x22 PUSH1 0x4 MSTORE PUSH1 0x24 PUSH1 0x0 REVERT JUMPDEST POP SWAP2 SWAP1 POP JUMP JUMPDEST PUSH4 0x4E487B71 PUSH1 0xE0 SHL PUSH1 0x0 MSTORE PUSH1 0x11 PUSH1 0x4 MSTORE PUSH1 0x24 PUSH1 0x0 REVERT JUMPDEST DUP1 DUP3 MUL DUP2 ISZERO DUP3 DUP3 DIV DUP5 EQ OR PUSH2 0x876 JUMPI PUSH2 0x876 PUSH2 0x2324 JUMP JUMPDEST PUSH1 0x0 DUP3 PUSH2 0x236E JUMPI PUSH4 0x4E487B71 PUSH1 0xE0 SHL PUSH1 0x0 MSTORE PUSH1 0x12 PUSH1 0x4 MSTORE PUSH1 0x24 PUSH1 0x0 REVERT JUMPDEST POP DIV SWAP1 JUMP JUMPDEST PUSH4 0x4E487B71 PUSH1 0xE0 SHL PUSH1 0x0 MSTORE PUSH1 0x32 PUSH1 0x4 MSTORE PUSH1 0x24 PUSH1 0x0 REVERT JUMPDEST PUSH1 0x0 PUSH1 0x1 DUP3 ADD PUSH2 0x239B JUMPI PUSH2 0x239B PUSH2 0x2324 JUMP JUMPDEST POP PUSH1 0x1 ADD SWAP1 JUMP JUMPDEST PUSH1 0x20 DUP1 DUP3 MSTORE PUSH1 0xD SWAP1 DUP3 ADD MSTORE PUSH13 0x496E76616C6964207374617465 PUSH1 0x98 SHL PUSH1 0x40 DUP3 ADD MSTORE PUSH1 0x60 ADD SWAP1 JUMP JUMPDEST DUP1 DUP3 ADD DUP1 DUP3 GT ISZERO PUSH2 0x876 JUMPI PUSH2 0x876 PUSH2 0x2324 JUMP JUMPDEST PUSH1 0x60 DUP2 ADD PUSH2 0x23EA DUP3 DUP7 PUSH2 0x1FD4 JUMP JUMPDEST PUSH1 0x20 DUP3 ADD SWAP4 SWAP1 SWAP4 MSTORE PUSH1 0x40 ADD MSTORE SWAP2 SWAP1 POP JUMP JUMPDEST PUSH1 0x20 DUP1 DUP3 MSTORE PUSH1 0xA SWAP1 DUP3 ADD MSTORE PUSH10 0x4E6F74206F7261636C65 PUSH1 0xB0 SHL PUSH1 0x40 DUP3 ADD MSTORE PUSH1 0x60 ADD SWAP1 JUMP JUMPDEST DUP2 DUP2 SUB DUP2 DUP2 GT ISZERO PUSH2 0x876 JUMPI PUSH2 0x876 PUSH2 0x2324 JUMP JUMPDEST PUSH1 0x20 DUP1 DUP3 MSTORE DUP3 SLOAD DUP3 DUP3 ADD DUP2 SWAP1 MSTORE PUSH1 0x0 DUP5 DUP2 MSTORE DUP3 DUP2 KECCAK256 SWAP1 SWAP3 SWAP2 PUSH1 0x40 DUP6 ADD SWAP1 DUP5 JUMPDEST DUP2 DUP2 LT ISZERO PUSH2 0x212B JUMPI DUP4 SLOAD DUP4 MSTORE PUSH1 0x1 SWAP4 DUP5 ADD SWAP4 SWAP3 DUP6 ADD SWAP3 ADD PUSH2 0x2451 JUMP JUMPDEST PUSH1 0x40 DUP2 ADD PUSH2 0x247B DUP3 DUP6 PUSH2 0x1FD4 JUMP JUMPDEST DUP3 PUSH1 0x20 DUP4 ADD MSTORE SWAP4 SWAP3 POP POP POP JUMP JUMPDEST PUSH1 0x1F DUP3 GT ISZERO PUSH2 0x24D2 JUMPI PUSH1 0x0 DUP2 DUP2 MSTORE PUSH1 0x20 DUP2 KECCAK256 PUSH1 0x1F DUP6 ADD PUSH1 0x5 SHR DUP2 ADD PUSH1 0x20 DUP7 LT ISZERO PUSH2 0x24AF JUMPI POP DUP1 JUMPDEST PUSH1 0x1F DUP6 ADD PUSH1 0x5 SHR DUP3 ADD SWAP2 POP JUMPDEST DUP2 DUP2 LT ISZERO PUSH2 0x24CE JUMPI DUP3 DUP2 SSTORE PUSH1 0x1 ADD PUSH2 0x24BB JUMP JUMPDEST POP POP POP JUMPDEST POP POP POP JUMP JUMPDEST DUP2 MLOAD PUSH8 0xFFFFFFFFFFFFFFFF DUP2 GT ISZERO PUSH2 0x24F1 JUMPI PUSH2 0x24F1 PUSH2 0x2219 JUMP JUMPDEST PUSH2 0x2505 DUP2 PUSH2 0x24FF DUP5 SLOAD PUSH2 0x22EA JUMP JUMPDEST DUP5 PUSH2 0x2488 JUMP JUMPDEST PUSH1 0x20 DUP1 PUSH1 0x1F DUP4 GT PUSH1 0x1 DUP2 EQ PUSH2 0x253A JUMPI PUSH1 0x0 DUP5 ISZERO PUSH2 0x2522 JUMPI POP DUP6 DUP4 ADD MLOAD JUMPDEST PUSH1 0x0 NOT PUSH1 0x3 DUP7 SWAP1 SHL SHR NOT AND PUSH1 0x1 DUP6 SWAP1 SHL OR DUP6 SSTORE PUSH2 0x24CE JUMP JUMPDEST PUSH1 0x0 DUP6 DUP2 MSTORE PUSH1 0x20 DUP2 KECCAK256 PUSH1 0x1F NOT DUP7 AND SWAP2 JUMPDEST DUP3 DUP2 LT ISZERO PUSH2 0x2569 JUMPI DUP9 DUP7 ADD MLOAD DUP3 SSTORE SWAP5 DUP5 ADD SWAP5 PUSH1 0x1 SWAP1 SWAP2 ADD SWAP1 DUP5 ADD PUSH2 0x254A JUMP JUMPDEST POP DUP6 DUP3 LT ISZERO PUSH2 0x2587 JUMPI DUP8 DUP6 ADD MLOAD PUSH1 0x0 NOT PUSH1 0x3 DUP9 SWAP1 SHL PUSH1 0xF8 AND SHR NOT AND DUP2 SSTORE JUMPDEST POP POP POP POP POP PUSH1 0x1 SWAP1 DUP2 SHL ADD SWAP1 SSTORE POP JUMP JUMPDEST PUSH4 0x4E487B71 PUSH1 0xE0 SHL PUSH1 0x0 MSTORE PUSH1 0x31 PUSH1 0x4 MSTORE PUSH1 0x24 PUSH1 0x0 REVERT INVALID LOG2 PUSH5 0x6970667358 0x22 SLT KECCAK256 SWAP6 0xC5 CALLDATASIZE 0xCC 0xDF DUP3 PUSH12 0x90347EE9B5C243E6F0E44468 PUSH12 0x24E9C1F615DCF01B3E862824 PUSH5 0x736F6C6343 STOP ADDMOD SGT STOP CALLER LOG2 PUSH5 0x6970667358 0x22 SLT KECCAK256 GASPRICE 0xCB 0xD5 0x2F 0xE0 0xF SUB DUP11 AND PUSH14 0x63E55E63831ADF1C55368AC073E0 DUP9 0xD2 RETURNDATASIZE 0x5E GAS SHL 0xDF 0xB3 PUSH5 0x736F6C6343 STOP ADDMOD SGT STOP CALLER "},"methodIdentifiers":{"addLivestreamToMarket(address,uint256,string)":"81b9052d","allMarkets(uint256)":"52d84d1e","createMarket(uint256[],string,string[])":"ba03c98a","getAllMarkets(uint256,uint256)":"47f234f6","getLivestreamsForMarket(address)":"2eb321af","getMarketCountForLivestream(uint256)":"0bdeb2a8","getMarketsForLivestream(uint256)":"d3601395","getTotalMarketCount()":"a0866e1f","isLivestreamInMarket(address,uint256)":"85b3259f","isValidMarket(address)":"58e6309f","livestreamMarkets(uint256,uint256)":"157e89d2","marketToLivestreams(address,uint256)":"c0880fcb","notifyMarketClosed(uint256[])":"abde02ee","owner()":"8da5cb5b","removeLivestreamFromMarket(address,uint256)":"259eedf1","transferOwnership(address)":"f2fde38b","validMarkets(address)":"adaf1c43"}}}}}