{"contracts/MarketFactory.sol":{"MarketFactory":{"abi":[{"inputs":[],"stateMutability":"nonpayable","type":"constructor"},{"anonymous":false,"inputs":[{"indexed":true,"internalType":"address","name":"marketAddress","type":"address"},{"indexed":true,"internalType":"uint256","name":"livestreamId","type":"uint256"}],"name":"LivestreamAddedToMarket","type":"event"},{"anonymous":false,"inputs":[{"indexed":true,"internalType":"address","name":"marketAddress","type":"address"},{"indexed":true,"internalType":"uint256","name":"livestreamId","type":"uint256"}],"name":"LivestreamRemovedFromMarket","type":"event"},{"anonymous":false,"inputs":[{"indexed":true,"internalType":"address","name":"marketAddress","type":"address"},{"indexed":false,"internalType":"uint256[]","name":"livestreamIds","type":"uint256[]"}],"name":"MarketClosed","type":"event"},{"anonymous":false,"inputs":[{"indexed":true,"internalType":"address","name":"marketAddress","type":"address"},{"indexed":false,"internalType":"uint256[]","name":"livestreamIds","type":"uint256[]"},{"indexed":false,"internalType":"string","name":"question","type":"string"}],"name":"MarketCreated","type":"event"},{"inputs":[{"internalType":"address","name":"marketAddress","type":"address"},{"internalType":"uint256","name":"livestreamId","type":"uint256"},{"internalType":"string","name":"livestreamTitle","type":"string"}],"name":"addLivestreamToMarket","outputs":[],"stateMutability":"nonpayable","type":"function"},{"inputs":[{"internalType":"uint256","name":"","type":"uint256"}],"name":"allMarkets","outputs":[{"internalType":"address","name":"","type":"address"}],"stateMutability":"view","type":"function"},{"inputs":[{"internalType":"uint256[]","name":"livestreamIds","type":"uint256[]"},{"internalType":"string","name":"question","type":"string"},{"internalType":"string[]","name":"livestreamTitles","type":"string[]"}],"name":"createMarket","outputs":[{"internalType":"address","name":"","type":"address"}],"stateMutability":"nonpayable","type":"function"},{"inputs":[{"internalType":"uint256","name":"offset","type":"uint256"},{"internalType":"uint256","name":"limit","type":"uint256"}],"name":"getAllMarkets","outputs":[{"internalType":"address[]","name":"","type":"address[]"}],"stateMutability":"view","type":"function"},{"inputs":[{"internalType":"address","name":"marketAddress","type":"address"}],"name":"getLivestreamsForMarket","outputs":[{"internalType":"uint256[]","name":"","type":"uint256[]"}],"stateMutability":"view","type":"function"},{"inputs":[{"internalType":"uint256","name":"livestreamId","type":"uint256"}],"name":"getMarketCountForLivestream","outputs":[{"internalType":"uint256","name":"","type":"uint256"}],"stateMutability":"view","type":"function"},{"inputs":[{"internalType":"uint256","name":"livestreamId","type":"uint256"}],"name":"getMarketsForLivestream","outputs":[{"internalType":"address[]","name":"","type":"address[]"}],"stateMutability":"view","type":"function"},{"inputs":[],"name":"getTotalMarketCount","outputs":[{"internalType":"uint256","name":"","type":"uint256"}],"stateMutability":"view","type":"function"},{"inputs":[{"internalType":"address","name":"marketAddress","type":"address"},{"internalType":"uint256","name":"livestreamId","type":"uint256"}],"name":"isLivestreamInMarket","outputs":[{"internalType":"bool","name":"","type":"bool"}],"stateMutability":"view","type":"function"},{"inputs":[{"internalType":"address","name":"marketAddress","type":"address"}],"name":"isValidMarket","outputs":[{"internalType":"bool","name":"","type":"bool"}],"stateMutability":"view","type":"function"},{"inputs":[{"internalType":"uint256","name":"","type":"uint256"},{"internalType":"uint256","name":"","type":"uint256"}],"name":"livestreamMarkets","outputs":[{"internalType":"address","name":"","type":"address"}],"stateMutability":"view","type":"function"},{"inputs":[{"internalType":"address","name":"","type":"address"},{"internalType":"uint256","name":"","type":"uint256"}],"name":"marketToLivestreams","outputs":[{"internalType":"uint256","name":"","type":"uint256"}],"stateMutability":"view","type":"function"},{"inputs":[{"internalType":"uint256[]","name":"livestreamIds","type":"uint256[]"}],"name":"notifyMarketClosed","outputs":[],"stateMutability":"nonpayable","type":"function"},{"inputs":[],"name":"owner","outputs":[{"internalType":"address","name":"","type":"address"}],"stateMutability":"view","type":"function"},{"inputs":[{"internalType":"address","name":"marketAddress","type":"address"},{"internalType":"uint256","name":"livestreamId","type":"uint256"}],"name":"removeLivestreamFromMarket","outputs":[],"stateMutability":"nonpayable","type":"function"},{"inputs":[{"internalType":"address","name":"newOwner","type":"address"}],"name":"transferOwnership","outputs":[],"stateMutability":"nonpayable","type":"function"},{"inputs":[{"internalType":"address","name":"","type":"address"}],"name":"validMarkets","outputs":[{"internalType":"bool","name":"","type":"bool"}],"stateMutability":"view","type":"function"}],"evm":{"bytecode":{"linkReferences":{},"object":"608060405234801561001057600080fd5b50600080546001600160a01b031916331790556144fe806100326000396000f3fe60806040523480156200001157600080fd5b5060043610620001215760003560e01c806385b3259f11620000af578063adaf1c43116200007a578063adaf1c4314620002aa578063ba03c98a14620002d0578063c0880fcb14620002e7578063d360139514620002fe578063f2fde38b146200031557600080fd5b806385b3259f146200025f5780638da5cb5b1462000276578063a0866e1f146200028a578063abde02ee146200029357600080fd5b806347f234f611620000f057806347f234f614620001cb57806352d84d1e14620001f157806358e6309f146200020857806381b9052d146200024857600080fd5b80630bdeb2a81462000126578063157e89d2146200015c578063259eedf1146200018c5780632eb321af14620001a5575b600080fd5b62000149620001373660046200105c565b60009081526001602052604090205490565b6040519081526020015b60405180910390f35b620001736200016d36600462001076565b6200032c565b6040516001600160a01b03909116815260200162000153565b620001a36200019d366004620010b6565b62000365565b005b620001bc620001b6366004620010e3565b6200067f565b60405162000153919062001145565b620001e2620001dc36600462001076565b62000729565b6040516200015391906200115a565b62000173620002023660046200105c565b6200087b565b6200023762000219366004620010e3565b6001600160a01b031660009081526002602052604090205460ff1690565b604051901515815260200162000153565b620001a3620002593660046200126a565b620008a6565b6200023762000270366004620010b6565b62000af1565b60005462000173906001600160a01b031681565b60045462000149565b620001a3620002a4366004620012c7565b62000bf2565b62000237620002bb366004620010e3565b60026020526000908152604090205460ff1681565b62000173620002e136600462001403565b62000c91565b62000149620002f8366004620010b6565b62000eaf565b620001e26200030f3660046200105c565b62000ee1565b620001a362000326366004620010e3565b62000f4e565b600160205281600052604060002081815481106200034957600080fd5b6000918252602090912001546001600160a01b03169150829050565b6000546001600160a01b031633146200039b5760405162461bcd60e51b81526004016200039290620014e5565b60405180910390fd5b6001600160a01b03821660009081526002602052604090205460ff16620003d65760405162461bcd60e51b8152600401620003929062001508565b60405163f6767adf60e01b81526004810182905282906001600160a01b0382169063f6767adf90602401600060405180830381600087803b1580156200041b57600080fd5b505af115801562000430573d6000803e3d6000fd5b5050506001600160a01b038416600090815260036020526040812091505b81548110156200051657838282815481106200046e576200046e62001530565b90600052602060002001540362000501578154829062000491906001906200155c565b81548110620004a457620004a462001530565b9060005260206000200154828281548110620004c457620004c462001530565b906000526020600020018190555081805480620004e557620004e562001572565b6001900381819060005260206000200160009055905562000516565b806200050d8162001588565b9150506200044e565b506000838152600160205260408120905b81548110156200064157856001600160a01b031682828154811062000550576200055062001530565b6000918252602090912001546001600160a01b0316036200062c57815482906200057d906001906200155c565b8154811062000590576200059062001530565b9060005260206000200160009054906101000a90046001600160a01b0316828281548110620005c357620005c362001530565b9060005260206000200160006101000a8154816001600160a01b0302191690836001600160a01b031602179055508180548062000604576200060462001572565b600082815260209020810160001990810180546001600160a01b031916905501905562000641565b80620006388162001588565b91505062000527565b5060405184906001600160a01b038716907fcbf7caf39a1fb00fc3f42633ffef8e45f2f89a52f6268ad6004067cdf995ceec90600090a35050505050565b6001600160a01b03811660009081526002602052604090205460609060ff16620006bd5760405162461bcd60e51b8152600401620003929062001508565b6001600160a01b038216600090815260036020908152604091829020805483518184028101840190945280845290918301828280156200071d57602002820191906000526020600020905b81548152602001906001019080831162000708575b50505050509050919050565b6004546060908310620007765760405162461bcd60e51b81526020600482015260146024820152734f6666736574206f7574206f6620626f756e647360601b604482015260640162000392565b6000620007848385620015a4565b6004549091508111156200079757506004545b6000620007a585836200155c565b67ffffffffffffffff811115620007c057620007c0620011a9565b604051908082528060200260200182016040528015620007ea578160200160208202803683370190505b509050845b828110156200087057600481815481106200080e576200080e62001530565b6000918252602090912001546001600160a01b0316826200083088846200155c565b8151811062000843576200084362001530565b6001600160a01b039092166020928302919091019091015280620008678162001588565b915050620007ef565b509150505b92915050565b600481815481106200088c57600080fd5b6000918252602090912001546001600160a01b0316905081565b6000546001600160a01b03163314620008d35760405162461bcd60e51b81526004016200039290620014e5565b6001600160a01b03831660009081526002602052604090205460ff166200090e5760405162461bcd60e51b8152600401620003929062001508565b6001600160a01b0383166000908152600360209081526040808320805482518185028101850190935280835291929091908301828280156200097057602002820191906000526020600020905b8154815260200190600101908083116200095b575b5050505050905060005b815181101562000a0657838282815181106200099a576200099a62001530565b602002602001015103620009f15760405162461bcd60e51b815260206004820152601c60248201527f4c69766573747265616d20616c726561647920696e206d61726b657400000000604482015260640162000392565b80620009fd8162001588565b9150506200097a565b50604051637b31302160e11b815284906001600160a01b0382169063f66260429062000a39908790879060040162001602565b600060405180830381600087803b15801562000a5457600080fd5b505af115801562000a69573d6000803e3d6000fd5b5050506001600160a01b0386166000818152600360209081526040808320805460018181018355918552838520018a905589845280835281842080549182018155845291832090910180546001600160a01b03191684179055518793507f6127fc1c17ab50644b01500e2695f4bf65a21ba6142c41adf59a6dda58b2f70a9190a35050505050565b6001600160a01b03821660009081526002602052604081205460ff1662000b2c5760405162461bcd60e51b8152600401620003929062001508565b6001600160a01b03831660009081526003602090815260408083208054825181850281018501909352808352919290919083018282801562000b8e57602002820191906000526020600020905b81548152602001906001019080831162000b79575b5050505050905060005b815181101562000be7578382828151811062000bb85762000bb862001530565b60200260200101510362000bd25760019250505062000875565b8062000bde8162001588565b91505062000b98565b506000949350505050565b3360009081526002602052604090205460ff1662000c485760405162461bcd60e51b8152602060048201526012602482015271139bdd0818481d985b1a59081b585c9ad95d60721b604482015260640162000392565b336001600160a01b03167f7b4e9fd00806836220e4a818c7309fe732def7f454ef846365fe7cbbc98523c1838360405162000c8592919062001625565b60405180910390a25050565b600080546001600160a01b0316331462000cbf5760405162461bcd60e51b81526004016200039290620014e5565b815184511462000d065760405162461bcd60e51b81526020600482015260116024820152704d69736d6174636865642061727261797360781b604482015260640162000392565b600080546040518691869186916001600160a01b03169062000d289062000fe7565b62000d3794939291906200165f565b604051809103906000f08015801562000d54573d6000803e3d6000fd5b506001600160a01b0381166000908152600260209081526040808320805460ff19166001179055600382529091208751929350839262000d979289019062000ff5565b506004805460018101825560009182527f8a35acfbc15ff81a39ae7d344fd709f28e8600b4aa8c65c6b64bfe7fe36bd19b0180546001600160a01b0319166001600160a01b0384161790555b865181101562000e60576001600088838151811062000e065762000e0662001530565b602090810291909101810151825281810192909252604001600090812080546001810182559082529190200180546001600160a01b0319166001600160a01b0384161790558062000e578162001588565b91505062000de3565b50806001600160a01b03167f3517a251317e3fa9c98b00782d0e6aa696cb161a2279039a18ad646e1e4853a9878760405162000e9e92919062001703565b60405180910390a295945050505050565b6003602052816000526040600020818154811062000ecc57600080fd5b90600052602060002001600091509150505481565b6000818152600160209081526040918290208054835181840281018401909452808452606093928301828280156200071d57602002820191906000526020600020905b81546001600160a01b0316815260019091019060200180831162000f245750505050509050919050565b6000546001600160a01b0316331462000f7b5760405162461bcd60e51b81526004016200039290620014e5565b6001600160a01b03811662000fc55760405162461bcd60e51b815260206004820152600f60248201526e496e76616c6964206164647265737360881b604482015260640162000392565b600080546001600160a01b0319166001600160a01b0392909216919091179055565b612d93806200173683390190565b82805482825590600052602060002090810192821562001033579160200282015b828111156200103357825182559160200191906001019062001016565b506200104192915062001045565b5090565b5b8082111562001041576000815560010162001046565b6000602082840312156200106f57600080fd5b5035919050565b600080604083850312156200108a57600080fd5b50508035926020909101359150565b80356001600160a01b0381168114620010b157600080fd5b919050565b60008060408385031215620010ca57600080fd5b620010d58362001099565b946020939093013593505050565b600060208284031215620010f657600080fd5b620011018262001099565b9392505050565b600081518084526020808501945080840160005b838110156200113a578151875295820195908201906001016200111c565b509495945050505050565b60208152600062001101602083018462001108565b6020808252825182820181905260009190848201906040850190845b818110156200119d5783516001600160a01b03168352928401929184019160010162001176565b50909695505050505050565b634e487b7160e01b600052604160045260246000fd5b604051601f8201601f1916810167ffffffffffffffff81118282101715620011eb57620011eb620011a9565b604052919050565b600082601f8301126200120557600080fd5b813567ffffffffffffffff811115620012225762001222620011a9565b62001237601f8201601f1916602001620011bf565b8181528460208386010111156200124d57600080fd5b816020850160208301376000918101602001919091529392505050565b6000806000606084860312156200128057600080fd5b6200128b8462001099565b925060208401359150604084013567ffffffffffffffff811115620012af57600080fd5b620012bd86828701620011f3565b9150509250925092565b60008060208385031215620012db57600080fd5b823567ffffffffffffffff80821115620012f457600080fd5b818501915085601f8301126200130957600080fd5b8135818111156200131957600080fd5b8660208260051b85010111156200132f57600080fd5b60209290920196919550909350505050565b600067ffffffffffffffff8211156200135e576200135e620011a9565b5060051b60200190565b600082601f8301126200137a57600080fd5b81356020620013936200138d8362001341565b620011bf565b82815260059290921b84018101918181019086841115620013b357600080fd5b8286015b84811015620013f857803567ffffffffffffffff811115620013d95760008081fd5b620013e98986838b0101620011f3565b845250918301918301620013b7565b509695505050505050565b6000806000606084860312156200141957600080fd5b833567ffffffffffffffff808211156200143257600080fd5b818601915086601f8301126200144757600080fd5b813560206200145a6200138d8362001341565b82815260059290921b8401810191818101908a8411156200147a57600080fd5b948201945b838610156200149a578535825294820194908201906200147f565b97505087013592505080821115620014b157600080fd5b620014bf87838801620011f3565b93506040860135915080821115620014d657600080fd5b50620012bd8682870162001368565b6020808252600990820152682737ba1037bbb732b960b91b604082015260600190565b6020808252600e908201526d125b9d985b1a59081b585c9ad95d60921b604082015260600190565b634e487b7160e01b600052603260045260246000fd5b634e487b7160e01b600052601160045260246000fd5b8181038181111562000875576200087562001546565b634e487b7160e01b600052603160045260246000fd5b6000600182016200159d576200159d62001546565b5060010190565b8082018082111562000875576200087562001546565b6000815180845260005b81811015620015e257602081850181015186830182015201620015c4565b506000602082860101526020601f19601f83011685010191505092915050565b8281526040602082015260006200161d6040830184620015ba565b949350505050565b6020808252810182905260006001600160fb1b038311156200164657600080fd5b8260051b80856040850137919091016040019392505050565b60808152600062001674608083018762001108565b602083820381850152620016898288620015ba565b915083820360408501528186518084528284019150828160051b85010183890160005b83811015620016de57601f19878403018552620016cb838351620015ba565b94860194925090850190600101620016ac565b50506001600160a01b0397909716606096909601959095525093979650505050505050565b60408152600062001718604083018562001108565b82810360208401526200172c8185620015ba565b9594505050505056fe60806040523480156200001157600080fd5b5060405162002d9338038062002d9383398101604081905262000034916200043c565b81518451146200007f5760405162461bcd60e51b81526020600482015260116024820152704d69736d6174636865642061727261797360781b60448201526064015b60405180910390fd5b60026200008d8482620005cc565b50600380546001600160a01b0319166001600160a01b038316179055600480546001600160a81b0319163360ff60a01b19161790554260065560005b84518110156200027e576000858281518110620000ea57620000ea62000698565b6020026020010151905080600003620001465760405162461bcd60e51b815260206004820152601560248201527f496e76616c6964206c69766573747265616d2049440000000000000000000000604482015260640162000076565b60008181526020819052604090206002015460ff1615620001aa5760405162461bcd60e51b815260206004820152601960248201527f4c69766573747265616d20616c72656164792065786973747300000000000000604482015260640162000076565b6040518060800160405280828152602001858481518110620001d057620001d062000698565b602090810291909101810151825260018282018190524260409384015260008581528083529290922083518155908301519091820190620002129082620005cc565b50604082015160028201805460ff19169115159190911790556060909101516003909101556001805480820182556000919091527fb10e2d527612073b26eecdfd717e6a320cf44b4afac2b0732d9fcbe2b7fa0cf60155806200027581620006ae565b915050620000c9565b5050505050620006d6565b634e487b7160e01b600052604160045260246000fd5b604051601f8201601f191681016001600160401b0381118282101715620002ca57620002ca62000289565b604052919050565b60006001600160401b03821115620002ee57620002ee62000289565b5060051b60200190565b600082601f8301126200030a57600080fd5b81516001600160401b0381111562000326576200032662000289565b60206200033c601f8301601f191682016200029f565b82815285828487010111156200035157600080fd5b60005b838110156200037157858101830151828201840152820162000354565b506000928101909101919091529392505050565b600082601f8301126200039757600080fd5b81516020620003b0620003aa83620002d2565b6200029f565b82815260059290921b84018101918181019086841115620003d057600080fd5b8286015b84811015620004145780516001600160401b03811115620003f55760008081fd5b620004058986838b0101620002f8565b845250918301918301620003d4565b509695505050505050565b80516001600160a01b03811681146200043757600080fd5b919050565b600080600080608085870312156200045357600080fd5b84516001600160401b03808211156200046b57600080fd5b818701915087601f8301126200048057600080fd5b8151602062000493620003aa83620002d2565b82815260059290921b8401810191818101908b841115620004b357600080fd5b948201945b83861015620004d357855182529482019490820190620004b8565b918a0151919850909350505080821115620004ed57600080fd5b620004fb88838901620002f8565b945060408701519150808211156200051257600080fd5b50620005218782880162000385565b92505062000532606086016200041f565b905092959194509250565b600181811c908216806200055257607f821691505b6020821081036200057357634e487b7160e01b600052602260045260246000fd5b50919050565b601f821115620005c757600081815260208120601f850160051c81016020861015620005a25750805b601f850160051c820191505b81811015620005c357828155600101620005ae565b5050505b505050565b81516001600160401b03811115620005e857620005e862000289565b6200060081620005f984546200053d565b8462000579565b602080601f8311600181146200063857600084156200061f5750858301515b600019600386901b1c1916600185901b178555620005c3565b600085815260208120601f198616915b82811015620006695788860151825594840194600190910190840162000648565b5085821015620006885787850151600019600388901b60f8161c191681555b5050505050600190811b01905550565b634e487b7160e01b600052603260045260246000fd5b600060018201620006cf57634e487b7160e01b600052601160045260246000fd5b5060010190565b6126ad80620006e66000396000f3fe6080604052600436106101c25760003560e01c80638d6dabc0116100f7578063d2b2e97311610095578063f15d34bd11610064578063f15d34bd14610563578063f5bbcd2a14610583578063f662604214610599578063f6767adf146105b957600080fd5b8063d2b2e97314610502578063dcf6e03714610522578063e88499a914610538578063ecfb49a31461054d57600080fd5b8063c19d93fb116100d1578063c19d93fb14610489578063c45a0155146104b7578063c511ed5e146104d7578063cf09e0d0146104ec57600080fd5b80638d6dabc0146104165780639ef27b0014610453578063b72c923e1461046957600080fd5b80633482b644116101645780634a39ec901161013e5780634a39ec90146103795780636399d03d146103b15780637dc0d1d0146103d157806385387382146103f157600080fd5b80633482b644146102f2578063374c6e1c1461032a5780633fad9ae01461035757600080fd5b806319effeb4116101a057806319effeb4146102555780631be4f49d1461027957806323341a05146102995780632d56657d146102c457600080fd5b806301e5c96e146101c757806310fe7c4814610200578063136f101614610215575b600080fd5b3480156101d357600080fd5b506101e76101e2366004611fdf565b6105d9565b6040516101f7949392919061203e565b60405180910390f35b61021361020e366004611fdf565b61068e565b005b34801561022157600080fd5b50610245610230366004612086565b600c6020526000908152604090205460ff1681565b60405190151581526020016101f7565b34801561026157600080fd5b5061026b60085481565b6040519081526020016101f7565b34801561028557600080fd5b506102136102943660046120be565b610970565b3480156102a557600080fd5b506102ae610acc565b6040516101f79a99989796959493929190612244565b3480156102d057600080fd5b506102e46102df366004612086565b610d50565b6040516101f79291906122c5565b3480156102fe57600080fd5b5061031261030d366004611fdf565b610f28565b6040516001600160a01b0390911681526020016101f7565b34801561033657600080fd5b5061026b610345366004611fdf565b600a6020526000908152604090205481565b34801561036357600080fd5b5061036c610f52565b6040516101f791906122f3565b34801561038557600080fd5b5061026b610394366004612306565b600960209081526000928352604080842090915290825290205481565b3480156103bd57600080fd5b506102136103cc366004611fdf565b610fe0565b3480156103dd57600080fd5b50600354610312906001600160a01b031681565b3480156103fd57600080fd5b50610406611157565b6040516101f79493929190612330565b34801561042257600080fd5b50610436610431366004611fdf565b6114da565b6040805193845260208401929092521515908201526060016101f7565b34801561045f57600080fd5b5061026b60075481565b34801561047557600080fd5b5061026b610484366004611fdf565b611592565b34801561049557600080fd5b506004546104aa90600160a01b900460ff1681565b6040516101f79190612388565b3480156104c357600080fd5b50600454610312906001600160a01b031681565b3480156104e357600080fd5b506102136115b3565b3480156104f857600080fd5b5061026b60065481565b34801561050e57600080fd5b506101e761051d366004611fdf565b6116cd565b34801561052e57600080fd5b5061026b60055481565b34801561054457600080fd5b506102136117cd565b34801561055957600080fd5b5061026b600b5481565b34801561056f57600080fd5b5061021361057e3660046120be565b6119ba565b34801561058f57600080fd5b5061026b600e5481565b3480156105a557600080fd5b506102136105b43660046120be565b611ce5565b3480156105c557600080fd5b506102136105d4366004611fdf565b611e17565b600060208190529081526040902080546001820180549192916105fb9061239c565b80601f01602080910402602001604051908101604052809291908181526020018280546106279061239c565b80156106745780601f1061064957610100808354040283529160200191610674565b820191906000526020600020905b81548152906001019060200180831161065757829003601f168201915b505050506002830154600390930154919260ff1691905084565b600080600454600160a01b900460ff1660028111156106af576106af61220c565b146106d55760405162461bcd60e51b81526004016106cc906123d6565b60405180910390fd5b600034116107155760405162461bcd60e51b815260206004820152600d60248201526c09aeae6e840e6cadcc8408aa89609b1b60448201526064016106cc565b600082116107355760405162461bcd60e51b81526004016106cc906123fd565b600082815260208190526040812054900361083e576040516850726f6a656374202360b81b60208201526029810183905260009060490160408051601f198184030181526080830182528583526020838101828152600185850181905242606087015260008981529283905293909120845181559051919450918201906107bc9082612472565b5060408281015160028301805460ff19169115159190911790556060909201516003909101556001805480820182556000919091527fb10e2d527612073b26eecdfd717e6a320cf44b4afac2b0732d9fcbe2b7fa0cf601849055518390600080516020612658833981519152906108349084906122f3565b60405180910390a2505b336000908152600c602052604090205460ff166108c557336000818152600c60205260408120805460ff19166001908117909155600d8054918201815582527fd7b6990105719101dabeb77144f2a3385c8033acd3af97e9423a695e81ad1eb50180546001600160a01b031916909217909155600e8054916108bf83612548565b91905055505b336000908152600960209081526040808320858452909152812080543492906108ef908490612561565b90915550506000828152600a602052604081208054349290610912908490612561565b9250508190555034600b600082825461092b9190612561565b909155505060408051348152426020820152839133917f7363e6581df4db69463222156be4a09656528b9f1302890fa4c0b60819b69fc6910160405180910390a35050565b6003546001600160a01b0316331461099a5760405162461bcd60e51b81526004016106cc90612574565b600080600454600160a01b900460ff1660028111156109bb576109bb61220c565b146109d85760405162461bcd60e51b81526004016106cc906123d6565b6000838152602081905260408120549003610a2c5760405162461bcd60e51b8152602060048201526014602482015273131a5d995cdd1c99585b481b9bdd08199bdd5b9960621b60448201526064016106cc565b60008381526020819052604090206002015460ff16610a855760405162461bcd60e51b81526020600482015260156024820152744c69766573747265616d206e6f742061637469766560581b60448201526064016106cc565b6000838152602081905260409020600101610aa08382612472565b508260008051602061265883398151915283604051610abf91906122f3565b60405180910390a2505050565b606080606060008060008060008060008060018054905067ffffffffffffffff811115610afb57610afb6120a8565b604051908082528060200260200182016040528015610b2e57816020015b6060815260200190600190039081610b195790505b50905060005b600154811015610c295760008060018381548110610b5457610b54612598565b906000526020600020015481526020019081526020016000206001018054610b7b9061239c565b80601f0160208091040260200160405190810160405280929190818152602001828054610ba79061239c565b8015610bf45780601f10610bc957610100808354040283529160200191610bf4565b820191906000526020600020905b815481529060010190602001808311610bd757829003601f168201915b5050505050828281518110610c0b57610c0b612598565b60200260200101819052508080610c2190612548565b915050610b34565b506001600282600460149054906101000a900460ff16600554600b54600e5460065460075460085489805480602002602001604051908101604052809291908181526020018280548015610c9c57602002820191906000526020600020905b815481526020019060010190808311610c88575b50505050509950888054610caf9061239c565b80601f0160208091040260200160405190810160405280929190818152602001828054610cdb9061239c565b8015610d285780601f10610cfd57610100808354040283529160200191610d28565b820191906000526020600020905b815481529060010190602001808311610d0b57829003601f168201915b505050505098509a509a509a509a509a509a509a509a509a509a505090919293949596979899565b6060806000805b600154811015610dbe5760008060018381548110610d7757610d77612598565b6000918252602080832090910154835282019290925260400190206002015460ff1615610dac5781610da881612548565b9250505b80610db681612548565b915050610d57565b5060008167ffffffffffffffff811115610dda57610dda6120a8565b604051908082528060200260200182016040528015610e03578160200160208202803683370190505b50905060008267ffffffffffffffff811115610e2157610e216120a8565b604051908082528060200260200182016040528015610e4a578160200160208202803683370190505b5090506000805b600154811015610f1b57600060018281548110610e7057610e70612598565b60009182526020808320909101548083529082905260409091206002015490915060ff1615610f085780858481518110610eac57610eac612598565b6020908102919091018101919091526001600160a01b038a16600090815260098252604080822084835290925220548451859085908110610eef57610eef612598565b602090810291909101015282610f0481612548565b9350505b5080610f1381612548565b915050610e51565b5091969095509350505050565b600d8181548110610f3857600080fd5b6000918252602090912001546001600160a01b0316905081565b60028054610f5f9061239c565b80601f0160208091040260200160405190810160405280929190818152602001828054610f8b9061239c565b8015610fd85780601f10610fad57610100808354040283529160200191610fd8565b820191906000526020600020905b815481529060010190602001808311610fbb57829003601f168201915b505050505081565b6003546001600160a01b0316331461100a5760405162461bcd60e51b81526004016106cc90612574565b600180600454600160a01b900460ff16600281111561102b5761102b61220c565b146110485760405162461bcd60e51b81526004016106cc906123d6565b60008281526020819052604081205490036110a55760405162461bcd60e51b815260206004820152601a60248201527f496e76616c69642077696e6e696e67206c69766573747265616d00000000000060448201526064016106cc565b6000828152600a60205260409020546111005760405162461bcd60e51b815260206004820152601a60248201527f4e6f2062657473206f6e2074686973206c69766573747265616d00000000000060448201526064016106cc565b60058290556004805460ff60a01b1916600160a11b179055426008819055604080519182525183917f6dfc24f0f2fb42e49fb4fa3ffa8abb148cab908a1fb8335b3f128a08b2594af1919081900360200190a25050565b6060806060806000805b6001548110156111c8576000806001838154811061118157611181612598565b6000918252602080832090910154835282019290925260400190206002015460ff16156111b657816111b281612548565b9250505b806111c081612548565b915050611161565b5060008167ffffffffffffffff8111156111e4576111e46120a8565b60405190808252806020026020018201604052801561120d578160200160208202803683370190505b50905060008267ffffffffffffffff81111561122b5761122b6120a8565b60405190808252806020026020018201604052801561125e57816020015b60608152602001906001900390816112495790505b50905060008367ffffffffffffffff81111561127c5761127c6120a8565b6040519080825280602002602001820160405280156112a5578160200160208202803683370190505b50905060008467ffffffffffffffff8111156112c3576112c36120a8565b6040519080825280602002602001820160405280156112ec578160200160208202803683370190505b5090506000805b6001548110156114c95760006001828154811061131257611312612598565b60009182526020808320909101548083529082905260409091206002015490915060ff16156114b6578087848151811061134e5761134e612598565b602002602001018181525050600080828152602001908152602001600020600101805461137a9061239c565b80601f01602080910402602001604051908101604052809291908181526020018280546113a69061239c565b80156113f35780601f106113c8576101008083540402835291602001916113f3565b820191906000526020600020905b8154815290600101906020018083116113d657829003601f168201915b505050505086848151811061140a5761140a612598565b6020026020010181905250600a60008281526020019081526020016000205485848151811061143b5761143b612598565b6020026020010181815250506000600b541161145857600061148b565b600b5485848151811061146d5761146d612598565b6020026020010151606461148191906125ae565b61148b91906125c5565b84848151811061149d5761149d612598565b6020908102919091010152826114b281612548565b9350505b50806114c181612548565b9150506112f3565b509399929850909650945092505050565b6000818152602081905260408120600201548190819060ff166115375760405162461bcd60e51b81526020600482015260156024820152744c69766573747265616d206e6f742061637469766560581b60448201526064016106cc565b6000848152600a6020526040812054600b5490919061155757600061156f565b600b546115658360646125ae565b61156f91906125c5565b60009687526020879052604090962060020154919660ff90921694509092505050565b600181815481106115a257600080fd5b600091825260209091200154905081565b6003546001600160a01b031633146115dd5760405162461bcd60e51b81526004016106cc90612574565b600080600454600160a01b900460ff1660028111156115fe576115fe61220c565b1461161b5760405162461bcd60e51b81526004016106cc906123d6565b60048054600160a01b60ff60a01b198216178255426007556040516355ef017760e11b81526001600160a01b039091169163abde02ee9161165f91600191016125e7565b600060405180830381600087803b15801561167957600080fd5b505af115801561168d573d6000803e3d6000fd5b505050507f9dc30b8eda31a6a144e092e5de600955523a6a925cc15cc1d1b9b4872cfa6155426040516116c291815260200190565b60405180910390a150565b6000606060008060008060008781526020019081526020016000206040518060800160405290816000820154815260200160018201805461170d9061239c565b80601f01602080910402602001604051908101604052809291908181526020018280546117399061239c565b80156117865780601f1061175b57610100808354040283529160200191611786565b820191906000526020600020905b81548152906001019060200180831161176957829003601f168201915b5050509183525050600282015460ff161515602080830191909152600390920154604091820152825191830151908301516060909301519199909850919650945092505050565b600280600454600160a01b900460ff1660028111156117ee576117ee61220c565b1461180b5760405162461bcd60e51b81526004016106cc906123d6565b3360009081526009602090815260408083206005548452909152902054806118665760405162461bcd60e51b815260206004820152600e60248201526d139bc81dda5b9b9a5b99c818995d60921b60448201526064016106cc565b6005546000908152600a6020526040902054806118b75760405162461bcd60e51b815260206004820152600f60248201526e4e6f2077696e6e696e67206265747360881b60448201526064016106cc565b600081600b54846118c891906125ae565b6118d291906125c5565b3360008181526009602090815260408083206005548452909152808220829055519293509183908381818185875af1925050503d8060008114611931576040519150601f19603f3d011682016040523d82523d6000602084013e611936565b606091505b50509050806119795760405162461bcd60e51b815260206004820152600f60248201526e151c985b9cd9995c8819985a5b1959608a1b60448201526064016106cc565b6040805183815242602082015233917f0408e6e0b73daf4c873106e95fd067260fbff8bf9d1b499cad563d4480d45bac910160405180910390a25050505050565b600080600454600160a01b900460ff1660028111156119db576119db61220c565b146119f85760405162461bcd60e51b81526004016106cc906123d6565b60008311611a185760405162461bcd60e51b81526004016106cc906123fd565b6000825111611a615760405162461bcd60e51b81526020600482015260156024820152745469746c652063616e6e6f7420626520656d70747960581b60448201526064016106cc565b6000838152602081905260408120549003611b36576040805160808101825284815260208082018581526001838501819052426060850152600088815292839052939091208251815590519192909190820190611abe9082612472565b5060408281015160028301805460ff19169115159190911790556060909201516003909101556001805480820182556000919091527fb10e2d527612073b26eecdfd717e6a320cf44b4afac2b0732d9fcbe2b7fa0cf60184905551839060008051602061265883398151915290610abf9085906122f3565b60008381526020819052604090206002015460ff1615611ce05760008381526020819052604081206001018054611b6c9061239c565b80601f0160208091040260200160405190810160405280929190818152602001828054611b989061239c565b8015611be55780601f10611bba57610100808354040283529160200191611be5565b820191906000526020600020905b815481529060010190602001808311611bc857829003601f168201915b5050505050905060006040518060400160405280600981526020016850726f6a656374202360b81b81525090508051825110611cdd57600160005b8251811015611c9157828181518110611c3b57611c3b612598565b602001015160f81c60f81b6001600160f81b031916848281518110611c6257611c62612598565b01602001516001600160f81b03191614611c7f5760009150611c91565b80611c8981612548565b915050611c20565b508015611cdb576000868152602081905260409020600101611cb38682612472565b508560008051602061265883398151915286604051611cd291906122f3565b60405180910390a25b505b50505b505050565b6003546001600160a01b03163314611d0f5760405162461bcd60e51b81526004016106cc90612574565b600080600454600160a01b900460ff166002811115611d3057611d3061220c565b14611d4d5760405162461bcd60e51b81526004016106cc906123d6565b82600003611d6d5760405162461bcd60e51b81526004016106cc906123fd565b60008381526020819052604090206002015460ff1615611dcf5760405162461bcd60e51b815260206004820152601960248201527f4c69766573747265616d20616c7265616479206578697374730000000000000060448201526064016106cc565b6040805160808101825284815260208082018581526001838501819052426060850152600088815292839052939091208251815590519192909190820190611abe9082612472565b6003546001600160a01b03163314611e415760405162461bcd60e51b81526004016106cc90612574565b600080600454600160a01b900460ff166002811115611e6257611e6261220c565b14611e7f5760405162461bcd60e51b81526004016106cc906123d6565b60008281526020819052604090206002015460ff16611ee05760405162461bcd60e51b815260206004820181905260248201527f4c69766573747265616d206e6f7420666f756e64206f7220696e61637469766560448201526064016106cc565b6000828152602081905260408120600201805460ff191690555b600154811015611faf578260018281548110611f1857611f18612598565b906000526020600020015403611f9d5760018054611f3790829061262e565b81548110611f4757611f47612598565b906000526020600020015460018281548110611f6557611f65612598565b6000918252602090912001556001805480611f8257611f82612641565b60019003818190600052602060002001600090559055611faf565b80611fa781612548565b915050611efa565b5060405182907f799598b7447b0eb8c73a9499876bc1798cdf2a050595baeed5c560a8722b278e90600090a25050565b600060208284031215611ff157600080fd5b5035919050565b6000815180845260005b8181101561201e57602081850181015186830182015201612002565b506000602082860101526020601f19601f83011685010191505092915050565b8481526080602082015260006120576080830186611ff8565b9315156040830152506060015292915050565b80356001600160a01b038116811461208157600080fd5b919050565b60006020828403121561209857600080fd5b6120a18261206a565b9392505050565b634e487b7160e01b600052604160045260246000fd5b600080604083850312156120d157600080fd5b82359150602083013567ffffffffffffffff808211156120f057600080fd5b818501915085601f83011261210457600080fd5b813581811115612116576121166120a8565b604051601f8201601f19908116603f0116810190838211818310171561213e5761213e6120a8565b8160405282815288602084870101111561215757600080fd5b8260208601602083013760006020848301015280955050505050509250929050565b600081518084526020808501945080840160005b838110156121a95781518752958201959082019060010161218d565b509495945050505050565b600082825180855260208086019550808260051b84010181860160005b848110156121ff57601f198684030189526121ed838351611ff8565b988401989250908301906001016121d1565b5090979650505050505050565b634e487b7160e01b600052602160045260246000fd5b6003811061224057634e487b7160e01b600052602160045260246000fd5b9052565b60006101408083526122588184018e612179565b9050828103602084015261226c818d611ff8565b90508281036040840152612280818c6121b4565b915050612290606083018a612222565b8760808301528660a08301528560c08301528460e083015283610100830152826101208301529b9a5050505050505050505050565b6040815260006122d86040830185612179565b82810360208401526122ea8185612179565b95945050505050565b6020815260006120a16020830184611ff8565b6000806040838503121561231957600080fd5b6123228361206a565b946020939093013593505050565b6080815260006123436080830187612179565b828103602084015261235581876121b4565b905082810360408401526123698186612179565b9050828103606084015261237d8185612179565b979650505050505050565b602081016123968284612222565b92915050565b600181811c908216806123b057607f821691505b6020821081036123d057634e487b7160e01b600052602260045260246000fd5b50919050565b6020808252600d908201526c496e76616c696420737461746560981b604082015260600190565b602080825260159082015274125b9d985b1a59081b1a5d995cdd1c99585b481251605a1b604082015260600190565b601f821115611ce057600081815260208120601f850160051c810160208610156124535750805b601f850160051c820191505b81811015611cdb5782815560010161245f565b815167ffffffffffffffff81111561248c5761248c6120a8565b6124a08161249a845461239c565b8461242c565b602080601f8311600181146124d557600084156124bd5750858301515b600019600386901b1c1916600185901b178555611cdb565b600085815260208120601f198616915b82811015612504578886015182559484019460019091019084016124e5565b50858210156125225787850151600019600388901b60f8161c191681555b5050505050600190811b01905550565b634e487b7160e01b600052601160045260246000fd5b60006001820161255a5761255a612532565b5060010190565b8082018082111561239657612396612532565b6020808252600a90820152694e6f74206f7261636c6560b01b604082015260600190565b634e487b7160e01b600052603260045260246000fd5b808202811582820484141761239657612396612532565b6000826125e257634e487b7160e01b600052601260045260246000fd5b500490565b6020808252825482820181905260008481528281209092916040850190845b8181101561262257835483526001938401939285019201612606565b50909695505050505050565b8181038181111561239657612396612532565b634e487b7160e01b600052603160045260246000fdfebad020c4dc5e670ec5b6ea36d7cc02f852551d9ccc04429028af440b4c7ce148a2646970667358221220e269e677762beadcf478cc346ccd88df46c9dfc7a4d429ee4171ff369da8632664736f6c63430008130033a264697066735822122002fff9542c55be77cb67b4e8479882817d69d2083a367e5cda66e048fd794eb264736f6c63430008130033","opcodes":"PUSH1 0x80 PUSH1 0x40 MSTORE CALLVALUE DUP1 ISZERO PUSH2 0x10 JUMPI PUSH1 0x0 DUP1 REVERT JUMPDEST POP PUSH1 0x0 DUP1 SLOAD PUSH1 0x1 PUSH1 0x1 PUSH1 0xA0 SHL SUB NOT AND CALLER OR SWAP1 SSTORE PUSH2 0x44FE DUP1 PUSH2 0x32 PUSH1 0x0 CODECOPY PUSH1 0x0 RETURN INVALID PUSH1 0x80 PUSH1 0x40 MSTORE CALLVALUE DUP1 ISZERO PUSH3 0x11 JUMPI PUSH1 0x0 DUP1 REVERT JUMPDEST POP PUSH1 0x4 CALLDATASIZE LT PUSH3 0x121 JUMPI PUSH1 0x0 CALLDATALOAD PUSH1 0xE0 SHR DUP1 PUSH4 0x85B3259F GT PUSH3 0xAF JUMPI DUP1 PUSH4 0xADAF1C43 GT PUSH3 0x7A JUMPI DUP1 PUSH4 0xADAF1C43 EQ PUSH3 0x2AA JUMPI DUP1 PUSH4 0xBA03C98A EQ PUSH3 0x2D0 JUMPI DUP1 PUSH4 0xC0880FCB EQ PUSH3 0x2E7 JUMPI DUP1 PUSH4 0xD3601395 EQ PUSH3 0x2FE JUMPI DUP1 PUSH4 0xF2FDE38B EQ PUSH3 0x315 JUMPI PUSH1 0x0 DUP1 REVERT JUMPDEST DUP1 PUSH4 0x85B3259F EQ PUSH3 0x25F JUMPI DUP1 PUSH4 0x8DA5CB5B EQ PUSH3 0x276 JUMPI DUP1 PUSH4 0xA0866E1F EQ PUSH3 0x28A JUMPI DUP1 PUSH4 0xABDE02EE EQ PUSH3 0x293 JUMPI PUSH1 0x0 DUP1 REVERT JUMPDEST DUP1 PUSH4 0x47F234F6 GT PUSH3 0xF0 JUMPI DUP1 PUSH4 0x47F234F6 EQ PUSH3 0x1CB JUMPI DUP1 PUSH4 0x52D84D1E EQ PUSH3 0x1F1 JUMPI DUP1 PUSH4 0x58E6309F EQ PUSH3 0x208 JUMPI DUP1 PUSH4 0x81B9052D EQ PUSH3 0x248 JUMPI PUSH1 0x0 DUP1 REVERT JUMPDEST DUP1 PUSH4 0xBDEB2A8 EQ PUSH3 0x126 JUMPI DUP1 PUSH4 0x157E89D2 EQ PUSH3 0x15C JUMPI DUP1 PUSH4 0x259EEDF1 EQ PUSH3 0x18C JUMPI DUP1 PUSH4 0x2EB321AF EQ PUSH3 0x1A5 JUMPI JUMPDEST PUSH1 0x0 DUP1 REVERT JUMPDEST PUSH3 0x149 PUSH3 0x137 CALLDATASIZE PUSH1 0x4 PUSH3 0x105C JUMP JUMPDEST PUSH1 0x0 SWAP1 DUP2 MSTORE PUSH1 0x1 PUSH1 0x20 MSTORE PUSH1 0x40 SWAP1 KECCAK256 SLOAD SWAP1 JUMP JUMPDEST PUSH1 0x40 MLOAD SWAP1 DUP2 MSTORE PUSH1 0x20 ADD JUMPDEST PUSH1 0x40 MLOAD DUP1 SWAP2 SUB SWAP1 RETURN JUMPDEST PUSH3 0x173 PUSH3 0x16D CALLDATASIZE PUSH1 0x4 PUSH3 0x1076 JUMP JUMPDEST PUSH3 0x32C JUMP JUMPDEST PUSH1 0x40 MLOAD PUSH1 0x1 PUSH1 0x1 PUSH1 0xA0 SHL SUB SWAP1 SWAP2 AND DUP2 MSTORE PUSH1 0x20 ADD PUSH3 0x153 JUMP JUMPDEST PUSH3 0x1A3 PUSH3 0x19D CALLDATASIZE PUSH1 0x4 PUSH3 0x10B6 JUMP JUMPDEST PUSH3 0x365 JUMP JUMPDEST STOP JUMPDEST PUSH3 0x1BC PUSH3 0x1B6 CALLDATASIZE PUSH1 0x4 PUSH3 0x10E3 JUMP JUMPDEST PUSH3 0x67F JUMP JUMPDEST PUSH1 0x40 MLOAD PUSH3 0x153 SWAP2 SWAP1 PUSH3 0x1145 JUMP JUMPDEST PUSH3 0x1E2 PUSH3 0x1DC CALLDATASIZE PUSH1 0x4 PUSH3 0x1076 JUMP JUMPDEST PUSH3 0x729 JUMP JUMPDEST PUSH1 0x40 MLOAD PUSH3 0x153 SWAP2 SWAP1 PUSH3 0x115A JUMP JUMPDEST PUSH3 0x173 PUSH3 0x202 CALLDATASIZE PUSH1 0x4 PUSH3 0x105C JUMP JUMPDEST PUSH3 0x87B JUMP JUMPDEST PUSH3 0x237 PUSH3 0x219 CALLDATASIZE PUSH1 0x4 PUSH3 0x10E3 JUMP JUMPDEST PUSH1 0x1 PUSH1 0x1 PUSH1 0xA0 SHL SUB AND PUSH1 0x0 SWAP1 DUP2 MSTORE PUSH1 0x2 PUSH1 0x20 MSTORE PUSH1 0x40 SWAP1 KECCAK256 SLOAD PUSH1 0xFF AND SWAP1 JUMP JUMPDEST PUSH1 0x40 MLOAD SWAP1 ISZERO ISZERO DUP2 MSTORE PUSH1 0x20 ADD PUSH3 0x153 JUMP JUMPDEST PUSH3 0x1A3 PUSH3 0x259 CALLDATASIZE PUSH1 0x4 PUSH3 0x126A JUMP JUMPDEST PUSH3 0x8A6 JUMP JUMPDEST PUSH3 0x237 PUSH3 0x270 CALLDATASIZE PUSH1 0x4 PUSH3 0x10B6 JUMP JUMPDEST PUSH3 0xAF1 JUMP JUMPDEST PUSH1 0x0 SLOAD PUSH3 0x173 SWAP1 PUSH1 0x1 PUSH1 0x1 PUSH1 0xA0 SHL SUB AND DUP2 JUMP JUMPDEST PUSH1 0x4 SLOAD PUSH3 0x149 JUMP JUMPDEST PUSH3 0x1A3 PUSH3 0x2A4 CALLDATASIZE PUSH1 0x4 PUSH3 0x12C7 JUMP JUMPDEST PUSH3 0xBF2 JUMP JUMPDEST PUSH3 0x237 PUSH3 0x2BB CALLDATASIZE PUSH1 0x4 PUSH3 0x10E3 JUMP JUMPDEST PUSH1 0x2 PUSH1 0x20 MSTORE PUSH1 0x0 SWAP1 DUP2 MSTORE PUSH1 0x40 SWAP1 KECCAK256 SLOAD PUSH1 0xFF AND DUP2 JUMP JUMPDEST PUSH3 0x173 PUSH3 0x2E1 CALLDATASIZE PUSH1 0x4 PUSH3 0x1403 JUMP JUMPDEST PUSH3 0xC91 JUMP JUMPDEST PUSH3 0x149 PUSH3 0x2F8 CALLDATASIZE PUSH1 0x4 PUSH3 0x10B6 JUMP JUMPDEST PUSH3 0xEAF JUMP JUMPDEST PUSH3 0x1E2 PUSH3 0x30F CALLDATASIZE PUSH1 0x4 PUSH3 0x105C JUMP JUMPDEST PUSH3 0xEE1 JUMP JUMPDEST PUSH3 0x1A3 PUSH3 0x326 CALLDATASIZE PUSH1 0x4 PUSH3 0x10E3 JUMP JUMPDEST PUSH3 0xF4E JUMP JUMPDEST PUSH1 0x1 PUSH1 0x20 MSTORE DUP2 PUSH1 0x0 MSTORE PUSH1 0x40 PUSH1 0x0 KECCAK256 DUP2 DUP2 SLOAD DUP2 LT PUSH3 0x349 JUMPI PUSH1 0x0 DUP1 REVERT JUMPDEST PUSH1 0x0 SWAP2 DUP3 MSTORE PUSH1 0x20 SWAP1 SWAP2 KECCAK256 ADD SLOAD PUSH1 0x1 PUSH1 0x1 PUSH1 0xA0 SHL SUB AND SWAP2 POP DUP3 SWAP1 POP JUMP JUMPDEST PUSH1 0x0 SLOAD PUSH1 0x1 PUSH1 0x1 PUSH1 0xA0 SHL SUB AND CALLER EQ PUSH3 0x39B JUMPI PUSH1 0x40 MLOAD PUSH3 0x461BCD PUSH1 0xE5 SHL DUP2 MSTORE PUSH1 0x4 ADD PUSH3 0x392 SWAP1 PUSH3 0x14E5 JUMP JUMPDEST PUSH1 0x40 MLOAD DUP1 SWAP2 SUB SWAP1 REVERT JUMPDEST PUSH1 0x1 PUSH1 0x1 PUSH1 0xA0 SHL SUB DUP3 AND PUSH1 0x0 SWAP1 DUP2 MSTORE PUSH1 0x2 PUSH1 0x20 MSTORE PUSH1 0x40 SWAP1 KECCAK256 SLOAD PUSH1 0xFF AND PUSH3 0x3D6 JUMPI PUSH1 0x40 MLOAD PUSH3 0x461BCD PUSH1 0xE5 SHL DUP2 MSTORE PUSH1 0x4 ADD PUSH3 0x392 SWAP1 PUSH3 0x1508 JUMP JUMPDEST PUSH1 0x40 MLOAD PUSH4 0xF6767ADF PUSH1 0xE0 SHL DUP2 MSTORE PUSH1 0x4 DUP2 ADD DUP3 SWAP1 MSTORE DUP3 SWAP1 PUSH1 0x1 PUSH1 0x1 PUSH1 0xA0 SHL SUB DUP3 AND SWAP1 PUSH4 0xF6767ADF SWAP1 PUSH1 0x24 ADD PUSH1 0x0 PUSH1 0x40 MLOAD DUP1 DUP4 SUB DUP2 PUSH1 0x0 DUP8 DUP1 EXTCODESIZE ISZERO DUP1 ISZERO PUSH3 0x41B JUMPI PUSH1 0x0 DUP1 REVERT JUMPDEST POP GAS CALL ISZERO DUP1 ISZERO PUSH3 0x430 JUMPI RETURNDATASIZE PUSH1 0x0 DUP1 RETURNDATACOPY RETURNDATASIZE PUSH1 0x0 REVERT JUMPDEST POP POP POP PUSH1 0x1 PUSH1 0x1 PUSH1 0xA0 SHL SUB DUP5 AND PUSH1 0x0 SWAP1 DUP2 MSTORE PUSH1 0x3 PUSH1 0x20 MSTORE PUSH1 0x40 DUP2 KECCAK256 SWAP2 POP JUMPDEST DUP2 SLOAD DUP2 LT ISZERO PUSH3 0x516 JUMPI DUP4 DUP3 DUP3 DUP2 SLOAD DUP2 LT PUSH3 0x46E JUMPI PUSH3 0x46E PUSH3 0x1530 JUMP JUMPDEST SWAP1 PUSH1 0x0 MSTORE PUSH1 0x20 PUSH1 0x0 KECCAK256 ADD SLOAD SUB PUSH3 0x501 JUMPI DUP2 SLOAD DUP3 SWAP1 PUSH3 0x491 SWAP1 PUSH1 0x1 SWAP1 PUSH3 0x155C JUMP JUMPDEST DUP2 SLOAD DUP2 LT PUSH3 0x4A4 JUMPI PUSH3 0x4A4 PUSH3 0x1530 JUMP JUMPDEST SWAP1 PUSH1 0x0 MSTORE PUSH1 0x20 PUSH1 0x0 KECCAK256 ADD SLOAD DUP3 DUP3 DUP2 SLOAD DUP2 LT PUSH3 0x4C4 JUMPI PUSH3 0x4C4 PUSH3 0x1530 JUMP JUMPDEST SWAP1 PUSH1 0x0 MSTORE PUSH1 0x20 PUSH1 0x0 KECCAK256 ADD DUP2 SWAP1 SSTORE POP DUP2 DUP1 SLOAD DUP1 PUSH3 0x4E5 JUMPI PUSH3 0x4E5 PUSH3 0x1572 JUMP JUMPDEST PUSH1 0x1 SWAP1 SUB DUP2 DUP2 SWAP1 PUSH1 0x0 MSTORE PUSH1 0x20 PUSH1 0x0 KECCAK256 ADD PUSH1 0x0 SWAP1 SSTORE SWAP1 SSTORE PUSH3 0x516 JUMP JUMPDEST DUP1 PUSH3 0x50D DUP2 PUSH3 0x1588 JUMP JUMPDEST SWAP2 POP POP PUSH3 0x44E JUMP JUMPDEST POP PUSH1 0x0 DUP4 DUP2 MSTORE PUSH1 0x1 PUSH1 0x20 MSTORE PUSH1 0x40 DUP2 KECCAK256 SWAP1 JUMPDEST DUP2 SLOAD DUP2 LT ISZERO PUSH3 0x641 JUMPI DUP6 PUSH1 0x1 PUSH1 0x1 PUSH1 0xA0 SHL SUB AND DUP3 DUP3 DUP2 SLOAD DUP2 LT PUSH3 0x550 JUMPI PUSH3 0x550 PUSH3 0x1530 JUMP JUMPDEST PUSH1 0x0 SWAP2 DUP3 MSTORE PUSH1 0x20 SWAP1 SWAP2 KECCAK256 ADD SLOAD PUSH1 0x1 PUSH1 0x1 PUSH1 0xA0 SHL SUB AND SUB PUSH3 0x62C JUMPI DUP2 SLOAD DUP3 SWAP1 PUSH3 0x57D SWAP1 PUSH1 0x1 SWAP1 PUSH3 0x155C JUMP JUMPDEST DUP2 SLOAD DUP2 LT PUSH3 0x590 JUMPI PUSH3 0x590 PUSH3 0x1530 JUMP JUMPDEST SWAP1 PUSH1 0x0 MSTORE PUSH1 0x20 PUSH1 0x0 KECCAK256 ADD PUSH1 0x0 SWAP1 SLOAD SWAP1 PUSH2 0x100 EXP SWAP1 DIV PUSH1 0x1 PUSH1 0x1 PUSH1 0xA0 SHL SUB AND DUP3 DUP3 DUP2 SLOAD DUP2 LT PUSH3 0x5C3 JUMPI PUSH3 0x5C3 PUSH3 0x1530 JUMP JUMPDEST SWAP1 PUSH1 0x0 MSTORE PUSH1 0x20 PUSH1 0x0 KECCAK256 ADD PUSH1 0x0 PUSH2 0x100 EXP DUP2 SLOAD DUP2 PUSH1 0x1 PUSH1 0x1 PUSH1 0xA0 SHL SUB MUL NOT AND SWAP1 DUP4 PUSH1 0x1 PUSH1 0x1 PUSH1 0xA0 SHL SUB AND MUL OR SWAP1 SSTORE POP DUP2 DUP1 SLOAD DUP1 PUSH3 0x604 JUMPI PUSH3 0x604 PUSH3 0x1572 JUMP JUMPDEST PUSH1 0x0 DUP3 DUP2 MSTORE PUSH1 0x20 SWAP1 KECCAK256 DUP2 ADD PUSH1 0x0 NOT SWAP1 DUP2 ADD DUP1 SLOAD PUSH1 0x1 PUSH1 0x1 PUSH1 0xA0 SHL SUB NOT AND SWAP1 SSTORE ADD SWAP1 SSTORE PUSH3 0x641 JUMP JUMPDEST DUP1 PUSH3 0x638 DUP2 PUSH3 0x1588 JUMP JUMPDEST SWAP2 POP POP PUSH3 0x527 JUMP JUMPDEST POP PUSH1 0x40 MLOAD DUP5 SWAP1 PUSH1 0x1 PUSH1 0x1 PUSH1 0xA0 SHL SUB DUP8 AND SWAP1 PUSH32 0xCBF7CAF39A1FB00FC3F42633FFEF8E45F2F89A52F6268AD6004067CDF995CEEC SWAP1 PUSH1 0x0 SWAP1 LOG3 POP POP POP POP POP JUMP JUMPDEST PUSH1 0x1 PUSH1 0x1 PUSH1 0xA0 SHL SUB DUP2 AND PUSH1 0x0 SWAP1 DUP2 MSTORE PUSH1 0x2 PUSH1 0x20 MSTORE PUSH1 0x40 SWAP1 KECCAK256 SLOAD PUSH1 0x60 SWAP1 PUSH1 0xFF AND PUSH3 0x6BD JUMPI PUSH1 0x40 MLOAD PUSH3 0x461BCD PUSH1 0xE5 SHL DUP2 MSTORE PUSH1 0x4 ADD PUSH3 0x392 SWAP1 PUSH3 0x1508 JUMP JUMPDEST PUSH1 0x1 PUSH1 0x1 PUSH1 0xA0 SHL SUB DUP3 AND PUSH1 0x0 SWAP1 DUP2 MSTORE PUSH1 0x3 PUSH1 0x20 SWAP1 DUP2 MSTORE PUSH1 0x40 SWAP2 DUP3 SWAP1 KECCAK256 DUP1 SLOAD DUP4 MLOAD DUP2 DUP5 MUL DUP2 ADD DUP5 ADD SWAP1 SWAP5 MSTORE DUP1 DUP5 MSTORE SWAP1 SWAP2 DUP4 ADD DUP3 DUP3 DUP1 ISZERO PUSH3 0x71D JUMPI PUSH1 0x20 MUL DUP3 ADD SWAP2 SWAP1 PUSH1 0x0 MSTORE PUSH1 0x20 PUSH1 0x0 KECCAK256 SWAP1 JUMPDEST DUP2 SLOAD DUP2 MSTORE PUSH1 0x20 ADD SWAP1 PUSH1 0x1 ADD SWAP1 DUP1 DUP4 GT PUSH3 0x708 JUMPI JUMPDEST POP POP POP POP POP SWAP1 POP SWAP2 SWAP1 POP JUMP JUMPDEST PUSH1 0x4 SLOAD PUSH1 0x60 SWAP1 DUP4 LT PUSH3 0x776 JUMPI PUSH1 0x40 MLOAD PUSH3 0x461BCD PUSH1 0xE5 SHL DUP2 MSTORE PUSH1 0x20 PUSH1 0x4 DUP3 ADD MSTORE PUSH1 0x14 PUSH1 0x24 DUP3 ADD MSTORE PUSH20 0x4F6666736574206F7574206F6620626F756E6473 PUSH1 0x60 SHL PUSH1 0x44 DUP3 ADD MSTORE PUSH1 0x64 ADD PUSH3 0x392 JUMP JUMPDEST PUSH1 0x0 PUSH3 0x784 DUP4 DUP6 PUSH3 0x15A4 JUMP JUMPDEST PUSH1 0x4 SLOAD SWAP1 SWAP2 POP DUP2 GT ISZERO PUSH3 0x797 JUMPI POP PUSH1 0x4 SLOAD JUMPDEST PUSH1 0x0 PUSH3 0x7A5 DUP6 DUP4 PUSH3 0x155C JUMP JUMPDEST PUSH8 0xFFFFFFFFFFFFFFFF DUP2 GT ISZERO PUSH3 0x7C0 JUMPI PUSH3 0x7C0 PUSH3 0x11A9 JUMP JUMPDEST PUSH1 0x40 MLOAD SWAP1 DUP1 DUP3 MSTORE DUP1 PUSH1 0x20 MUL PUSH1 0x20 ADD DUP3 ADD PUSH1 0x40 MSTORE DUP1 ISZERO PUSH3 0x7EA JUMPI DUP2 PUSH1 0x20 ADD PUSH1 0x20 DUP3 MUL DUP1 CALLDATASIZE DUP4 CALLDATACOPY ADD SWAP1 POP JUMPDEST POP SWAP1 POP DUP5 JUMPDEST DUP3 DUP2 LT ISZERO PUSH3 0x870 JUMPI PUSH1 0x4 DUP2 DUP2 SLOAD DUP2 LT PUSH3 0x80E JUMPI PUSH3 0x80E PUSH3 0x1530 JUMP JUMPDEST PUSH1 0x0 SWAP2 DUP3 MSTORE PUSH1 0x20 SWAP1 SWAP2 KECCAK256 ADD SLOAD PUSH1 0x1 PUSH1 0x1 PUSH1 0xA0 SHL SUB AND DUP3 PUSH3 0x830 DUP9 DUP5 PUSH3 0x155C JUMP JUMPDEST DUP2 MLOAD DUP2 LT PUSH3 0x843 JUMPI PUSH3 0x843 PUSH3 0x1530 JUMP JUMPDEST PUSH1 0x1 PUSH1 0x1 PUSH1 0xA0 SHL SUB SWAP1 SWAP3 AND PUSH1 0x20 SWAP3 DUP4 MUL SWAP2 SWAP1 SWAP2 ADD SWAP1 SWAP2 ADD MSTORE DUP1 PUSH3 0x867 DUP2 PUSH3 0x1588 JUMP JUMPDEST SWAP2 POP POP PUSH3 0x7EF JUMP JUMPDEST POP SWAP2 POP POP JUMPDEST SWAP3 SWAP2 POP POP JUMP JUMPDEST PUSH1 0x4 DUP2 DUP2 SLOAD DUP2 LT PUSH3 0x88C JUMPI PUSH1 0x0 DUP1 REVERT JUMPDEST PUSH1 0x0 SWAP2 DUP3 MSTORE PUSH1 0x20 SWAP1 SWAP2 KECCAK256 ADD SLOAD PUSH1 0x1 PUSH1 0x1 PUSH1 0xA0 SHL SUB AND SWAP1 POP DUP2 JUMP JUMPDEST PUSH1 0x0 SLOAD PUSH1 0x1 PUSH1 0x1 PUSH1 0xA0 SHL SUB AND CALLER EQ PUSH3 0x8D3 JUMPI PUSH1 0x40 MLOAD PUSH3 0x461BCD PUSH1 0xE5 SHL DUP2 MSTORE PUSH1 0x4 ADD PUSH3 0x392 SWAP1 PUSH3 0x14E5 JUMP JUMPDEST PUSH1 0x1 PUSH1 0x1 PUSH1 0xA0 SHL SUB DUP4 AND PUSH1 0x0 SWAP1 DUP2 MSTORE PUSH1 0x2 PUSH1 0x20 MSTORE PUSH1 0x40 SWAP1 KECCAK256 SLOAD PUSH1 0xFF AND PUSH3 0x90E JUMPI PUSH1 0x40 MLOAD PUSH3 0x461BCD PUSH1 0xE5 SHL DUP2 MSTORE PUSH1 0x4 ADD PUSH3 0x392 SWAP1 PUSH3 0x1508 JUMP JUMPDEST PUSH1 0x1 PUSH1 0x1 PUSH1 0xA0 SHL SUB DUP4 AND PUSH1 0x0 SWAP1 DUP2 MSTORE PUSH1 0x3 PUSH1 0x20 SWAP1 DUP2 MSTORE PUSH1 0x40 DUP1 DUP4 KECCAK256 DUP1 SLOAD DUP3 MLOAD DUP2 DUP6 MUL DUP2 ADD DUP6 ADD SWAP1 SWAP4 MSTORE DUP1 DUP4 MSTORE SWAP2 SWAP3 SWAP1 SWAP2 SWAP1 DUP4 ADD DUP3 DUP3 DUP1 ISZERO PUSH3 0x970 JUMPI PUSH1 0x20 MUL DUP3 ADD SWAP2 SWAP1 PUSH1 0x0 MSTORE PUSH1 0x20 PUSH1 0x0 KECCAK256 SWAP1 JUMPDEST DUP2 SLOAD DUP2 MSTORE PUSH1 0x20 ADD SWAP1 PUSH1 0x1 ADD SWAP1 DUP1 DUP4 GT PUSH3 0x95B JUMPI JUMPDEST POP POP POP POP POP SWAP1 POP PUSH1 0x0 JUMPDEST DUP2 MLOAD DUP2 LT ISZERO PUSH3 0xA06 JUMPI DUP4 DUP3 DUP3 DUP2 MLOAD DUP2 LT PUSH3 0x99A JUMPI PUSH3 0x99A PUSH3 0x1530 JUMP JUMPDEST PUSH1 0x20 MUL PUSH1 0x20 ADD ADD MLOAD SUB PUSH3 0x9F1 JUMPI PUSH1 0x40 MLOAD PUSH3 0x461BCD PUSH1 0xE5 SHL DUP2 MSTORE PUSH1 0x20 PUSH1 0x4 DUP3 ADD MSTORE PUSH1 0x1C PUSH1 0x24 DUP3 ADD MSTORE PUSH32 0x4C69766573747265616D20616C726561647920696E206D61726B657400000000 PUSH1 0x44 DUP3 ADD MSTORE PUSH1 0x64 ADD PUSH3 0x392 JUMP JUMPDEST DUP1 PUSH3 0x9FD DUP2 PUSH3 0x1588 JUMP JUMPDEST SWAP2 POP POP PUSH3 0x97A JUMP JUMPDEST POP PUSH1 0x40 MLOAD PUSH4 0x7B313021 PUSH1 0xE1 SHL DUP2 MSTORE DUP5 SWAP1 PUSH1 0x1 PUSH1 0x1 PUSH1 0xA0 SHL SUB DUP3 AND SWAP1 PUSH4 0xF6626042 SWAP1 PUSH3 0xA39 SWAP1 DUP8 SWAP1 DUP8 SWAP1 PUSH1 0x4 ADD PUSH3 0x1602 JUMP JUMPDEST PUSH1 0x0 PUSH1 0x40 MLOAD DUP1 DUP4 SUB DUP2 PUSH1 0x0 DUP8 DUP1 EXTCODESIZE ISZERO DUP1 ISZERO PUSH3 0xA54 JUMPI PUSH1 0x0 DUP1 REVERT JUMPDEST POP GAS CALL ISZERO DUP1 ISZERO PUSH3 0xA69 JUMPI RETURNDATASIZE PUSH1 0x0 DUP1 RETURNDATACOPY RETURNDATASIZE PUSH1 0x0 REVERT JUMPDEST POP POP POP PUSH1 0x1 PUSH1 0x1 PUSH1 0xA0 SHL SUB DUP7 AND PUSH1 0x0 DUP2 DUP2 MSTORE PUSH1 0x3 PUSH1 0x20 SWAP1 DUP2 MSTORE PUSH1 0x40 DUP1 DUP4 KECCAK256 DUP1 SLOAD PUSH1 0x1 DUP2 DUP2 ADD DUP4 SSTORE SWAP2 DUP6 MSTORE DUP4 DUP6 KECCAK256 ADD DUP11 SWAP1 SSTORE DUP10 DUP5 MSTORE DUP1 DUP4 MSTORE DUP2 DUP5 KECCAK256 DUP1 SLOAD SWAP2 DUP3 ADD DUP2 SSTORE DUP5 MSTORE SWAP2 DUP4 KECCAK256 SWAP1 SWAP2 ADD DUP1 SLOAD PUSH1 0x1 PUSH1 0x1 PUSH1 0xA0 SHL SUB NOT AND DUP5 OR SWAP1 SSTORE MLOAD DUP8 SWAP4 POP PUSH32 0x6127FC1C17AB50644B01500E2695F4BF65A21BA6142C41ADF59A6DDA58B2F70A SWAP2 SWAP1 LOG3 POP POP POP POP POP JUMP JUMPDEST PUSH1 0x1 PUSH1 0x1 PUSH1 0xA0 SHL SUB DUP3 AND PUSH1 0x0 SWAP1 DUP2 MSTORE PUSH1 0x2 PUSH1 0x20 MSTORE PUSH1 0x40 DUP2 KECCAK256 SLOAD PUSH1 0xFF AND PUSH3 0xB2C JUMPI PUSH1 0x40 MLOAD PUSH3 0x461BCD PUSH1 0xE5 SHL DUP2 MSTORE PUSH1 0x4 ADD PUSH3 0x392 SWAP1 PUSH3 0x1508 JUMP JUMPDEST PUSH1 0x1 PUSH1 0x1 PUSH1 0xA0 SHL SUB DUP4 AND PUSH1 0x0 SWAP1 DUP2 MSTORE PUSH1 0x3 PUSH1 0x20 SWAP1 DUP2 MSTORE PUSH1 0x40 DUP1 DUP4 KECCAK256 DUP1 SLOAD DUP3 MLOAD DUP2 DUP6 MUL DUP2 ADD DUP6 ADD SWAP1 SWAP4 MSTORE DUP1 DUP4 MSTORE SWAP2 SWAP3 SWAP1 SWAP2 SWAP1 DUP4 ADD DUP3 DUP3 DUP1 ISZERO PUSH3 0xB8E JUMPI PUSH1 0x20 MUL DUP3 ADD SWAP2 SWAP1 PUSH1 0x0 MSTORE PUSH1 0x20 PUSH1 0x0 KECCAK256 SWAP1 JUMPDEST DUP2 SLOAD DUP2 MSTORE PUSH1 0x20 ADD SWAP1 PUSH1 0x1 ADD SWAP1 DUP1 DUP4 GT PUSH3 0xB79 JUMPI JUMPDEST POP POP POP POP POP SWAP1 POP PUSH1 0x0 JUMPDEST DUP2 MLOAD DUP2 LT ISZERO PUSH3 0xBE7 JUMPI DUP4 DUP3 DUP3 DUP2 MLOAD DUP2 LT PUSH3 0xBB8 JUMPI PUSH3 0xBB8 PUSH3 0x1530 JUMP JUMPDEST PUSH1 0x20 MUL PUSH1 0x20 ADD ADD MLOAD SUB PUSH3 0xBD2 JUMPI PUSH1 0x1 SWAP3 POP POP POP PUSH3 0x875 JUMP JUMPDEST DUP1 PUSH3 0xBDE DUP2 PUSH3 0x1588 JUMP JUMPDEST SWAP2 POP POP PUSH3 0xB98 JUMP JUMPDEST POP PUSH1 0x0 SWAP5 SWAP4 POP POP POP POP JUMP JUMPDEST CALLER PUSH1 0x0 SWAP1 DUP2 MSTORE PUSH1 0x2 PUSH1 0x20 MSTORE PUSH1 0x40 SWAP1 KECCAK256 SLOAD PUSH1 0xFF AND PUSH3 0xC48 JUMPI PUSH1 0x40 MLOAD PUSH3 0x461BCD PUSH1 0xE5 SHL DUP2 MSTORE PUSH1 0x20 PUSH1 0x4 DUP3 ADD MSTORE PUSH1 0x12 PUSH1 0x24 DUP3 ADD MSTORE PUSH18 0x139BDD0818481D985B1A59081B585C9AD95D PUSH1 0x72 SHL PUSH1 0x44 DUP3 ADD MSTORE PUSH1 0x64 ADD PUSH3 0x392 JUMP JUMPDEST CALLER PUSH1 0x1 PUSH1 0x1 PUSH1 0xA0 SHL SUB AND PUSH32 0x7B4E9FD00806836220E4A818C7309FE732DEF7F454EF846365FE7CBBC98523C1 DUP4 DUP4 PUSH1 0x40 MLOAD PUSH3 0xC85 SWAP3 SWAP2 SWAP1 PUSH3 0x1625 JUMP JUMPDEST PUSH1 0x40 MLOAD DUP1 SWAP2 SUB SWAP1 LOG2 POP POP JUMP JUMPDEST PUSH1 0x0 DUP1 SLOAD PUSH1 0x1 PUSH1 0x1 PUSH1 0xA0 SHL SUB AND CALLER EQ PUSH3 0xCBF JUMPI PUSH1 0x40 MLOAD PUSH3 0x461BCD PUSH1 0xE5 SHL DUP2 MSTORE PUSH1 0x4 ADD PUSH3 0x392 SWAP1 PUSH3 0x14E5 JUMP JUMPDEST DUP2 MLOAD DUP5 MLOAD EQ PUSH3 0xD06 JUMPI PUSH1 0x40 MLOAD PUSH3 0x461BCD PUSH1 0xE5 SHL DUP2 MSTORE PUSH1 0x20 PUSH1 0x4 DUP3 ADD MSTORE PUSH1 0x11 PUSH1 0x24 DUP3 ADD MSTORE PUSH17 0x4D69736D61746368656420617272617973 PUSH1 0x78 SHL PUSH1 0x44 DUP3 ADD MSTORE PUSH1 0x64 ADD PUSH3 0x392 JUMP JUMPDEST PUSH1 0x0 DUP1 SLOAD PUSH1 0x40 MLOAD DUP7 SWAP2 DUP7 SWAP2 DUP7 SWAP2 PUSH1 0x1 PUSH1 0x1 PUSH1 0xA0 SHL SUB AND SWAP1 PUSH3 0xD28 SWAP1 PUSH3 0xFE7 JUMP JUMPDEST PUSH3 0xD37 SWAP5 SWAP4 SWAP3 SWAP2 SWAP1 PUSH3 0x165F JUMP JUMPDEST PUSH1 0x40 MLOAD DUP1 SWAP2 SUB SWAP1 PUSH1 0x0 CREATE DUP1 ISZERO DUP1 ISZERO PUSH3 0xD54 JUMPI RETURNDATASIZE PUSH1 0x0 DUP1 RETURNDATACOPY RETURNDATASIZE PUSH1 0x0 REVERT JUMPDEST POP PUSH1 0x1 PUSH1 0x1 PUSH1 0xA0 SHL SUB DUP2 AND PUSH1 0x0 SWAP1 DUP2 MSTORE PUSH1 0x2 PUSH1 0x20 SWAP1 DUP2 MSTORE PUSH1 0x40 DUP1 DUP4 KECCAK256 DUP1 SLOAD PUSH1 0xFF NOT AND PUSH1 0x1 OR SWAP1 SSTORE PUSH1 0x3 DUP3 MSTORE SWAP1 SWAP2 KECCAK256 DUP8 MLOAD SWAP3 SWAP4 POP DUP4 SWAP3 PUSH3 0xD97 SWAP3 DUP10 ADD SWAP1 PUSH3 0xFF5 JUMP JUMPDEST POP PUSH1 0x4 DUP1 SLOAD PUSH1 0x1 DUP2 ADD DUP3 SSTORE PUSH1 0x0 SWAP2 DUP3 MSTORE PUSH32 0x8A35ACFBC15FF81A39AE7D344FD709F28E8600B4AA8C65C6B64BFE7FE36BD19B ADD DUP1 SLOAD PUSH1 0x1 PUSH1 0x1 PUSH1 0xA0 SHL SUB NOT AND PUSH1 0x1 PUSH1 0x1 PUSH1 0xA0 SHL SUB DUP5 AND OR SWAP1 SSTORE JUMPDEST DUP7 MLOAD DUP2 LT ISZERO PUSH3 0xE60 JUMPI PUSH1 0x1 PUSH1 0x0 DUP9 DUP4 DUP2 MLOAD DUP2 LT PUSH3 0xE06 JUMPI PUSH3 0xE06 PUSH3 0x1530 JUMP JUMPDEST PUSH1 0x20 SWAP1 DUP2 MUL SWAP2 SWAP1 SWAP2 ADD DUP2 ADD MLOAD DUP3 MSTORE DUP2 DUP2 ADD SWAP3 SWAP1 SWAP3 MSTORE PUSH1 0x40 ADD PUSH1 0x0 SWAP1 DUP2 KECCAK256 DUP1 SLOAD PUSH1 0x1 DUP2 ADD DUP3 SSTORE SWAP1 DUP3 MSTORE SWAP2 SWAP1 KECCAK256 ADD DUP1 SLOAD PUSH1 0x1 PUSH1 0x1 PUSH1 0xA0 SHL SUB NOT AND PUSH1 0x1 PUSH1 0x1 PUSH1 0xA0 SHL SUB DUP5 AND OR SWAP1 SSTORE DUP1 PUSH3 0xE57 DUP2 PUSH3 0x1588 JUMP JUMPDEST SWAP2 POP POP PUSH3 0xDE3 JUMP JUMPDEST POP DUP1 PUSH1 0x1 PUSH1 0x1 PUSH1 0xA0 SHL SUB AND PUSH32 0x3517A251317E3FA9C98B00782D0E6AA696CB161A2279039A18AD646E1E4853A9 DUP8 DUP8 PUSH1 0x40 MLOAD PUSH3 0xE9E SWAP3 SWAP2 SWAP1 PUSH3 0x1703 JUMP JUMPDEST PUSH1 0x40 MLOAD DUP1 SWAP2 SUB SWAP1 LOG2 SWAP6 SWAP5 POP POP POP POP POP JUMP JUMPDEST PUSH1 0x3 PUSH1 0x20 MSTORE DUP2 PUSH1 0x0 MSTORE PUSH1 0x40 PUSH1 0x0 KECCAK256 DUP2 DUP2 SLOAD DUP2 LT PUSH3 0xECC JUMPI PUSH1 0x0 DUP1 REVERT JUMPDEST SWAP1 PUSH1 0x0 MSTORE PUSH1 0x20 PUSH1 0x0 KECCAK256 ADD PUSH1 0x0 SWAP2 POP SWAP2 POP POP SLOAD DUP2 JUMP JUMPDEST PUSH1 0x0 DUP2 DUP2 MSTORE PUSH1 0x1 PUSH1 0x20 SWAP1 DUP2 MSTORE PUSH1 0x40 SWAP2 DUP3 SWAP1 KECCAK256 DUP1 SLOAD DUP4 MLOAD DUP2 DUP5 MUL DUP2 ADD DUP5 ADD SWAP1 SWAP5 MSTORE DUP1 DUP5 MSTORE PUSH1 0x60 SWAP4 SWAP3 DUP4 ADD DUP3 DUP3 DUP1 ISZERO PUSH3 0x71D JUMPI PUSH1 0x20 MUL DUP3 ADD SWAP2 SWAP1 PUSH1 0x0 MSTORE PUSH1 0x20 PUSH1 0x0 KECCAK256 SWAP1 JUMPDEST DUP2 SLOAD PUSH1 0x1 PUSH1 0x1 PUSH1 0xA0 SHL SUB AND DUP2 MSTORE PUSH1 0x1 SWAP1 SWAP2 ADD SWAP1 PUSH1 0x20 ADD DUP1 DUP4 GT PUSH3 0xF24 JUMPI POP POP POP POP POP SWAP1 POP SWAP2 SWAP1 POP JUMP JUMPDEST PUSH1 0x0 SLOAD PUSH1 0x1 PUSH1 0x1 PUSH1 0xA0 SHL SUB AND CALLER EQ PUSH3 0xF7B JUMPI PUSH1 0x40 MLOAD PUSH3 0x461BCD PUSH1 0xE5 SHL DUP2 MSTORE PUSH1 0x4 ADD PUSH3 0x392 SWAP1 PUSH3 0x14E5 JUMP JUMPDEST PUSH1 0x1 PUSH1 0x1 PUSH1 0xA0 SHL SUB DUP2 AND PUSH3 0xFC5 JUMPI PUSH1 0x40 MLOAD PUSH3 0x461BCD PUSH1 0xE5 SHL DUP2 MSTORE PUSH1 0x20 PUSH1 0x4 DUP3 ADD MSTORE PUSH1 0xF PUSH1 0x24 DUP3 ADD MSTORE PUSH15 0x496E76616C69642061646472657373 PUSH1 0x88 SHL PUSH1 0x44 DUP3 ADD MSTORE PUSH1 0x64 ADD PUSH3 0x392 JUMP JUMPDEST PUSH1 0x0 DUP1 SLOAD PUSH1 0x1 PUSH1 0x1 PUSH1 0xA0 SHL SUB NOT AND PUSH1 0x1 PUSH1 0x1 PUSH1 0xA0 SHL SUB SWAP3 SWAP1 SWAP3 AND SWAP2 SWAP1 SWAP2 OR SWAP1 SSTORE JUMP JUMPDEST PUSH2 0x2D93 DUP1 PUSH3 0x1736 DUP4 CODECOPY ADD SWAP1 JUMP JUMPDEST DUP3 DUP1 SLOAD DUP3 DUP3 SSTORE SWAP1 PUSH1 0x0 MSTORE PUSH1 0x20 PUSH1 0x0 KECCAK256 SWAP1 DUP2 ADD SWAP3 DUP3 ISZERO PUSH3 0x1033 JUMPI SWAP2 PUSH1 0x20 MUL DUP3 ADD JUMPDEST DUP3 DUP2 GT ISZERO PUSH3 0x1033 JUMPI DUP3 MLOAD DUP3 SSTORE SWAP2 PUSH1 0x20 ADD SWAP2 SWAP1 PUSH1 0x1 ADD SWAP1 PUSH3 0x1016 JUMP JUMPDEST POP PUSH3 0x1041 SWAP3 SWAP2 POP PUSH3 0x1045 JUMP JUMPDEST POP SWAP1 JUMP JUMPDEST JUMPDEST DUP1 DUP3 GT ISZERO PUSH3 0x1041 JUMPI PUSH1 0x0 DUP2 SSTORE PUSH1 0x1 ADD PUSH3 0x1046 JUMP JUMPDEST PUSH1 0x0 PUSH1 0x20 DUP3 DUP5 SUB SLT ISZERO PUSH3 0x106F JUMPI PUSH1 0x0 DUP1 REVERT JUMPDEST POP CALLDATALOAD SWAP2 SWAP1 POP JUMP JUMPDEST PUSH1 0x0 DUP1 PUSH1 0x40 DUP4 DUP6 SUB SLT ISZERO PUSH3 0x108A JUMPI PUSH1 0x0 DUP1 REVERT JUMPDEST POP POP DUP1 CALLDATALOAD SWAP3 PUSH1 0x20 SWAP1 SWAP2 ADD CALLDATALOAD SWAP2 POP JUMP JUMPDEST DUP1 CALLDATALOAD PUSH1 0x1 PUSH1 0x1 PUSH1 0xA0 SHL SUB DUP2 AND DUP2 EQ PUSH3 0x10B1 JUMPI PUSH1 0x0 DUP1 REVERT JUMPDEST SWAP2 SWAP1 POP JUMP JUMPDEST PUSH1 0x0 DUP1 PUSH1 0x40 DUP4 DUP6 SUB SLT ISZERO PUSH3 0x10CA JUMPI PUSH1 0x0 DUP1 REVERT JUMPDEST PUSH3 0x10D5 DUP4 PUSH3 0x1099 JUMP JUMPDEST SWAP5 PUSH1 0x20 SWAP4 SWAP1 SWAP4 ADD CALLDATALOAD SWAP4 POP POP POP JUMP JUMPDEST PUSH1 0x0 PUSH1 0x20 DUP3 DUP5 SUB SLT ISZERO PUSH3 0x10F6 JUMPI PUSH1 0x0 DUP1 REVERT JUMPDEST PUSH3 0x1101 DUP3 PUSH3 0x1099 JUMP JUMPDEST SWAP4 SWAP3 POP POP POP JUMP JUMPDEST PUSH1 0x0 DUP2 MLOAD DUP1 DUP5 MSTORE PUSH1 0x20 DUP1 DUP6 ADD SWAP5 POP DUP1 DUP5 ADD PUSH1 0x0 JUMPDEST DUP4 DUP2 LT ISZERO PUSH3 0x113A JUMPI DUP2 MLOAD DUP8 MSTORE SWAP6 DUP3 ADD SWAP6 SWAP1 DUP3 ADD SWAP1 PUSH1 0x1 ADD PUSH3 0x111C JUMP JUMPDEST POP SWAP5 SWAP6 SWAP5 POP POP POP POP POP JUMP JUMPDEST PUSH1 0x20 DUP2 MSTORE PUSH1 0x0 PUSH3 0x1101 PUSH1 0x20 DUP4 ADD DUP5 PUSH3 0x1108 JUMP JUMPDEST PUSH1 0x20 DUP1 DUP3 MSTORE DUP3 MLOAD DUP3 DUP3 ADD DUP2 SWAP1 MSTORE PUSH1 0x0 SWAP2 SWAP1 DUP5 DUP3 ADD SWAP1 PUSH1 0x40 DUP6 ADD SWAP1 DUP5 JUMPDEST DUP2 DUP2 LT ISZERO PUSH3 0x119D JUMPI DUP4 MLOAD PUSH1 0x1 PUSH1 0x1 PUSH1 0xA0 SHL SUB AND DUP4 MSTORE SWAP3 DUP5 ADD SWAP3 SWAP2 DUP5 ADD SWAP2 PUSH1 0x1 ADD PUSH3 0x1176 JUMP JUMPDEST POP SWAP1 SWAP7 SWAP6 POP POP POP POP POP POP JUMP JUMPDEST PUSH4 0x4E487B71 PUSH1 0xE0 SHL PUSH1 0x0 MSTORE PUSH1 0x41 PUSH1 0x4 MSTORE PUSH1 0x24 PUSH1 0x0 REVERT JUMPDEST PUSH1 0x40 MLOAD PUSH1 0x1F DUP3 ADD PUSH1 0x1F NOT AND DUP2 ADD PUSH8 0xFFFFFFFFFFFFFFFF DUP2 GT DUP3 DUP3 LT OR ISZERO PUSH3 0x11EB JUMPI PUSH3 0x11EB PUSH3 0x11A9 JUMP JUMPDEST PUSH1 0x40 MSTORE SWAP2 SWAP1 POP JUMP JUMPDEST PUSH1 0x0 DUP3 PUSH1 0x1F DUP4 ADD SLT PUSH3 0x1205 JUMPI PUSH1 0x0 DUP1 REVERT JUMPDEST DUP2 CALLDATALOAD PUSH8 0xFFFFFFFFFFFFFFFF DUP2 GT ISZERO PUSH3 0x1222 JUMPI PUSH3 0x1222 PUSH3 0x11A9 JUMP JUMPDEST PUSH3 0x1237 PUSH1 0x1F DUP3 ADD PUSH1 0x1F NOT AND PUSH1 0x20 ADD PUSH3 0x11BF JUMP JUMPDEST DUP2 DUP2 MSTORE DUP5 PUSH1 0x20 DUP4 DUP7 ADD ADD GT ISZERO PUSH3 0x124D JUMPI PUSH1 0x0 DUP1 REVERT JUMPDEST DUP2 PUSH1 0x20 DUP6 ADD PUSH1 0x20 DUP4 ADD CALLDATACOPY PUSH1 0x0 SWAP2 DUP2 ADD PUSH1 0x20 ADD SWAP2 SWAP1 SWAP2 MSTORE SWAP4 SWAP3 POP POP POP JUMP JUMPDEST PUSH1 0x0 DUP1 PUSH1 0x0 PUSH1 0x60 DUP5 DUP7 SUB SLT ISZERO PUSH3 0x1280 JUMPI PUSH1 0x0 DUP1 REVERT JUMPDEST PUSH3 0x128B DUP5 PUSH3 0x1099 JUMP JUMPDEST SWAP3 POP PUSH1 0x20 DUP5 ADD CALLDATALOAD SWAP2 POP PUSH1 0x40 DUP5 ADD CALLDATALOAD PUSH8 0xFFFFFFFFFFFFFFFF DUP2 GT ISZERO PUSH3 0x12AF JUMPI PUSH1 0x0 DUP1 REVERT JUMPDEST PUSH3 0x12BD DUP7 DUP3 DUP8 ADD PUSH3 0x11F3 JUMP JUMPDEST SWAP2 POP POP SWAP3 POP SWAP3 POP SWAP3 JUMP JUMPDEST PUSH1 0x0 DUP1 PUSH1 0x20 DUP4 DUP6 SUB SLT ISZERO PUSH3 0x12DB JUMPI PUSH1 0x0 DUP1 REVERT JUMPDEST DUP3 CALLDATALOAD PUSH8 0xFFFFFFFFFFFFFFFF DUP1 DUP3 GT ISZERO PUSH3 0x12F4 JUMPI PUSH1 0x0 DUP1 REVERT JUMPDEST DUP2 DUP6 ADD SWAP2 POP DUP6 PUSH1 0x1F DUP4 ADD SLT PUSH3 0x1309 JUMPI PUSH1 0x0 DUP1 REVERT JUMPDEST DUP2 CALLDATALOAD DUP2 DUP2 GT ISZERO PUSH3 0x1319 JUMPI PUSH1 0x0 DUP1 REVERT JUMPDEST DUP7 PUSH1 0x20 DUP3 PUSH1 0x5 SHL DUP6 ADD ADD GT ISZERO PUSH3 0x132F JUMPI PUSH1 0x0 DUP1 REVERT JUMPDEST PUSH1 0x20 SWAP3 SWAP1 SWAP3 ADD SWAP7 SWAP2 SWAP6 POP SWAP1 SWAP4 POP POP POP POP JUMP JUMPDEST PUSH1 0x0 PUSH8 0xFFFFFFFFFFFFFFFF DUP3 GT ISZERO PUSH3 0x135E JUMPI PUSH3 0x135E PUSH3 0x11A9 JUMP JUMPDEST POP PUSH1 0x5 SHL PUSH1 0x20 ADD SWAP1 JUMP JUMPDEST PUSH1 0x0 DUP3 PUSH1 0x1F DUP4 ADD SLT PUSH3 0x137A JUMPI PUSH1 0x0 DUP1 REVERT JUMPDEST DUP2 CALLDATALOAD PUSH1 0x20 PUSH3 0x1393 PUSH3 0x138D DUP4 PUSH3 0x1341 JUMP JUMPDEST PUSH3 0x11BF JUMP JUMPDEST DUP3 DUP2 MSTORE PUSH1 0x5 SWAP3 SWAP1 SWAP3 SHL DUP5 ADD DUP2 ADD SWAP2 DUP2 DUP2 ADD SWAP1 DUP7 DUP5 GT ISZERO PUSH3 0x13B3 JUMPI PUSH1 0x0 DUP1 REVERT JUMPDEST DUP3 DUP7 ADD JUMPDEST DUP5 DUP2 LT ISZERO PUSH3 0x13F8 JUMPI DUP1 CALLDATALOAD PUSH8 0xFFFFFFFFFFFFFFFF DUP2 GT ISZERO PUSH3 0x13D9 JUMPI PUSH1 0x0 DUP1 DUP2 REVERT JUMPDEST PUSH3 0x13E9 DUP10 DUP7 DUP4 DUP12 ADD ADD PUSH3 0x11F3 JUMP JUMPDEST DUP5 MSTORE POP SWAP2 DUP4 ADD SWAP2 DUP4 ADD PUSH3 0x13B7 JUMP JUMPDEST POP SWAP7 SWAP6 POP POP POP POP POP POP JUMP JUMPDEST PUSH1 0x0 DUP1 PUSH1 0x0 PUSH1 0x60 DUP5 DUP7 SUB SLT ISZERO PUSH3 0x1419 JUMPI PUSH1 0x0 DUP1 REVERT JUMPDEST DUP4 CALLDATALOAD PUSH8 0xFFFFFFFFFFFFFFFF DUP1 DUP3 GT ISZERO PUSH3 0x1432 JUMPI PUSH1 0x0 DUP1 REVERT JUMPDEST DUP2 DUP7 ADD SWAP2 POP DUP7 PUSH1 0x1F DUP4 ADD SLT PUSH3 0x1447 JUMPI PUSH1 0x0 DUP1 REVERT JUMPDEST DUP2 CALLDATALOAD PUSH1 0x20 PUSH3 0x145A PUSH3 0x138D DUP4 PUSH3 0x1341 JUMP JUMPDEST DUP3 DUP2 MSTORE PUSH1 0x5 SWAP3 SWAP1 SWAP3 SHL DUP5 ADD DUP2 ADD SWAP2 DUP2 DUP2 ADD SWAP1 DUP11 DUP5 GT ISZERO PUSH3 0x147A JUMPI PUSH1 0x0 DUP1 REVERT JUMPDEST SWAP5 DUP3 ADD SWAP5 JUMPDEST DUP4 DUP7 LT ISZERO PUSH3 0x149A JUMPI DUP6 CALLDATALOAD DUP3 MSTORE SWAP5 DUP3 ADD SWAP5 SWAP1 DUP3 ADD SWAP1 PUSH3 0x147F JUMP JUMPDEST SWAP8 POP POP DUP8 ADD CALLDATALOAD SWAP3 POP POP DUP1 DUP3 GT ISZERO PUSH3 0x14B1 JUMPI PUSH1 0x0 DUP1 REVERT JUMPDEST PUSH3 0x14BF DUP8 DUP4 DUP9 ADD PUSH3 0x11F3 JUMP JUMPDEST SWAP4 POP PUSH1 0x40 DUP7 ADD CALLDATALOAD SWAP2 POP DUP1 DUP3 GT ISZERO PUSH3 0x14D6 JUMPI PUSH1 0x0 DUP1 REVERT JUMPDEST POP PUSH3 0x12BD DUP7 DUP3 DUP8 ADD PUSH3 0x1368 JUMP JUMPDEST PUSH1 0x20 DUP1 DUP3 MSTORE PUSH1 0x9 SWAP1 DUP3 ADD MSTORE PUSH9 0x2737BA1037BBB732B9 PUSH1 0xB9 SHL PUSH1 0x40 DUP3 ADD MSTORE PUSH1 0x60 ADD SWAP1 JUMP JUMPDEST PUSH1 0x20 DUP1 DUP3 MSTORE PUSH1 0xE SWAP1 DUP3 ADD MSTORE PUSH14 0x125B9D985B1A59081B585C9AD95D PUSH1 0x92 SHL PUSH1 0x40 DUP3 ADD MSTORE PUSH1 0x60 ADD SWAP1 JUMP JUMPDEST PUSH4 0x4E487B71 PUSH1 0xE0 SHL PUSH1 0x0 MSTORE PUSH1 0x32 PUSH1 0x4 MSTORE PUSH1 0x24 PUSH1 0x0 REVERT JUMPDEST PUSH4 0x4E487B71 PUSH1 0xE0 SHL PUSH1 0x0 MSTORE PUSH1 0x11 PUSH1 0x4 MSTORE PUSH1 0x24 PUSH1 0x0 REVERT JUMPDEST DUP2 DUP2 SUB DUP2 DUP2 GT ISZERO PUSH3 0x875 JUMPI PUSH3 0x875 PUSH3 0x1546 JUMP JUMPDEST PUSH4 0x4E487B71 PUSH1 0xE0 SHL PUSH1 0x0 MSTORE PUSH1 0x31 PUSH1 0x4 MSTORE PUSH1 0x24 PUSH1 0x0 REVERT JUMPDEST PUSH1 0x0 PUSH1 0x1 DUP3 ADD PUSH3 0x159D JUMPI PUSH3 0x159D PUSH3 0x1546 JUMP JUMPDEST POP PUSH1 0x1 ADD SWAP1 JUMP JUMPDEST DUP1 DUP3 ADD DUP1 DUP3 GT ISZERO PUSH3 0x875 JUMPI PUSH3 0x875 PUSH3 0x1546 JUMP JUMPDEST PUSH1 0x0 DUP2 MLOAD DUP1 DUP5 MSTORE PUSH1 0x0 JUMPDEST DUP2 DUP2 LT ISZERO PUSH3 0x15E2 JUMPI PUSH1 0x20 DUP2 DUP6 ADD DUP2 ADD MLOAD DUP7 DUP4 ADD DUP3 ADD MSTORE ADD PUSH3 0x15C4 JUMP JUMPDEST POP PUSH1 0x0 PUSH1 0x20 DUP3 DUP7 ADD ADD MSTORE PUSH1 0x20 PUSH1 0x1F NOT PUSH1 0x1F DUP4 ADD AND DUP6 ADD ADD SWAP2 POP POP SWAP3 SWAP2 POP POP JUMP JUMPDEST DUP3 DUP2 MSTORE PUSH1 0x40 PUSH1 0x20 DUP3 ADD MSTORE PUSH1 0x0 PUSH3 0x161D PUSH1 0x40 DUP4 ADD DUP5 PUSH3 0x15BA JUMP JUMPDEST SWAP5 SWAP4 POP POP POP POP JUMP JUMPDEST PUSH1 0x20 DUP1 DUP3 MSTORE DUP2 ADD DUP3 SWAP1 MSTORE PUSH1 0x0 PUSH1 0x1 PUSH1 0x1 PUSH1 0xFB SHL SUB DUP4 GT ISZERO PUSH3 0x1646 JUMPI PUSH1 0x0 DUP1 REVERT JUMPDEST DUP3 PUSH1 0x5 SHL DUP1 DUP6 PUSH1 0x40 DUP6 ADD CALLDATACOPY SWAP2 SWAP1 SWAP2 ADD PUSH1 0x40 ADD SWAP4 SWAP3 POP POP POP JUMP JUMPDEST PUSH1 0x80 DUP2 MSTORE PUSH1 0x0 PUSH3 0x1674 PUSH1 0x80 DUP4 ADD DUP8 PUSH3 0x1108 JUMP JUMPDEST PUSH1 0x20 DUP4 DUP3 SUB DUP2 DUP6 ADD MSTORE PUSH3 0x1689 DUP3 DUP9 PUSH3 0x15BA JUMP JUMPDEST SWAP2 POP DUP4 DUP3 SUB PUSH1 0x40 DUP6 ADD MSTORE DUP2 DUP7 MLOAD DUP1 DUP5 MSTORE DUP3 DUP5 ADD SWAP2 POP DUP3 DUP2 PUSH1 0x5 SHL DUP6 ADD ADD DUP4 DUP10 ADD PUSH1 0x0 JUMPDEST DUP4 DUP2 LT ISZERO PUSH3 0x16DE JUMPI PUSH1 0x1F NOT DUP8 DUP5 SUB ADD DUP6 MSTORE PUSH3 0x16CB DUP4 DUP4 MLOAD PUSH3 0x15BA JUMP JUMPDEST SWAP5 DUP7 ADD SWAP5 SWAP3 POP SWAP1 DUP6 ADD SWAP1 PUSH1 0x1 ADD PUSH3 0x16AC JUMP JUMPDEST POP POP PUSH1 0x1 PUSH1 0x1 PUSH1 0xA0 SHL SUB SWAP8 SWAP1 SWAP8 AND PUSH1 0x60 SWAP7 SWAP1 SWAP7 ADD SWAP6 SWAP1 SWAP6 MSTORE POP SWAP4 SWAP8 SWAP7 POP POP POP POP POP POP POP JUMP JUMPDEST PUSH1 0x40 DUP2 MSTORE PUSH1 0x0 PUSH3 0x1718 PUSH1 0x40 DUP4 ADD DUP6 PUSH3 0x1108 JUMP JUMPDEST DUP3 DUP2 SUB PUSH1 0x20 DUP5 ADD MSTORE PUSH3 0x172C DUP2 DUP6 PUSH3 0x15BA JUMP JUMPDEST SWAP6 SWAP5 POP POP POP POP POP JUMP INVALID PUSH1 0x80 PUSH1 0x40 MSTORE CALLVALUE DUP1 ISZERO PUSH3 0x11 JUMPI PUSH1 0x0 DUP1 REVERT JUMPDEST POP PUSH1 0x40 MLOAD PUSH3 0x2D93 CODESIZE SUB DUP1 PUSH3 0x2D93 DUP4 CODECOPY DUP2 ADD PUSH1 0x40 DUP2 SWAP1 MSTORE PUSH3 0x34 SWAP2 PUSH3 0x43C JUMP JUMPDEST DUP2 MLOAD DUP5 MLOAD EQ PUSH3 0x7F JUMPI PUSH1 0x40 MLOAD PUSH3 0x461BCD PUSH1 0xE5 SHL DUP2 MSTORE PUSH1 0x20 PUSH1 0x4 DUP3 ADD MSTORE PUSH1 0x11 PUSH1 0x24 DUP3 ADD MSTORE PUSH17 0x4D69736D61746368656420617272617973 PUSH1 0x78 SHL PUSH1 0x44 DUP3 ADD MSTORE PUSH1 0x64 ADD JUMPDEST PUSH1 0x40 MLOAD DUP1 SWAP2 SUB SWAP1 REVERT JUMPDEST PUSH1 0x2 PUSH3 0x8D DUP5 DUP3 PUSH3 0x5CC JUMP JUMPDEST POP PUSH1 0x3 DUP1 SLOAD PUSH1 0x1 PUSH1 0x1 PUSH1 0xA0 SHL SUB NOT AND PUSH1 0x1 PUSH1 0x1 PUSH1 0xA0 SHL SUB DUP4 AND OR SWAP1 SSTORE PUSH1 0x4 DUP1 SLOAD PUSH1 0x1 PUSH1 0x1 PUSH1 0xA8 SHL SUB NOT AND CALLER PUSH1 0xFF PUSH1 0xA0 SHL NOT AND OR SWAP1 SSTORE TIMESTAMP PUSH1 0x6 SSTORE PUSH1 0x0 JUMPDEST DUP5 MLOAD DUP2 LT ISZERO PUSH3 0x27E JUMPI PUSH1 0x0 DUP6 DUP3 DUP2 MLOAD DUP2 LT PUSH3 0xEA JUMPI PUSH3 0xEA PUSH3 0x698 JUMP JUMPDEST PUSH1 0x20 MUL PUSH1 0x20 ADD ADD MLOAD SWAP1 POP DUP1 PUSH1 0x0 SUB PUSH3 0x146 JUMPI PUSH1 0x40 MLOAD PUSH3 0x461BCD PUSH1 0xE5 SHL DUP2 MSTORE PUSH1 0x20 PUSH1 0x4 DUP3 ADD MSTORE PUSH1 0x15 PUSH1 0x24 DUP3 ADD MSTORE PUSH32 0x496E76616C6964206C69766573747265616D2049440000000000000000000000 PUSH1 0x44 DUP3 ADD MSTORE PUSH1 0x64 ADD PUSH3 0x76 JUMP JUMPDEST PUSH1 0x0 DUP2 DUP2 MSTORE PUSH1 0x20 DUP2 SWAP1 MSTORE PUSH1 0x40 SWAP1 KECCAK256 PUSH1 0x2 ADD SLOAD PUSH1 0xFF AND ISZERO PUSH3 0x1AA JUMPI PUSH1 0x40 MLOAD PUSH3 0x461BCD PUSH1 0xE5 SHL DUP2 MSTORE PUSH1 0x20 PUSH1 0x4 DUP3 ADD MSTORE PUSH1 0x19 PUSH1 0x24 DUP3 ADD MSTORE PUSH32 0x4C69766573747265616D20616C72656164792065786973747300000000000000 PUSH1 0x44 DUP3 ADD MSTORE PUSH1 0x64 ADD PUSH3 0x76 JUMP JUMPDEST PUSH1 0x40 MLOAD DUP1 PUSH1 0x80 ADD PUSH1 0x40 MSTORE DUP1 DUP3 DUP2 MSTORE PUSH1 0x20 ADD DUP6 DUP5 DUP2 MLOAD DUP2 LT PUSH3 0x1D0 JUMPI PUSH3 0x1D0 PUSH3 0x698 JUMP JUMPDEST PUSH1 0x20 SWAP1 DUP2 MUL SWAP2 SWAP1 SWAP2 ADD DUP2 ADD MLOAD DUP3 MSTORE PUSH1 0x1 DUP3 DUP3 ADD DUP2 SWAP1 MSTORE TIMESTAMP PUSH1 0x40 SWAP4 DUP5 ADD MSTORE PUSH1 0x0 DUP6 DUP2 MSTORE DUP1 DUP4 MSTORE SWAP3 SWAP1 SWAP3 KECCAK256 DUP4 MLOAD DUP2 SSTORE SWAP1 DUP4 ADD MLOAD SWAP1 SWAP2 DUP3 ADD SWAP1 PUSH3 0x212 SWAP1 DUP3 PUSH3 0x5CC JUMP JUMPDEST POP PUSH1 0x40 DUP3 ADD MLOAD PUSH1 0x2 DUP3 ADD DUP1 SLOAD PUSH1 0xFF NOT AND SWAP2 ISZERO ISZERO SWAP2 SWAP1 SWAP2 OR SWAP1 SSTORE PUSH1 0x60 SWAP1 SWAP2 ADD MLOAD PUSH1 0x3 SWAP1 SWAP2 ADD SSTORE PUSH1 0x1 DUP1 SLOAD DUP1 DUP3 ADD DUP3 SSTORE PUSH1 0x0 SWAP2 SWAP1 SWAP2 MSTORE PUSH32 0xB10E2D527612073B26EECDFD717E6A320CF44B4AFAC2B0732D9FCBE2B7FA0CF6 ADD SSTORE DUP1 PUSH3 0x275 DUP2 PUSH3 0x6AE JUMP JUMPDEST SWAP2 POP POP PUSH3 0xC9 JUMP JUMPDEST POP POP POP POP POP PUSH3 0x6D6 JUMP JUMPDEST PUSH4 0x4E487B71 PUSH1 0xE0 SHL PUSH1 0x0 MSTORE PUSH1 0x41 PUSH1 0x4 MSTORE PUSH1 0x24 PUSH1 0x0 REVERT JUMPDEST PUSH1 0x40 MLOAD PUSH1 0x1F DUP3 ADD PUSH1 0x1F NOT AND DUP2 ADD PUSH1 0x1 PUSH1 0x1 PUSH1 0x40 SHL SUB DUP2 GT DUP3 DUP3 LT OR ISZERO PUSH3 0x2CA JUMPI PUSH3 0x2CA PUSH3 0x289 JUMP JUMPDEST PUSH1 0x40 MSTORE SWAP2 SWAP1 POP JUMP JUMPDEST PUSH1 0x0 PUSH1 0x1 PUSH1 0x1 PUSH1 0x40 SHL SUB DUP3 GT ISZERO PUSH3 0x2EE JUMPI PUSH3 0x2EE PUSH3 0x289 JUMP JUMPDEST POP PUSH1 0x5 SHL PUSH1 0x20 ADD SWAP1 JUMP JUMPDEST PUSH1 0x0 DUP3 PUSH1 0x1F DUP4 ADD SLT PUSH3 0x30A JUMPI PUSH1 0x0 DUP1 REVERT JUMPDEST DUP2 MLOAD PUSH1 0x1 PUSH1 0x1 PUSH1 0x40 SHL SUB DUP2 GT ISZERO PUSH3 0x326 JUMPI PUSH3 0x326 PUSH3 0x289 JUMP JUMPDEST PUSH1 0x20 PUSH3 0x33C PUSH1 0x1F DUP4 ADD PUSH1 0x1F NOT AND DUP3 ADD PUSH3 0x29F JUMP JUMPDEST DUP3 DUP2 MSTORE DUP6 DUP3 DUP5 DUP8 ADD ADD GT ISZERO PUSH3 0x351 JUMPI PUSH1 0x0 DUP1 REVERT JUMPDEST PUSH1 0x0 JUMPDEST DUP4 DUP2 LT ISZERO PUSH3 0x371 JUMPI DUP6 DUP2 ADD DUP4 ADD MLOAD DUP3 DUP3 ADD DUP5 ADD MSTORE DUP3 ADD PUSH3 0x354 JUMP JUMPDEST POP PUSH1 0x0 SWAP3 DUP2 ADD SWAP1 SWAP2 ADD SWAP2 SWAP1 SWAP2 MSTORE SWAP4 SWAP3 POP POP POP JUMP JUMPDEST PUSH1 0x0 DUP3 PUSH1 0x1F DUP4 ADD SLT PUSH3 0x397 JUMPI PUSH1 0x0 DUP1 REVERT JUMPDEST DUP2 MLOAD PUSH1 0x20 PUSH3 0x3B0 PUSH3 0x3AA DUP4 PUSH3 0x2D2 JUMP JUMPDEST PUSH3 0x29F JUMP JUMPDEST DUP3 DUP2 MSTORE PUSH1 0x5 SWAP3 SWAP1 SWAP3 SHL DUP5 ADD DUP2 ADD SWAP2 DUP2 DUP2 ADD SWAP1 DUP7 DUP5 GT ISZERO PUSH3 0x3D0 JUMPI PUSH1 0x0 DUP1 REVERT JUMPDEST DUP3 DUP7 ADD JUMPDEST DUP5 DUP2 LT ISZERO PUSH3 0x414 JUMPI DUP1 MLOAD PUSH1 0x1 PUSH1 0x1 PUSH1 0x40 SHL SUB DUP2 GT ISZERO PUSH3 0x3F5 JUMPI PUSH1 0x0 DUP1 DUP2 REVERT JUMPDEST PUSH3 0x405 DUP10 DUP7 DUP4 DUP12 ADD ADD PUSH3 0x2F8 JUMP JUMPDEST DUP5 MSTORE POP SWAP2 DUP4 ADD SWAP2 DUP4 ADD PUSH3 0x3D4 JUMP JUMPDEST POP SWAP7 SWAP6 POP POP POP POP POP POP JUMP JUMPDEST DUP1 MLOAD PUSH1 0x1 PUSH1 0x1 PUSH1 0xA0 SHL SUB DUP2 AND DUP2 EQ PUSH3 0x437 JUMPI PUSH1 0x0 DUP1 REVERT JUMPDEST SWAP2 SWAP1 POP JUMP JUMPDEST PUSH1 0x0 DUP1 PUSH1 0x0 DUP1 PUSH1 0x80 DUP6 DUP8 SUB SLT ISZERO PUSH3 0x453 JUMPI PUSH1 0x0 DUP1 REVERT JUMPDEST DUP5 MLOAD PUSH1 0x1 PUSH1 0x1 PUSH1 0x40 SHL SUB DUP1 DUP3 GT ISZERO PUSH3 0x46B JUMPI PUSH1 0x0 DUP1 REVERT JUMPDEST DUP2 DUP8 ADD SWAP2 POP DUP8 PUSH1 0x1F DUP4 ADD SLT PUSH3 0x480 JUMPI PUSH1 0x0 DUP1 REVERT JUMPDEST DUP2 MLOAD PUSH1 0x20 PUSH3 0x493 PUSH3 0x3AA DUP4 PUSH3 0x2D2 JUMP JUMPDEST DUP3 DUP2 MSTORE PUSH1 0x5 SWAP3 SWAP1 SWAP3 SHL DUP5 ADD DUP2 ADD SWAP2 DUP2 DUP2 ADD SWAP1 DUP12 DUP5 GT ISZERO PUSH3 0x4B3 JUMPI PUSH1 0x0 DUP1 REVERT JUMPDEST SWAP5 DUP3 ADD SWAP5 JUMPDEST DUP4 DUP7 LT ISZERO PUSH3 0x4D3 JUMPI DUP6 MLOAD DUP3 MSTORE SWAP5 DUP3 ADD SWAP5 SWAP1 DUP3 ADD SWAP1 PUSH3 0x4B8 JUMP JUMPDEST SWAP2 DUP11 ADD MLOAD SWAP2 SWAP9 POP SWAP1 SWAP4 POP POP POP DUP1 DUP3 GT ISZERO PUSH3 0x4ED JUMPI PUSH1 0x0 DUP1 REVERT JUMPDEST PUSH3 0x4FB DUP9 DUP4 DUP10 ADD PUSH3 0x2F8 JUMP JUMPDEST SWAP5 POP PUSH1 0x40 DUP8 ADD MLOAD SWAP2 POP DUP1 DUP3 GT ISZERO PUSH3 0x512 JUMPI PUSH1 0x0 DUP1 REVERT JUMPDEST POP PUSH3 0x521 DUP8 DUP3 DUP9 ADD PUSH3 0x385 JUMP JUMPDEST SWAP3 POP POP PUSH3 0x532 PUSH1 0x60 DUP7 ADD PUSH3 0x41F JUMP JUMPDEST SWAP1 POP SWAP3 SWAP6 SWAP2 SWAP5 POP SWAP3 POP JUMP JUMPDEST PUSH1 0x1 DUP2 DUP2 SHR SWAP1 DUP3 AND DUP1 PUSH3 0x552 JUMPI PUSH1 0x7F DUP3 AND SWAP2 POP JUMPDEST PUSH1 0x20 DUP3 LT DUP2 SUB PUSH3 0x573 JUMPI PUSH4 0x4E487B71 PUSH1 0xE0 SHL PUSH1 0x0 MSTORE PUSH1 0x22 PUSH1 0x4 MSTORE PUSH1 0x24 PUSH1 0x0 REVERT JUMPDEST POP SWAP2 SWAP1 POP JUMP JUMPDEST PUSH1 0x1F DUP3 GT ISZERO PUSH3 0x5C7 JUMPI PUSH1 0x0 DUP2 DUP2 MSTORE PUSH1 0x20 DUP2 KECCAK256 PUSH1 0x1F DUP6 ADD PUSH1 0x5 SHR DUP2 ADD PUSH1 0x20 DUP7 LT ISZERO PUSH3 0x5A2 JUMPI POP DUP1 JUMPDEST PUSH1 0x1F DUP6 ADD PUSH1 0x5 SHR DUP3 ADD SWAP2 POP JUMPDEST DUP2 DUP2 LT ISZERO PUSH3 0x5C3 JUMPI DUP3 DUP2 SSTORE PUSH1 0x1 ADD PUSH3 0x5AE JUMP JUMPDEST POP POP POP JUMPDEST POP POP POP JUMP JUMPDEST DUP2 MLOAD PUSH1 0x1 PUSH1 0x1 PUSH1 0x40 SHL SUB DUP2 GT ISZERO PUSH3 0x5E8 JUMPI PUSH3 0x5E8 PUSH3 0x289 JUMP JUMPDEST PUSH3 0x600 DUP2 PUSH3 0x5F9 DUP5 SLOAD PUSH3 0x53D JUMP JUMPDEST DUP5 PUSH3 0x579 JUMP JUMPDEST PUSH1 0x20 DUP1 PUSH1 0x1F DUP4 GT PUSH1 0x1 DUP2 EQ PUSH3 0x638 JUMPI PUSH1 0x0 DUP5 ISZERO PUSH3 0x61F JUMPI POP DUP6 DUP4 ADD MLOAD JUMPDEST PUSH1 0x0 NOT PUSH1 0x3 DUP7 SWAP1 SHL SHR NOT AND PUSH1 0x1 DUP6 SWAP1 SHL OR DUP6 SSTORE PUSH3 0x5C3 JUMP JUMPDEST PUSH1 0x0 DUP6 DUP2 MSTORE PUSH1 0x20 DUP2 KECCAK256 PUSH1 0x1F NOT DUP7 AND SWAP2 JUMPDEST DUP3 DUP2 LT ISZERO PUSH3 0x669 JUMPI DUP9 DUP7 ADD MLOAD DUP3 SSTORE SWAP5 DUP5 ADD SWAP5 PUSH1 0x1 SWAP1 SWAP2 ADD SWAP1 DUP5 ADD PUSH3 0x648 JUMP JUMPDEST POP DUP6 DUP3 LT ISZERO PUSH3 0x688 JUMPI DUP8 DUP6 ADD MLOAD PUSH1 0x0 NOT PUSH1 0x3 DUP9 SWAP1 SHL PUSH1 0xF8 AND SHR NOT AND DUP2 SSTORE JUMPDEST POP POP POP POP POP PUSH1 0x1 SWAP1 DUP2 SHL ADD SWAP1 SSTORE POP JUMP JUMPDEST PUSH4 0x4E487B71 PUSH1 0xE0 SHL PUSH1 0x0 MSTORE PUSH1 0x32 PUSH1 0x4 MSTORE PUSH1 0x24 PUSH1 0x0 REVERT JUMPDEST PUSH1 0x0 PUSH1 0x1 DUP3 ADD PUSH3 0x6CF JUMPI PUSH4 0x4E487B71 PUSH1 0xE0 SHL PUSH1 0x0 MSTORE PUSH1 0x11 PUSH1 0x4 MSTORE PUSH1 0x24 PUSH1 0x0 REVERT JUMPDEST POP PUSH1 0x1 ADD SWAP1 JUMP JUMPDEST PUSH2 0x26AD DUP1 PUSH3 0x6E6 PUSH1 0x0 CODECOPY PUSH1 0x0 RETURN INVALID PUSH1 0x80 PUSH1 0x40 MSTORE PUSH1 0x4 CALLDATASIZE LT PUSH2 0x1C2 JUMPI PUSH1 0x0 CALLDATALOAD PUSH1 0xE0 SHR DUP1 PUSH4 0x8D6DABC0 GT PUSH2 0xF7 JUMPI DUP1 PUSH4 0xD2B2E973 GT PUSH2 0x95 JUMPI DUP1 PUSH4 0xF15D34BD GT PUSH2 0x64 JUMPI DUP1 PUSH4 0xF15D34BD EQ PUSH2 0x563 JUMPI DUP1 PUSH4 0xF5BBCD2A EQ PUSH2 0x583 JUMPI DUP1 PUSH4 0xF6626042 EQ PUSH2 0x599 JUMPI DUP1 PUSH4 0xF6767ADF EQ PUSH2 0x5B9 JUMPI PUSH1 0x0 DUP1 REVERT JUMPDEST DUP1 PUSH4 0xD2B2E973 EQ PUSH2 0x502 JUMPI DUP1 PUSH4 0xDCF6E037 EQ PUSH2 0x522 JUMPI DUP1 PUSH4 0xE88499A9 EQ PUSH2 0x538 JUMPI DUP1 PUSH4 0xECFB49A3 EQ PUSH2 0x54D JUMPI PUSH1 0x0 DUP1 REVERT JUMPDEST DUP1 PUSH4 0xC19D93FB GT PUSH2 0xD1 JUMPI DUP1 PUSH4 0xC19D93FB EQ PUSH2 0x489 JUMPI DUP1 PUSH4 0xC45A0155 EQ PUSH2 0x4B7 JUMPI DUP1 PUSH4 0xC511ED5E EQ PUSH2 0x4D7 JUMPI DUP1 PUSH4 0xCF09E0D0 EQ PUSH2 0x4EC JUMPI PUSH1 0x0 DUP1 REVERT JUMPDEST DUP1 PUSH4 0x8D6DABC0 EQ PUSH2 0x416 JUMPI DUP1 PUSH4 0x9EF27B00 EQ PUSH2 0x453 JUMPI DUP1 PUSH4 0xB72C923E EQ PUSH2 0x469 JUMPI PUSH1 0x0 DUP1 REVERT JUMPDEST DUP1 PUSH4 0x3482B644 GT PUSH2 0x164 JUMPI DUP1 PUSH4 0x4A39EC90 GT PUSH2 0x13E JUMPI DUP1 PUSH4 0x4A39EC90 EQ PUSH2 0x379 JUMPI DUP1 PUSH4 0x6399D03D EQ PUSH2 0x3B1 JUMPI DUP1 PUSH4 0x7DC0D1D0 EQ PUSH2 0x3D1 JUMPI DUP1 PUSH4 0x85387382 EQ PUSH2 0x3F1 JUMPI PUSH1 0x0 DUP1 REVERT JUMPDEST DUP1 PUSH4 0x3482B644 EQ PUSH2 0x2F2 JUMPI DUP1 PUSH4 0x374C6E1C EQ PUSH2 0x32A JUMPI DUP1 PUSH4 0x3FAD9AE0 EQ PUSH2 0x357 JUMPI PUSH1 0x0 DUP1 REVERT JUMPDEST DUP1 PUSH4 0x19EFFEB4 GT PUSH2 0x1A0 JUMPI DUP1 PUSH4 0x19EFFEB4 EQ PUSH2 0x255 JUMPI DUP1 PUSH4 0x1BE4F49D EQ PUSH2 0x279 JUMPI DUP1 PUSH4 0x23341A05 EQ PUSH2 0x299 JUMPI DUP1 PUSH4 0x2D56657D EQ PUSH2 0x2C4 JUMPI PUSH1 0x0 DUP1 REVERT JUMPDEST DUP1 PUSH4 0x1E5C96E EQ PUSH2 0x1C7 JUMPI DUP1 PUSH4 0x10FE7C48 EQ PUSH2 0x200 JUMPI DUP1 PUSH4 0x136F1016 EQ PUSH2 0x215 JUMPI JUMPDEST PUSH1 0x0 DUP1 REVERT JUMPDEST CALLVALUE DUP1 ISZERO PUSH2 0x1D3 JUMPI PUSH1 0x0 DUP1 REVERT JUMPDEST POP PUSH2 0x1E7 PUSH2 0x1E2 CALLDATASIZE PUSH1 0x4 PUSH2 0x1FDF JUMP JUMPDEST PUSH2 0x5D9 JUMP JUMPDEST PUSH1 0x40 MLOAD PUSH2 0x1F7 SWAP5 SWAP4 SWAP3 SWAP2 SWAP1 PUSH2 0x203E JUMP JUMPDEST PUSH1 0x40 MLOAD DUP1 SWAP2 SUB SWAP1 RETURN JUMPDEST PUSH2 0x213 PUSH2 0x20E CALLDATASIZE PUSH1 0x4 PUSH2 0x1FDF JUMP JUMPDEST PUSH2 0x68E JUMP JUMPDEST STOP JUMPDEST CALLVALUE DUP1 ISZERO PUSH2 0x221 JUMPI PUSH1 0x0 DUP1 REVERT JUMPDEST POP PUSH2 0x245 PUSH2 0x230 CALLDATASIZE PUSH1 0x4 PUSH2 0x2086 JUMP JUMPDEST PUSH1 0xC PUSH1 0x20 MSTORE PUSH1 0x0 SWAP1 DUP2 MSTORE PUSH1 0x40 SWAP1 KECCAK256 SLOAD PUSH1 0xFF AND DUP2 JUMP JUMPDEST PUSH1 0x40 MLOAD SWAP1 ISZERO ISZERO DUP2 MSTORE PUSH1 0x20 ADD PUSH2 0x1F7 JUMP JUMPDEST CALLVALUE DUP1 ISZERO PUSH2 0x261 JUMPI PUSH1 0x0 DUP1 REVERT JUMPDEST POP PUSH2 0x26B PUSH1 0x8 SLOAD DUP2 JUMP JUMPDEST PUSH1 0x40 MLOAD SWAP1 DUP2 MSTORE PUSH1 0x20 ADD PUSH2 0x1F7 JUMP JUMPDEST CALLVALUE DUP1 ISZERO PUSH2 0x285 JUMPI PUSH1 0x0 DUP1 REVERT JUMPDEST POP PUSH2 0x213 PUSH2 0x294 CALLDATASIZE PUSH1 0x4 PUSH2 0x20BE JUMP JUMPDEST PUSH2 0x970 JUMP JUMPDEST CALLVALUE DUP1 ISZERO PUSH2 0x2A5 JUMPI PUSH1 0x0 DUP1 REVERT JUMPDEST POP PUSH2 0x2AE PUSH2 0xACC JUMP JUMPDEST PUSH1 0x40 MLOAD PUSH2 0x1F7 SWAP11 SWAP10 SWAP9 SWAP8 SWAP7 SWAP6 SWAP5 SWAP4 SWAP3 SWAP2 SWAP1 PUSH2 0x2244 JUMP JUMPDEST CALLVALUE DUP1 ISZERO PUSH2 0x2D0 JUMPI PUSH1 0x0 DUP1 REVERT JUMPDEST POP PUSH2 0x2E4 PUSH2 0x2DF CALLDATASIZE PUSH1 0x4 PUSH2 0x2086 JUMP JUMPDEST PUSH2 0xD50 JUMP JUMPDEST PUSH1 0x40 MLOAD PUSH2 0x1F7 SWAP3 SWAP2 SWAP1 PUSH2 0x22C5 JUMP JUMPDEST CALLVALUE DUP1 ISZERO PUSH2 0x2FE JUMPI PUSH1 0x0 DUP1 REVERT JUMPDEST POP PUSH2 0x312 PUSH2 0x30D CALLDATASIZE PUSH1 0x4 PUSH2 0x1FDF JUMP JUMPDEST PUSH2 0xF28 JUMP JUMPDEST PUSH1 0x40 MLOAD PUSH1 0x1 PUSH1 0x1 PUSH1 0xA0 SHL SUB SWAP1 SWAP2 AND DUP2 MSTORE PUSH1 0x20 ADD PUSH2 0x1F7 JUMP JUMPDEST CALLVALUE DUP1 ISZERO PUSH2 0x336 JUMPI PUSH1 0x0 DUP1 REVERT JUMPDEST POP PUSH2 0x26B PUSH2 0x345 CALLDATASIZE PUSH1 0x4 PUSH2 0x1FDF JUMP JUMPDEST PUSH1 0xA PUSH1 0x20 MSTORE PUSH1 0x0 SWAP1 DUP2 MSTORE PUSH1 0x40 SWAP1 KECCAK256 SLOAD DUP2 JUMP JUMPDEST CALLVALUE DUP1 ISZERO PUSH2 0x363 JUMPI PUSH1 0x0 DUP1 REVERT JUMPDEST POP PUSH2 0x36C PUSH2 0xF52 JUMP JUMPDEST PUSH1 0x40 MLOAD PUSH2 0x1F7 SWAP2 SWAP1 PUSH2 0x22F3 JUMP JUMPDEST CALLVALUE DUP1 ISZERO PUSH2 0x385 JUMPI PUSH1 0x0 DUP1 REVERT JUMPDEST POP PUSH2 0x26B PUSH2 0x394 CALLDATASIZE PUSH1 0x4 PUSH2 0x2306 JUMP JUMPDEST PUSH1 0x9 PUSH1 0x20 SWAP1 DUP2 MSTORE PUSH1 0x0 SWAP3 DUP4 MSTORE PUSH1 0x40 DUP1 DUP5 KECCAK256 SWAP1 SWAP2 MSTORE SWAP1 DUP3 MSTORE SWAP1 KECCAK256 SLOAD DUP2 JUMP JUMPDEST CALLVALUE DUP1 ISZERO PUSH2 0x3BD JUMPI PUSH1 0x0 DUP1 REVERT JUMPDEST POP PUSH2 0x213 PUSH2 0x3CC CALLDATASIZE PUSH1 0x4 PUSH2 0x1FDF JUMP JUMPDEST PUSH2 0xFE0 JUMP JUMPDEST CALLVALUE DUP1 ISZERO PUSH2 0x3DD JUMPI PUSH1 0x0 DUP1 REVERT JUMPDEST POP PUSH1 0x3 SLOAD PUSH2 0x312 SWAP1 PUSH1 0x1 PUSH1 0x1 PUSH1 0xA0 SHL SUB AND DUP2 JUMP JUMPDEST CALLVALUE DUP1 ISZERO PUSH2 0x3FD JUMPI PUSH1 0x0 DUP1 REVERT JUMPDEST POP PUSH2 0x406 PUSH2 0x1157 JUMP JUMPDEST PUSH1 0x40 MLOAD PUSH2 0x1F7 SWAP5 SWAP4 SWAP3 SWAP2 SWAP1 PUSH2 0x2330 JUMP JUMPDEST CALLVALUE DUP1 ISZERO PUSH2 0x422 JUMPI PUSH1 0x0 DUP1 REVERT JUMPDEST POP PUSH2 0x436 PUSH2 0x431 CALLDATASIZE PUSH1 0x4 PUSH2 0x1FDF JUMP JUMPDEST PUSH2 0x14DA JUMP JUMPDEST PUSH1 0x40 DUP1 MLOAD SWAP4 DUP5 MSTORE PUSH1 0x20 DUP5 ADD SWAP3 SWAP1 SWAP3 MSTORE ISZERO ISZERO SWAP1 DUP3 ADD MSTORE PUSH1 0x60 ADD PUSH2 0x1F7 JUMP JUMPDEST CALLVALUE DUP1 ISZERO PUSH2 0x45F JUMPI PUSH1 0x0 DUP1 REVERT JUMPDEST POP PUSH2 0x26B PUSH1 0x7 SLOAD DUP2 JUMP JUMPDEST CALLVALUE DUP1 ISZERO PUSH2 0x475 JUMPI PUSH1 0x0 DUP1 REVERT JUMPDEST POP PUSH2 0x26B PUSH2 0x484 CALLDATASIZE PUSH1 0x4 PUSH2 0x1FDF JUMP JUMPDEST PUSH2 0x1592 JUMP JUMPDEST CALLVALUE DUP1 ISZERO PUSH2 0x495 JUMPI PUSH1 0x0 DUP1 REVERT JUMPDEST POP PUSH1 0x4 SLOAD PUSH2 0x4AA SWAP1 PUSH1 0x1 PUSH1 0xA0 SHL SWAP1 DIV PUSH1 0xFF AND DUP2 JUMP JUMPDEST PUSH1 0x40 MLOAD PUSH2 0x1F7 SWAP2 SWAP1 PUSH2 0x2388 JUMP JUMPDEST CALLVALUE DUP1 ISZERO PUSH2 0x4C3 JUMPI PUSH1 0x0 DUP1 REVERT JUMPDEST POP PUSH1 0x4 SLOAD PUSH2 0x312 SWAP1 PUSH1 0x1 PUSH1 0x1 PUSH1 0xA0 SHL SUB AND DUP2 JUMP JUMPDEST CALLVALUE DUP1 ISZERO PUSH2 0x4E3 JUMPI PUSH1 0x0 DUP1 REVERT JUMPDEST POP PUSH2 0x213 PUSH2 0x15B3 JUMP JUMPDEST CALLVALUE DUP1 ISZERO PUSH2 0x4F8 JUMPI PUSH1 0x0 DUP1 REVERT JUMPDEST POP PUSH2 0x26B PUSH1 0x6 SLOAD DUP2 JUMP JUMPDEST CALLVALUE DUP1 ISZERO PUSH2 0x50E JUMPI PUSH1 0x0 DUP1 REVERT JUMPDEST POP PUSH2 0x1E7 PUSH2 0x51D CALLDATASIZE PUSH1 0x4 PUSH2 0x1FDF JUMP JUMPDEST PUSH2 0x16CD JUMP JUMPDEST CALLVALUE DUP1 ISZERO PUSH2 0x52E JUMPI PUSH1 0x0 DUP1 REVERT JUMPDEST POP PUSH2 0x26B PUSH1 0x5 SLOAD DUP2 JUMP JUMPDEST CALLVALUE DUP1 ISZERO PUSH2 0x544 JUMPI PUSH1 0x0 DUP1 REVERT JUMPDEST POP PUSH2 0x213 PUSH2 0x17CD JUMP JUMPDEST CALLVALUE DUP1 ISZERO PUSH2 0x559 JUMPI PUSH1 0x0 DUP1 REVERT JUMPDEST POP PUSH2 0x26B PUSH1 0xB SLOAD DUP2 JUMP JUMPDEST CALLVALUE DUP1 ISZERO PUSH2 0x56F JUMPI PUSH1 0x0 DUP1 REVERT JUMPDEST POP PUSH2 0x213 PUSH2 0x57E CALLDATASIZE PUSH1 0x4 PUSH2 0x20BE JUMP JUMPDEST PUSH2 0x19BA JUMP JUMPDEST CALLVALUE DUP1 ISZERO PUSH2 0x58F JUMPI PUSH1 0x0 DUP1 REVERT JUMPDEST POP PUSH2 0x26B PUSH1 0xE SLOAD DUP2 JUMP JUMPDEST CALLVALUE DUP1 ISZERO PUSH2 0x5A5 JUMPI PUSH1 0x0 DUP1 REVERT JUMPDEST POP PUSH2 0x213 PUSH2 0x5B4 CALLDATASIZE PUSH1 0x4 PUSH2 0x20BE JUMP JUMPDEST PUSH2 0x1CE5 JUMP JUMPDEST CALLVALUE DUP1 ISZERO PUSH2 0x5C5 JUMPI PUSH1 0x0 DUP1 REVERT JUMPDEST POP PUSH2 0x213 PUSH2 0x5D4 CALLDATASIZE PUSH1 0x4 PUSH2 0x1FDF JUMP JUMPDEST PUSH2 0x1E17 JUMP JUMPDEST PUSH1 0x0 PUSH1 0x20 DUP2 SWAP1 MSTORE SWAP1 DUP2 MSTORE PUSH1 0x40 SWAP1 KECCAK256 DUP1 SLOAD PUSH1 0x1 DUP3 ADD DUP1 SLOAD SWAP2 SWAP3 SWAP2 PUSH2 0x5FB SWAP1 PUSH2 0x239C JUMP JUMPDEST DUP1 PUSH1 0x1F ADD PUSH1 0x20 DUP1 SWAP2 DIV MUL PUSH1 0x20 ADD PUSH1 0x40 MLOAD SWAP1 DUP2 ADD PUSH1 0x40 MSTORE DUP1 SWAP3 SWAP2 SWAP1 DUP2 DUP2 MSTORE PUSH1 0x20 ADD DUP3 DUP1 SLOAD PUSH2 0x627 SWAP1 PUSH2 0x239C JUMP JUMPDEST DUP1 ISZERO PUSH2 0x674 JUMPI DUP1 PUSH1 0x1F LT PUSH2 0x649 JUMPI PUSH2 0x100 DUP1 DUP4 SLOAD DIV MUL DUP4 MSTORE SWAP2 PUSH1 0x20 ADD SWAP2 PUSH2 0x674 JUMP JUMPDEST DUP3 ADD SWAP2 SWAP1 PUSH1 0x0 MSTORE PUSH1 0x20 PUSH1 0x0 KECCAK256 SWAP1 JUMPDEST DUP2 SLOAD DUP2 MSTORE SWAP1 PUSH1 0x1 ADD SWAP1 PUSH1 0x20 ADD DUP1 DUP4 GT PUSH2 0x657 JUMPI DUP3 SWAP1 SUB PUSH1 0x1F AND DUP3 ADD SWAP2 JUMPDEST POP POP POP POP PUSH1 0x2 DUP4 ADD SLOAD PUSH1 0x3 SWAP1 SWAP4 ADD SLOAD SWAP2 SWAP3 PUSH1 0xFF AND SWAP2 SWAP1 POP DUP5 JUMP JUMPDEST PUSH1 0x0 DUP1 PUSH1 0x4 SLOAD PUSH1 0x1 PUSH1 0xA0 SHL SWAP1 DIV PUSH1 0xFF AND PUSH1 0x2 DUP2 GT ISZERO PUSH2 0x6AF JUMPI PUSH2 0x6AF PUSH2 0x220C JUMP JUMPDEST EQ PUSH2 0x6D5 JUMPI PUSH1 0x40 MLOAD PUSH3 0x461BCD PUSH1 0xE5 SHL DUP2 MSTORE PUSH1 0x4 ADD PUSH2 0x6CC SWAP1 PUSH2 0x23D6 JUMP JUMPDEST PUSH1 0x40 MLOAD DUP1 SWAP2 SUB SWAP1 REVERT JUMPDEST PUSH1 0x0 CALLVALUE GT PUSH2 0x715 JUMPI PUSH1 0x40 MLOAD PUSH3 0x461BCD PUSH1 0xE5 SHL DUP2 MSTORE PUSH1 0x20 PUSH1 0x4 DUP3 ADD MSTORE PUSH1 0xD PUSH1 0x24 DUP3 ADD MSTORE PUSH13 0x9AEAE6E840E6CADCC8408AA89 PUSH1 0x9B SHL PUSH1 0x44 DUP3 ADD MSTORE PUSH1 0x64 ADD PUSH2 0x6CC JUMP JUMPDEST PUSH1 0x0 DUP3 GT PUSH2 0x735 JUMPI PUSH1 0x40 MLOAD PUSH3 0x461BCD PUSH1 0xE5 SHL DUP2 MSTORE PUSH1 0x4 ADD PUSH2 0x6CC SWAP1 PUSH2 0x23FD JUMP JUMPDEST PUSH1 0x0 DUP3 DUP2 MSTORE PUSH1 0x20 DUP2 SWAP1 MSTORE PUSH1 0x40 DUP2 KECCAK256 SLOAD SWAP1 SUB PUSH2 0x83E JUMPI PUSH1 0x40 MLOAD PUSH9 0x50726F6A6563742023 PUSH1 0xB8 SHL PUSH1 0x20 DUP3 ADD MSTORE PUSH1 0x29 DUP2 ADD DUP4 SWAP1 MSTORE PUSH1 0x0 SWAP1 PUSH1 0x49 ADD PUSH1 0x40 DUP1 MLOAD PUSH1 0x1F NOT DUP2 DUP5 SUB ADD DUP2 MSTORE PUSH1 0x80 DUP4 ADD DUP3 MSTORE DUP6 DUP4 MSTORE PUSH1 0x20 DUP4 DUP2 ADD DUP3 DUP2 MSTORE PUSH1 0x1 DUP6 DUP6 ADD DUP2 SWAP1 MSTORE TIMESTAMP PUSH1 0x60 DUP8 ADD MSTORE PUSH1 0x0 DUP10 DUP2 MSTORE SWAP3 DUP4 SWAP1 MSTORE SWAP4 SWAP1 SWAP2 KECCAK256 DUP5 MLOAD DUP2 SSTORE SWAP1 MLOAD SWAP2 SWAP5 POP SWAP2 DUP3 ADD SWAP1 PUSH2 0x7BC SWAP1 DUP3 PUSH2 0x2472 JUMP JUMPDEST POP PUSH1 0x40 DUP3 DUP2 ADD MLOAD PUSH1 0x2 DUP4 ADD DUP1 SLOAD PUSH1 0xFF NOT AND SWAP2 ISZERO ISZERO SWAP2 SWAP1 SWAP2 OR SWAP1 SSTORE PUSH1 0x60 SWAP1 SWAP3 ADD MLOAD PUSH1 0x3 SWAP1 SWAP2 ADD SSTORE PUSH1 0x1 DUP1 SLOAD DUP1 DUP3 ADD DUP3 SSTORE PUSH1 0x0 SWAP2 SWAP1 SWAP2 MSTORE PUSH32 0xB10E2D527612073B26EECDFD717E6A320CF44B4AFAC2B0732D9FCBE2B7FA0CF6 ADD DUP5 SWAP1 SSTORE MLOAD DUP4 SWAP1 PUSH1 0x0 DUP1 MLOAD PUSH1 0x20 PUSH2 0x2658 DUP4 CODECOPY DUP2 MLOAD SWAP2 MSTORE SWAP1 PUSH2 0x834 SWAP1 DUP5 SWAP1 PUSH2 0x22F3 JUMP JUMPDEST PUSH1 0x40 MLOAD DUP1 SWAP2 SUB SWAP1 LOG2 POP JUMPDEST CALLER PUSH1 0x0 SWAP1 DUP2 MSTORE PUSH1 0xC PUSH1 0x20 MSTORE PUSH1 0x40 SWAP1 KECCAK256 SLOAD PUSH1 0xFF AND PUSH2 0x8C5 JUMPI CALLER PUSH1 0x0 DUP2 DUP2 MSTORE PUSH1 0xC PUSH1 0x20 MSTORE PUSH1 0x40 DUP2 KECCAK256 DUP1 SLOAD PUSH1 0xFF NOT AND PUSH1 0x1 SWAP1 DUP2 OR SWAP1 SWAP2 SSTORE PUSH1 0xD DUP1 SLOAD SWAP2 DUP3 ADD DUP2 SSTORE DUP3 MSTORE PUSH32 0xD7B6990105719101DABEB77144F2A3385C8033ACD3AF97E9423A695E81AD1EB5 ADD DUP1 SLOAD PUSH1 0x1 PUSH1 0x1 PUSH1 0xA0 SHL SUB NOT AND SWAP1 SWAP3 OR SWAP1 SWAP2 SSTORE PUSH1 0xE DUP1 SLOAD SWAP2 PUSH2 0x8BF DUP4 PUSH2 0x2548 JUMP JUMPDEST SWAP2 SWAP1 POP SSTORE POP JUMPDEST CALLER PUSH1 0x0 SWAP1 DUP2 MSTORE PUSH1 0x9 PUSH1 0x20 SWAP1 DUP2 MSTORE PUSH1 0x40 DUP1 DUP4 KECCAK256 DUP6 DUP5 MSTORE SWAP1 SWAP2 MSTORE DUP2 KECCAK256 DUP1 SLOAD CALLVALUE SWAP3 SWAP1 PUSH2 0x8EF SWAP1 DUP5 SWAP1 PUSH2 0x2561 JUMP JUMPDEST SWAP1 SWAP2 SSTORE POP POP PUSH1 0x0 DUP3 DUP2 MSTORE PUSH1 0xA PUSH1 0x20 MSTORE PUSH1 0x40 DUP2 KECCAK256 DUP1 SLOAD CALLVALUE SWAP3 SWAP1 PUSH2 0x912 SWAP1 DUP5 SWAP1 PUSH2 0x2561 JUMP JUMPDEST SWAP3 POP POP DUP2 SWAP1 SSTORE POP CALLVALUE PUSH1 0xB PUSH1 0x0 DUP3 DUP3 SLOAD PUSH2 0x92B SWAP2 SWAP1 PUSH2 0x2561 JUMP JUMPDEST SWAP1 SWAP2 SSTORE POP POP PUSH1 0x40 DUP1 MLOAD CALLVALUE DUP2 MSTORE TIMESTAMP PUSH1 0x20 DUP3 ADD MSTORE DUP4 SWAP2 CALLER SWAP2 PUSH32 0x7363E6581DF4DB69463222156BE4A09656528B9F1302890FA4C0B60819B69FC6 SWAP2 ADD PUSH1 0x40 MLOAD DUP1 SWAP2 SUB SWAP1 LOG3 POP POP JUMP JUMPDEST PUSH1 0x3 SLOAD PUSH1 0x1 PUSH1 0x1 PUSH1 0xA0 SHL SUB AND CALLER EQ PUSH2 0x99A JUMPI PUSH1 0x40 MLOAD PUSH3 0x461BCD PUSH1 0xE5 SHL DUP2 MSTORE PUSH1 0x4 ADD PUSH2 0x6CC SWAP1 PUSH2 0x2574 JUMP JUMPDEST PUSH1 0x0 DUP1 PUSH1 0x4 SLOAD PUSH1 0x1 PUSH1 0xA0 SHL SWAP1 DIV PUSH1 0xFF AND PUSH1 0x2 DUP2 GT ISZERO PUSH2 0x9BB JUMPI PUSH2 0x9BB PUSH2 0x220C JUMP JUMPDEST EQ PUSH2 0x9D8 JUMPI PUSH1 0x40 MLOAD PUSH3 0x461BCD PUSH1 0xE5 SHL DUP2 MSTORE PUSH1 0x4 ADD PUSH2 0x6CC SWAP1 PUSH2 0x23D6 JUMP JUMPDEST PUSH1 0x0 DUP4 DUP2 MSTORE PUSH1 0x20 DUP2 SWAP1 MSTORE PUSH1 0x40 DUP2 KECCAK256 SLOAD SWAP1 SUB PUSH2 0xA2C JUMPI PUSH1 0x40 MLOAD PUSH3 0x461BCD PUSH1 0xE5 SHL DUP2 MSTORE PUSH1 0x20 PUSH1 0x4 DUP3 ADD MSTORE PUSH1 0x14 PUSH1 0x24 DUP3 ADD MSTORE PUSH20 0x131A5D995CDD1C99585B481B9BDD08199BDD5B99 PUSH1 0x62 SHL PUSH1 0x44 DUP3 ADD MSTORE PUSH1 0x64 ADD PUSH2 0x6CC JUMP JUMPDEST PUSH1 0x0 DUP4 DUP2 MSTORE PUSH1 0x20 DUP2 SWAP1 MSTORE PUSH1 0x40 SWAP1 KECCAK256 PUSH1 0x2 ADD SLOAD PUSH1 0xFF AND PUSH2 0xA85 JUMPI PUSH1 0x40 MLOAD PUSH3 0x461BCD PUSH1 0xE5 SHL DUP2 MSTORE PUSH1 0x20 PUSH1 0x4 DUP3 ADD MSTORE PUSH1 0x15 PUSH1 0x24 DUP3 ADD MSTORE PUSH21 0x4C69766573747265616D206E6F7420616374697665 PUSH1 0x58 SHL PUSH1 0x44 DUP3 ADD MSTORE PUSH1 0x64 ADD PUSH2 0x6CC JUMP JUMPDEST PUSH1 0x0 DUP4 DUP2 MSTORE PUSH1 0x20 DUP2 SWAP1 MSTORE PUSH1 0x40 SWAP1 KECCAK256 PUSH1 0x1 ADD PUSH2 0xAA0 DUP4 DUP3 PUSH2 0x2472 JUMP JUMPDEST POP DUP3 PUSH1 0x0 DUP1 MLOAD PUSH1 0x20 PUSH2 0x2658 DUP4 CODECOPY DUP2 MLOAD SWAP2 MSTORE DUP4 PUSH1 0x40 MLOAD PUSH2 0xABF SWAP2 SWAP1 PUSH2 0x22F3 JUMP JUMPDEST PUSH1 0x40 MLOAD DUP1 SWAP2 SUB SWAP1 LOG2 POP POP POP JUMP JUMPDEST PUSH1 0x60 DUP1 PUSH1 0x60 PUSH1 0x0 DUP1 PUSH1 0x0 DUP1 PUSH1 0x0 DUP1 PUSH1 0x0 DUP1 PUSH1 0x1 DUP1 SLOAD SWAP1 POP PUSH8 0xFFFFFFFFFFFFFFFF DUP2 GT ISZERO PUSH2 0xAFB JUMPI PUSH2 0xAFB PUSH2 0x20A8 JUMP JUMPDEST PUSH1 0x40 MLOAD SWAP1 DUP1 DUP3 MSTORE DUP1 PUSH1 0x20 MUL PUSH1 0x20 ADD DUP3 ADD PUSH1 0x40 MSTORE DUP1 ISZERO PUSH2 0xB2E JUMPI DUP2 PUSH1 0x20 ADD JUMPDEST PUSH1 0x60 DUP2 MSTORE PUSH1 0x20 ADD SWAP1 PUSH1 0x1 SWAP1 SUB SWAP1 DUP2 PUSH2 0xB19 JUMPI SWAP1 POP JUMPDEST POP SWAP1 POP PUSH1 0x0 JUMPDEST PUSH1 0x1 SLOAD DUP2 LT ISZERO PUSH2 0xC29 JUMPI PUSH1 0x0 DUP1 PUSH1 0x1 DUP4 DUP2 SLOAD DUP2 LT PUSH2 0xB54 JUMPI PUSH2 0xB54 PUSH2 0x2598 JUMP JUMPDEST SWAP1 PUSH1 0x0 MSTORE PUSH1 0x20 PUSH1 0x0 KECCAK256 ADD SLOAD DUP2 MSTORE PUSH1 0x20 ADD SWAP1 DUP2 MSTORE PUSH1 0x20 ADD PUSH1 0x0 KECCAK256 PUSH1 0x1 ADD DUP1 SLOAD PUSH2 0xB7B SWAP1 PUSH2 0x239C JUMP JUMPDEST DUP1 PUSH1 0x1F ADD PUSH1 0x20 DUP1 SWAP2 DIV MUL PUSH1 0x20 ADD PUSH1 0x40 MLOAD SWAP1 DUP2 ADD PUSH1 0x40 MSTORE DUP1 SWAP3 SWAP2 SWAP1 DUP2 DUP2 MSTORE PUSH1 0x20 ADD DUP3 DUP1 SLOAD PUSH2 0xBA7 SWAP1 PUSH2 0x239C JUMP JUMPDEST DUP1 ISZERO PUSH2 0xBF4 JUMPI DUP1 PUSH1 0x1F LT PUSH2 0xBC9 JUMPI PUSH2 0x100 DUP1 DUP4 SLOAD DIV MUL DUP4 MSTORE SWAP2 PUSH1 0x20 ADD SWAP2 PUSH2 0xBF4 JUMP JUMPDEST DUP3 ADD SWAP2 SWAP1 PUSH1 0x0 MSTORE PUSH1 0x20 PUSH1 0x0 KECCAK256 SWAP1 JUMPDEST DUP2 SLOAD DUP2 MSTORE SWAP1 PUSH1 0x1 ADD SWAP1 PUSH1 0x20 ADD DUP1 DUP4 GT PUSH2 0xBD7 JUMPI DUP3 SWAP1 SUB PUSH1 0x1F AND DUP3 ADD SWAP2 JUMPDEST POP POP POP POP POP DUP3 DUP3 DUP2 MLOAD DUP2 LT PUSH2 0xC0B JUMPI PUSH2 0xC0B PUSH2 0x2598 JUMP JUMPDEST PUSH1 0x20 MUL PUSH1 0x20 ADD ADD DUP2 SWAP1 MSTORE POP DUP1 DUP1 PUSH2 0xC21 SWAP1 PUSH2 0x2548 JUMP JUMPDEST SWAP2 POP POP PUSH2 0xB34 JUMP JUMPDEST POP PUSH1 0x1 PUSH1 0x2 DUP3 PUSH1 0x4 PUSH1 0x14 SWAP1 SLOAD SWAP1 PUSH2 0x100 EXP SWAP1 DIV PUSH1 0xFF AND PUSH1 0x5 SLOAD PUSH1 0xB SLOAD PUSH1 0xE SLOAD PUSH1 0x6 SLOAD PUSH1 0x7 SLOAD PUSH1 0x8 SLOAD DUP10 DUP1 SLOAD DUP1 PUSH1 0x20 MUL PUSH1 0x20 ADD PUSH1 0x40 MLOAD SWAP1 DUP2 ADD PUSH1 0x40 MSTORE DUP1 SWAP3 SWAP2 SWAP1 DUP2 DUP2 MSTORE PUSH1 0x20 ADD DUP3 DUP1 SLOAD DUP1 ISZERO PUSH2 0xC9C JUMPI PUSH1 0x20 MUL DUP3 ADD SWAP2 SWAP1 PUSH1 0x0 MSTORE PUSH1 0x20 PUSH1 0x0 KECCAK256 SWAP1 JUMPDEST DUP2 SLOAD DUP2 MSTORE PUSH1 0x20 ADD SWAP1 PUSH1 0x1 ADD SWAP1 DUP1 DUP4 GT PUSH2 0xC88 JUMPI JUMPDEST POP POP POP POP POP SWAP10 POP DUP9 DUP1 SLOAD PUSH2 0xCAF SWAP1 PUSH2 0x239C JUMP JUMPDEST DUP1 PUSH1 0x1F ADD PUSH1 0x20 DUP1 SWAP2 DIV MUL PUSH1 0x20 ADD PUSH1 0x40 MLOAD SWAP1 DUP2 ADD PUSH1 0x40 MSTORE DUP1 SWAP3 SWAP2 SWAP1 DUP2 DUP2 MSTORE PUSH1 0x20 ADD DUP3 DUP1 SLOAD PUSH2 0xCDB SWAP1 PUSH2 0x239C JUMP JUMPDEST DUP1 ISZERO PUSH2 0xD28 JUMPI DUP1 PUSH1 0x1F LT PUSH2 0xCFD JUMPI PUSH2 0x100 DUP1 DUP4 SLOAD DIV MUL DUP4 MSTORE SWAP2 PUSH1 0x20 ADD SWAP2 PUSH2 0xD28 JUMP JUMPDEST DUP3 ADD SWAP2 SWAP1 PUSH1 0x0 MSTORE PUSH1 0x20 PUSH1 0x0 KECCAK256 SWAP1 JUMPDEST DUP2 SLOAD DUP2 MSTORE SWAP1 PUSH1 0x1 ADD SWAP1 PUSH1 0x20 ADD DUP1 DUP4 GT PUSH2 0xD0B JUMPI DUP3 SWAP1 SUB PUSH1 0x1F AND DUP3 ADD SWAP2 JUMPDEST POP POP POP POP POP SWAP9 POP SWAP11 POP SWAP11 POP SWAP11 POP SWAP11 POP SWAP11 POP SWAP11 POP SWAP11 POP SWAP11 POP SWAP11 POP SWAP11 POP POP SWAP1 SWAP2 SWAP3 SWAP4 SWAP5 SWAP6 SWAP7 SWAP8 SWAP9 SWAP10 JUMP JUMPDEST PUSH1 0x60 DUP1 PUSH1 0x0 DUP1 JUMPDEST PUSH1 0x1 SLOAD DUP2 LT ISZERO PUSH2 0xDBE JUMPI PUSH1 0x0 DUP1 PUSH1 0x1 DUP4 DUP2 SLOAD DUP2 LT PUSH2 0xD77 JUMPI PUSH2 0xD77 PUSH2 0x2598 JUMP JUMPDEST PUSH1 0x0 SWAP2 DUP3 MSTORE PUSH1 0x20 DUP1 DUP4 KECCAK256 SWAP1 SWAP2 ADD SLOAD DUP4 MSTORE DUP3 ADD SWAP3 SWAP1 SWAP3 MSTORE PUSH1 0x40 ADD SWAP1 KECCAK256 PUSH1 0x2 ADD SLOAD PUSH1 0xFF AND ISZERO PUSH2 0xDAC JUMPI DUP2 PUSH2 0xDA8 DUP2 PUSH2 0x2548 JUMP JUMPDEST SWAP3 POP POP JUMPDEST DUP1 PUSH2 0xDB6 DUP2 PUSH2 0x2548 JUMP JUMPDEST SWAP2 POP POP PUSH2 0xD57 JUMP JUMPDEST POP PUSH1 0x0 DUP2 PUSH8 0xFFFFFFFFFFFFFFFF DUP2 GT ISZERO PUSH2 0xDDA JUMPI PUSH2 0xDDA PUSH2 0x20A8 JUMP JUMPDEST PUSH1 0x40 MLOAD SWAP1 DUP1 DUP3 MSTORE DUP1 PUSH1 0x20 MUL PUSH1 0x20 ADD DUP3 ADD PUSH1 0x40 MSTORE DUP1 ISZERO PUSH2 0xE03 JUMPI DUP2 PUSH1 0x20 ADD PUSH1 0x20 DUP3 MUL DUP1 CALLDATASIZE DUP4 CALLDATACOPY ADD SWAP1 POP JUMPDEST POP SWAP1 POP PUSH1 0x0 DUP3 PUSH8 0xFFFFFFFFFFFFFFFF DUP2 GT ISZERO PUSH2 0xE21 JUMPI PUSH2 0xE21 PUSH2 0x20A8 JUMP JUMPDEST PUSH1 0x40 MLOAD SWAP1 DUP1 DUP3 MSTORE DUP1 PUSH1 0x20 MUL PUSH1 0x20 ADD DUP3 ADD PUSH1 0x40 MSTORE DUP1 ISZERO PUSH2 0xE4A JUMPI DUP2 PUSH1 0x20 ADD PUSH1 0x20 DUP3 MUL DUP1 CALLDATASIZE DUP4 CALLDATACOPY ADD SWAP1 POP JUMPDEST POP SWAP1 POP PUSH1 0x0 DUP1 JUMPDEST PUSH1 0x1 SLOAD DUP2 LT ISZERO PUSH2 0xF1B JUMPI PUSH1 0x0 PUSH1 0x1 DUP3 DUP2 SLOAD DUP2 LT PUSH2 0xE70 JUMPI PUSH2 0xE70 PUSH2 0x2598 JUMP JUMPDEST PUSH1 0x0 SWAP2 DUP3 MSTORE PUSH1 0x20 DUP1 DUP4 KECCAK256 SWAP1 SWAP2 ADD SLOAD DUP1 DUP4 MSTORE SWAP1 DUP3 SWAP1 MSTORE PUSH1 0x40 SWAP1 SWAP2 KECCAK256 PUSH1 0x2 ADD SLOAD SWAP1 SWAP2 POP PUSH1 0xFF AND ISZERO PUSH2 0xF08 JUMPI DUP1 DUP6 DUP5 DUP2 MLOAD DUP2 LT PUSH2 0xEAC JUMPI PUSH2 0xEAC PUSH2 0x2598 JUMP JUMPDEST PUSH1 0x20 SWAP1 DUP2 MUL SWAP2 SWAP1 SWAP2 ADD DUP2 ADD SWAP2 SWAP1 SWAP2 MSTORE PUSH1 0x1 PUSH1 0x1 PUSH1 0xA0 SHL SUB DUP11 AND PUSH1 0x0 SWAP1 DUP2 MSTORE PUSH1 0x9 DUP3 MSTORE PUSH1 0x40 DUP1 DUP3 KECCAK256 DUP5 DUP4 MSTORE SWAP1 SWAP3 MSTORE KECCAK256 SLOAD DUP5 MLOAD DUP6 SWAP1 DUP6 SWAP1 DUP2 LT PUSH2 0xEEF JUMPI PUSH2 0xEEF PUSH2 0x2598 JUMP JUMPDEST PUSH1 0x20 SWAP1 DUP2 MUL SWAP2 SWAP1 SWAP2 ADD ADD MSTORE DUP3 PUSH2 0xF04 DUP2 PUSH2 0x2548 JUMP JUMPDEST SWAP4 POP POP JUMPDEST POP DUP1 PUSH2 0xF13 DUP2 PUSH2 0x2548 JUMP JUMPDEST SWAP2 POP POP PUSH2 0xE51 JUMP JUMPDEST POP SWAP2 SWAP7 SWAP1 SWAP6 POP SWAP4 POP POP POP POP JUMP JUMPDEST PUSH1 0xD DUP2 DUP2 SLOAD DUP2 LT PUSH2 0xF38 JUMPI PUSH1 0x0 DUP1 REVERT JUMPDEST PUSH1 0x0 SWAP2 DUP3 MSTORE PUSH1 0x20 SWAP1 SWAP2 KECCAK256 ADD SLOAD PUSH1 0x1 PUSH1 0x1 PUSH1 0xA0 SHL SUB AND SWAP1 POP DUP2 JUMP JUMPDEST PUSH1 0x2 DUP1 SLOAD PUSH2 0xF5F SWAP1 PUSH2 0x239C JUMP JUMPDEST DUP1 PUSH1 0x1F ADD PUSH1 0x20 DUP1 SWAP2 DIV MUL PUSH1 0x20 ADD PUSH1 0x40 MLOAD SWAP1 DUP2 ADD PUSH1 0x40 MSTORE DUP1 SWAP3 SWAP2 SWAP1 DUP2 DUP2 MSTORE PUSH1 0x20 ADD DUP3 DUP1 SLOAD PUSH2 0xF8B SWAP1 PUSH2 0x239C JUMP JUMPDEST DUP1 ISZERO PUSH2 0xFD8 JUMPI DUP1 PUSH1 0x1F LT PUSH2 0xFAD JUMPI PUSH2 0x100 DUP1 DUP4 SLOAD DIV MUL DUP4 MSTORE SWAP2 PUSH1 0x20 ADD SWAP2 PUSH2 0xFD8 JUMP JUMPDEST DUP3 ADD SWAP2 SWAP1 PUSH1 0x0 MSTORE PUSH1 0x20 PUSH1 0x0 KECCAK256 SWAP1 JUMPDEST DUP2 SLOAD DUP2 MSTORE SWAP1 PUSH1 0x1 ADD SWAP1 PUSH1 0x20 ADD DUP1 DUP4 GT PUSH2 0xFBB JUMPI DUP3 SWAP1 SUB PUSH1 0x1F AND DUP3 ADD SWAP2 JUMPDEST POP POP POP POP POP DUP2 JUMP JUMPDEST PUSH1 0x3 SLOAD PUSH1 0x1 PUSH1 0x1 PUSH1 0xA0 SHL SUB AND CALLER EQ PUSH2 0x100A JUMPI PUSH1 0x40 MLOAD PUSH3 0x461BCD PUSH1 0xE5 SHL DUP2 MSTORE PUSH1 0x4 ADD PUSH2 0x6CC SWAP1 PUSH2 0x2574 JUMP JUMPDEST PUSH1 0x1 DUP1 PUSH1 0x4 SLOAD PUSH1 0x1 PUSH1 0xA0 SHL SWAP1 DIV PUSH1 0xFF AND PUSH1 0x2 DUP2 GT ISZERO PUSH2 0x102B JUMPI PUSH2 0x102B PUSH2 0x220C JUMP JUMPDEST EQ PUSH2 0x1048 JUMPI PUSH1 0x40 MLOAD PUSH3 0x461BCD PUSH1 0xE5 SHL DUP2 MSTORE PUSH1 0x4 ADD PUSH2 0x6CC SWAP1 PUSH2 0x23D6 JUMP JUMPDEST PUSH1 0x0 DUP3 DUP2 MSTORE PUSH1 0x20 DUP2 SWAP1 MSTORE PUSH1 0x40 DUP2 KECCAK256 SLOAD SWAP1 SUB PUSH2 0x10A5 JUMPI PUSH1 0x40 MLOAD PUSH3 0x461BCD PUSH1 0xE5 SHL DUP2 MSTORE PUSH1 0x20 PUSH1 0x4 DUP3 ADD MSTORE PUSH1 0x1A PUSH1 0x24 DUP3 ADD MSTORE PUSH32 0x496E76616C69642077696E6E696E67206C69766573747265616D000000000000 PUSH1 0x44 DUP3 ADD MSTORE PUSH1 0x64 ADD PUSH2 0x6CC JUMP JUMPDEST PUSH1 0x0 DUP3 DUP2 MSTORE PUSH1 0xA PUSH1 0x20 MSTORE PUSH1 0x40 SWAP1 KECCAK256 SLOAD PUSH2 0x1100 JUMPI PUSH1 0x40 MLOAD PUSH3 0x461BCD PUSH1 0xE5 SHL DUP2 MSTORE PUSH1 0x20 PUSH1 0x4 DUP3 ADD MSTORE PUSH1 0x1A PUSH1 0x24 DUP3 ADD MSTORE PUSH32 0x4E6F2062657473206F6E2074686973206C69766573747265616D000000000000 PUSH1 0x44 DUP3 ADD MSTORE PUSH1 0x64 ADD PUSH2 0x6CC JUMP JUMPDEST PUSH1 0x5 DUP3 SWAP1 SSTORE PUSH1 0x4 DUP1 SLOAD PUSH1 0xFF PUSH1 0xA0 SHL NOT AND PUSH1 0x1 PUSH1 0xA1 SHL OR SWAP1 SSTORE TIMESTAMP PUSH1 0x8 DUP2 SWAP1 SSTORE PUSH1 0x40 DUP1 MLOAD SWAP2 DUP3 MSTORE MLOAD DUP4 SWAP2 PUSH32 0x6DFC24F0F2FB42E49FB4FA3FFA8ABB148CAB908A1FB8335B3F128A08B2594AF1 SWAP2 SWAP1 DUP2 SWAP1 SUB PUSH1 0x20 ADD SWAP1 LOG2 POP POP JUMP JUMPDEST PUSH1 0x60 DUP1 PUSH1 0x60 DUP1 PUSH1 0x0 DUP1 JUMPDEST PUSH1 0x1 SLOAD DUP2 LT ISZERO PUSH2 0x11C8 JUMPI PUSH1 0x0 DUP1 PUSH1 0x1 DUP4 DUP2 SLOAD DUP2 LT PUSH2 0x1181 JUMPI PUSH2 0x1181 PUSH2 0x2598 JUMP JUMPDEST PUSH1 0x0 SWAP2 DUP3 MSTORE PUSH1 0x20 DUP1 DUP4 KECCAK256 SWAP1 SWAP2 ADD SLOAD DUP4 MSTORE DUP3 ADD SWAP3 SWAP1 SWAP3 MSTORE PUSH1 0x40 ADD SWAP1 KECCAK256 PUSH1 0x2 ADD SLOAD PUSH1 0xFF AND ISZERO PUSH2 0x11B6 JUMPI DUP2 PUSH2 0x11B2 DUP2 PUSH2 0x2548 JUMP JUMPDEST SWAP3 POP POP JUMPDEST DUP1 PUSH2 0x11C0 DUP2 PUSH2 0x2548 JUMP JUMPDEST SWAP2 POP POP PUSH2 0x1161 JUMP JUMPDEST POP PUSH1 0x0 DUP2 PUSH8 0xFFFFFFFFFFFFFFFF DUP2 GT ISZERO PUSH2 0x11E4 JUMPI PUSH2 0x11E4 PUSH2 0x20A8 JUMP JUMPDEST PUSH1 0x40 MLOAD SWAP1 DUP1 DUP3 MSTORE DUP1 PUSH1 0x20 MUL PUSH1 0x20 ADD DUP3 ADD PUSH1 0x40 MSTORE DUP1 ISZERO PUSH2 0x120D JUMPI DUP2 PUSH1 0x20 ADD PUSH1 0x20 DUP3 MUL DUP1 CALLDATASIZE DUP4 CALLDATACOPY ADD SWAP1 POP JUMPDEST POP SWAP1 POP PUSH1 0x0 DUP3 PUSH8 0xFFFFFFFFFFFFFFFF DUP2 GT ISZERO PUSH2 0x122B JUMPI PUSH2 0x122B PUSH2 0x20A8 JUMP JUMPDEST PUSH1 0x40 MLOAD SWAP1 DUP1 DUP3 MSTORE DUP1 PUSH1 0x20 MUL PUSH1 0x20 ADD DUP3 ADD PUSH1 0x40 MSTORE DUP1 ISZERO PUSH2 0x125E JUMPI DUP2 PUSH1 0x20 ADD JUMPDEST PUSH1 0x60 DUP2 MSTORE PUSH1 0x20 ADD SWAP1 PUSH1 0x1 SWAP1 SUB SWAP1 DUP2 PUSH2 0x1249 JUMPI SWAP1 POP JUMPDEST POP SWAP1 POP PUSH1 0x0 DUP4 PUSH8 0xFFFFFFFFFFFFFFFF DUP2 GT ISZERO PUSH2 0x127C JUMPI PUSH2 0x127C PUSH2 0x20A8 JUMP JUMPDEST PUSH1 0x40 MLOAD SWAP1 DUP1 DUP3 MSTORE DUP1 PUSH1 0x20 MUL PUSH1 0x20 ADD DUP3 ADD PUSH1 0x40 MSTORE DUP1 ISZERO PUSH2 0x12A5 JUMPI DUP2 PUSH1 0x20 ADD PUSH1 0x20 DUP3 MUL DUP1 CALLDATASIZE DUP4 CALLDATACOPY ADD SWAP1 POP JUMPDEST POP SWAP1 POP PUSH1 0x0 DUP5 PUSH8 0xFFFFFFFFFFFFFFFF DUP2 GT ISZERO PUSH2 0x12C3 JUMPI PUSH2 0x12C3 PUSH2 0x20A8 JUMP JUMPDEST PUSH1 0x40 MLOAD SWAP1 DUP1 DUP3 MSTORE DUP1 PUSH1 0x20 MUL PUSH1 0x20 ADD DUP3 ADD PUSH1 0x40 MSTORE DUP1 ISZERO PUSH2 0x12EC JUMPI DUP2 PUSH1 0x20 ADD PUSH1 0x20 DUP3 MUL DUP1 CALLDATASIZE DUP4 CALLDATACOPY ADD SWAP1 POP JUMPDEST POP SWAP1 POP PUSH1 0x0 DUP1 JUMPDEST PUSH1 0x1 SLOAD DUP2 LT ISZERO PUSH2 0x14C9 JUMPI PUSH1 0x0 PUSH1 0x1 DUP3 DUP2 SLOAD DUP2 LT PUSH2 0x1312 JUMPI PUSH2 0x1312 PUSH2 0x2598 JUMP JUMPDEST PUSH1 0x0 SWAP2 DUP3 MSTORE PUSH1 0x20 DUP1 DUP4 KECCAK256 SWAP1 SWAP2 ADD SLOAD DUP1 DUP4 MSTORE SWAP1 DUP3 SWAP1 MSTORE PUSH1 0x40 SWAP1 SWAP2 KECCAK256 PUSH1 0x2 ADD SLOAD SWAP1 SWAP2 POP PUSH1 0xFF AND ISZERO PUSH2 0x14B6 JUMPI DUP1 DUP8 DUP5 DUP2 MLOAD DUP2 LT PUSH2 0x134E JUMPI PUSH2 0x134E PUSH2 0x2598 JUMP JUMPDEST PUSH1 0x20 MUL PUSH1 0x20 ADD ADD DUP2 DUP2 MSTORE POP POP PUSH1 0x0 DUP1 DUP3 DUP2 MSTORE PUSH1 0x20 ADD SWAP1 DUP2 MSTORE PUSH1 0x20 ADD PUSH1 0x0 KECCAK256 PUSH1 0x1 ADD DUP1 SLOAD PUSH2 0x137A SWAP1 PUSH2 0x239C JUMP JUMPDEST DUP1 PUSH1 0x1F ADD PUSH1 0x20 DUP1 SWAP2 DIV MUL PUSH1 0x20 ADD PUSH1 0x40 MLOAD SWAP1 DUP2 ADD PUSH1 0x40 MSTORE DUP1 SWAP3 SWAP2 SWAP1 DUP2 DUP2 MSTORE PUSH1 0x20 ADD DUP3 DUP1 SLOAD PUSH2 0x13A6 SWAP1 PUSH2 0x239C JUMP JUMPDEST DUP1 ISZERO PUSH2 0x13F3 JUMPI DUP1 PUSH1 0x1F LT PUSH2 0x13C8 JUMPI PUSH2 0x100 DUP1 DUP4 SLOAD DIV MUL DUP4 MSTORE SWAP2 PUSH1 0x20 ADD SWAP2 PUSH2 0x13F3 JUMP JUMPDEST DUP3 ADD SWAP2 SWAP1 PUSH1 0x0 MSTORE PUSH1 0x20 PUSH1 0x0 KECCAK256 SWAP1 JUMPDEST DUP2 SLOAD DUP2 MSTORE SWAP1 PUSH1 0x1 ADD SWAP1 PUSH1 0x20 ADD DUP1 DUP4 GT PUSH2 0x13D6 JUMPI DUP3 SWAP1 SUB PUSH1 0x1F AND DUP3 ADD SWAP2 JUMPDEST POP POP POP POP POP DUP7 DUP5 DUP2 MLOAD DUP2 LT PUSH2 0x140A JUMPI PUSH2 0x140A PUSH2 0x2598 JUMP JUMPDEST PUSH1 0x20 MUL PUSH1 0x20 ADD ADD DUP2 SWAP1 MSTORE POP PUSH1 0xA PUSH1 0x0 DUP3 DUP2 MSTORE PUSH1 0x20 ADD SWAP1 DUP2 MSTORE PUSH1 0x20 ADD PUSH1 0x0 KECCAK256 SLOAD DUP6 DUP5 DUP2 MLOAD DUP2 LT PUSH2 0x143B JUMPI PUSH2 0x143B PUSH2 0x2598 JUMP JUMPDEST PUSH1 0x20 MUL PUSH1 0x20 ADD ADD DUP2 DUP2 MSTORE POP POP PUSH1 0x0 PUSH1 0xB SLOAD GT PUSH2 0x1458 JUMPI PUSH1 0x0 PUSH2 0x148B JUMP JUMPDEST PUSH1 0xB SLOAD DUP6 DUP5 DUP2 MLOAD DUP2 LT PUSH2 0x146D JUMPI PUSH2 0x146D PUSH2 0x2598 JUMP JUMPDEST PUSH1 0x20 MUL PUSH1 0x20 ADD ADD MLOAD PUSH1 0x64 PUSH2 0x1481 SWAP2 SWAP1 PUSH2 0x25AE JUMP JUMPDEST PUSH2 0x148B SWAP2 SWAP1 PUSH2 0x25C5 JUMP JUMPDEST DUP5 DUP5 DUP2 MLOAD DUP2 LT PUSH2 0x149D JUMPI PUSH2 0x149D PUSH2 0x2598 JUMP JUMPDEST PUSH1 0x20 SWAP1 DUP2 MUL SWAP2 SWAP1 SWAP2 ADD ADD MSTORE DUP3 PUSH2 0x14B2 DUP2 PUSH2 0x2548 JUMP JUMPDEST SWAP4 POP POP JUMPDEST POP DUP1 PUSH2 0x14C1 DUP2 PUSH2 0x2548 JUMP JUMPDEST SWAP2 POP POP PUSH2 0x12F3 JUMP JUMPDEST POP SWAP4 SWAP10 SWAP3 SWAP9 POP SWAP1 SWAP7 POP SWAP5 POP SWAP3 POP POP POP JUMP JUMPDEST PUSH1 0x0 DUP2 DUP2 MSTORE PUSH1 0x20 DUP2 SWAP1 MSTORE PUSH1 0x40 DUP2 KECCAK256 PUSH1 0x2 ADD SLOAD DUP2 SWAP1 DUP2 SWAP1 PUSH1 0xFF AND PUSH2 0x1537 JUMPI PUSH1 0x40 MLOAD PUSH3 0x461BCD PUSH1 0xE5 SHL DUP2 MSTORE PUSH1 0x20 PUSH1 0x4 DUP3 ADD MSTORE PUSH1 0x15 PUSH1 0x24 DUP3 ADD MSTORE PUSH21 0x4C69766573747265616D206E6F7420616374697665 PUSH1 0x58 SHL PUSH1 0x44 DUP3 ADD MSTORE PUSH1 0x64 ADD PUSH2 0x6CC JUMP JUMPDEST PUSH1 0x0 DUP5 DUP2 MSTORE PUSH1 0xA PUSH1 0x20 MSTORE PUSH1 0x40 DUP2 KECCAK256 SLOAD PUSH1 0xB SLOAD SWAP1 SWAP2 SWAP1 PUSH2 0x1557 JUMPI PUSH1 0x0 PUSH2 0x156F JUMP JUMPDEST PUSH1 0xB SLOAD PUSH2 0x1565 DUP4 PUSH1 0x64 PUSH2 0x25AE JUMP JUMPDEST PUSH2 0x156F SWAP2 SWAP1 PUSH2 0x25C5 JUMP JUMPDEST PUSH1 0x0 SWAP7 DUP8 MSTORE PUSH1 0x20 DUP8 SWAP1 MSTORE PUSH1 0x40 SWAP1 SWAP7 KECCAK256 PUSH1 0x2 ADD SLOAD SWAP2 SWAP7 PUSH1 0xFF SWAP1 SWAP3 AND SWAP5 POP SWAP1 SWAP3 POP POP POP JUMP JUMPDEST PUSH1 0x1 DUP2 DUP2 SLOAD DUP2 LT PUSH2 0x15A2 JUMPI PUSH1 0x0 DUP1 REVERT JUMPDEST PUSH1 0x0 SWAP2 DUP3 MSTORE PUSH1 0x20 SWAP1 SWAP2 KECCAK256 ADD SLOAD SWAP1 POP DUP2 JUMP JUMPDEST PUSH1 0x3 SLOAD PUSH1 0x1 PUSH1 0x1 PUSH1 0xA0 SHL SUB AND CALLER EQ PUSH2 0x15DD JUMPI PUSH1 0x40 MLOAD PUSH3 0x461BCD PUSH1 0xE5 SHL DUP2 MSTORE PUSH1 0x4 ADD PUSH2 0x6CC SWAP1 PUSH2 0x2574 JUMP JUMPDEST PUSH1 0x0 DUP1 PUSH1 0x4 SLOAD PUSH1 0x1 PUSH1 0xA0 SHL SWAP1 DIV PUSH1 0xFF AND PUSH1 0x2 DUP2 GT ISZERO PUSH2 0x15FE JUMPI PUSH2 0x15FE PUSH2 0x220C JUMP JUMPDEST EQ PUSH2 0x161B JUMPI PUSH1 0x40 MLOAD PUSH3 0x461BCD PUSH1 0xE5 SHL DUP2 MSTORE PUSH1 0x4 ADD PUSH2 0x6CC SWAP1 PUSH2 0x23D6 JUMP JUMPDEST PUSH1 0x4 DUP1 SLOAD PUSH1 0x1 PUSH1 0xA0 SHL PUSH1 0xFF PUSH1 0xA0 SHL NOT DUP3 AND OR DUP3 SSTORE TIMESTAMP PUSH1 0x7 SSTORE PUSH1 0x40 MLOAD PUSH4 0x55EF0177 PUSH1 0xE1 SHL DUP2 MSTORE PUSH1 0x1 PUSH1 0x1 PUSH1 0xA0 SHL SUB SWAP1 SWAP2 AND SWAP2 PUSH4 0xABDE02EE SWAP2 PUSH2 0x165F SWAP2 PUSH1 0x1 SWAP2 ADD PUSH2 0x25E7 JUMP JUMPDEST PUSH1 0x0 PUSH1 0x40 MLOAD DUP1 DUP4 SUB DUP2 PUSH1 0x0 DUP8 DUP1 EXTCODESIZE ISZERO DUP1 ISZERO PUSH2 0x1679 JUMPI PUSH1 0x0 DUP1 REVERT JUMPDEST POP GAS CALL ISZERO DUP1 ISZERO PUSH2 0x168D JUMPI RETURNDATASIZE PUSH1 0x0 DUP1 RETURNDATACOPY RETURNDATASIZE PUSH1 0x0 REVERT JUMPDEST POP POP POP POP PUSH32 0x9DC30B8EDA31A6A144E092E5DE600955523A6A925CC15CC1D1B9B4872CFA6155 TIMESTAMP PUSH1 0x40 MLOAD PUSH2 0x16C2 SWAP2 DUP2 MSTORE PUSH1 0x20 ADD SWAP1 JUMP JUMPDEST PUSH1 0x40 MLOAD DUP1 SWAP2 SUB SWAP1 LOG1 POP JUMP JUMPDEST PUSH1 0x0 PUSH1 0x60 PUSH1 0x0 DUP1 PUSH1 0x0 DUP1 PUSH1 0x0 DUP8 DUP2 MSTORE PUSH1 0x20 ADD SWAP1 DUP2 MSTORE PUSH1 0x20 ADD PUSH1 0x0 KECCAK256 PUSH1 0x40 MLOAD DUP1 PUSH1 0x80 ADD PUSH1 0x40 MSTORE SWAP1 DUP2 PUSH1 0x0 DUP3 ADD SLOAD DUP2 MSTORE PUSH1 0x20 ADD PUSH1 0x1 DUP3 ADD DUP1 SLOAD PUSH2 0x170D SWAP1 PUSH2 0x239C JUMP JUMPDEST DUP1 PUSH1 0x1F ADD PUSH1 0x20 DUP1 SWAP2 DIV MUL PUSH1 0x20 ADD PUSH1 0x40 MLOAD SWAP1 DUP2 ADD PUSH1 0x40 MSTORE DUP1 SWAP3 SWAP2 SWAP1 DUP2 DUP2 MSTORE PUSH1 0x20 ADD DUP3 DUP1 SLOAD PUSH2 0x1739 SWAP1 PUSH2 0x239C JUMP JUMPDEST DUP1 ISZERO PUSH2 0x1786 JUMPI DUP1 PUSH1 0x1F LT PUSH2 0x175B JUMPI PUSH2 0x100 DUP1 DUP4 SLOAD DIV MUL DUP4 MSTORE SWAP2 PUSH1 0x20 ADD SWAP2 PUSH2 0x1786 JUMP JUMPDEST DUP3 ADD SWAP2 SWAP1 PUSH1 0x0 MSTORE PUSH1 0x20 PUSH1 0x0 KECCAK256 SWAP1 JUMPDEST DUP2 SLOAD DUP2 MSTORE SWAP1 PUSH1 0x1 ADD SWAP1 PUSH1 0x20 ADD DUP1 DUP4 GT PUSH2 0x1769 JUMPI DUP3 SWAP1 SUB PUSH1 0x1F AND DUP3 ADD SWAP2 JUMPDEST POP POP POP SWAP2 DUP4 MSTORE POP POP PUSH1 0x2 DUP3 ADD SLOAD PUSH1 0xFF AND ISZERO ISZERO PUSH1 0x20 DUP1 DUP4 ADD SWAP2 SWAP1 SWAP2 MSTORE PUSH1 0x3 SWAP1 SWAP3 ADD SLOAD PUSH1 0x40 SWAP2 DUP3 ADD MSTORE DUP3 MLOAD SWAP2 DUP4 ADD MLOAD SWAP1 DUP4 ADD MLOAD PUSH1 0x60 SWAP1 SWAP4 ADD MLOAD SWAP2 SWAP10 SWAP1 SWAP9 POP SWAP2 SWAP7 POP SWAP5 POP SWAP3 POP POP POP JUMP JUMPDEST PUSH1 0x2 DUP1 PUSH1 0x4 SLOAD PUSH1 0x1 PUSH1 0xA0 SHL SWAP1 DIV PUSH1 0xFF AND PUSH1 0x2 DUP2 GT ISZERO PUSH2 0x17EE JUMPI PUSH2 0x17EE PUSH2 0x220C JUMP JUMPDEST EQ PUSH2 0x180B JUMPI PUSH1 0x40 MLOAD PUSH3 0x461BCD PUSH1 0xE5 SHL DUP2 MSTORE PUSH1 0x4 ADD PUSH2 0x6CC SWAP1 PUSH2 0x23D6 JUMP JUMPDEST CALLER PUSH1 0x0 SWAP1 DUP2 MSTORE PUSH1 0x9 PUSH1 0x20 SWAP1 DUP2 MSTORE PUSH1 0x40 DUP1 DUP4 KECCAK256 PUSH1 0x5 SLOAD DUP5 MSTORE SWAP1 SWAP2 MSTORE SWAP1 KECCAK256 SLOAD DUP1 PUSH2 0x1866 JUMPI PUSH1 0x40 MLOAD PUSH3 0x461BCD PUSH1 0xE5 SHL DUP2 MSTORE PUSH1 0x20 PUSH1 0x4 DUP3 ADD MSTORE PUSH1 0xE PUSH1 0x24 DUP3 ADD MSTORE PUSH14 0x139BC81DDA5B9B9A5B99C818995D PUSH1 0x92 SHL PUSH1 0x44 DUP3 ADD MSTORE PUSH1 0x64 ADD PUSH2 0x6CC JUMP JUMPDEST PUSH1 0x5 SLOAD PUSH1 0x0 SWAP1 DUP2 MSTORE PUSH1 0xA PUSH1 0x20 MSTORE PUSH1 0x40 SWAP1 KECCAK256 SLOAD DUP1 PUSH2 0x18B7 JUMPI PUSH1 0x40 MLOAD PUSH3 0x461BCD PUSH1 0xE5 SHL DUP2 MSTORE PUSH1 0x20 PUSH1 0x4 DUP3 ADD MSTORE PUSH1 0xF PUSH1 0x24 DUP3 ADD MSTORE PUSH15 0x4E6F2077696E6E696E672062657473 PUSH1 0x88 SHL PUSH1 0x44 DUP3 ADD MSTORE PUSH1 0x64 ADD PUSH2 0x6CC JUMP JUMPDEST PUSH1 0x0 DUP2 PUSH1 0xB SLOAD DUP5 PUSH2 0x18C8 SWAP2 SWAP1 PUSH2 0x25AE JUMP JUMPDEST PUSH2 0x18D2 SWAP2 SWAP1 PUSH2 0x25C5 JUMP JUMPDEST CALLER PUSH1 0x0 DUP2 DUP2 MSTORE PUSH1 0x9 PUSH1 0x20 SWAP1 DUP2 MSTORE PUSH1 0x40 DUP1 DUP4 KECCAK256 PUSH1 0x5 SLOAD DUP5 MSTORE SWAP1 SWAP2 MSTORE DUP1 DUP3 KECCAK256 DUP3 SWAP1 SSTORE MLOAD SWAP3 SWAP4 POP SWAP2 DUP4 SWAP1 DUP4 DUP2 DUP2 DUP2 DUP6 DUP8 GAS CALL SWAP3 POP POP POP RETURNDATASIZE DUP1 PUSH1 0x0 DUP2 EQ PUSH2 0x1931 JUMPI PUSH1 0x40 MLOAD SWAP2 POP PUSH1 0x1F NOT PUSH1 0x3F RETURNDATASIZE ADD AND DUP3 ADD PUSH1 0x40 MSTORE RETURNDATASIZE DUP3 MSTORE RETURNDATASIZE PUSH1 0x0 PUSH1 0x20 DUP5 ADD RETURNDATACOPY PUSH2 0x1936 JUMP JUMPDEST PUSH1 0x60 SWAP2 POP JUMPDEST POP POP SWAP1 POP DUP1 PUSH2 0x1979 JUMPI PUSH1 0x40 MLOAD PUSH3 0x461BCD PUSH1 0xE5 SHL DUP2 MSTORE PUSH1 0x20 PUSH1 0x4 DUP3 ADD MSTORE PUSH1 0xF PUSH1 0x24 DUP3 ADD MSTORE PUSH15 0x151C985B9CD9995C8819985A5B1959 PUSH1 0x8A SHL PUSH1 0x44 DUP3 ADD MSTORE PUSH1 0x64 ADD PUSH2 0x6CC JUMP JUMPDEST PUSH1 0x40 DUP1 MLOAD DUP4 DUP2 MSTORE TIMESTAMP PUSH1 0x20 DUP3 ADD MSTORE CALLER SWAP2 PUSH32 0x408E6E0B73DAF4C873106E95FD067260FBFF8BF9D1B499CAD563D4480D45BAC SWAP2 ADD PUSH1 0x40 MLOAD DUP1 SWAP2 SUB SWAP1 LOG2 POP POP POP POP POP JUMP JUMPDEST PUSH1 0x0 DUP1 PUSH1 0x4 SLOAD PUSH1 0x1 PUSH1 0xA0 SHL SWAP1 DIV PUSH1 0xFF AND PUSH1 0x2 DUP2 GT ISZERO PUSH2 0x19DB JUMPI PUSH2 0x19DB PUSH2 0x220C JUMP JUMPDEST EQ PUSH2 0x19F8 JUMPI PUSH1 0x40 MLOAD PUSH3 0x461BCD PUSH1 0xE5 SHL DUP2 MSTORE PUSH1 0x4 ADD PUSH2 0x6CC SWAP1 PUSH2 0x23D6 JUMP JUMPDEST PUSH1 0x0 DUP4 GT PUSH2 0x1A18 JUMPI PUSH1 0x40 MLOAD PUSH3 0x461BCD PUSH1 0xE5 SHL DUP2 MSTORE PUSH1 0x4 ADD PUSH2 0x6CC SWAP1 PUSH2 0x23FD JUMP JUMPDEST PUSH1 0x0 DUP3 MLOAD GT PUSH2 0x1A61 JUMPI PUSH1 0x40 MLOAD PUSH3 0x461BCD PUSH1 0xE5 SHL DUP2 MSTORE PUSH1 0x20 PUSH1 0x4 DUP3 ADD MSTORE PUSH1 0x15 PUSH1 0x24 DUP3 ADD MSTORE PUSH21 0x5469746C652063616E6E6F7420626520656D707479 PUSH1 0x58 SHL PUSH1 0x44 DUP3 ADD MSTORE PUSH1 0x64 ADD PUSH2 0x6CC JUMP JUMPDEST PUSH1 0x0 DUP4 DUP2 MSTORE PUSH1 0x20 DUP2 SWAP1 MSTORE PUSH1 0x40 DUP2 KECCAK256 SLOAD SWAP1 SUB PUSH2 0x1B36 JUMPI PUSH1 0x40 DUP1 MLOAD PUSH1 0x80 DUP2 ADD DUP3 MSTORE DUP5 DUP2 MSTORE PUSH1 0x20 DUP1 DUP3 ADD DUP6 DUP2 MSTORE PUSH1 0x1 DUP4 DUP6 ADD DUP2 SWAP1 MSTORE TIMESTAMP PUSH1 0x60 DUP6 ADD MSTORE PUSH1 0x0 DUP9 DUP2 MSTORE SWAP3 DUP4 SWAP1 MSTORE SWAP4 SWAP1 SWAP2 KECCAK256 DUP3 MLOAD DUP2 SSTORE SWAP1 MLOAD SWAP2 SWAP3 SWAP1 SWAP2 SWAP1 DUP3 ADD SWAP1 PUSH2 0x1ABE SWAP1 DUP3 PUSH2 0x2472 JUMP JUMPDEST POP PUSH1 0x40 DUP3 DUP2 ADD MLOAD PUSH1 0x2 DUP4 ADD DUP1 SLOAD PUSH1 0xFF NOT AND SWAP2 ISZERO ISZERO SWAP2 SWAP1 SWAP2 OR SWAP1 SSTORE PUSH1 0x60 SWAP1 SWAP3 ADD MLOAD PUSH1 0x3 SWAP1 SWAP2 ADD SSTORE PUSH1 0x1 DUP1 SLOAD DUP1 DUP3 ADD DUP3 SSTORE PUSH1 0x0 SWAP2 SWAP1 SWAP2 MSTORE PUSH32 0xB10E2D527612073B26EECDFD717E6A320CF44B4AFAC2B0732D9FCBE2B7FA0CF6 ADD DUP5 SWAP1 SSTORE MLOAD DUP4 SWAP1 PUSH1 0x0 DUP1 MLOAD PUSH1 0x20 PUSH2 0x2658 DUP4 CODECOPY DUP2 MLOAD SWAP2 MSTORE SWAP1 PUSH2 0xABF SWAP1 DUP6 SWAP1 PUSH2 0x22F3 JUMP JUMPDEST PUSH1 0x0 DUP4 DUP2 MSTORE PUSH1 0x20 DUP2 SWAP1 MSTORE PUSH1 0x40 SWAP1 KECCAK256 PUSH1 0x2 ADD SLOAD PUSH1 0xFF AND ISZERO PUSH2 0x1CE0 JUMPI PUSH1 0x0 DUP4 DUP2 MSTORE PUSH1 0x20 DUP2 SWAP1 MSTORE PUSH1 0x40 DUP2 KECCAK256 PUSH1 0x1 ADD DUP1 SLOAD PUSH2 0x1B6C SWAP1 PUSH2 0x239C JUMP JUMPDEST DUP1 PUSH1 0x1F ADD PUSH1 0x20 DUP1 SWAP2 DIV MUL PUSH1 0x20 ADD PUSH1 0x40 MLOAD SWAP1 DUP2 ADD PUSH1 0x40 MSTORE DUP1 SWAP3 SWAP2 SWAP1 DUP2 DUP2 MSTORE PUSH1 0x20 ADD DUP3 DUP1 SLOAD PUSH2 0x1B98 SWAP1 PUSH2 0x239C JUMP JUMPDEST DUP1 ISZERO PUSH2 0x1BE5 JUMPI DUP1 PUSH1 0x1F LT PUSH2 0x1BBA JUMPI PUSH2 0x100 DUP1 DUP4 SLOAD DIV MUL DUP4 MSTORE SWAP2 PUSH1 0x20 ADD SWAP2 PUSH2 0x1BE5 JUMP JUMPDEST DUP3 ADD SWAP2 SWAP1 PUSH1 0x0 MSTORE PUSH1 0x20 PUSH1 0x0 KECCAK256 SWAP1 JUMPDEST DUP2 SLOAD DUP2 MSTORE SWAP1 PUSH1 0x1 ADD SWAP1 PUSH1 0x20 ADD DUP1 DUP4 GT PUSH2 0x1BC8 JUMPI DUP3 SWAP1 SUB PUSH1 0x1F AND DUP3 ADD SWAP2 JUMPDEST POP POP POP POP POP SWAP1 POP PUSH1 0x0 PUSH1 0x40 MLOAD DUP1 PUSH1 0x40 ADD PUSH1 0x40 MSTORE DUP1 PUSH1 0x9 DUP2 MSTORE PUSH1 0x20 ADD PUSH9 0x50726F6A6563742023 PUSH1 0xB8 SHL DUP2 MSTORE POP SWAP1 POP DUP1 MLOAD DUP3 MLOAD LT PUSH2 0x1CDD JUMPI PUSH1 0x1 PUSH1 0x0 JUMPDEST DUP3 MLOAD DUP2 LT ISZERO PUSH2 0x1C91 JUMPI DUP3 DUP2 DUP2 MLOAD DUP2 LT PUSH2 0x1C3B JUMPI PUSH2 0x1C3B PUSH2 0x2598 JUMP JUMPDEST PUSH1 0x20 ADD ADD MLOAD PUSH1 0xF8 SHR PUSH1 0xF8 SHL PUSH1 0x1 PUSH1 0x1 PUSH1 0xF8 SHL SUB NOT AND DUP5 DUP3 DUP2 MLOAD DUP2 LT PUSH2 0x1C62 JUMPI PUSH2 0x1C62 PUSH2 0x2598 JUMP JUMPDEST ADD PUSH1 0x20 ADD MLOAD PUSH1 0x1 PUSH1 0x1 PUSH1 0xF8 SHL SUB NOT AND EQ PUSH2 0x1C7F JUMPI PUSH1 0x0 SWAP2 POP PUSH2 0x1C91 JUMP JUMPDEST DUP1 PUSH2 0x1C89 DUP2 PUSH2 0x2548 JUMP JUMPDEST SWAP2 POP POP PUSH2 0x1C20 JUMP JUMPDEST POP DUP1 ISZERO PUSH2 0x1CDB JUMPI PUSH1 0x0 DUP7 DUP2 MSTORE PUSH1 0x20 DUP2 SWAP1 MSTORE PUSH1 0x40 SWAP1 KECCAK256 PUSH1 0x1 ADD PUSH2 0x1CB3 DUP7 DUP3 PUSH2 0x2472 JUMP JUMPDEST POP DUP6 PUSH1 0x0 DUP1 MLOAD PUSH1 0x20 PUSH2 0x2658 DUP4 CODECOPY DUP2 MLOAD SWAP2 MSTORE DUP7 PUSH1 0x40 MLOAD PUSH2 0x1CD2 SWAP2 SWAP1 PUSH2 0x22F3 JUMP JUMPDEST PUSH1 0x40 MLOAD DUP1 SWAP2 SUB SWAP1 LOG2 JUMPDEST POP JUMPDEST POP POP JUMPDEST POP POP POP JUMP JUMPDEST PUSH1 0x3 SLOAD PUSH1 0x1 PUSH1 0x1 PUSH1 0xA0 SHL SUB AND CALLER EQ PUSH2 0x1D0F JUMPI PUSH1 0x40 MLOAD PUSH3 0x461BCD PUSH1 0xE5 SHL DUP2 MSTORE PUSH1 0x4 ADD PUSH2 0x6CC SWAP1 PUSH2 0x2574 JUMP JUMPDEST PUSH1 0x0 DUP1 PUSH1 0x4 SLOAD PUSH1 0x1 PUSH1 0xA0 SHL SWAP1 DIV PUSH1 0xFF AND PUSH1 0x2 DUP2 GT ISZERO PUSH2 0x1D30 JUMPI PUSH2 0x1D30 PUSH2 0x220C JUMP JUMPDEST EQ PUSH2 0x1D4D JUMPI PUSH1 0x40 MLOAD PUSH3 0x461BCD PUSH1 0xE5 SHL DUP2 MSTORE PUSH1 0x4 ADD PUSH2 0x6CC SWAP1 PUSH2 0x23D6 JUMP JUMPDEST DUP3 PUSH1 0x0 SUB PUSH2 0x1D6D JUMPI PUSH1 0x40 MLOAD PUSH3 0x461BCD PUSH1 0xE5 SHL DUP2 MSTORE PUSH1 0x4 ADD PUSH2 0x6CC SWAP1 PUSH2 0x23FD JUMP JUMPDEST PUSH1 0x0 DUP4 DUP2 MSTORE PUSH1 0x20 DUP2 SWAP1 MSTORE PUSH1 0x40 SWAP1 KECCAK256 PUSH1 0x2 ADD SLOAD PUSH1 0xFF AND ISZERO PUSH2 0x1DCF JUMPI PUSH1 0x40 MLOAD PUSH3 0x461BCD PUSH1 0xE5 SHL DUP2 MSTORE PUSH1 0x20 PUSH1 0x4 DUP3 ADD MSTORE PUSH1 0x19 PUSH1 0x24 DUP3 ADD MSTORE PUSH32 0x4C69766573747265616D20616C72656164792065786973747300000000000000 PUSH1 0x44 DUP3 ADD MSTORE PUSH1 0x64 ADD PUSH2 0x6CC JUMP JUMPDEST PUSH1 0x40 DUP1 MLOAD PUSH1 0x80 DUP2 ADD DUP3 MSTORE DUP5 DUP2 MSTORE PUSH1 0x20 DUP1 DUP3 ADD DUP6 DUP2 MSTORE PUSH1 0x1 DUP4 DUP6 ADD DUP2 SWAP1 MSTORE TIMESTAMP PUSH1 0x60 DUP6 ADD MSTORE PUSH1 0x0 DUP9 DUP2 MSTORE SWAP3 DUP4 SWAP1 MSTORE SWAP4 SWAP1 SWAP2 KECCAK256 DUP3 MLOAD DUP2 SSTORE SWAP1 MLOAD SWAP2 SWAP3 SWAP1 SWAP2 SWAP1 DUP3 ADD SWAP1 PUSH2 0x1ABE SWAP1 DUP3 PUSH2 0x2472 JUMP JUMPDEST PUSH1 0x3 SLOAD PUSH1 0x1 PUSH1 0x1 PUSH1 0xA0 SHL SUB AND CALLER EQ PUSH2 0x1E41 JUMPI PUSH1 0x40 MLOAD PUSH3 0x461BCD PUSH1 0xE5 SHL DUP2 MSTORE PUSH1 0x4 ADD PUSH2 0x6CC SWAP1 PUSH2 0x2574 JUMP JUMPDEST PUSH1 0x0 DUP1 PUSH1 0x4 SLOAD PUSH1 0x1 PUSH1 0xA0 SHL SWAP1 DIV PUSH1 0xFF AND PUSH1 0x2 DUP2 GT ISZERO PUSH2 0x1E62 JUMPI PUSH2 0x1E62 PUSH2 0x220C JUMP JUMPDEST EQ PUSH2 0x1E7F JUMPI PUSH1 0x40 MLOAD PUSH3 0x461BCD PUSH1 0xE5 SHL DUP2 MSTORE PUSH1 0x4 ADD PUSH2 0x6CC SWAP1 PUSH2 0x23D6 JUMP JUMPDEST PUSH1 0x0 DUP3 DUP2 MSTORE PUSH1 0x20 DUP2 SWAP1 MSTORE PUSH1 0x40 SWAP1 KECCAK256 PUSH1 0x2 ADD SLOAD PUSH1 0xFF AND PUSH2 0x1EE0 JUMPI PUSH1 0x40 MLOAD PUSH3 0x461BCD PUSH1 0xE5 SHL DUP2 MSTORE PUSH1 0x20 PUSH1 0x4 DUP3 ADD DUP2 SWAP1 MSTORE PUSH1 0x24 DUP3 ADD MSTORE PUSH32 0x4C69766573747265616D206E6F7420666F756E64206F7220696E616374697665 PUSH1 0x44 DUP3 ADD MSTORE PUSH1 0x64 ADD PUSH2 0x6CC JUMP JUMPDEST PUSH1 0x0 DUP3 DUP2 MSTORE PUSH1 0x20 DUP2 SWAP1 MSTORE PUSH1 0x40 DUP2 KECCAK256 PUSH1 0x2 ADD DUP1 SLOAD PUSH1 0xFF NOT AND SWAP1 SSTORE JUMPDEST PUSH1 0x1 SLOAD DUP2 LT ISZERO PUSH2 0x1FAF JUMPI DUP3 PUSH1 0x1 DUP3 DUP2 SLOAD DUP2 LT PUSH2 0x1F18 JUMPI PUSH2 0x1F18 PUSH2 0x2598 JUMP JUMPDEST SWAP1 PUSH1 0x0 MSTORE PUSH1 0x20 PUSH1 0x0 KECCAK256 ADD SLOAD SUB PUSH2 0x1F9D JUMPI PUSH1 0x1 DUP1 SLOAD PUSH2 0x1F37 SWAP1 DUP3 SWAP1 PUSH2 0x262E JUMP JUMPDEST DUP2 SLOAD DUP2 LT PUSH2 0x1F47 JUMPI PUSH2 0x1F47 PUSH2 0x2598 JUMP JUMPDEST SWAP1 PUSH1 0x0 MSTORE PUSH1 0x20 PUSH1 0x0 KECCAK256 ADD SLOAD PUSH1 0x1 DUP3 DUP2 SLOAD DUP2 LT PUSH2 0x1F65 JUMPI PUSH2 0x1F65 PUSH2 0x2598 JUMP JUMPDEST PUSH1 0x0 SWAP2 DUP3 MSTORE PUSH1 0x20 SWAP1 SWAP2 KECCAK256 ADD SSTORE PUSH1 0x1 DUP1 SLOAD DUP1 PUSH2 0x1F82 JUMPI PUSH2 0x1F82 PUSH2 0x2641 JUMP JUMPDEST PUSH1 0x1 SWAP1 SUB DUP2 DUP2 SWAP1 PUSH1 0x0 MSTORE PUSH1 0x20 PUSH1 0x0 KECCAK256 ADD PUSH1 0x0 SWAP1 SSTORE SWAP1 SSTORE PUSH2 0x1FAF JUMP JUMPDEST DUP1 PUSH2 0x1FA7 DUP2 PUSH2 0x2548 JUMP JUMPDEST SWAP2 POP POP PUSH2 0x1EFA JUMP JUMPDEST POP PUSH1 0x40 MLOAD DUP3 SWAP1 PUSH32 0x799598B7447B0EB8C73A9499876BC1798CDF2A050595BAEED5C560A8722B278E SWAP1 PUSH1 0x0 SWAP1 LOG2 POP POP JUMP JUMPDEST PUSH1 0x0 PUSH1 0x20 DUP3 DUP5 SUB SLT ISZERO PUSH2 0x1FF1 JUMPI PUSH1 0x0 DUP1 REVERT JUMPDEST POP CALLDATALOAD SWAP2 SWAP1 POP JUMP JUMPDEST PUSH1 0x0 DUP2 MLOAD DUP1 DUP5 MSTORE PUSH1 0x0 JUMPDEST DUP2 DUP2 LT ISZERO PUSH2 0x201E JUMPI PUSH1 0x20 DUP2 DUP6 ADD DUP2 ADD MLOAD DUP7 DUP4 ADD DUP3 ADD MSTORE ADD PUSH2 0x2002 JUMP JUMPDEST POP PUSH1 0x0 PUSH1 0x20 DUP3 DUP7 ADD ADD MSTORE PUSH1 0x20 PUSH1 0x1F NOT PUSH1 0x1F DUP4 ADD AND DUP6 ADD ADD SWAP2 POP POP SWAP3 SWAP2 POP POP JUMP JUMPDEST DUP5 DUP2 MSTORE PUSH1 0x80 PUSH1 0x20 DUP3 ADD MSTORE PUSH1 0x0 PUSH2 0x2057 PUSH1 0x80 DUP4 ADD DUP7 PUSH2 0x1FF8 JUMP JUMPDEST SWAP4 ISZERO ISZERO PUSH1 0x40 DUP4 ADD MSTORE POP PUSH1 0x60 ADD MSTORE SWAP3 SWAP2 POP POP JUMP JUMPDEST DUP1 CALLDATALOAD PUSH1 0x1 PUSH1 0x1 PUSH1 0xA0 SHL SUB DUP2 AND DUP2 EQ PUSH2 0x2081 JUMPI PUSH1 0x0 DUP1 REVERT JUMPDEST SWAP2 SWAP1 POP JUMP JUMPDEST PUSH1 0x0 PUSH1 0x20 DUP3 DUP5 SUB SLT ISZERO PUSH2 0x2098 JUMPI PUSH1 0x0 DUP1 REVERT JUMPDEST PUSH2 0x20A1 DUP3 PUSH2 0x206A JUMP JUMPDEST SWAP4 SWAP3 POP POP POP JUMP JUMPDEST PUSH4 0x4E487B71 PUSH1 0xE0 SHL PUSH1 0x0 MSTORE PUSH1 0x41 PUSH1 0x4 MSTORE PUSH1 0x24 PUSH1 0x0 REVERT JUMPDEST PUSH1 0x0 DUP1 PUSH1 0x40 DUP4 DUP6 SUB SLT ISZERO PUSH2 0x20D1 JUMPI PUSH1 0x0 DUP1 REVERT JUMPDEST DUP3 CALLDATALOAD SWAP2 POP PUSH1 0x20 DUP4 ADD CALLDATALOAD PUSH8 0xFFFFFFFFFFFFFFFF DUP1 DUP3 GT ISZERO PUSH2 0x20F0 JUMPI PUSH1 0x0 DUP1 REVERT JUMPDEST DUP2 DUP6 ADD SWAP2 POP DUP6 PUSH1 0x1F DUP4 ADD SLT PUSH2 0x2104 JUMPI PUSH1 0x0 DUP1 REVERT JUMPDEST DUP2 CALLDATALOAD DUP2 DUP2 GT ISZERO PUSH2 0x2116 JUMPI PUSH2 0x2116 PUSH2 0x20A8 JUMP JUMPDEST PUSH1 0x40 MLOAD PUSH1 0x1F DUP3 ADD PUSH1 0x1F NOT SWAP1 DUP2 AND PUSH1 0x3F ADD AND DUP2 ADD SWAP1 DUP4 DUP3 GT DUP2 DUP4 LT OR ISZERO PUSH2 0x213E JUMPI PUSH2 0x213E PUSH2 0x20A8 JUMP JUMPDEST DUP2 PUSH1 0x40 MSTORE DUP3 DUP2 MSTORE DUP9 PUSH1 0x20 DUP5 DUP8 ADD ADD GT ISZERO PUSH2 0x2157 JUMPI PUSH1 0x0 DUP1 REVERT JUMPDEST DUP3 PUSH1 0x20 DUP7 ADD PUSH1 0x20 DUP4 ADD CALLDATACOPY PUSH1 0x0 PUSH1 0x20 DUP5 DUP4 ADD ADD MSTORE DUP1 SWAP6 POP POP POP POP POP POP SWAP3 POP SWAP3 SWAP1 POP JUMP JUMPDEST PUSH1 0x0 DUP2 MLOAD DUP1 DUP5 MSTORE PUSH1 0x20 DUP1 DUP6 ADD SWAP5 POP DUP1 DUP5 ADD PUSH1 0x0 JUMPDEST DUP4 DUP2 LT ISZERO PUSH2 0x21A9 JUMPI DUP2 MLOAD DUP8 MSTORE SWAP6 DUP3 ADD SWAP6 SWAP1 DUP3 ADD SWAP1 PUSH1 0x1 ADD PUSH2 0x218D JUMP JUMPDEST POP SWAP5 SWAP6 SWAP5 POP POP POP POP POP JUMP JUMPDEST PUSH1 0x0 DUP3 DUP3 MLOAD DUP1 DUP6 MSTORE PUSH1 0x20 DUP1 DUP7 ADD SWAP6 POP DUP1 DUP3 PUSH1 0x5 SHL DUP5 ADD ADD DUP2 DUP7 ADD PUSH1 0x0 JUMPDEST DUP5 DUP2 LT ISZERO PUSH2 0x21FF JUMPI PUSH1 0x1F NOT DUP7 DUP5 SUB ADD DUP10 MSTORE PUSH2 0x21ED DUP4 DUP4 MLOAD PUSH2 0x1FF8 JUMP JUMPDEST SWAP9 DUP5 ADD SWAP9 SWAP3 POP SWAP1 DUP4 ADD SWAP1 PUSH1 0x1 ADD PUSH2 0x21D1 JUMP JUMPDEST POP SWAP1 SWAP8 SWAP7 POP POP POP POP POP POP POP JUMP JUMPDEST PUSH4 0x4E487B71 PUSH1 0xE0 SHL PUSH1 0x0 MSTORE PUSH1 0x21 PUSH1 0x4 MSTORE PUSH1 0x24 PUSH1 0x0 REVERT JUMPDEST PUSH1 0x3 DUP2 LT PUSH2 0x2240 JUMPI PUSH4 0x4E487B71 PUSH1 0xE0 SHL PUSH1 0x0 MSTORE PUSH1 0x21 PUSH1 0x4 MSTORE PUSH1 0x24 PUSH1 0x0 REVERT JUMPDEST SWAP1 MSTORE JUMP JUMPDEST PUSH1 0x0 PUSH2 0x140 DUP1 DUP4 MSTORE PUSH2 0x2258 DUP2 DUP5 ADD DUP15 PUSH2 0x2179 JUMP JUMPDEST SWAP1 POP DUP3 DUP2 SUB PUSH1 0x20 DUP5 ADD MSTORE PUSH2 0x226C DUP2 DUP14 PUSH2 0x1FF8 JUMP JUMPDEST SWAP1 POP DUP3 DUP2 SUB PUSH1 0x40 DUP5 ADD MSTORE PUSH2 0x2280 DUP2 DUP13 PUSH2 0x21B4 JUMP JUMPDEST SWAP2 POP POP PUSH2 0x2290 PUSH1 0x60 DUP4 ADD DUP11 PUSH2 0x2222 JUMP JUMPDEST DUP8 PUSH1 0x80 DUP4 ADD MSTORE DUP7 PUSH1 0xA0 DUP4 ADD MSTORE DUP6 PUSH1 0xC0 DUP4 ADD MSTORE DUP5 PUSH1 0xE0 DUP4 ADD MSTORE DUP4 PUSH2 0x100 DUP4 ADD MSTORE DUP3 PUSH2 0x120 DUP4 ADD MSTORE SWAP12 SWAP11 POP POP POP POP POP POP POP POP POP POP POP JUMP JUMPDEST PUSH1 0x40 DUP2 MSTORE PUSH1 0x0 PUSH2 0x22D8 PUSH1 0x40 DUP4 ADD DUP6 PUSH2 0x2179 JUMP JUMPDEST DUP3 DUP2 SUB PUSH1 0x20 DUP5 ADD MSTORE PUSH2 0x22EA DUP2 DUP6 PUSH2 0x2179 JUMP JUMPDEST SWAP6 SWAP5 POP POP POP POP POP JUMP JUMPDEST PUSH1 0x20 DUP2 MSTORE PUSH1 0x0 PUSH2 0x20A1 PUSH1 0x20 DUP4 ADD DUP5 PUSH2 0x1FF8 JUMP JUMPDEST PUSH1 0x0 DUP1 PUSH1 0x40 DUP4 DUP6 SUB SLT ISZERO PUSH2 0x2319 JUMPI PUSH1 0x0 DUP1 REVERT JUMPDEST PUSH2 0x2322 DUP4 PUSH2 0x206A JUMP JUMPDEST SWAP5 PUSH1 0x20 SWAP4 SWAP1 SWAP4 ADD CALLDATALOAD SWAP4 POP POP POP JUMP JUMPDEST PUSH1 0x80 DUP2 MSTORE PUSH1 0x0 PUSH2 0x2343 PUSH1 0x80 DUP4 ADD DUP8 PUSH2 0x2179 JUMP JUMPDEST DUP3 DUP2 SUB PUSH1 0x20 DUP5 ADD MSTORE PUSH2 0x2355 DUP2 DUP8 PUSH2 0x21B4 JUMP JUMPDEST SWAP1 POP DUP3 DUP2 SUB PUSH1 0x40 DUP5 ADD MSTORE PUSH2 0x2369 DUP2 DUP7 PUSH2 0x2179 JUMP JUMPDEST SWAP1 POP DUP3 DUP2 SUB PUSH1 0x60 DUP5 ADD MSTORE PUSH2 0x237D DUP2 DUP6 PUSH2 0x2179 JUMP JUMPDEST SWAP8 SWAP7 POP POP POP POP POP POP POP JUMP JUMPDEST PUSH1 0x20 DUP2 ADD PUSH2 0x2396 DUP3 DUP5 PUSH2 0x2222 JUMP JUMPDEST SWAP3 SWAP2 POP POP JUMP JUMPDEST PUSH1 0x1 DUP2 DUP2 SHR SWAP1 DUP3 AND DUP1 PUSH2 0x23B0 JUMPI PUSH1 0x7F DUP3 AND SWAP2 POP JUMPDEST PUSH1 0x20 DUP3 LT DUP2 SUB PUSH2 0x23D0 JUMPI PUSH4 0x4E487B71 PUSH1 0xE0 SHL PUSH1 0x0 MSTORE PUSH1 0x22 PUSH1 0x4 MSTORE PUSH1 0x24 PUSH1 0x0 REVERT JUMPDEST POP SWAP2 SWAP1 POP JUMP JUMPDEST PUSH1 0x20 DUP1 DUP3 MSTORE PUSH1 0xD SWAP1 DUP3 ADD MSTORE PUSH13 0x496E76616C6964207374617465 PUSH1 0x98 SHL PUSH1 0x40 DUP3 ADD MSTORE PUSH1 0x60 ADD SWAP1 JUMP JUMPDEST PUSH1 0x20 DUP1 DUP3 MSTORE PUSH1 0x15 SWAP1 DUP3 ADD MSTORE PUSH21 0x125B9D985B1A59081B1A5D995CDD1C99585B481251 PUSH1 0x5A SHL PUSH1 0x40 DUP3 ADD MSTORE PUSH1 0x60 ADD SWAP1 JUMP JUMPDEST PUSH1 0x1F DUP3 GT ISZERO PUSH2 0x1CE0 JUMPI PUSH1 0x0 DUP2 DUP2 MSTORE PUSH1 0x20 DUP2 KECCAK256 PUSH1 0x1F DUP6 ADD PUSH1 0x5 SHR DUP2 ADD PUSH1 0x20 DUP7 LT ISZERO PUSH2 0x2453 JUMPI POP DUP1 JUMPDEST PUSH1 0x1F DUP6 ADD PUSH1 0x5 SHR DUP3 ADD SWAP2 POP JUMPDEST DUP2 DUP2 LT ISZERO PUSH2 0x1CDB JUMPI DUP3 DUP2 SSTORE PUSH1 0x1 ADD PUSH2 0x245F JUMP JUMPDEST DUP2 MLOAD PUSH8 0xFFFFFFFFFFFFFFFF DUP2 GT ISZERO PUSH2 0x248C JUMPI PUSH2 0x248C PUSH2 0x20A8 JUMP JUMPDEST PUSH2 0x24A0 DUP2 PUSH2 0x249A DUP5 SLOAD PUSH2 0x239C JUMP JUMPDEST DUP5 PUSH2 0x242C JUMP JUMPDEST PUSH1 0x20 DUP1 PUSH1 0x1F DUP4 GT PUSH1 0x1 DUP2 EQ PUSH2 0x24D5 JUMPI PUSH1 0x0 DUP5 ISZERO PUSH2 0x24BD JUMPI POP DUP6 DUP4 ADD MLOAD JUMPDEST PUSH1 0x0 NOT PUSH1 0x3 DUP7 SWAP1 SHL SHR NOT AND PUSH1 0x1 DUP6 SWAP1 SHL OR DUP6 SSTORE PUSH2 0x1CDB JUMP JUMPDEST PUSH1 0x0 DUP6 DUP2 MSTORE PUSH1 0x20 DUP2 KECCAK256 PUSH1 0x1F NOT DUP7 AND SWAP2 JUMPDEST DUP3 DUP2 LT ISZERO PUSH2 0x2504 JUMPI DUP9 DUP7 ADD MLOAD DUP3 SSTORE SWAP5 DUP5 ADD SWAP5 PUSH1 0x1 SWAP1 SWAP2 ADD SWAP1 DUP5 ADD PUSH2 0x24E5 JUMP JUMPDEST POP DUP6 DUP3 LT ISZERO PUSH2 0x2522 JUMPI DUP8 DUP6 ADD MLOAD PUSH1 0x0 NOT PUSH1 0x3 DUP9 SWAP1 SHL PUSH1 0xF8 AND SHR NOT AND DUP2 SSTORE JUMPDEST POP POP POP POP POP PUSH1 0x1 SWAP1 DUP2 SHL ADD SWAP1 SSTORE POP JUMP JUMPDEST PUSH4 0x4E487B71 PUSH1 0xE0 SHL PUSH1 0x0 MSTORE PUSH1 0x11 PUSH1 0x4 MSTORE PUSH1 0x24 PUSH1 0x0 REVERT JUMPDEST PUSH1 0x0 PUSH1 0x1 DUP3 ADD PUSH2 0x255A JUMPI PUSH2 0x255A PUSH2 0x2532 JUMP JUMPDEST POP PUSH1 0x1 ADD SWAP1 JUMP JUMPDEST DUP1 DUP3 ADD DUP1 DUP3 GT ISZERO PUSH2 0x2396 JUMPI PUSH2 0x2396 PUSH2 0x2532 JUMP JUMPDEST PUSH1 0x20 DUP1 DUP3 MSTORE PUSH1 0xA SWAP1 DUP3 ADD MSTORE PUSH10 0x4E6F74206F7261636C65 PUSH1 0xB0 SHL PUSH1 0x40 DUP3 ADD MSTORE PUSH1 0x60 ADD SWAP1 JUMP JUMPDEST PUSH4 0x4E487B71 PUSH1 0xE0 SHL PUSH1 0x0 MSTORE PUSH1 0x32 PUSH1 0x4 MSTORE PUSH1 0x24 PUSH1 0x0 REVERT JUMPDEST DUP1 DUP3 MUL DUP2 ISZERO DUP3 DUP3 DIV DUP5 EQ OR PUSH2 0x2396 JUMPI PUSH2 0x2396 PUSH2 0x2532 JUMP JUMPDEST PUSH1 0x0 DUP3 PUSH2 0x25E2 JUMPI PUSH4 0x4E487B71 PUSH1 0xE0 SHL PUSH1 0x0 MSTORE PUSH1 0x12 PUSH1 0x4 MSTORE PUSH1 0x24 PUSH1 0x0 REVERT JUMPDEST POP DIV SWAP1 JUMP JUMPDEST PUSH1 0x20 DUP1 DUP3 MSTORE DUP3 SLOAD DUP3 DUP3 ADD DUP2 SWAP1 MSTORE PUSH1 0x0 DUP5 DUP2 MSTORE DUP3 DUP2 KECCAK256 SWAP1 SWAP3 SWAP2 PUSH1 0x40 DUP6 ADD SWAP1 DUP5 JUMPDEST DUP2 DUP2 LT ISZERO PUSH2 0x2622 JUMPI DUP4 SLOAD DUP4 MSTORE PUSH1 0x1 SWAP4 DUP5 ADD SWAP4 SWAP3 DUP6 ADD SWAP3 ADD PUSH2 0x2606 JUMP JUMPDEST POP SWAP1 SWAP7 SWAP6 POP POP POP POP POP POP JUMP JUMPDEST DUP2 DUP2 SUB DUP2 DUP2 GT ISZERO PUSH2 0x2396 JUMPI PUSH2 0x2396 PUSH2 0x2532 JUMP JUMPDEST PUSH4 0x4E487B71 PUSH1 0xE0 SHL PUSH1 0x0 MSTORE PUSH1 0x31 PUSH1 0x4 MSTORE PUSH1 0x24 PUSH1 0x0 REVERT INVALID 0xBA 0xD0 KECCAK256 0xC4 0xDC 0x5E PUSH8 0xEC5B6EA36D7CC02 0xF8 MSTORE SSTORE SAR SWAP13 0xCC DIV TIMESTAMP SWAP1 0x28 0xAF PREVRANDAO SIGNEXTEND 0x4C PUSH29 0xE148A2646970667358221220E269E677762BEADCF478CC346CCD88DF46 0xC9 0xDF 0xC7 LOG4 0xD4 0x29 0xEE COINBASE PUSH18 0xFF369DA8632664736F6C63430008130033A2 PUSH5 0x6970667358 0x22 SLT KECCAK256 MUL SELFDESTRUCT 0xF9 SLOAD 0x2C SSTORE 0xBE PUSH24 0xCB67B4E8479882817D69D2083A367E5CDA66E048FD794EB2 PUSH5 0x736F6C6343 STOP ADDMOD SGT STOP CALLER "},"methodIdentifiers":{"addLivestreamToMarket(address,uint256,string)":"81b9052d","allMarkets(uint256)":"52d84d1e","createMarket(uint256[],string,string[])":"ba03c98a","getAllMarkets(uint256,uint256)":"47f234f6","getLivestreamsForMarket(address)":"2eb321af","getMarketCountForLivestream(uint256)":"0bdeb2a8","getMarketsForLivestream(uint256)":"d3601395","getTotalMarketCount()":"a0866e1f","isLivestreamInMarket(address,uint256)":"85b3259f","isValidMarket(address)":"58e6309f","livestreamMarkets(uint256,uint256)":"157e89d2","marketToLivestreams(address,uint256)":"c0880fcb","notifyMarketClosed(uint256[])":"abde02ee","owner()":"8da5cb5b","removeLivestreamFromMarket(address,uint256)":"259eedf1","transferOwnership(address)":"f2fde38b","validMarkets(address)":"adaf1c43"}}}}}